:020000040001F9
:10C00000105100208DC4010095C4010097C40100A7
:10C0100099C401009BC401009DC401000000000000
:10C020000000000000000000000000009FC40100AC
:10C03000A1C4010000000000A3C40100A5C40100C8
:10C04000A7C40100A7C401003DCE0100A7C40100A0
:10C05000A7C40100A7C4010059C50100A7C401007D
:10C06000A7C40100A7C40100A7C40100A7C4010020
:10C07000A7C40100A7C40100A7C40100A7C4010010
:10C08000A7C4010081C70100A7C40100A7C4010023
:10C09000B9CB0100A7C40100C1CB0100A7C40100B6
:10C0A000A7C40100A7C40100A7C40100A7C40100E0
:10C0B000A7C40100A7C401000000000000000000A8
:10C0C000A7C40100A7C40100A7C40100A7C40100C0
:10C0D000A7C40100A7C40100A7C40100000000001C
:10C0E0000000000000000000000000000000000050
:10C0F0000000000000000000000000000000000040
:10C10000000000000000000000000000000000002F
:10C11000000000000000000000000000000000001F
:10C40000DFF80CD000F096F800480047390E020023
:10C4100010510020401E00BF00BF00BF00BF00BF82
:10C4200000BF00BF00BF00BF00BF00BF00BF00BF14
:10C4300000BF00BF00BF00BF00BF00BF00BF00BF04
:10C4400000BF00BF00BF00BF00BF00BF00BF00BFF4
:10C4500000BF00BF00BF00BF00BF00BF00BF00BFE4
:10C4600000BF00BF00BF00BF00BF00BF00BF00BFD4
:10C4700000BF00BF00BF00BF00BF00BF00BF00BFC4
:10C4800000BF00BF00BFC5D170470000064880470D
:10C4900006480047FEE7FEE7FEE7FEE7FEE7FEE7A9
:10C4A000FEE7FEE7FEE7FEE709CC010001C401005C
:10C4B00040EA01039B0703D009E008C9121F08C026
:10C4C000042AFAD203E011F8013B00F8013B521EA6
:10C4D000F9D27047D2B201E000F8012B491EFBD21D
:10C4E00070470022F6E710B513460A46044619467F
:10C4F000FFF7F0FF204610BD421C10F8011B002979
:10C50000FBD1801A704730B504460020034600E096
:10C510005B1C934203D2E05CCD5C401BF8D030BD85
:10C52000034611F8012B00F8012B002AF9D1184617
:10C5300070470000064C074D06E0E06840F001033C
:10C5400094E8070098471034AC42F6D3FFF75CFF3D
:10C550007C3002009C3002002DE9F04F87B00027AC
:10C56000BA464FF4807006900125002412E0069828
:10C5700004F0B8FE40B100BF60480068284018B120
:10C58000069804F0A1FE2F436D000698001D80B2AE
:10C590000690641C082CEAD34FF4BE7004F0A2FE8F
:10C5A00048B14FF4BE7004F08FFE47F0004700BF63
:10C5B000534800688246F8B2F8B1012500241AE019
:10C5C00005EA0700A8B100BF4E4850F82400C0F3A8
:10C5D0000420064600BF4B4850F82400C0F3014039
:10C5E0008046204602F000FB814641463046C8475F
:10C5F00000BF6D00641C082CE2D307F00040002847
:10C6000079D04FF0000B00200590401E049000BF31
:10C610004FF0000B002457E03B48005D0390039867
:10C6200020F0C00638480057401C00284BD001209D
:10C63000B04004990840002845D003984FEA90196B
:10C64000304602F019FB804602F0CEFA02900298C2
:10C6500010B9B9F1030F35D1012000FA06F5B9F18F
:10C66000030F02D105982843059000BF274850F8D2
:10C670002600C0F3014800BF05EA0A0010B1B8F176
:10C68000020F05D005EA0A00D8B9B8F1030F18D196
:10C69000B9F1030F0FD1B8F1020F01D1032000E06F
:10C6A000022001903046019904F0F6FD0BF10100E3
:10C6B00000F0FF0B00BF029818B149463046029ABD
:10C6C000904700BF00BF641C042CA5D3BBF1000F32
:10C6D0000DD000BF0A4909680846504503D14FF004
:10C6E000000B03E007E082460599049100BFBBF10F
:10C6F000000F8DD100BF07B0BDE8F08F046300408C
:10C700001005005010650040C426002000070050AE
:10C7100000F01F0201219140024A430942F8231010
:10C720007047000080E200E000F01F02012191400C
:10C730004209920002F1E022C2F8001170470000A5
:10C7400000F01F0201219140024A430942F82310E0
:10C750007047000000E200E010B5002807DA4A0741
:10C76000140E054A00F00F031B1FD45403E04A07C0
:10C77000130E024A135410BD18ED00E000E400E06F
:10C7800010B500200949086000210948C0F844118B
:10C79000C0F84811C0F84C1100200549C1F800014B
:10C7A00002493C39086006F063F810BD40110140B1
:10C7B000001001402DE9F04704460E461746984602
:10C7C000DDF8209000BF1F48007808B900F042FB58
:10C7D00000BF1C484069A0422ED900BF0CB304EB37
:10C7E00044011848483040F8316004EB440100EB44
:10C7F000C100476004EB44011248483000EBC1001F
:10C80000C0F80880002104EB44020E48483000EBD9
:10C81000C200016104EB44020A48483000EBC20048
:10C82000C16004EB44010748483000EBC100C0F888
:10C83000149000BF002501E04FF0FF352846BDE809
:10C84000F0870000943000202DE9F04704460E46A2
:10C8500017469846DDF8209000BF1F48007808B9B9
:10C8600000F0F8FA00BF1C480069A0422ED900BFB2
:10C870000CB304EB44011848183040F8316004EB65
:10C88000440100EBC100476004EB4401124818303A
:10C8900000EBC100C0F80880002104EB44020E4800
:10C8A000183000EBC200016104EB44020A48183062
:10C8B00000EBC200C16004EB44010748183000EBF4
:10C8C000C100C0F8149000BF002501E04FF0FF3513
:10C8D0002846BDE8F0870000943000202DE9F041A3
:10C8E00004460D46164600BF0848007808B900F017
:10C8F000B1FA00BF00BF32462946204600F008F8D2
:10C90000074600BF3846BDE8F081000094300020A3
:10C910002DE9F047074688461646C24607EB470111
:10C920001B4800EBC109D9F8140020B1012811D02F
:10C93000022826D11EE0484600F0C4FA0546B5425A
:10C9400001D2002405E0344632465146484600F004
:10C950000EFC18E0484600F0B5FA0546B54201D293
:10C96000284600E03046044622465146484600F03C
:10C97000FEFB08E032465146484600F0BFFB044645
:10C9800001E0002400BF00BF2046BDE8F0870000A2
:10C99000AC30002070B505460C462046FFF7ACFDD4
:10C9A0000646324621462846FFF798FF70BD2DE91E
:10C9B000F04F99B082460D46144603A814904020CB
:10C9C000159000201690CDF860A0179000BF2E782B
:10C9D0006D1C06B9DDE0252E79D100274FF0010945
:10C9E00000BF2E78232E12D02B2E0CD02D2E02D04D
:10C9F000302E10D103E047F001076D1C0EE047F028
:10CA000002076D1C0AE047F004076D1C06E047F0C2
:10CA100008076D1C02E04FF0000900BF00BFB9F12C
:10CA2000000FDED14FF0000800BF2E78302E01DB62
:10CA3000392E00DD07E06D1CA6F1300008EB8801FF
:10CA400000EB4108F1E700BF002013902E782E2E56
:10CA500012D16D1C00BF2E78302E01DB392E00DD87
:10CA600009E06D1CA6F13000139901EB810100EB88
:10CA700041001390EFE700BF2E7800BF6C2E01D06D
:10CA8000682E02D12E786D1C00E000E0F6E700BFB2
:10CA9000702E5DD008DC252E6AD0582E35D0632E3E
:10CAA00009D0642E69D113E0732E3CD0752E1DD0B1
:10CAB000782E62D128E02168081D2060D1F800900E
:10CAC00009F0FF0B594614A800F0F6FA56E058E0BA
:10CAD0002168081D2060D1F80090CDE900870A2266
:10CAE000494614A8139B00F0FBF947E02168081D94
:10CAF0002060D1F80090CDE900870A22494614A8A9
:10CB0000139B00F063FA39E000BF2168081D206024
:10CB1000D1F80090CDE900871022494614A8139B54
:10CB200000F054FA2AE02168081D2060D1F800B016
:10CB300000BF9BF800600BF1010B06B906E031461F
:10CB400014A800F0B9FA17980028F2DA00BF15E02F
:10CB50002168081D2060D1F80090002008210B46B4
:10CB60001022CDE90010494614A800F02FFA05E084
:10CB7000252114A800F0A0FA00E000BF00BF6D1C42
:10CB800003E0314614A800F097FA17980028BFF682
:10CB90001EAF00BF179800280ADD169820B103A920
:10CBA0005046169AFFF79AFEDDE9161008441790D2
:10CBB000179819B0BDE8F08F10B505F071FD10BDE4
:10CBC00070B50B48006880B109480068804704468A
:10CBD00000BF25463DB100BF064A4FF4B371284659
:10CBE00000F0D3FC00BF00BF01E003F009FF70BDFF
:10CBF0005821002024300200014802490860704793
:10CC00000090D0037021002010B503F03DFB10B15F
:10CC10007D487E49486703F04FFB28B17C48006897
:10CC2000C0F342307B49086003F070FB28B17A48BA
:10CC3000006820F080707849086003F07FFB48B1FD
:10CC40000020764908604FF08041C1F81001714919
:10CC5000091F086003F09CFB18B103206D49643183
:10CC6000086003F0ADFB68B105206D490860012044
:10CC70006B497831086000206949083108603F201D
:10CC8000091F086003F0B4FB002855D06548006810
:10CC9000654908606348001D0068091D0860614817
:10CCA00008300068091D08605E480C300068091DE6
:10CCB00008605C4810300068091D0860594814304D
:10CCC0000068091D0860574818300068564920312F
:10CCD000086054481C300068091D08605148203025
:10CCE0000068091D08604F4824300068091D08606D
:10CCF0004C4828300068091D08604A482C300068FC
:10CD0000091D0860474830300068474940310860D5
:10CD1000444834300068091D0860424838300068D3
:10CD2000091D08603F483C300068091D08603D4807
:10CD300040300068091D086037487438006840F4C6
:10CD4000700035497439086000BF00BF00BFBFF3F1
:10CD50004F8F00BF00BF00BF00BF00BF00BFBFF3C9
:10CD60006F8F00BF00BF00BF3048006800F0004078
:10CD700030B92E48001D006800F00040002840D067
:10CD800001202B49086000BF2A4800680028FBD01A
:10CD900015202649086000BF264800680028FBD0FF
:10CDA00015212248001D016000BF224800680028AC
:10CDB000FBD000201E49086000BF1E480068002804
:10CDC000FBD000BF00BF00BF00BF00BFBFF34F8F4D
:10CDD00000BF00BF00BF1048F038006800F4E060FA
:10CDE00015490843001D0C49F039086000BF00BF19
:10CDF00000BFBFF34F8F00BF00BF00BF00BF00BF29
:10CE0000FDE7FFF7F9FE10BD0DF0ADBA00C0074019
:10CE1000440200103C050040FCED00E00C01004025
:10CE2000105600400404001020C5004000120010FD
:10CE300004E5014000E401400000FA0510B5044893
:10CE4000007F10B105F0A8FE01E005F0F5FD10BD72
:10CE5000CC26002010B5124C02202061606111A088
:10CE6000A0611349E1614FF4806121620021A16258
:10CE70006162E1620BA0A0640E49E16410212165AA
:10CE80000021A1656165E1650BA1E01DFFF748FB8D
:10CE90000AA12046FFF744FB2020A07110BD00002E
:10CEA000943000205465726D696E616C0000000062
:10CEB000842C0020843000205254540053454747AE
:10CEC0004552000010B501460A69CB689A4204D861
:10CED0008C68641EE41AA01801E0D41A601E10BD0C
:10CEE0002DE9FC5F06460F4692469846DDE90C4563
:10CEF000002F01DA784200E0384683464FF00109FE
:10CF000003E09BFBFAFB09F10109D345F9DAC845B7
:10CF100000D9C14634B1002F03DB05F0040004281A
:10CF200000D1641E05F0020010B1B8F1000F11D05D
:10CF300005F0010070B96CB108E0641E2021304694
:10CF400000F0BAF8F068002800DA02E00CB1A14560
:10CF5000F3D300BFF068002836DB002F05DA7F42EC
:10CF60002D21304600F0A8F807E005F00400042861
:10CF700003D12B21304600F09FF8F068002823DB16
:10CF800005F00200022814D105F0010088B9B8F1BB
:10CF9000000F0ED16CB108E0641E3021304600F065
:10CFA0008BF8F068002800DA02E00CB1A145F3D359
:10CFB00000BFF068002807DB43465246394630463A
:10CFC000CDE9004500F002F8BDE8FC9F2DE9FC5FCB
:10CFD0008046894615461E460C9CCDF804900127D4
:10CFE000BB4605E00198B0FBF5F001900BF1010B99
:10CFF0000198A842F6D25E4500D9B3460D9800F0DC
:10D000000100D0B9CCB10D9800F00200022803D184
:10D0100016B93020009001E02020009009E0641E45
:10D020004046009900F048F8D8F80C00002800DAD3
:10D0300002E00CB1A345F2D300BFD8F80C000028E1
:10D0400035DB09E0012E01D9761E04E0B9FBF7FAC1
:10D05000AA4500D201E06F43F4E700BF00BFB9FB6F
:10D06000F7FA0AFB1799134810F80A10404600F027
:10D0700023F8D8F80C00002800DA03E0B7FBF5F736
:10D08000002FECD100BF0D9800F0010078B174B111
:10D0900009E0641E2021404600F00EF8D8F80C008C
:10D0A000002800DA02E00CB1A345F2D300BFBDE8CE
:10D0B000FC9F0000C82F020070B504460E46A5680C
:10D0C000681C6168814206D320684655681CA060D0
:10D0D000E068401CE060D4E9011088420DD1A268EC
:10D0E00021682069FFF7FAFBA168884203D04FF05E
:10D0F000FF30E06001E00020A06070BD2DE9F04746
:10D100000446894617464FF0000AE56800BFD4F888
:10D110001080A84503D9A8EB0500461E04E0A5EB46
:10D120000800401CA1680E1AA068401BB04201D93B
:10D13000304601E0A068401B0646BE4201D23046A0
:10D1400000E0384606466168481932464946FFF70E
:10D15000AFF9B244B144BF1B3544A068A84200D126
:10D160000025E560002FD2D15046BDE8F0872DE9BB
:10D17000F047044689461546E668A068871BAF421B
:10D1800008D9616888192A464946FFF791F970194C
:10D19000E06010E0B8466168881942464946FFF7EA
:10D1A00087F9A5EB070809EB070142466068FFF71E
:10D1B0007FF9C4F80C80BDE8F08702E008C8121FB0
:10D1C00008C1002AFAD170477047002001E001C170
:10D1D000121F002AFBD170472DE9FC410446884606
:10D1E00016460025378800203080606B68B1616B7F
:10D1F00008783B463246414604F06CFE054600BFC7
:10D2000015B12846BDE8FC8100BF206B58B13B46F4
:10D2100032464146206B05F09DFB054600BF0DB12F
:10D220002846EFE700BF94F82E0060B194F82E0076
:10D230003B463246414603F0A9FC054600BF0DB10E
:10D240002846DFE700BF94F82D0050B13A4631463A
:10D25000404600F09EFE054600BF0DB12846D1E7CE
:10D2600000BFA07850B13A463146404600F0DEFAA1
:10D27000054600BF0DB12846C4E700BFE07860B1A5
:10D28000E17848B23B463246414603F0F5F80546A0
:10D2900000BF0DB12846B5E700BF606868B161689E
:10D2A00091F900003B463246414605F0A9FB054690
:10D2B00000BF0DB12846A5E700BF208900280EDD7C
:10D2C00043460622022104F10800CDE9006705F07B
:10D2D0009BFD054600BF0DB1284693E700BF208A9D
:10D2E00000280EDD43460722032104F11000CDE99A
:10D2F000006705F089FD054600BF0DB1284681E7AE
:10D3000000BF208B00280EDD43461522142104F1B6
:10D310001800CDE9006705F077FD054600BF0DB1A7
:10D3200028466FE700BF206A58B13B463246414667
:10D33000206A01F090FE054600BF0DB1284661E766
:10D3400000BF606A58B13B4632464146606A03F00E
:10D35000B1FD054600BF0DB1284653E700BF94F864
:10D360002C0000280BDD3B4632464146204604F0A7
:10D37000CCFD054600BF0DB1284643E700BF20782D
:10D3800058B13B4632464146204603F0CEFD0546A5
:10D3900000BF0DB1284635E700BF284632E70146F9
:10D3A000C87800F0040008B9072070470020FCE7A7
:10D3B00010B501220221002001F010F8044600BF40
:10D3C0001CB1072C01D0204610BD00BF072202214E
:10D3D000012001F003F8044600BF1CB1072C01D066
:10D3E0002046F1E700BF0A220021084600F0F6FFC0
:10D3F000044600BF1CB1072C01D02046E4E700BF63
:10D400000020E1E730B599B038210BA8FFF769F8A3
:10D4100002208DF82C0006208DF82F00242102A870
:10D42000FFF75FF801208DF814004FF49670069016
:10D43000B420079000200B4B02AA014600900BA8D5
:10D4400000F068FA044600BF25463DB100BF06A2C1
:10D450004FF4EE71284600F098F800BF00BF19B0F5
:10D4600030BD0000711302002E2E5C2E2E5C2E2E7D
:10D470005C6D61696E2E6300014600BF064A10684C
:10D4800004228243044B1B1D1A6000F004021B1D82
:10D490001A6000BF704700000405005010B500245A
:10D4A00007E00749096811F83400012103F0D8FDAD
:10D4B000641C044800788442F3D3002010BD0000AF
:10D4C0001C210020202100202DE9F84306460C46AF
:10D4D0001746052F02D20720BDE8F88303F0C0FEEF
:10D4E00038B903F093FE054600BF0DB12846F3E7B7
:10D4F00000BF1648066016480470164807600020F2
:10D50000154908601549086015E006EBC408144881
:10D510000068009098F802008DF8010098F800006B
:10D52000104A694603F0F8FD054600BF0DB12846D4
:10D53000D2E700BF00BF201EA4F10101CCB2E4D1AC
:10D54000094A0021094800F0B1F8C5E71C21002074
:10D550002021002024210020282100202C2100202F
:10D56000C42F02001909020065F30100C02F020058
:10D5700070B504460D4616460C2000F05BFF32469F
:10D580002946204600F012F870BDFEB504460E464E
:10D590001546B0B2ADF80000019502946A4600212C
:10D5A00044F20100FFF7E4FFFEBD000018B50123BF
:10D5B00000939DF800301E4B186059609A606FF41C
:10D5C0008043034463B1012B19D1194BDA60DB6846
:10D5D0001B88174CA3612346DB685B68E3610EE0A0
:10D5E000134B1A611B699B68114C636123461B69CD
:10D5F0001B88A36123461B695B68E36100BF00BF12
:10D600000B4B1B680A4B5B68094B9B68084BDB683C
:10D61000074B1B69064B5B69054B9B69044BDB6938
:10D6200072B600BF9DF80030002BFBD162B618BD6A
:10D63000F02700202DE9F04104460D461646044827
:10D640000768324629462046B847BDE8F081000009
:10D6500050260020F8B505460C462778A06800EB58
:10D660004000064951F820600548006800902A46AD
:10D67000394604F108002369B047F8BDB8270020F7
:10D680001421002010B504460748007800EB800202
:10D690000548001D00EB82012046FFF7DBFF042058
:10D6A00004F0B2FC10BD0000EC26002010B50346CB
:10D6B0000C4600BF0B48006808B9082010BD00BF29
:10D6C0000AB90720FAE70BB90720F7E71868007CCA
:10D6D00008B10820F2E71968002008744C744A6108
:10D6E00000BFEBE7342100202DE9F04180460E46D3
:10D6F00014461F46204600F0030109B9012100E04D
:10D70000002111B90720BDE8F08124B900201D498E
:10D7100008600720F7E704F02DFB1B480760032093
:10D720001A49087017480460183400250DE015499F
:10D73000096801EBC50000210170417086704460EA
:10D7400006EB460104EBC1046D1C032DEFDB00204A
:10D750000F4908600F4908700F4908701420FEF740
:10D76000D7FF06211420FEF7F7FF1420FEF7DCFF99
:10D77000404604F0D5FA04F0CDFA084908600020CC
:10D78000C1E70000342100204C210020302100207E
:10D790003821002048210020492100203C21002080
:10D7A0002DE9F84304460D461746264600BF1148AA
:10D7B000006810B90820BDE8F88300BF0CB9082044
:10D7C000F9E7052D01D20720F5E7706908B90820AF
:10D7D000F1E7707C012801D1284600E00020804656
:10D7E00005F0CCFA814643462A463146009704F0BC
:10D7F000F1FFE0E73421002070B50446254600BF64
:10D800000948006808B9082070BD00BF0CB16869FC
:10D8100008B90820F8E70020287405F0AFFA06469A
:10D82000294605F005F8EFE734210020F8B5054654
:10D830000C4617462088001DB84201D90C20F8BDBF
:10D84000684679DF064600BF0EB13046F7E700BFF5
:10D850000320218868542088401C208019202188BA
:10D8600068542088401C208020884119BDF80000A1
:10D8700005F028FA2188084420800020DFE72DE900
:10D88000F04192B080460D461F2011901090B8F1E3
:10D89000000F17D04046FFF782FD044600BF1CB1C1
:10D8A000204612B0BDE8F08100BF11AA08A9404689
:10D8B000FFF792FC044600BF0CB12046F1E700BF21
:10D8C00008AE02E0002600201190ADB1284604F019
:10D8D0009BFC044600BF0CB12046E2E700BF10AA43
:10D8E00069462846FFF778FC044600BF0CB1204685
:10D8F000D7E700BF6F4602E0002700201090BDF878
:10D900004000C3B2BDF84400C1B23A46304672DFAF
:10D91000C7E700002DE9F04704460F4615461E46AE
:10D92000DDF8208000BF14B90E20BDE8F08700BFED
:10D9300000BF0DB90E20F8E700BF0020464908706F
:10D94000464806604648C0F80080242229464548DB
:10D95000FEF7AEFD00F03EF94348444908604448F4
:10D96000886038214348FEF7BCFD207841490870A3
:10D97000A0788870E078C870607848700846D4E96C
:10D980000412C0E90412D4E90212C0E90212D4E977
:10D990000612C0E90612606AD8B1374835494862B4
:10D9A00036498160606A00883249496A0880606A45
:10D9B00080883049496A8880002005E0616A89686A
:10D9C000095C2E4A1154401C2A49496A89888142BF
:10D9D000F4D8A06A20B32A492A4881602549886280
:10D9E00027492448806A8160A06A80882149896A21
:10D9F0008880A06A00881F49896A0880002005E0A5
:10DA0000A16A8968095C1E4A1154401C1949896A37
:10DA100089888142F4D894F82C00164981F82C00AA
:10DA2000206A58B1184813490862206A4088096A78
:10DA30004880206A00880F49096A0880606820B120
:10DA400012480C4948606068486039460948FFF749
:10DA500016FF8146484668E7BC200020B42000201D
:10DA6000B82000201C240020502400204024002046
:10DA700070240020E4230020902400209C24002017
:10DA8000C8240020BC240020C0200020C420002086
:10DA900070B504462088102804D0112809D01B280E
:10DAA00063D11BE0A07D012802D1A0883049088005
:10DAB0005CE000202F490870A0882D490988884221
:10DAC0000BD1012000F0CAF8054635B12A4800689C
:10DAD00018B1284628490968884747E0207A002875
:10DAE00042D126480078012806D0022811D0032808
:10DAF0001CD0042836D129E0022000F0AFF80546FA
:10DB000035B11D48006818B128461B490968884787
:10DB100029E0032000F0A2F8054635B11648006858
:10DB200018B128461449096888471CE003201449A5
:10DB30000870042000F092F8054635B10E480068E0
:10DB400018B128460C49096888470CE000200C49A8
:10DB500008700C48006820B1084600780949096837
:10DB6000884700E000BF00BF00E000BF00BF70BDFD
:10DB7000C6200020BD200020B8200020BC200020AE
:10DB8000B0200020B420002070B504460025022CEF
:10DB900002D0032C15D100E000BF0B48007878B10B
:10DBA0000020094908700948007800F057F8054638
:10DBB00035B10748006818B1284605490968884703
:10DBC00000E000BF00BF70BDA8200020BC200020E6
:10DBD000B8200020024800210160818081717047D7
:10DBE000A920002010B518480078012829D117482D
:10DBF000007830BB1648007830B174DF044600BFAF
:10DC00000CB1204610BD00BF01201049087006204D
:10DC10001049C87000210F48FFF731FE044600BFCD
:10DC20000CB12046EEE700BF0948007800F016F876
:10DC3000044634B10848006818B12046064909680E
:10DC400088470020DEE700001C240020BD200020C3
:10DC5000BC200020E4230020B820002030B587B08D
:10DC600005469548057002F022FC28B10120934931
:10DC70000870002007B030BDFFF7ACFF9048407837
:10DC800018B18D48007801280DD08D48807818B1E2
:10DC900089480078012806D08948807888B186486C
:10DCA000007802280DD18748006838B101208649E4
:10DCB0000870082083490968884702E000208249EB
:10DCC00008707D480078012809D17D48407818B156
:10DCD0007E4803F033FC10B902207749087076487B
:10DCE0000078022809D17648807818B1774803F087
:10DCF00025FC10B90320704908707148007B30B9C9
:10DD00006D480078032802D104206B4908706C48E4
:10DD1000007E40B968480078042804D10020664994
:10DD200008706B49087067480068A8B162480078BD
:10DD3000032803D06048007804280DD1604800789B
:10DD400050B16448007838B9012063490870072051
:10DD50005C490968884702E000205F490870182183
:10DD600001A8FEF7BEFB00208DF8040002908DF89C
:10DD70000C00049050480078012806D0022813D0E7
:10DD8000032825D0042876D150E05048401E029048
:10DD900001208DF804000020ADF81600ADF8140045
:10DDA00001204B49087071E04848401E0290012054
:10DDB0008DF804004248008980B2ADF81600404852
:10DDC000808880B2ADF814000220414908705DE0FF
:10DDD0003B48808A80B2ADF816003948008A80B28C
:10DDE000ADF814003D4805F0A4F8D8B134480078E7
:10DDF000C0B138480078A8B902208DF80C00374827
:10DE0000049004203649C87000213548FFF737FDDB
:10DE1000044600BF0CB120462CE700BF05202C496A
:10DE2000087002E003202A4908702FE02448808B04
:10DE300080B2ADF814002248008C80B2ADF8160014
:10DE4000264805F076F8E0B11D480078C8B12148B1
:10DE50000078B0B902208DF80C002048049004200E
:10DE60001F49C87000211E48FFF709FD044600BF86
:10DE700014B12046FEE608E000BF062014490870F1
:10DE800002E004201249087000E000BF00BF0A4809
:10DE9000007838B101A873DF044600BF0CB12046FA
:10DEA000E8E600BF0748006820B109480078054946
:10DEB000096888470020DDE6BC200020A82000205B
:10DEC0001C240020B4200020BF200020AA20002015
:10DED000B0200020BD200020BE20002040240020D3
:10DEE000E423002070B505461C2229461248FEF79F
:10DEF000DFFA002011490870286850B110482968DD
:10DF00000A680260496841607ADF04463CB12046F5
:10DF100070BD0B487BDF04460CB12046F8E74FF696
:10DF2000FF7008490880002007490870074A00214F
:10DF30000748FFF7BBFBEBE7E8240020DC200020CC
:10DF4000C8200020D2200020D0200020ED2C02008C
:10DF5000602F020010B504462088102806D0112832
:10DF600008D012280ED0502810D107E0204603F028
:10DF70007DFA0CE0204603F095FA08E0204603F015
:10DF8000B1FA04E0204603F065FA00E000BF00BFEC
:10DF900010BD2DE9FC4105460C4617462088093086
:10DFA000B84202D90C20BDE8FC81684671DF064604
:10DFB00000BF0EB13046F6E700BF08202188685444
:10DFC0002088401C20801B20218868542088401C09
:10DFD000208020882844DDF801100160BDF805107C
:10DFE00081802088801D20809DF8000018B90020C5
:10DFF0002188685402E00120218868542088401C50
:10E0000020800020CFE710B50446204601F078FBC1
:10E010002046FFF79FFF204600F0D0F8204603F08F
:10E02000CBF92046FFF734FD10BD000070B586B077
:10E0300037480068059000BF00234822354905A8ED
:10E0400004F09AF8054600BF2E463EB100BF32A24A
:10E0500040F249113046FFF798FA00BF00BF00BFF9
:10E060006A460121002004F067F8044600BF2546F7
:10E070003DB100BF28A240F24F112846FFF785FAB4
:10E0800000BF00BF00BF284E304603F0D9FE044653
:10E0900000BF25463DB100BF1FA24FF4A97128461D
:10E0A000FFF773FA00BF00BF00BF684603F0C2FF6E
:10E0B000044600BF25463DB100BF17A24FF4AB7127
:10E0C0002846FFF762FA00BF00BF184803F0A6FF1A
:10E0D000044600BF25463DB100BF0FA24FF4AD710D
:10E0E0002846FFF752FA00BF00BF114804F080F83D
:10E0F000044600BF25463DB100BF07A24FF4AF71F3
:10E100002846FFF742FA00BF00BF06B070BD00000E
:10E11000442F02003C2300202E2E5C2E2E5C2E2E3F
:10E120005C6D61696E2E6300E81F002007E001004E
:10E13000A12502007CB50446A1786A460D4803F08B
:10E1400099FA0546ADB96178C1EBC1010A4A02EB03
:10E1500081001C231A46694603F0CAFB054607489E
:10E16000807A074951F820202146684690470546A5
:10E1700000BF7CBDE02000200426002050260020A7
:10E18000742F020070B505460C460026094805604C
:10E1900044B1204604F03FF8064600BF0EB13046B9
:10E1A00070BD00BF0448006810B9FFF701F90646CA
:10E1B0003046F5E7A0200020A420002070B50546D9
:10E1C0002888102802D011282CD115E017480068A3
:10E1D00060B901F001F8044600BF34B1144800688A
:10E1E00018B1204612490968884700BF0F480068E7
:10E1F000401C0E49086016E00C480068401E0B49A0
:10E2000008600846006860B9FFF7D2F8044600BF0E
:10E2100034B10748006818B12046054909688847A5
:10E2200000BF00E000BF00BF70BD0000A4200020C0
:10E23000A020002010B5032000F03AFC044600BFE7
:10E240001CB1062C01D0204610BD00BF0020FBE70A
:10E250002DE9F04105460F464FF00008002400E08C
:10E26000641C24B92A4850F82400A842F8D1002C94
:10E2700041D127B3012F02D0022F3BD133E004EB71
:10E280004400244911F8008004EB4400084440781D
:10E2900068B12148006800EB800041001F4A204817
:10E2A0000068FFF77DFA06460EB91C48057004EBBE
:10E2B00044001849084480781A4908551AE018485B
:10E2C0000068FFF799FA1748005D04EB4401114A12
:10E2D00011448978884205D104EB44001146084472
:10E2E00090F8028006E004EB44000A49084490F8E4
:10E2F000018000BF00BFB8F1000F06D00A480068D7
:10E3000018B14046084909688847BDE8F081000017
:10E31000542F020098200020882000209B200020FD
:10E32000502F02009C2000209420002010B50246AF
:10E3300072B9094B1B68D843084B13F822400123DC
:10E34000A34003400BB1012300E000230B7001E068
:10E3500000200870002010BD10050050542F02004E
:10E3600070B50546042D06D0072D18D00A2D28D1EA
:10E3700003F016FE26E013211348008876DF0446DA
:10E38000082C0BD000BF26463EB100BF0FA240F2C2
:10E3900073113046FFF7F9F800BF00BF12E0FFF736
:10E3A00021FC0446082C0BD000BF26463EB100BF1E
:10E3B00006A240F27B113046FFF7E7F800BF00BF2E
:10E3C00000E000BF00BF70BD822000202E2E5C2E1A
:10E3D0002E5C2E2E5C6D61696E2E630030B5034697
:10E3E00000201BBB012A07D1012903D103F10D0431
:10E3F000E4B200E00024224679B1012902D00229CA
:10E4000011D104E003EB4304094D2A550DE003EB61
:10E410004304074D2C44627007E003EB4304044DB2
:10E420002C44A27001E0072000BF00E0072030BDAF
:10E430009820002070B5044600250548007800F0BB
:10E44000010018B1204600F06DF80546284670BD61
:10E450008C2000202DE9F04105460E469046002410
:10E4600025480660254805602548C0F8008005F06D
:10E470000200F0B1002706E0012211463846FFF7FE
:10E48000ADFF04467F1C0FB9002CF5D02CB97208E3
:10E4900001211C48FFF718F8044614B9FEF7FEFFE7
:10E4A00004462CB9184A00211848FFF7FFF8044623
:10E4B00000BF05F0010068B100BF44F20400144938
:10E4C00008600020091D086000BF44F204001049E4
:10E4D000103108602CB90F4A00210F48FFF7E6F809
:10E4E00004462CB90D4A01210D48FFF7DFF8044618
:10E4F0002046BDE8F0810000882000208C2000200C
:10E5000094200020582F020001EB0100502F020040
:10E5100008050050F90B0200482F020079D40100D1
:10E520004C2F02002DE9F041044600260025182C4E
:10E530007ED2DFE804F00C1E1F69B5EFEEEDECEBC8
:10E54000EAE9E8E7E6E5E4E3E2E1E0DFDEDD00BF9B
:10E55000FB48016844F20400884344F20401084087
:10E56000F84908600020091D086000BFF6480470E3
:10E5700090E200BF00BFF24801680420884344F2E3
:10E5800004010840EF4908600020091D086000BF31
:10E59000EC48001F006844F20401484000F4804049
:10E5A00080B100BF081FE74908600020091D08600E
:10E5B00000BF022C02D14FF4E16001E04FF47A6019
:10E5C000054610E000BF4FF48040DE49091D086099
:10E5D0000020091F086000BF022C01D1C82001E003
:10E5E0004FF4C8700546D84804706420B5FBF0F0BD
:10E5F000D649096800FB01F700223946D448006873
:10E60000FFF7CEF8064645E200BFCD48016804207A
:10E61000884344F204010840CA4908600020091DEB
:10E62000086000BFC748001F006844F2040100E012
:10E630002FE2484000F4804080B100BF081FC1496C
:10E6400008600020091D086000BF032C02D14FF4B0
:10E65000487001E04FF47A60054610E000BF4FF4C7
:10E660008040B849091D08600020091F086000BFEC
:10E67000032C01D1C82001E04FF4C8700546B24810
:10E6800004706420B5FBF0F0B049096800FB01F7A5
:10E6900000223946AE480068FFF782F80646F9E1E5
:10E6A00000BFA74801680420884344F204010840E1
:10E6B000A44908600020091D086000BFA148001F90
:10E6C000006844F20401484000F4804018B300BFE1
:10E6D000081F9C4908600020091D086000BF042C29
:10E6E00002D14FF47A6001E04FF47A60054624E0ED
:10E6F000C3E1C1E1ADE198E183E175E13AE138E1DF
:10E7000036E134E132E125E102E1EBE0D2E0BBE0C9
:10E71000A1E06CE022E000BF4FF480408949091D70
:10E7200008600020091F086000BF042C02D14FF4CC
:10E73000C87001E04FF4C870054683480470642037
:10E74000B5FBF0F08149096800FB01F7002239466A
:10E750007F480068FFF724F806469BE100BF784831
:10E7600001680420884344F20401084075490860A8
:10E770000020091D086000BF7248001F006844F2B5
:10E780000401484000F4804078B100BF081F6D4983
:10E7900008600020091D086000BF052C01D1C820B9
:10E7A00001E04FF47A60054610E000BF4FF480406E
:10E7B0006449091D08600020091F086000BF052C7E
:10E7C00001D1C82001E04FF4C87005465E480470CE
:10E7D0006420B5FBF0F05D49096800FB01F70022F9
:10E7E00039465B480068FEF7DBFF064652E100BF92
:10E7F000534801680420884344F204010840514909
:10E8000008600020091D086000BF4E48001F006816
:10E8100044F20401484000F4804038B100BF081FB2
:10E82000484908600020091D086009E000BF4FF456
:10E8300080404449091D08600020091F086000BF8E
:10E840004148047041480022016841480068FEF7D1
:10E85000A7FF06461EE100BF39480168042088432F
:10E8600044F204010840374908600020091D08608F
:10E8700000BF00BF4FF4804008600020091F0860FF
:10E8800000BF3148047005E100BF2E49091F086828
:10E89000042181432B4A116000F00401121D116014
:10E8A00000BF2A480022016829480068FEF778FF67
:10E8B0000646EFE000BF2349091F08680421814391
:10E8C000204A116000F00401121D116000BF1F48B2
:10E8D000006800EB800100221D480068FEF760FF21
:10E8E0000646D7E000BF1749091F08680421814385
:10E8F000144A116000F00401121D116000BF13489A
:10E900000022016812480068FEF74AFF0646C1E08F
:10E9100000BF0C49091F086804218143094A11609E
:10E9200000F00401121D116000BF0848006800EBF0
:10E930008001002206480068FEF732FF0646A9E083
:10E94000902000200805005084200020882000200E
:10E95000482F020000BF44F2040050490860002024
:10E96000091F086000BF4E48047093E000BF00BF5D
:10E9700000BF00BF4B480068FEF73EFF0646C4F1EB
:10E9800011050DB306BB042047490860012D0FD9BE
:10E99000C82068436421B0FBF1F04449096800FBDA
:10E9A00001F7002239463F480068FEF7F9FE0646A7
:10E9B00000BF3D48006844F2040108403749086040
:10E9C0000020091F08600EE000BF3748006844F2CD
:10E9D000040108403149091F08600020091D086032
:10E9E00000BF3149086055E000BF44F204002B49E4
:10E9F000091F08600020091D086000BF2848047036
:10EA000048E000BF04202549091F08600020091DB7
:10EA1000086000BF00BF4FF4804008600020091F5D
:10EA2000086000BF1E48047034E000BF4FF480400F
:10EA30001A49091F08600020091D086000BF00BFB7
:10EA4000042008600020091F086000BF14480470FB
:10EA500020E000BF00201149091F0860091D08605F
:10EA600000BF00BF44F2040008600020091F0860D6
:10EA700000BF0B4804700DE000BF00BF44F204006B
:10EA8000064908600020091F086000BF04480470A0
:10EA900000E000BF00BF3046BDE8F0810C0500502B
:10EAA000842000204C2F020090200020882000208D
:10EAB00030B5024600201AE00F4C54F82040A40064
:10EAC00004F1A044D4F800170124844014400CB190
:10EAD000032400E00024234621F4403141EA0341AD
:10EAE000064C054D55F8205044F82510401C0028D0
:10EAF000E2D0002030BD0000542F0200000700507B
:10EB000010B5044620780221FFF7A2FB10BD0000DB
:10EB1000F8B5054625B11BA10020FDF73BFF03E03A
:10EB20001EA10020FDF736FF224A40F6CD4103200A
:10EB3000FFF790FC044600BF26463EB100BF1EA270
:10EB400040F2EF113046FEF720FD00BF00BF6946DE
:10EB50000020FFF717FB044600BF26463EB100BF6A
:10EB600015A24FF4F9713046FEF70FFD00BF00BF4C
:10EB70009DF80000022801D1012000E0002028704B
:10EB8000F8BD0000705F65726173655F626F6E64EF
:10EB90007320697320747275650A0000705F657276
:10EBA0006173655F626F6E64732069732066616C68
:10EBB00073650A0061E301002E2E5C2E2E5C2E2E62
:10EBC0005C6D61696E2E63004FF0FF31054A42F8BB
:10EBD0002010082804DBFF23A0F108015032535411
:10EBE00070470000742600200146024850F82100BA
:10EBF00070470000742600202DE9F04F03460C46B4
:10EC00004FF0FF390AB1002000E0082084460AB125
:10EC1000082000E00C208046614624E0154850F8AA
:10EC20002100401CF0B91D460846274616464FFAFB
:10EC300080FBDFF840A00AF1300A0AF805B0DFF8DF
:10EC400034A04AF820704EB94FFA85FBA0F1080AAB
:10EC5000DFF820E00EF1500E0EF80AB000BF4FFAB8
:10EC600081F902E0491C4145D8D300BF4846BDE8C0
:10EC7000F08F00007426002001460148405670477E
:10EC8000A42600202DE9F84F3A48007800EB8001D7
:10EC90003848001D00EB8104E668A06800EB4000E6
:10ECA000354901EB8000B0F80890A06800EB400007
:10ECB00001EB8000B0F80AA0A06800EB400001EB77
:10ECC00080004068009002F0C6FDB6FBF0F100FB4A
:10ECD000116008B9012000E000208046009809FB7F
:10ECE0000A0760883044A18845180020234908603D
:10ECF000B8F1000F04D002F0AEFD6188884209D05F
:10ED0000B8F1000F03D0BD4201D1A08810B1A068B6
:10ED1000032809D102F09FFDB6FBF0F01849086006
:10ED2000032003F071F922E002F095FDA18831443F
:10ED3000B1FBF0F200FB121080081249086002F0EB
:10ED40008AFDB5FBF0F100FB115008B9012000E08D
:10ED500000208346BD4206D0BBF1000F03D1B9B2FB
:10ED6000A8B203F035FC022003F04EF900BFBDE865
:10ED7000F88F0000EC260020B82700200421002096
:10ED8000082100200021002010B50848007800EB81
:10ED900080010648001D00EB81042078042802D081
:10EDA00000F0BAF801E003F08BFB10BDEC26002068
:10EDB00010B50F48007800EB80010D48001D00EBF6
:10EDC000810460880B4908602078012804D003285A
:10EDD00005D0042809D105E003F072FB06E0FFF737
:10EDE00051FF03E003F074FF00E000BF00BF10BD5F
:10EDF000EC2600201421002010B50348407808B10B
:10EE0000FFF7D6FF10BD0000EC260020002200EB2B
:10EE10008003114901F8232000EB800301EB8301FB
:10EE20004A80022200EB80030B4901EB83018A60D8
:10EE3000002200EB8003084901EB8301CA6000EB6C
:10EE40008003054901EB83010A6100EB800302495D
:10EE500001EB83018A807047F02600202DE9F047FE
:10EE600006460F4690469946DDF820A02048407897
:10EE70000A2839D01E4800781D49497844180A2CC0
:10EE800000D30A3C04EB84011948001D00F82160FE
:10EE900004EB840100EB8100C0F8108004EB8401D6
:10EEA0001348001D00EB8100D7E90012C0E90212EF
:10EEB00004EB84010E48001D00EB8100A0F80290D5
:10EEC00004EB84010A48001D00EB8100A0F804A0B7
:10EED00007484078401C064948700648007808B941
:10EEE000FFF766FF002500E004252846BDE8F0870F
:10EEF000EC260020FC20002010B5002005490870F9
:10EF00004870002403E02046FFF780FF641C0A2CB1
:10EF1000F9D310BDEC26002010B50848007800EBAE
:10EF200080020648001D00EB82010020FEF792FBE4
:10EF300000F006F8002003F067F810BDEC26002072
:10EF400010B509490878FFF761FF07484078401E6F
:10EF50000549487008460078401CC0B208700A286D
:10EF600001D10020087010BDEC2600202DE9F047EB
:10EF700082461F480068002836D01D480068056892
:10EF800002F0C8FE07461B4804682146384603F0D5
:10EF900045FBC61C1848007808B902F0CDFEAE4209
:10EFA00001D2284600E03046044424F07F44204645
:10EFB00002F0AAFE02F0AEFE80463946404603F05B
:10EFC0002DFB00F103093946204603F027FB81455C
:10EFD00009D902F09FFE814602F096FE2F20FDF730
:10EFE00019FA03F091FC01E002F0C4FEBDE8F087DD
:10EFF000382100203C2100205021002001460888B3
:10F00000062808DB0888B0F5486F06DD08884FF64B
:10F01000FF72904201D0072070474888062808DB1D
:10F020004888B0F5486F06DD48884FF6FF72904279
:10F0300001D00720F0E708884FF6FF72904208D011
:10F040004888904205D008884A88904201DD072010
:10F05000E2E70020E0E72DE9F04106460D461446C0
:10F0600098462088801D404502D90C20BDE8F081DB
:10F070003046FFF7C3FF074600BF0FB13846F5E73C
:10F0800000BF0520218868542088401C2080122061
:10F09000218868542088401C20802288511930889B
:10F0A00003F010FE218808442080228851197088BE
:10F0B00003F008FE2188084420800020D6E70000E5
:10F0C00010B5044600BF03A2BD212046FEF75DFA3D
:10F0D00000BF10BD2E2E5C2E2E5C2E2E5C6D616945
:10F0E0006E2E630030B587B01C216846FDF7F9F934
:10F0F000002000904FF4203001904FF470200290D7
:10F1000003208DF80C000020ADF80E008DF81000E3
:10F110000A4805900A4806906846FEF7E3FE044652
:10F1200000BF254635B100BF06A2D4212846FEF710
:10F130002CFA00BF00BF07B030BD0000151402005C
:10F14000C1F001002E2E5C2E2E5C2E2E5C6D6169AE
:10F150006E2E630038B51B4801F0AAFC20BB1A488C
:10F16000007848B119484069E8B10020009017487C
:10F1700041696846884716E01548007810B9134879
:10F18000456801E011488568002229461148006859
:10F19000FEF706FB044634B10C48806918B10B48F1
:10F1A00081692046884709E00848406930B101205C
:10F1B0000090064841696846884700BF0020024920
:10F1C000087038BDD4200020DC200020E824002076
:10F1D000D0200020602F020010B501220021084637
:10F1E000FFF7FCF8044600BF1CB1072C01D02046F5
:10F1F00010BD00BF072202210120FFF7EFF80446EF
:10F2000000BF1CB1072C01D02046F1E700BF04224B
:10F2100002210020FFF7E2F8044600BF1CB1072CD2
:10F2200001D02046E4E700BF0020E1E770B50346C7
:10F230000C460820002117E001EB41050C4E06EBBF
:10F240008505AD7A254075B14FF6FF75AB4206D006
:10F2500001EB410506EB85052D899D4202D1116028
:10F26000002003E00520491C0029E5D000BF70BD47
:10F2700044260020012100EB40020D4B03EB8202EB
:10F2800091724FF6FF7100EB400203EB8202118195
:10F29000FF2100EB400203EB8202D17200EB400140
:10F2A0001A4602EB810100220A608A808A71704747
:10F2B0004426002010B51A48007800F0080058BB1A
:10F2C00018480068401C174908601748006818B1C2
:10F2D000042003F05BF921E001F0FCFB18B10220EF
:10F2E00003F054F91AE01148006890B10C48007816
:10F2F00000F0010048B90A48006840F001000849E0
:10F300000860002003F042F908E0032003F03EF912
:10F3100004E003F00FF901E003F01CF910BD000058
:10F3200018210020082100200021002004210020B5
:10F3300010B50B48007800F0080070B90848007854
:10F3400000F0020028B10648006840F001000449BE
:10F350000860022003F01AF901E003F0FBF810BD89
:10F36000182100202DE9F0478146002532E01C4895
:10F37000006800EBC5042178012000FA01F6194865
:10F380000068304020B317480068B0431549086052
:10F39000207801F02DFF074621780120884012498E
:10F3A00009680840217807FA01F188420FD1607896
:10F3B000012800D100E00020784080F0010860685A
:10F3C00020B108F0FF0120786268904700BF00BFBD
:10F3D000681CC5B2054800788542C8DBBDE8F087E7
:10F3E0001C2100202C210020282100202021002089
:10F3F0002DE9FC4104460D46A1786A462B4802F0EF
:10F4000039F90746002F4ED1607800EB40002849BB
:10F4100001EB8000807A00F04000402801D0022DEE
:10F4200001D1244E04E0012D01D1234E00E0234EF2
:10F43000A078C0EBC000224A02EB800100231C220E
:10F440006846B0470746EFB9022D1BD0607800EB45
:10F450004000174901EB8000807A20F0400061787D
:10F4600001EB4101124A02EB810188726078C0EB26
:10F47000C000144A02EB80011C231A466846B047BC
:10F48000074600BF022D0ED0207800EB40000E4949
:10F4900001EB8000807A0D4951F820202146684612
:10F4A0009047074600BFBDE8FC810000E020002037
:10F4B00044260020191C0200F51A02005124020003
:10F4C000402500200426002050260020642F020042
:10F4D00070B503460A4648F24300002135E0C1EB0F
:10F4E000C1041C4D05EB8404A47EFF2C2CD11478A0
:10F4F000022C18D0C1EBC10405EB8404A47E24F0D7
:10F500000204C1EBC105134E06EB8505AC76C1EBD9
:10F51000C104354605EB8404156825619588A582EC
:10F520009579A5750DE0C1EBC1040A4D05EB840486
:10F53000A47E24F00104C1EBC105064E06EB85054F
:10F54000AC761970002002E0491C0729C7D300BF20
:10F5500070BD0000402500202DE9F04105460E4613
:10F5600017464FF0050800241AE03DB9C4EBC4006B
:10F570000E4901EB8000008BB8420CD07DB1C4EB8A
:10F58000C4010A4A02EB810101F110000722294659
:10F59000FCF7B9FF18B934604FF0000802E0641CB2
:10F5A000072CE2D300BF4046BDE8F0814025002093
:10F5B0007CB50546A9B26A46074802F05BF80446E6
:10F5C00044B97421684602F0A7F8044614B92846E5
:10F5D00001F0C0FF20467CBDE02000202DE9F04175
:10F5E00006460F46144600BF25463DB100BF05A2A2
:10F5F00040F28D112846FDF7C8FF00BF00BF002074
:10F60000BDE8F0812E2E5C2E2E5C2E2E5C6D616985
:10F610006E2E63007FB50546039502F021F904467E
:10F6200000BF26463EB100BF2FA240F2A7113046D0
:10F63000FDF7ABFF00BF00BF03A800F0C9FB044605
:10F6400000BF26463EB100BF27A24FF4D571304619
:10F65000FDF79BFF00BF00BF0020CDF805008DF82F
:10F6600009009DF8050020F00100401C8DF8050000
:10F670009DF8050020F002008DF805009DF80500BA
:10F6800020F004008DF805009DF8050020F008002A
:10F690008DF805009DF8050020F0700030308DF8E1
:10F6A00005009DF8050020F080008DF80500072179
:10F6B0008DF8061010218DF807100F4800900120DA
:10F6C0008DF8040069460D4800F034FD044600BF83
:10F6D00026463EB100BF04A24FF4DD713046FDF76F
:10F6E00054FF00BF00BF7FBD2E2E5C2E2E5C2E2E41
:10F6F0005C6D61696E2E6300DDF5010080200020E5
:10F700002DE9F0478EB00446FF200C904FF0000921
:10F710004FF0000A00BFFE48007810B90EB0BDE8F7
:10F72000F08700BF00BFFB48006800B9F6E700BFE4
:10F730000BA800F041FB054600BF2E463EB100BFBE
:10F74000F54A40F6F1113046FDF71FFF00BF00BF3C
:10F7500000270025201D09902C20ADF82800FF204F
:10F760008DF82E0000208DF82C000D902088102898
:10F7700013D0A0880DAA0221FFF758FD054665B9F0
:10F780000D9800EB4000E54901EB8000C07A8DF850
:10F790002E000D98C0B28DF82D00208819287DD03C
:10F7A00008DC10280DD0112879D0132878D014281F
:10F7B00077D1C7E01A2875D01E2874D05228F7D107
:10F7C000C0E20DAE324601214FF6FF70FFF72EFD6D
:10F7D0008046B8F1000F08D10220316801EB4101E9
:10F7E000CE4A02EB8101887201E04FF0040800BFAD
:10F7F0004546002D62D14FF0010911208DF82000FF
:10F800000D98C0B28DF82D00A0880D9901EB410133
:10F81000C24A02EB8101088102200D9901EB4101EE
:10F8200002EB810188720D9800EB4000114601EB5C
:10F830008001A2680A60A2898A80A07B8871E07D2D
:10F8400000F0010060B1E07DB54901EB50000078A7
:10F85000FF280DD0E07D01EB500000780C9007E010
:10F860004FF6FF720CA904F10800FFF775FE05467C
:10F8700025BBDDE90C0101EB4101A84A02EB810146
:10F88000C8720D9800EB4000114601EB8000807AB1
:10F8900040F008000D9901EB410105E01AE10EE08E
:10F8A00099E05EE2E3E156E202EB810188720C9896
:10F8B000C0B28DF82E000BA8FEF73CFC52E20D986A
:10F8C00000EB4000954901EB8000807A20F00200B7
:10F8D0000D9901EB4101914A02EB810188720D986B
:10F8E00000EB4000114601EB8000807A00F0080038
:10F8F00008280ED10D9800EB400001EB8000807AC3
:10F9000000F0800080280FD100210BA8FFF770FDC8
:10F910000AE09DF82E00FF2806D09DF82E0001F089
:10F9200019FEFF208DF82E0010200D9901EB4101EA
:10F930007A4A02EB810188724FF0010912208DF89A
:10F9400020000FE20D9800EB4000744901EB8000AD
:10F95000C07AFF2824D1228A0CA90020FFF7FCFDE1
:10F960000546EDB9DDE90C0101EB41016B4A02EB03
:10F970008101C8720D9800EB4000114601EB800038
:10F98000807A40F008000D9901EB410102EB810102
:10F9900088720C98C0B28DF82E000BA8FEF7CAFB37
:10F9A0000D9800EB40005D4901EB8000C07AFF2814
:10F9B00005D00D98C0EBC0005A4901EB800A0D99A3
:10F9C000C1EBC101584B03EB8102A08800235146D3
:10F9D00086DF0546C6E113208DF820000D9800EB68
:10F9E00040004E4901EB8000807A40F004000D9900
:10F9F00001EB4101494A02EB810188724FF0010994
:10FA00000D9800EB4000114601EB8000C07AFF2802
:10FA100042D10D9800EB400002EB80010CA8FFF7EB
:10FA200057FD054665B90C98C0B28DF82E00DDE98A
:10FA30000C0101EB4101394A02EB8101C87202E07D
:10FA40002F464FF00109002004900D9800EB400074
:10FA5000324901EB8000C07AC0EBC000324901EBB3
:10FA6000800105910021069107910D98C0EBC0001F
:10FA70002C4901EB8000009000200190029003903F
:10FA8000A0886B46234A121D00217FDF054615B171
:10FA90002F464FF000091CE00D9800EB40001F4975
:10FAA00001EB8000807A40F040000D9901EB4101AC
:10FAB0001A4A02EB8101887216208DF82000A08876
:10FAC00000231A4685217FDF054615B12F464FF0EA
:10FAD000000947E10F48407A20F001000D494872C3
:10FAE0000D9800EB40000D4901EB8000807A20F07A
:10FAF00004000D9901EB4101084A02EB8101887273
:10FB000014208DF820004FF00109207A20B30DE079
:10FB1000EC20002050260020D82F02004426002090
:10FB2000ED20002004260020402500200D9800EB49
:10FB30004000114601EB8000807A00F04000402830
:10FB400009D00D9901EB410102EB8101C87AFFF761
:10FB50002FFD0646277A89E0607AC0F38000E0B383
:10FB60009DF82E00FF2838D00D9800EB40008C49FE
:10FB700001EB8000807A40F008000D9901EB410113
:10FB8000874A02EB81018872607BC0F3400088B134
:10FB90009DF82E00C0EBC000824901EB8000807E02
:10FBA00020F001009DF82E10C1EBC1017D4A02EB4F
:10FBB000810188760D9800EB4000794901EB8000C7
:10FBC000C07AFF2852D00D9800EB400011F82000B9
:10FBD000022827D09DF82E0000E047E0C0EBC000CF
:10FBE000704901EB80000D9901EB41016C4A02EB79
:10FBF00081010A6802618A888282897981759DF80B
:10FC00002E00C0EBC000674901EB8000807E20F031
:10FC100002009DF82E10C1EBC101624A02EB810186
:10FC200088761FE00D98C0EBC0005F4901EB8000B3
:10FC3000408A9DF82E10C1EBC1015A4A02EB8101A6
:10FC400008839DF82E00C0EBC000114601EB800038
:10FC5000807E20F001009DF82E10C1EBC10102EB67
:10FC60008101887601210BA8FFF7C2FB7AE0207A98
:10FC70000121B1EB101F43D1207A00F00F000128C1
:10FC80003ED10D9800EB4000454901EB8000807AA1
:10FC900000F00800082833D10D9901EBC101434A57
:10FCA00002EB810101F108001A21FCF71AFC162071
:10FCB0008DF820000D9800EB4000394901EB8000E1
:10FCC000807A40F020000D9901EB4101344A02EBAB
:10FCD000810188720D9800EB4000114601EB800015
:10FCE000807A40F040000D9901EB410102EB810167
:10FCF00088722F48407A40F002002D4948721DE07A
:10FD00000D9800EB4000264901EB8000807A40F01E
:10FD100080000D9901EB4101214A02EB81018872BB
:10FD200015208DF820002248807A224A52F82010AF
:10FD30000BA8884705460DB148F2410700274FF050
:10FD400001090FE01A48807A1A4A52F820100BA8CD
:10FD50008847074606E013208DF820004FF0010980
:10FD600000E000BF00BFB9F1000F17D03A4608A964
:10FD70000BA8FDF75FFC9DF8200012280ED100BFF4
:10FD80000D9800EB4000064901EB8000807A0128C5
:10FD900002D00D98FFF76EFA00BF00BF00BFBDE4B0
:10FDA0004426002040250020042600202026002094
:10FDB00050260020842F0200014611B948F20E009F
:10FDC0007047FF20087048708870C8700020F7E7FF
:10FDD0007FB506461EB948F20E0004B070BD00247F
:10FDE00012E02046002100EB4002344B43F8221081
:10FDF00000EB400203EB8202517200EB400203EB86
:10FE00008202917200BF641C002CEAD0002403E03F
:10FE10002046FFF72FFA641C002CF9D02421284833
:10FE2000FCF75FFB002406E0204601F093FBFF2077
:10FE300024490855641C072CF6D37420ADF80C0037
:10FE40000720ADF80E0020480290204902A801F0DA
:10FE5000C9FD054625BB01201D490870307800BB4F
:10FE600000241BE0A1B26A46184801F003FC0546D5
:10FE70007DB9C4EBC401174A02EB810000231C22A8
:10FE8000694601F035FD05463DB100201049087076
:10FE900006E000200E49087002E0641C072CE1D344
:10FEA00009E0BDF80C00BDF80E20504381B20748B0
:10FEB00001F032FC054628468FE70000502600205E
:10FEC00020260020ED200020D9FE0100E0200020A7
:10FED000EC200020402500202DE9FF4F91B00F4677
:10FEE00092461D46DDF8789000BF8748006810B93B
:10FEF00015B0BDE8F08F00BFB9F1740F00D9F7E776
:10FF00004FF0010B0DA8FFF757FF064600BFB046A4
:10FF1000B8F1000F07D000BF7C4A40F2A151404623
:10FF2000FDF733FB00BF00BF00208DF834008DF8D3
:10FF300038000C95CDF82C90804614E01FFA88F11B
:10FF400008AA734801F096FB064656B9082208A98C
:10FF50001198FCF7D8FA20B908F0FF008DF83600A8
:10FF600004E008F10108B8F1070FE7D300BF9DF8DE
:10FF70003600FF2878D0032F0AD1B9F1740F03D1CE
:10FF800020208DF838009BE040208DF8380097E065
:10FF90006048281A1C21B0FBF1F4072C1BD20AA8D8
:10FFA0000F90BAF1000F0ED19DF83600012181406B
:10FFB000594A1268114009B1012100E0002111B92C
:10FFC0004FF0000B7CE09DF8360002F085FE20200B
:10FFD0008DF8380074E05148281A1C21B0FBF1F468
:10FFE000F4B90AA80F9020208DF83800E0B28DF8FF
:10FFF0003500002004904A490591C4EBC4004749EC
:020000040002F8
:1000000001EB800000909DF83600C0EBC000414934
:1000100001EB80000190CDF830D020200B904FE014
:100020004048281A2421B0FBF1F4F4B930208DF8AF
:100030003800E0B28DF8350001208DF8370004EB70
:100040004400394901EB8000807A00F00200022868
:1000500036D09DF8351001EBC101324A02EB810028
:100060002421FCF73EFA2BE04CE04FF0000B40203F
:100070008DF838002D48854203D103274FF0010B3E
:100080001EE09DF836002A4951F82000A84217D1F9
:100090004FF0010B0AA80F9000200EE09DF83610DB
:1000A00000EB4002204B03EB8202D27A914203D153
:1000B000C1B28DF8351002E0401C0028EED000BF20
:1000C000BBF1010F1ED1032F06D19DF8380040F07F
:1000D00003008DF838000EE0022F06D19DF838009D
:1000E00040F001008DF8380005E09DF8380040F040
:1000F00002008DF838000AA80F9052460EA90DA8EC
:10010000FDF798FA00BFF3E650260020D82F020032
:10011000E020002040250020E820002004260020C8
:100120005C2600202026002044260020942F020078
:100130002425002010B5024600BF2848007810B9D9
:1001400048F2080010BD00BF12B948F20E00F9E7EE
:1001500011B948F20E00F5E7086810B948F20E0030
:10016000F0E71F48006898BB1D4C086820602046D7
:10017000D1F8054044604C7A04720879184CA0729A
:100180002046007A20F0010415480472007A20F01D
:100190000200801C124C20722046007A20F00404D9
:1001A0000F480472C07920F00100401C0C4CE07133
:1001B0002046C07920F00200801CE0712046C07902
:1001C00020F004040648C47100201070002302E0EF
:1001D000FFE748F204031846B4E70000EC200020D3
:1001E00050260020014614480078144A12789042A4
:1001F0001DD011480078401C0F4A1070104600783E
:10020000022801D1002010700D480B4A127850F8D6
:10021000220008600B4A086812681044094A1060FE
:100220001046006820F07F401060012070470020D9
:10023000086000BFFAE700004821002049210020A3
:10024000402100203C21002010B50C48007800F02F
:10025000080078B90A480068401C0949086000F0A5
:1002600039FC10B9FEF790FD06E00648007801F071
:10027000CBFE01E000F00EFE10BD000018210020B2
:1002800008210020FC2000200A48007806280ED112
:100290000848001D007800F00F0040B905480830FC
:1002A000007800F0F000302801D1012070470020D4
:1002B000FCE70000E00F00F013480078062820D18A
:1002C0001148001D007800F00F00D0B90E4808302A
:1002D000007800F0F000302801D1012070470A4872
:1002E0000830007800F0F000402801D10120F5E747
:1002F00005480830007800F0F000502801D10120B6
:10030000ECE70020EAE70000E00F00F00A48007880
:1003100006280ED10848001D007800F00F0040B9F3
:1003200005480830007800F0F000302801D10120A5
:1003300070470020FCE70000E00F00F01348007851
:10034000062820D11148001D007800F00F00D0B918
:100350000E480830007800F0F000302801D101206C
:1003600070470A480830007800F0F000402801D1BA
:100370000120F5E705480830007800F0F00050282B
:1003800001D10120ECE70020EAE70000E00F00F0D7
:100390000A48007806280ED10848001D007800F0B1
:1003A0000F0040B905480830007800F0F000302810
:1003B00001D1012070470020FCE70000E00F00F0B1
:1003C0000A48007806280ED10848001D007800F081
:1003D0000F0040B905480830007800F0F0003028E0
:1003E00001D1012070470020FCE70000E00F00F081
:1003F0000A48007806280ED10848001D007800F051
:100400000F0040B905480830007800F0F00050288F
:1004100001D1012070470020FCE70000E00F00F050
:10042000F0B5034600241FE0124E306806689E4275
:1004300003D90668F61A06601AE006689B1B066870
:100440003444002606600B4E35680A4FC6693E608C
:10045000C66846B10E1926F07F464660C6688660BB
:100460001668C661156000BF024800680028DBD12D
:1004700000BFF0BD3821002030B504461088C01CF4
:10048000984201D90C2030BD0220158848551088AB
:10049000401C10800120158848551088401C108091
:1004A00015884C551088401C10800020EBE738B5AB
:1004B00000200090684601F0C7F80446082C02D0DE
:1004C0000CB1012038BD082C06D1684600F070F848
:1004D00004460CB10020F5E7009808B10120F1E7CF
:1004E0000020EFE710B5044614B1112C08D100E04C
:1004F0000AE00648006840F008000449086003E08C
:100500002046FDF7BFF800BF00BF10BD1821002036
:1005100010B50D480068401C0B490860B0F57A7FA3
:100520000DD00A480078022804D00848007801F06D
:100530006BFD07E00648007802F028F802E00D2085
:10054000FDF7A0F810BD00000C210020FC200020C9
:10055000FD20002010B50A480078012804D00228A8
:1005600008D0032809D102E001F0B0FF06E0FFF750
:100570006BFE03E001F0FEFF00E000BF00BF10BD16
:10058000FC20002070B50446204628DF0546FFF712
:10059000A9FF70BD2DE9F04104460D4616463246CE
:1005A0002946204629DF0746FFF79CFFBDE8F0817A
:1005B000014609B9032070470248406D08600020D9
:1005C000F9E70000102800203EB500BF9DF80000AC
:1005D00020F00F00401C00909DF8000020F0F0007B
:1005E0001030009000BF0C221DA168467CDF04463D
:1005F00000BF254635B100BF1DA282212846FCF769
:10060000C4FF00BF00BF0020019002905020ADF851
:100610000400A020ADF806000020ADF808004FF45B
:10062000C870ADF80A0001A87ADF044600BF25466D
:1006300035B100BF0EA290212846FCF7A6FF00BFEF
:1006400000BF002078DF00BF254635B100BF08A2FB
:1006500094212846FCF799FF00BF00BF3EBD000073
:100660004850454820536572766963650000000074
:100670002E2E5C2E2E5C2E2E5C6D61696E2E63001C
:1006800001460020704702460020704702460020C5
:10069000704700002DE9F04104460027B8460026C7
:1006A000607800EBC000374901EB8000406848B338
:1006B000607800EB4000344901EB8000807A00F064
:1006C000800080281ED1607800EB400001EB8000A4
:1006D000807A00F04000402814D0607800EBC00021
:1006E000284901EB800000F10807607800EBC000AA
:1006F00001EB800080881FFA80F8607800EBC00072
:1007000051F82060617801EB41011F4A02EB810141
:100710000889334642463946A9DF05460B2D0CD1E0
:100720000126617801EB4101174A02EB810108893A
:10073000334642463946A9DF05460DB148F2410528
:10074000012E1BD1617801EB41010F4A02EB8101BF
:1007500008894FF6FF720C21A7DF054675B143F2F9
:100760000200854208D0082D06D0801C854203D0A7
:10077000112D01D0002501E048F241052846BDE8D1
:10078000F0810000202600204426002070B5054698
:100790000C46617801EBC1010E4A02EB810038235F
:1007A0002422294601F0A4F8064686B9607800EBB9
:1007B000C000084901EB80004068401C38B90020A7
:1007C000617801EBC101034A02EB810148603046C8
:1007D00070BD0000202600202DE9F04188B00746BA
:1007E0000C4603261A200790617801EB4101324A3A
:1007F00002EB81010889334607AA6946AADF8046D1
:10080000B8F1000F54D1617801EBC1012B4A02EB22
:10081000810101F10800BDF81C206946FBF773FE59
:10082000A0B9607800EB4000234901EB8000807A9A
:1008300000F0020002283BD0617801EBC1011F4AA1
:1008400002EB81002421FBF74CFE31E0607800EBE5
:10085000C0001A4901EB8000406808B1184D00E063
:10086000184D607800EBC000144941F82060BDF8D5
:100870001C00617801EBC101104A02EB8101486064
:10088000617801EBC10102EB810101F10800BDF8C3
:100890001C206946FBF70CFE607800EBC000074A9D
:1008A00002EB8001382324223846A847804600BF47
:1008B000002008B0BDE8F08144260020202600205A
:1008C000191C0200F51A020070B505462846FFF70C
:1008D000E1FE044614B900BF00200446204670BD66
:1008E00070B505460E4631462846FFF74FFF0446D1
:1008F00014B900BF00200446204670BD70B50546FF
:100900000E4631462846FFF767FF044614B900BF7C
:1009100000200446204670BD2DE9F04105460F46F3
:10092000012000FA05F418480068FCF765FF064648
:100930000EB1BDE8F081154800682040E0B92846B6
:1009400000F056FC28B112480068204310490860A6
:1009500004E00F480068A0430D4908600B48006898
:1009600020430A49086000220A48016806480068D6
:10097000FCF716FF064604E004480068A04303495C
:10098000086000BFD5E70000C02F02002C21002026
:10099000282100202421002010B51648007800F0FE
:1009A000080018BB00F0C2F860B1002012490860CE
:1009B0001048006840F001000E490860002001F076
:1009C000E5FD15E000F086F830B100200A49086026
:1009D000022001F0DBFD0BE00848006818B103209D
:1009E00001F0D4FD04E001F0A5FD01E001F0B2FD4D
:1009F00010BD00001821002000210020042100204B
:100A0000F8B52548007800B9F8BD2448006808B951
:100A1000012000E0002005462148006808B90120B7
:100A200000E00020064600BF9DB9684652DF04463C
:100A3000052C01D101250BE034B100BF194A9321E7
:100A40002046FCF7A2FD03E0144900980968884796
:100A500000BFCEB91448008800906946134800686A
:100A600061DF0446052C01D101260CE034B100BF42
:100A70000C4AB2212046FCF788FD04E00B480068D0
:100A800007490968884700BF0DB106B100E0CBE710
:100A900000BF00BFB8E700005C2100206C210020EF
:100AA0006821002024300200642100206021002001
:100AB00001464888064A1288904206DB4888044A64
:100AC0005288904201DC012070470020FCE70000C2
:100AD000C82000202DE9F0411148007800EB80018A
:100AE0000F48001D00EB8105EF6800F0B4FE698837
:100AF0003944AA881144491EB1FBF0F60948006840
:100B0000B04206D307480068B04204D106480068E6
:100B100008B9012400E000242046BDE8F08100006F
:100B2000EC26002008210020042100202DE9F041BE
:100B30000F48007800EB80010D48001D00EB810597
:100B4000EE6800F088FE69883144AA881144491E85
:100B5000B1FBF0F70748006828B107480068B842C1
:100B600001D1012400E000242046BDE8F08100000E
:100B7000EC2600200421002008210020014601F07D
:100B8000030008B9012070470020FCE730B5044697
:100B90001088C01C984201D90C2030BD0220158855
:100BA00048551088401C10801C2015884855108816
:100BB000401C1080012C06D0022C08D0032C0AD037
:100BC000042C10D10BE00020158848550DE00120C1
:100BD0001588485509E002201588485505E003208E
:100BE0001588485501E00720D7E700BF1088401C52
:100BF00010800020D1E7000010B5044604480078BA
:100C000000F0010018B103480078FDF78BFC10BD1F
:100C10008C200020842000202DE9F0412148D0F8CC
:100C20000080214806782FE02048006800EBC604C9
:100C3000257825E005EB4501606800EBC107681CDD
:100C4000C5B2A078A84200D100253878022802D089
:100C5000032812D103E0786801F086FD0EE007E07A
:100C600010490868002101740E4AC169116000BF73
:100C70000C4800680028F3D100E000BF00BF00BFAF
:100C80006078A842D6D100BF301EA6F10101CEB2D5
:100C9000CAD104480068404502D00120BDE8F08177
:100CA0000020FBE7382100203021002034210020E3
:100CB0002DE9F04706463B48D0F800903A480778BF
:100CC00061E03A48006800EBC70555E016B13446CC
:100CD000E66923E02A7802EB4202696801EBC20070
:100CE0002978491C29702978AA78914201D10021DC
:100CF000297044680178012901D1217C01B13BE0D0
:100D000081686160C168A1600169E1604169A161B8
:100D10002749097809B10021616000BF2549606851
:100D20000968401A20F07F402349884208D22149AF
:100D30006068096801F072FCA1680844206010E056
:100D40001C486168006801F069FC8046A068404565
:100D500004D9A068A0EB0800206001E0002020601A
:100D600000BF00206060A060012020740020E061CE
:100D7000204601F0C5FC00BF002EA7D12878697875
:100D80008842A3D100BF381EA7F10101CFB298D18C
:100D900004480068484502D00120BDE8F0870020E3
:100DA000FBE7000038210020302100203421002002
:100DB000512100203C210020FFFF7F0008B50F4893
:100DC000007808B1002008BD012083020C4A0DA163
:100DD00000900020FBF738FD08B10820F3E7002061
:100DE00010230A4A0AA10090FBF7E4FC08B108208E
:100DF000E9E70120014908700020E4E752210020C2
:100E0000682800204E6F726D616C0000682C002015
:100E1000496E7075740000000FB438B5044606A81A
:100E200000906A4620460599FBF7C1FD002000901E
:100E300038BC5DF814FB000008B501F06BFD684696
:100E4000FDF766FEFDF7F2F89DF80000FEF7E2FB05
:100E5000FFF7BAFBFCF7D6FAFEF744F90320FCF7DC
:100E6000FDFE044600BF25463DB100BF05A240F28D
:100E700013212846FCF789FB00BF00BF00BF00F02C
:100E8000CBFBFCE72E2E5C2E2E5C2E2E5C6D61695A
:100E90006E2E630010B50548006820F00800034975
:100EA00008600348007801F0AFF810BD1821002059
:100EB000FC2000202DE9F04105460E4614469846D8
:100EC000A888871C2088801C3844404502D90C2003
:100ED000BDE8F081FE2F01D90C20F9E7781C2188AC
:100EE00070542088401C2080FF2021887054208866
:100EF000401C208022889119288801F0E3FE218877
:100F000008442080A88800280DDDA86808B90720BB
:100F1000DEE7AA8823889819A968FBF7C9FA208810
:100F2000A988084420800020D2E72DE9F84F054623
:100F30000F46144698462878012804D1687810B9DD
:100F40000720BDE8F88F2088801C404508D8287805
:100F5000012807D12088801C69780844404501D9C0
:100F60000C20EEE72088A8EB0000801E86B20096D9
:100F70002188891CC81969467DDF814600BFB9F107
:100F8000000F01D04846DCE700BF2878022806D1D0
:100F9000BDF80000B04202DC4FF0090A0BE04FF050
:100FA000080A2878012805D16878B04202DC687800
:100FB000009000E00096BDF80000FE2801D90C204A
:100FC000BFE7BDF80000401C218878542088401CF1
:100FD0002080208807F800A02088401C20802088DE
:100FE000BDF80010084420800020AAE70146002038
:100FF00070470246002070470246002070470000FC
:1010000070B50B4601461A46002907DA5407260E2A
:10101000104C01F00F052D1F665503E05407250EF7
:101020000D4C655400BF00BF00F01F02012191402C
:101030000A4A440942F8241000BF00BF00F01F0212
:10104000012191404209920002F1E022C2F8001110
:1010500000BF70BD18ED00E000E400E080E200E0B9
:101060002DE9F04705460E46284600F0B3FAF8B1E0
:101070002846FDF701FE083824490F5CBC11032CFB
:101080000BD100BF224800680121A940084008B1E7
:10109000032000E00220804605E0012C01D102205F
:1010A00000E0032080464146284600F0F5F82AE09B
:1010B000284600F09BFA30B32846FDF7DDFD0446D4
:1010C000A00000F5807087B22046124951F8201028
:1010D00041F001020F4941F8202000BF384600F0DE
:1010E000F3F87EB12846FDF7C7FD8146FDF77CFD8C
:1010F0008046B8F1000F04D0012101FA04F000F09D
:10110000FDF800BF00BFBDE8F0870000C426002046
:1011100010050050106500402DE9FC4704460E46BE
:1011200017464FF00008204600F046FA10B14FF085
:10113000080851E0F27839462046FDF75DFD054686
:10114000681C002845D0B07860B100BFA10001F153
:10115000A041D1F8001721F00200214941F82400F4
:1011600000BF0CE096F80190002000904B4602462C
:1011700001460190204600F07DF800BF00BFF078E6
:10118000D0B13078174951F82510174A1140154A47
:1011900042F82510114651F825104FF4F85202EA92
:1011A00004224FF4403303EA00431A4311430D4A2B
:1011B00042F8251000BF0EE0A5F108000B49085CBD
:1011C000317840EA811042B2A5F1080007490A547B
:1011D00001E04FF0040800BF4046BDE8FC87000076
:1011E0000007005010650040FFE0FCFFC42600200F
:1011F000014600BF04480068C84000F0010008B183
:10120000012070470020FCE71005005010B513487E
:1012100090F8540008B1082010BD002404E02046D6
:1012200000F0F4F9601CC4B2202CF8DB002404E0C8
:101230002046FDF7C9FC601CC4B20C2CF8DB06216B
:101240000846FFF7DDFE4FF0004000F057F80120A0
:10125000024981F854000020DEE7000074260020D7
:10126000034890F8540008B1012070470020FCE7C3
:1012700074260020F0B5DDE9054541EA420646EA5C
:10128000830646EA042646EA0547024E46F82070E1
:10129000F0BD000000070050074A52F8202022F459
:1012A0004033054A42F8203052F8202042EA0143F8
:1012B000014A42F8203070470007005001460148BB
:1012C000084470470060004038B504462046FFF7E8
:1012D000F5FF002101602046FFF7F0FF0068009055
:1012E00000BF38BD10B504462046FFF7E7FF006891
:1012F000012800D110BD0020FCE700000149086072
:1013000070470000046300400146D1F88004C1F832
:10131000800470470246505808B1012070470020F1
:10132000FCE7002242507047C0F80813704702469D
:10133000D2F80403084008B1012070470020FCE700
:101340000122425070470146D1F88004C1F8800460
:1013500070470246505808B1012070470020FCE752
:10136000002242507047014640F23C5040587047BE
:1013700070B505468DB1032D12D10220FDF75AF844
:10138000044600BF264636B100BF07A2F921304609
:10139000FCF7FBF800BF00BF03E000F001FE00E037
:1013A00000BF00BF70BD00002E2E5C2E2E5C2E2EC6
:1013B0005C6D61696E2E630070B505462888102843
:1013C00002D0112819D113E00720FDF733F80446A5
:1013D00000BF26463EB100BF09A24FF488713046D7
:1013E000FCF7D3F800BF00BFA8880949088005E0D2
:1013F0004FF6FF700649088000E000BF00BF70BDD7
:101400002E2E5C2E2E5C2E2E5C6D61696E2E63007E
:101410008220002070B50546287878B93B2108481D
:10142000008876DF044600BF264636B100BF05A21D
:10143000B2213046FCF7A9F800BF00BF70BD000024
:10144000822000202E2E5C2E2E5C2E2E5C6D61697B
:101450006E2E630010B504460349A2680A60E06876
:101460004860FDF777FE10BDD420002010B504467B
:10147000A088084908800849A2690A60E0694860B4
:101480000020064908700648C08908B9FDF762FEC9
:1014900010BD0000D2200020D4200020D020002049
:1014A000E824002070B505464FF6FF700949088012
:1014B00000200949087009480068FCF79DF90446B6
:1014C00034B10748806918B10548816920468847CA
:1014D00070BD0000D2200020D0200020602F02002C
:1014E000E824002070B50546AC1D20881149C98943
:1014F00088421DD1608902281AD100BF00BF217B1C
:10150000627B41EA0221084600F0010111B1FDF7BA
:1015100021FE0DE008480068FCF76EF9064636B17A
:101520000448806918B1034881693046884700BF84
:1015300070BD0000E8240020602F02000246002158
:1015400004E0505C08B101207047491C0629F8D31B
:101550000020F9E710B50446C4EBC400144901EBC0
:1015600080000021401C01618182C4EBC401104A4B
:1015700002EB81001021FAF7B4FFFF20C4EBC40195
:101580000B4A02EB81010874C4EBC40102EB810138
:1015900088764FF6FF70C4EBC40102EB810108832B
:1015A000204601F099FB0020024941F8240010BDBB
:1015B00040250020242500200146054840560122F0
:1015C00002EBE07008B1012070470020FCE700004A
:1015D000A4260020014604484056082801DB0120CB
:1015E00070470020FCE70000A426002001460648C2
:1015F0004056002805DB04484056082801DA01203F
:1016000070470020FCE70000A4260020FF220149CB
:101610000A547047A426002070B548DF044600BF76
:1016200025463DB100BF04A240F2FD112846FBF75C
:10163000ACFF00BF00BF70BD2E2E5C2E2E5C2E2E88
:101640005C6D61696E2E6300014600BF074800783B
:1016500000F0040008B90820704700BF09B90E2047
:10166000FAE70348407808600020F5E718210020D9
:10167000EC2600207CB5034600BF2548007800F02A
:10168000040008B908207CBD00BF0BB90E20FAE7A2
:101690000AB90E20F7E71868022806D2186800EB8E
:1016A00040001C4C54F8200008B90720EBE7D3E9B0
:1016B0000004CDE9000401981C6804EB4404154DB6
:1016C00005EB8404248901FB04000190009800EBE1
:1016D00040002C4604EB80004068009C04EB44046E
:1016E00005EB84046489009D05EB4505094E06EB76
:1016F00085052D8904FB0500019CA04201D8072027
:10170000C1E7DDE90004C2E900040020BBE70000F6
:1017100018210020B82700202DE9F84304460D4683
:1017200000BF4348007800F0040010B90820BDE86D
:10173000F88300BF0CB90E20F9E72068022806D212
:10174000206800EB40003B4951F8200008B9072011
:10175000EDE7206800EB4000364901EB800040686F
:10176000216801EB4101334A02EB8101498922687A
:1017700002EB42022F4B03EB8202128901FB0200B3
:101780006168884201D80720D1E76068FFF7F6F961
:1017900008B91020CBE7D4E9001001EB4101254A3C
:1017A00002EB81014968401A216801EB410102EB1B
:1017B00081010989B0FBF1F201FB120008B1072099
:1017C000B5E7206800EB40001A4901EB8000008972
:1017D00095FBF0F100FB115000B90DB90720A6E709
:1017E000206800EB4000134901EB8000008921686C
:1017F00001EB41010F4A02EB8101498900FB01F62F
:1018000060684719206800EB4000114601EB80003A
:10181000406800EB0608474501D9072087E700200C
:101820002B460246214600900320FDF717FB7EE77A
:1018300018210020B827002010B54FF0102044696F
:10184000601C20B100F007F8B4FBF0F010BD4FF0C1
:1018500080504069FAE74FF08050006980B27047CD
:1018600010B5FDF749FB002019490880FFF7E4FF98
:10187000C41EFFF7F0FF44431648046000201649D9
:10188000086000BF10E0002100EB4002134B43F85A
:10189000221000EB400203EB8202118100EB4002B8
:1018A00003EB82025181401C0228ECD300200C493A
:1018B00008700C4908600C4908600C4908600A4827
:1018C000006840F0040008490860002010BD0000D6
:1018D000F4200020F820002008210020B827002054
:1018E000FC2000200C2100201821002010210020C5
:1018F000F8B507460C4615461E4600BF3748007827
:1019000000F0040008B90820F8BD00BF0CB90E2093
:10191000FAE70FB90E20F7E72068022806D2206800
:1019200000EB40002E4951F8200008B90720EBE7F2
:10193000206800EB40002A4901EB800040682168E4
:1019400001EB4101264A02EB81014989226802EB41
:101950004202234B03EB8202128901FB0200616801
:10196000884201D80720CFE745B1206800EB40004E
:101970001B4901EB80000089A84201DA0720C3E778
:10198000A819216801EB4101154A02EB810109897F
:10199000884201DD0720B7E73846FFF7EFF838B196
:1019A0003046FFF7EBF818B16068FFF7E7F808B9C1
:1019B0001020A9E7606881192A463846FAF778FDB1
:1019C0000095206800EB4000054951F820C03B46D7
:1019D000002202212046E047002095E71821002040
:1019E000B82700202DE9F04104460D4600BF3D48D0
:1019F000007800F0040010B90820BDE8F08100BFB5
:101A00000CB90E20F9E70DB90E20F6E7206808B9E9
:101A10000E20F2E7FFF71FFFA188884202DBA088B3
:101A2000102801DA0720E8E7E08868B1FFF704FF33
:101A3000471EFFF710FF4743E088A1882A4A126833
:101A400000FB0120874201D20720D6E7207900F071
:101A5000030008B10720D0E724480088022801D1FC
:101A60000420CAE72148008828601F480068686091
:101A70001E49098801EB41011D4A02EB810168689A
:101A800048601A49098801EB4101206842F82100A9
:101A9000A0881649098801EB410102EB8101088108
:101AA000E0881249098801EB410102EB810148817C
:101AB000FFF7D1FEA188E28801FB02077F1EFFF736
:101AC000CAFE97FBF0F6FFF7C6FE0749096806FB5A
:101AD00000100549086005480088401C034908803B
:101AE00000208AE718210020F8200020F4200020A0
:101AF000B8270020F8B504460E4615461F4600BF1D
:101B00003148007800F0040008B90820F8BD00BF93
:101B10000EB90E20FAE70CB90E20F7E7206802286C
:101B200006D2206800EB4000284951F8200008B98F
:101B30000720EBE7206800EB4000244901EB800020
:101B40004068216801EB4101204A02EB810149898B
:101B5000226802EB42021D4B03EB8202128901FB59
:101B600002006168884201D80720CFE745B12068AC
:101B700000EB4000154901EB80000089A84201DA22
:101B80000720C3E7E819216801EB41010F4A02EB86
:101B900081010989884201DD0720B7E73046FEF759
:101BA000EDFF38B13846FEF7E9FF18B16068FEF77F
:101BB000E5FF08B91020A9E72B463246214601204F
:101BC0000097FDF74BF9A1E718210020B827002066
:101BD00010B504460E480078C0B10D4800780428BE
:101BE00014D0022C02D0032C0ED102E0FEF7B2FC7E
:101BF0000BE00848007800F0080010B9FEF788FCF8
:101C000001E0FEF7A7FC00E000BF00BF10BD000030
:101C1000FC20002018210020F8B504460E46154689
:101C20001F4600BF3148007800F0040008B90820C2
:101C3000F8BD00BF0EB90E20FAE70CB90E20F7E789
:101C40002068022806D2206800EB4000284951F89D
:101C5000200008B90720EBE7206800EB400024498A
:101C600001EB80004068216801EB4101204A02EB52
:101C700081014989226802EB42021D4B03EB82027B
:101C8000128901FB02006168884201D80720CFE772
:101C900045B1206800EB4000154901EB8000008948
:101CA000A84201DA0720C3E7E819216801EB4101E6
:101CB0000F4A02EB81010989884201DD0720B7E75D
:101CC0003046FEF75BFF38B13846FEF757FF18B1D4
:101CD0006068FEF753FF08B91020A9E72B4632468B
:101CE000214604200097FDF7B9F8A1E7182100204C
:101CF000B82700204FF0005000BF02490968890250
:101D0000084470470C01001001490860704700004A
:101D1000401501400148006870470000041501406B
:101D200010B504460348046006211120FAF714FD9B
:101D300010BD00000815014010B54FF480300A496D
:101D400008600A49C1F804031120FAF7E1FC1120E8
:101D5000FAF7EAFC0120054908602F20FAF75AFB40
:101D600001200349087010BD4413014000100140D8
:101D70005021002010B51120012181400E4A430955
:101D800042F8231000BF4FF480300C4908600C4922
:101D9000C1F80803012048602F20FAF73BFB01201F
:101DA000074988600020074908602F20FAF732FBB6
