:020000040001F9
:10C00000D850002019C5010021C5010023C5010039
:10C0100025C5010027C5010029C501000000000059
:10C020000000000000000000000000002BC501001F
:10C030002DC50100000000002FC5010031C5010021
:10C0400033C5010033C50100C1D1010033C5010072
:10C0500033C5010033C50100E1C7010033C501004C
:10C0600033C5010033C5010033C5010033C50100EC
:10C0700033C5010033C5010033C5010033C50100DC
:10C0800033C5010009CA010033C5010033C50100F1
:10C0900029CF010033C5010031CF010033C50100B4
:10C0A00033C5010033C5010033C5010033C50100AC
:10C0B00033C5010033C5010000000000000000008E
:10C0C00033C5010033C5010033C5010033C501008C
:10C0D00033C5010033C5010033C501000000000075
:10C0E0000000000000000000000000000000000050
:10C0F0000000000000000000000000000000000040
:10C10000000000000000000000000000000000002F
:10C11000000000000000000000000000000000001F
:10C4000000F002F800F03CF80AA090E8000C82442A
:10C410008344AAF10107DA4501D100F031F8AFF207
:10C42000090EBAE80F0013F0010F18BFFB1A43F012
:10C43000010318473871000058710000103A24BFFA
:10C4400078C878C1FAD8520724BF30C830C144BF79
:10C4500004680C60704700000023002400250026BB
:10C46000103A28BF78C1FBD8520728BF30C148BF57
:10C470000B6070471FB506F091FF1FBD10B510BDD2
:10C4800000F07BF91146FFF7F5FF04F045FD00F0E1
:10C4900099F903B4FFF7F2FF03BC01F050F8000074
:10C4A000401E00BF00BF00BF00BF00BF00BF00BFF5
:10C4B00000BF00BF00BF00BF00BF00BF00BF00BF84
:10C4C00000BF00BF00BF00BF00BF00BF00BF00BF74
:10C4D00000BF00BF00BF00BF00BF00BF00BF00BF64
:10C4E00000BF00BF00BF00BF00BF00BF00BF00BF54
:10C4F00000BF00BF00BF00BF00BF00BF00BF00BF44
:10C5000000BF00BF00BF00BF00BF00BF00BF00BF33
:10C5100000BFC5D17047000009488047094800475F
:10C52000FEE7FEE7FEE7FEE7FEE7FEE7FEE7FEE7E3
:10C53000FEE7FEE704480549034A054B7047000043
:10C540008DCF010001C40100D8300020D850002058
:10C55000D830002040EA010310B59B070FD1042A10
:10C560000DD310C808C9121F9C42F8D020BA19BABE
:10C57000884201D9012010BD4FF0FF3010BD1AB123
:10C58000D30703D0521C07E0002010BD10F8013B78
:10C5900011F8014B1B1B07D110F8013B11F8014B9F
:10C5A0001B1B01D1921EF1D1184610BD40EA0103B8
:10C5B000024630B59B0710D14FF0013400E008C2AD
:10C5C00008C91D1B9D4315EAC41FF8D013F0FF01D5
:10C5D00002F8011B0DD01B0AF8E711F8013B002BF4
:10C5E00002F8013B05D011F8013B002B02F8013B9A
:10C5F000F3D130BD032A40F2308010F0030C00F07C
:10C60000158011F8013BBCF1020F624498BF11F88C
:10C6100001CB00F8013B38BF11F8013BA2F1040245
:10C6200098BF00F801CB38BF00F8013B11F00303BD
:10C6300000F02580083AC0F0088051F8043B083A21
:10C6400051F804CBA0E80810F5E7121D5CBF51F8C3
:10C65000043B40F8043BAFF30080D20724BF11F83D
:10C66000013B11F801CB48BF11F8012B24BF00F8A2
:10C67000013B00F801CB48BF00F8012B704710B513
:10C68000203AC0F00B80B1E81850203AA0E81850CA
:10C69000B1E81850A0E81850BFF4F5AF5FEA027C8B
:10C6A00024BFB1E81850A0E8185044BF18C918C0FA
:10C6B000BDE810405FEA827C24BF51F8043B40F89B
:10C6C000043B08BF7047D20728BF31F8023B48BF80
:10C6D00011F8012B28BF20F8023B48BF00F8012BBE
:10C6E00070474FF000020429C0F0128010F0030CD4
:10C6F00000F01B80CCF1040CBCF1020F18BF00F855
:10C70000012BA8BF20F8022BA1EB0C0100F00DB803
:10C710005FEAC17C24BF00F8012B00F8012B48BF61
:10C7200000F8012B70474FF0000200B51346944605
:10C730009646203922BFA0E80C50A0E80C50B1F179
:10C740002001BFF4F7AF090728BFA0E80C5048BF8D
:10C750000CC05DF804EB890028BF40F8042B08BF2B
:10C76000704748BF20F8022B11F0804F18BF00F827
:10C77000012B7047704770477047754600F02CF8E2
:10C78000AE4605006946534620F00700854618B0BE
:10C7900020B5FFF7CFFEBDE820404FF000064FF078
:10C7A00000074FF000084FF0000B21F00701AC46E6
:10C7B000ACE8C009ACE8C009ACE8C009ACE8C00905
:10C7C0008D46704710B50446AFF300802046BDE8A3
:10C7D0001040FFF75EBE0000004870477830002030
:10C7E0002DE9F04F87B00027BA464FF480700690CD
:10C7F0000125002412E0069804F070FD40B100BF4E
:10C8000060480068284018B1069804F059FD2F438D
:10C810006D000698001D80B20690641C082CEAD3B7
:10C820004FF4BE7004F05AFD48B14FF4BE7004F0EE
:10C8300047FD47F0004700BF534800688246F8B202
:10C84000F8B1012500241AE005EA0700A8B100BFED
:10C850004E4850F82400C0F30420064600BF4B4861
:10C8600050F82400C0F301408046204601F0B2FF9A
:10C87000814641463046C84700BF6D00641C082C05
:10C88000E2D307F00040002879D04FF0000B0020E1
:10C890000590401E049000BF4FF0000B002457E0AD
:10C8A0003B48005D0390039820F0C00638480057CD
:10C8B000401C00284BD00120B040049908400028BB
:10C8C00045D003984FEA9019304601F0CBFF8046DF
:10C8D00001F080FF0290029810B9B9F1030F35D131
:10C8E000012000FA06F5B9F1030F02D1059828439B
:10C8F000059000BF274850F82600C0F3014800BF4C
:10C9000005EA0A0010B1B8F1020F05D005EA0A00E5
:10C91000D8B9B8F1030F18D1B9F1030F0FD1B8F19D
:10C92000020F01D1032000E002200190304601995E
:10C9300004F0AEFC0BF1010000F0FF0B00BF029809
:10C9400018B149463046029A904700BF00BF641CA8
:10C95000042CA5D3BBF1000F0DD000BF0A49096814
:10C960000846504503D14FF0000B03E007E0824634
:10C970000599049100BFBBF1000F8DD100BF07B036
:10C98000BDE8F08F046300401005005010650040C2
:10C99000A82600200007005000F01F02012191404E
:10C9A000024A430942F823107047000080E200E089
:10C9B00000F01F02012191404209920002F1E022A1
:10C9C000C2F800117047000000F01F0201219140E1
:10C9D000024A430942F823107047000000E200E0D9
:10C9E00010B5002807DA4A07140E054A00F00F03B5
:10C9F0001B1FD45403E04A07130E024A135410BD00
:10CA000018ED00E000E400E010B5002009490860DE
:10CA100000210948C0F84411C0F84811C0F84C1171
:10CA200000200549C1F8000102493C39086006F0C0
:10CA300065FA10BD40110140001001402DE9F0479A
:10CA400004460E4617469846DDF8209000BF1F4862
:10CA5000007808B900F0C0FB00BF1C484069A04244
:10CA60002ED900BF0CB304EB44011848483040F8FD
:10CA7000316004EB440100EBC100476004EB44016A
:10CA80001248483000EBC100C0F80880002104EBD8
:10CA900044020E48483000EBC200016104EB44023E
:10CAA0000A48483000EBC200C16004EB440107486B
:10CAB000483000EBC100C0F8149000BF002501E031
:10CAC0004FF0FF352846BDE8F0870000F42F002026
:10CAD0002DE9F04704460E4617469846DDF82090AB
:10CAE00000BF1F48007808B900F076FB00BF1C4863
:10CAF0000069A0422ED900BF0CB304EB44011848D2
:10CB0000183040F8316004EB440100EBC10047608D
:10CB100004EB44011248183000EBC100C0F8088053
:10CB2000002104EB44020E48183000EBC200016102
:10CB300004EB44020A48183000EBC200C16004EB69
:10CB400044010748183000EBC100C0F8149000BF42
:10CB5000002501E04FF0FF352846BDE8F0870000D2
:10CB6000F42F002038B501226946002000F00AF8B1
:10CB70000446012C02D19DF8004001E04FF0FF3443
:10CB8000204638BD2DE9F04104460D46164600BF4B
:10CB900032462946204600F005F8074600BF3846D1
:10CBA000BDE8F0812DE9F74F8346174600BF2248C4
:10CBB000007808B900F010FB00BF0BEB4B011E48DA
:10CBC000483000EBC106DDF804903569D6F80CA0BA
:10CBD0004FF00008554515D9B068441BBC4201D23E
:10CBE000204600E03846044670684119224648460F
:10CBF000FFF700FDA044A1443F1B2544B068A842B4
:10CC000000D10025AAEB0504BC4201D2204600E079
:10CC1000384604464CB17068411922464846FFF731
:10CC2000E9FCA044A1443F1B2544B8F1000F00D00B
:10CC300035614046BDE8FE8FF42F002010B500BFDF
:10CC4000FFF790FF0028FBDB10BD00002DE9F0414D
:10CC500004460D46164600BF0848007808B900F0A3
:10CC6000BBFA00BF00BF32462946204600F008F854
:10CC7000074600BF3846BDE8F0810000F42F0020D1
:10CC80002DE9F047074688461646C24607EB47019E
:10CC90001B4800EBC109D9F8140020B1012811D0BC
:10CCA000022826D11EE0484600F0CEFA0546B542DD
:10CCB00001D2002405E0344632465146484600F091
:10CCC00018FC18E0484600F0BFFA0546B54201D20C
:10CCD000284600E03046044622465146484600F0C9
:10CCE00008FC08E032465146484600F0C9FB0446BD
:10CCF00001E0002400BF00BF2046BDE8F08700002F
:10CD00000C3000200FB438B5044606A800906A46DF
:10CD10002046059900F003F838BC5DF814FB2DE9B6
:10CD2000F04F99B082460D46144603A81490402057
:10CD3000159000201690CDF860A0179000BF2E78B7
:10CD40006D1C06B9DDE0252E79D100274FF00109D1
:10CD500000BF2E78232E12D02B2E0CD02D2E02D0D9
:10CD6000302E10D103E047F001076D1C0EE047F0B4
:10CD700002076D1C0AE047F004076D1C06E047F04F
:10CD800008076D1C02E04FF0000900BF00BFB9F1B9
:10CD9000000FDED14FF0000800BF2E78302E01DBEF
:10CDA000392E00DD07E06D1CA6F1300008EB88018C
:10CDB00000EB4108F1E700BF002013902E782E2EE3
:10CDC00012D16D1C00BF2E78302E01DB392E00DD14
:10CDD00009E06D1CA6F13000139901EB810100EB15
:10CDE00041001390EFE700BF2E7800BF6C2E01D0FA
:10CDF000682E02D12E786D1C00E000E0F6E700BF3F
:10CE0000702E5DD008DC252E6AD0582E35D0632ECA
:10CE100009D0642E69D113E0732E3CD0752E1DD03D
:10CE2000782E62D128E02168081D2060D1F800909A
:10CE300009F0FF0B594614A800F000FB56E058E03B
:10CE40002168081D2060D1F80090CDE900870A22F2
:10CE5000494614A8139B00F005FA47E02168081D15
:10CE60002060D1F80090CDE900870A22494614A835
:10CE7000139B00F06DFA39E000BF2168081D2060A7
:10CE8000D1F80090CDE900871022494614A8139BE1
:10CE900000F05EFA2AE02168081D2060D1F800B099
:10CEA00000BF9BF800600BF1010B06B906E03146AC
:10CEB00014A800F0C3FA17980028F2DA00BF15E0B2
:10CEC0002168081D2060D1F80090002008210B4641
:10CED0001022CDE90010494614A800F039FA05E007
:10CEE000252114A800F0AAFA00E000BF00BF6D1CC5
:10CEF00003E0314614A800F0A1FA17980028BFF605
:10CF00001EAF00BF179800280ADD169820B103A9AC
:10CF10005046169AFFF79AFEDDE91610084417905E
:10CF2000179819B0BDE8F08F10B505F0FFFE10BDE1
:10CF300070B50C48006888B10A480068804704460C
:10CF400000BF254645B108A10020FFF7DBFE00BF6A
:10CF5000284600F0BFFB00BF00BF01E003F0CEFD9C
:10CF600070BD0000681F00204572726F7220436818
:10CF700065636B204661696C65640A00014802497B
:10CF8000086070470090D003801F002010B503F0A8
:10CF900097FA10B17D487E49486703F0A9FA28B195
:10CFA0007C480068C0F342307B49086003F0CAFA4D
:10CFB00028B17A48006820F080707849086003F052
:10CFC000D9FA48B10020764908604FF08041C1F895
:10CFD00010017149091F086003F0F6FA18B1032027
:10CFE0006D496431086003F007FB68B105206D49A5
:10CFF000086001206B4978310860002069490831D8
:10D0000008603F20091F086003F00EFB002855D080
:10D0100065480068654908606348001D0068091D8F
:10D020000860614808300068091D08605E480C30DF
:10D030000068091D08605C4810300068091D086020
:10D04000594814300068091D0860574818300068B6
:10D0500056492031086054481C300068091D08609A
:10D06000514820300068091D08604F48243000688E
:10D07000091D08604C4828300068091D08604A48AE
:10D080002C300068091D0860474830300068474967
:10D0900040310860444834300068091D0860424847
:10D0A00038300068091D08603F483C300068091DA1
:10D0B00008603D4840300068091D086037487438F2
:10D0C000006840F4700035497439086000BF00BF43
:10D0D00000BFBFF34F8F00BF00BF00BF00BF00BF46
:10D0E00000BFBFF36F8F00BF00BF00BF30480068B4
:10D0F00000F0004030B92E48001D006800F00040EC
:10D10000002840D001202B49086000BF2A48006851
:10D110000028FBD015202649086000BF264800687B
:10D120000028FBD015212248001D016000BF2248C5
:10D1300000680028FBD000201E49086000BF1E4880
:10D1400000680028FBD000BF00BF00BF00BF00BFC9
:10D15000BFF34F8F00BF00BF00BF1048F03800681A
:10D1600000F4E06015490843001D0C49F0390860DF
:10D1700000BF00BF00BFBFF34F8F00BF00BF00BFA5
:10D1800000BF00BFFDE7FFF7F9FE10BD0DF0ADBA1F
:10D1900000C00740440200103C050040FCED00E0E8
:10D1A0000C010040105600400404001020C500404F
:10D1B0000012001004E5014000E401400000FA05FF
:10D1C00010B50448007F10B105F0CCFF01E005F078
:10D1D00019FF10BDB026002010B5124C02202061AE
:10D1E000606111A0A0611349E1614FF48061216287
:10D1F0000021A1626162E1620BA0A0640E49E164BA
:10D20000102121650021A1656165E1650BA1E01D8B
:10D21000FFF7CCF90AA12046FFF7C8F92020A0713A
:10D2200010BD0000F42F00205465726D696E616CB2
:10D2300000000000E42B0020E42F00205254540092
:10D24000534547474552000010B501460A69CB686F
:10D250009A4204D88C68641EE41AA01801E0D41A1B
:10D26000601E10BD2DE9FC5F06460F4692469846AB
:10D27000DDE90C45002F01DA784200E038468346AC
:10D280004FF0010903E09BFBFAFB09F10109D345CB
:10D29000F9DAC84500D9C14634B1002F03DB05F0E7
:10D2A0000400042800D1641E05F0020010B1B8F19A
:10D2B000000F11D005F0010070B96CB108E0641ED8
:10D2C0002021304600F0BAF8F068002800DA02E0C9
:10D2D0000CB1A145F3D300BFF068002836DB002F66
:10D2E00005DA7F422D21304600F0A8F807E005F06E
:10D2F0000400042803D12B21304600F09FF8F06889
:10D30000002823DB05F00200022814D105F00100FB
:10D3100088B9B8F1000F0ED16CB108E0641E30215D
:10D32000304600F08BF8F068002800DA02E00CB11B
:10D33000A145F3D300BFF068002807DB43465246FF
:10D3400039463046CDE9004500F002F8BDE8FC9FC3
:10D350002DE9FC5F8046894615461E460C9CCDF89B
:10D3600004900127BB4605E00198B0FBF5F0019061
:10D370000BF1010B0198A842F6D25E4500D9B346E5
:10D380000D9800F00100D0B9CCB10D9800F002006A
:10D39000022803D116B93020009001E0202000902F
:10D3A00009E0641E4046009900F048F8D8F80C00E7
:10D3B000002800DA02E00CB1A345F2D300BFD8F890
:10D3C0000C00002835DB09E0012E01D9761E04E0AF
:10D3D000B9FBF7FAAA4500D201E06F43F4E700BFBA
:10D3E00000BFB9FBF7FA0AFB1799134810F80A10A7
:10D3F000404600F023F8D8F80C00002800DA03E0DB
:10D40000B7FBF5F7002FECD100BF0D9800F001003D
:10D4100078B174B109E0641E2021404600F00EF896
:10D42000D8F80C00002800DA02E00CB1A345F2D3D2
:10D4300000BFBDE8FC9F00005434020070B50446F4
:10D440000E46A568681C6168814206D3206846556F
:10D45000681CA060E068401CE060D4E901108842CC
:10D460000DD1A26821682069FFF7F0FBA16888420E
:10D4700003D04FF0FF30E06001E00020A06070BDFD
:10D480002DE9F0470446894617464FF0000AE56843
:10D4900000BFD4F81080A84503D9A8EB0500461EAC
:10D4A00004E0A5EB0800401CA1680E1AA068401B10
:10D4B000B04201D9304601E0A068401B0646BE429A
:10D4C00001D2304600E038460646616848193246C7
:10D4D0004946FFF78FF8B244B144BF1B3544A068FA
:10D4E000A84200D10025E560002FD2D15046BDE80A
:10D4F000F0872DE9F047044689461546E668A0689E
:10D50000871BAF4208D9616888192A464946FFF748
:10D5100071F87019E06010E0B846616888194246F9
:10D520004946FFF767F8A5EB070809EB07014246F4
:10D530006068FFF75FF8C4F80C80BDE8F08700BFB3
:10D54000FEE710B501220221002000F051FD044643
:10D5500000BF1CB1072C01D0204610BD00BF072220
:10D560000221012000F044FD044600BF1CB1072C3D
:10D5700001D02046F1E700BF0A220021084600F052
:10D5800037FD044600BF1CB1072C01D02046E4E75C
:10D5900000BF0020E1E70000014600BF064A106816
:10D5A0004FF400228243044B1B1D1A6000F400223A
:10D5B0001B1D1A6000BF70470405005010B5002401
:10D5C00007E00749096811F83400012103F044FD20
:10D5D000641C044800788442F3D3002010BD00008E
:10D5E0002C1F0020301F00202DE9F84306460C4672
:10D5F0001746052F02D20720BDE8F88303F02CFE62
:10D6000038B903F0FFFD054600BF0DB12846F3E72A
:10D6100000BF1648066016480470164807600020D0
:10D62000154908601549086015E006EBC408144860
:10D630000068009098F802008DF8010098F800004A
:10D64000104A694603F064FD054600BF0DB1284647
:10D65000D2E700BF00BF201EA4F10101CCB2E4D18B
:10D66000094A0021094800F07FF8C5E72C1F002077
:10D67000301F0020341F0020381F00203C1F0020D6
:10D680005034020085090200EDEE01004C34020026
:10D6900000BF00BF00BF00BF00BFBFF34F8F00BF80
:10D6A00000BF00BF0948006800F4E0600849084373
:10D6B000001D0649086000BF00BF00BFBFF34F8FC9
:10D6C00000BF00BF00BF00BF00BFFDE70CED00E0E2
:10D6D0000000FA053EB5044600200090019002903B
:10D6E00002946A46002144F20100FFF7D1FF3EBDDB
:10D6F0002DE9F04104460D461646044807683246B7
:10D7000029462046B847BDE8F081000034260020B5
:10D71000F8B505460C462778A06800EB400006499E
:10D7200051F820600548006800902A46394604F107
:10D7300008002369B047F8BD9C270020241F002063
:10D7400010B504460748007800EB80020548001D2C
:10D7500000EB82012046FFF7DBFF042004F0BEFF50
:10D7600010BD0000D026002010B503460C4600BFB7
:10D770000B48006808B9082010BD00BF0AB907208F
:10D78000FAE70BB90720F7E71868007C08B1082012
:10D79000F2E71968002008744C744A6100BFEBE797
:10D7A000441F00202DE9F04180460E4614461F46D6
:10D7B000204600F0030109B9012100E0002111B960
:10D7C0000720BDE8F08124B900201D49086007202A
:10D7D000F7E704F08DFD1B48076003201A49087025
:10D7E00017480460183400250DE01549096801EB5D
:10D7F000C5000021017041708670446006EB46014F
:10D8000004EBC1046D1C032DEFDB00200F49086001
:10D810000F4908700F4908701420FFF7BDF8062162
:10D820001420FFF7DDF81420FFF7C2F8404604F09B
:10D8300035FD04F02DFD084908600020C1E7000017
:10D84000441F00205C1F0020401F0020481F0020B4
:10D85000581F0020591F00204C1F00202DE9F843BD
:10D8600004460D461746264600BF1148006810B909
:10D870000820BDE8F88300BF0CB90820F9E7052DA2
:10D8800001D20720F5E7706908B90820F1E7707C3C
:10D89000012801D1284600E00020804605F006FD61
:10D8A000814643462A463146009705F0D9FAE0E71B
:10D8B000441F002070B50446254600BF0948006893
:10D8C00008B9082070BD00BF0CB1686908B908200C
:10D8D000F8E70020287405F0E9FC0646294605F023
:10D8E000EDFAEFE7441F0020034600BF0BB90E20FE
:10D8F000704700BF198012B11068C3F80200002001
:10D90000F6E77CB505460C462078002843D1A08870
:10D9100041F60F0188423ED1A07901283BD1002079
:10D920008DF800006088ADF8020000261EE006EBCE
:10D93000460104F10E0030F8210042F61921884218
:10D9400012D106EB460104F10E0000EB8100408984
:10D95000ADF8040006EB460104F10E0000EB810077
:10D960000189ADF8061004E0701CC6B2207AB042FE
:10D97000DDDC00BF28884FF6FF71884206D068883A
:10D9800020B9A88810B90198C5F802006946284650
:10D99000AA68904700BF7CBD0146002200BF09B9BC
:10D9A0000E20704700BF0020054B18600120054B7A
:10D9B00018700020044B1860044801601046F0E71E
:10D9C000EC1E0020F01E0020E81E0020E41E0020B7
:10D9D00070B505460C4600BF05B970BD00BF00BF5D
:10D9E00004B9FAE700BF00BF13480078012800D04F
:10D9F000F3E700BF2088112815D0302804D0322842
:10DA000007D0332814D109E0211D284603F050FF28
:10DA10000FE0211D284603F015FE0AE0211D2846CF
:10DA200003F0C2FE05E0211D284603F037FF00E0A9
:10DA300000BF00BF00BFD0E7F01E00202DE9F0417D
:10DA400004460D4600BF14B90E20BDE8F08100BFAA
:10DA500000BF1F480078012801D00820F5E700BF6B
:10DA60001C48006808B90820EFE794F8A70108B13E
:10DA70001120EAE7A4F8AA5100201749086084F8A9
:10DA8000A80184F8A60194F8A601C0EBC00000EB41
:10DA9000800004EB400694F8A601104901EB8000D9
:10DAA0000068306032882B460D49002003F024FACC
:10DAB00032460121284690DF074600BF0FB13846A5
:10DAC000C3E700BF012084F8A7010020BDE70000E4
:10DAD000F01E0020EC1E0020E81E00204423002041
:10DAE000C034020010B504461148007818B111A1E5
:10DAF0000020FFF707F9204601F07CFE214611487F
:10DB0000FFF766FF204600F06DF90948007818B16C
:10DB10000DA10020FFF7F6F8204603F041FC044871
:10DB2000007818B111A10020FFF7ECF810BD00003B
:10DB3000BB1E00204576656E742044697370617465
:10DB400063680A00841F00204253505F42544E5FB6
:10DB5000424C455F4F4E5F424C455F455654204313
:10DB60006F6D706C657465640A0000004F6E5F42F3
:10DB70004C455F45767420436F6D706C65746564C9
:10DB80000A000000034600BF0BB90E20704700BF1B
:10DB9000198012B11068C3F802000020F6E70000F7
:10DBA0007FB505460C462078002845D1A08841F66F
:10DBB0000D01884240D1A07901283DD18DF80000A7
:10DBC0006088ADF8020000261DE006EB460104F176
:10DBD0000E0030F8210042F63721884212D106EBC0
:10DBE000460104F10E0000EB81004089ADF8080009
:10DBF00006EB460104F10E0000EB81000189ADF84F
:10DC00000A1003E0761C207AB042DED800BF0BA1D8
:10DC1000002003F071F928884FF6FF71884206D082
:10DC2000688820B9A88810B90298C5F8020069462A
:10DC30002846AA68904700BF7FBD00005B4852534A
:10DC40005F435D3A204865617274205261746520BB
:10DC50005365727669636520646973636F76657274
:10DC6000656420617420706565722E0D0A000000E5
:10DC700070B586B03CA10020FFF744F84148006829
:10DC8000059000BF002348223F4905A804F0DEFDAF
:10DC9000054600BF2E4646B13CA10020FFF732F8F2
:10DCA00000BF3046FFF716FD00BF00BF00BF6A4649
:10DCB0000021012004F0AAFD044600BF254645B11D
:10DCC00032A10020FFF71EF800BF2846FFF702FD33
:10DCD00000BF00BF00BF324E304604F011FC0446C6
:10DCE00000BF254645B129A10020FFF70BF800BF72
:10DCF0002846FFF7EFFC00BF00BF00BF684604F0F6
:10DD000003FD044600BF254645B120A10020FEF7D3
:10DD1000F9FF00BF2846FFF7DDFC00BF00BF214828
:10DD200004F0E6FC044600BF254645B117A10020DB
:10DD3000FEF7E8FF00BF2846FFF7CCFC00BF00BF9E
:10DD4000194804F0B5FD044600BF254645B10FA1B2
:10DD50000020FEF7D7FF00BF2846FFF7BBFC00BF3F
:10DD600000BF06B070BD0000424C45205374616393
:10DD70006B20496E6974205374617274696E670A0E
:10DD800000000000B0330200582100204572726F7D
:10DD90007220436865636B204661696C65640A00A4
:10DDA000E01C0020E5DA0100512C020070B50546A8
:10DDB0000C4600260948056044B1204604F084FD65
:10DDC000064600BF0EB1304670BD00BF0448006873
:10DDD00010B9FFF7B6FB06463046F5E7DC1E00201B
:10DDE000E01E002070B505462888102802D01128B2
:10DDF0002CD115E01748006860B900F025FF0446F3
:10DE000000BF34B11448006818B1204612490968AF
:10DE1000884700BF0F480068401C0E49086016E0A4
:10DE20000C480068401E0B4908600846006860B94D
:10DE3000FFF787FB044600BF34B10748006818B1FC
:10DE4000204605490968884700BF00E000BF00BFC1
:10DE500070BD0000E01E0020DC1E002010B5032075
:10DE600000F03AFC044600BF1CB1062C01D020464D
:10DE700010BD00BF0020FBE72DE9F04105460F462D
:10DE80004FF00008002400E0641C042C04D22A484F
:10DE900050F82400A842F7D1042C41D227B3012F17
:10DEA00002D0022F3BD133E004EB4400234911F8A8
:10DEB000008004EB44000844407868B120480068C2
:10DEC00000EB800041001F4A1F480068FFF7C6FCB6
:10DED00006460EB91B48057004EB44001749084478
:10DEE00080781A4908551AE017480068FFF7E2FCE5
:10DEF0001648005D04EB4401104A114489788842B9
:10DF000005D104EB44001146084490F8028006E075
:10DF100004EB44000949084490F8018000BF00BFA9
:10DF2000B8F1000F06D00A48006818B14046084909
:10DF300009688847BDE8F081C0330200182300203B
:10DF4000C41E0020D41E0020BC330200D51E0020B9
:10DF5000D01E002010B50246042A0ED2094B1B68C1
:10DF6000D843094B13F822400123A34003400BB1CF
:10DF7000012300E000230B7001E000200870002066
:10DF800010BD000010050050C033020070B50546FA
:10DF9000042D06D0072D19D00A2D1AD104F062FBEA
:10DFA00018E013210C48008876DF0446082C0CD0BA
:10DFB00000BF264646B109A10020FEF7A3FE00BF20
:10DFC0003046FFF787FB00BF00BF03E005F0B4F960
:10DFD00000E000BF00BF70BDB81E00204572726F28
:10DFE0007220436865636B204661696C65640A0052
:10DFF00030B503460020042B23D2012A07D1012982
:10E0000003D103F10D04E4B200E00024224679B10B
:10E01000012902D0022911D104E003EB43040A4D87
:10E020002A550DE003EB4304074D2C44627007E0D2
:10E0300003EB4304044D2C44A27001E0072000BF11
:10E0400000E0072030BD00001823002070B5044612
:10E0500000250548007800F0010018B1204600F0C6
:10E060006DF80546284670BDC81E00202DE9F04118
:10E0700005460E4690460024254806602548056062
:10E080002548C0F8008005F00200F8B1002706E03E
:10E09000012211463846FFF7ABFF04467F1C042FD0
:10E0A00001D2002CF4D02CB9720804211B48FFF7D0
:10E0B0009BFA044614B9FFF781FA04462CB9184AB2
:10E0C00000211848FFF750FB044600BF05F001008F
:10E0D00068B100BF4FF4F010134908600020091D1B
:10E0E000086000BF4FF4F0100F49103108602CB9E0
:10E0F0000E4A00210E48FFF737FB04462CB90D4AA3
:10E1000001210D48FFF730FB04462046BDE8F081B1
:10E11000C41E0020C81E0020D01E0020D0330200E4
:10E1200029E70100BC33020008050050D90C0200A9
:10E13000B433020099D50100B83302002DE9F04153
:10E14000044600260025182C7DD2DFE804F00C1DC3
:10E150001E68B4EEEDECEBEAE9E8E7E6E5E4E3E2BD
:10E16000E1E0DFDEDDDC00BFFD4801684FF4F010C8
:10E17000884300F4F010FB4908600020091D086086
:10E1800000BFF948047098E200BF00BFF44801687E
:10E190004FF4E010884300F4F010F24908600020CA
:10E1A000091D086000BFEF48001F006880F4F010F0
:10E1B00000F4003088B100BF4FF40030091F086040
:10E1C0000020091D086000BF022C02D14FF4E1605D
:10E1D00001E04FF47A60054610E000BF4FF40030D4
:10E1E000E049091D08600020091F086000BF022CDB
:10E1F00001D1C82001E04FF4C8700546DA48047028
:10E200006420B5FBF0F0D949096800FB01F7002252
:10E210003946D7480068FFF721FB06464DE200BFAC
:10E22000CF4801684FF4E010884300F4F010CD4966
:10E2300008600020091D086000BFCA48001F006870
:10E2400080F4F01000E037E200F4003088B100BF45
:10E250004FF40030091F08600020091D086000BF4E
:10E26000032C02D14FF4487001E04FF47A60054668
:10E2700010E000BF4FF40030BA49091D08600020CB
:10E28000091F086000BF032C01D1C82001E04FF432
:10E29000C8700546B44804706420B5FBF0F0B3497B
:10E2A000096800FB01F700223946B1480068FFF712
:10E2B000D5FA064601E200BFA94801684FF4E01014
:10E2C000884300F4F010A74908600020091D086089
:10E2D00000BFA448001F006880F4F01000F4003074
:10E2E00020B300BF4FF40030091F08600020091D53
:10E2F000086000BF042C02D14FF47A6001E04FF4B3
:10E300007A60054624E0CBE1C9E1B3E19DE187E114
:10E3100079E13FE13DE13BE139E137E12AE105E126
:10E32000EDE0D3E0BBE0A1E06CE022E000BF4FF401
:10E3300000308C49091D08600020091F086000BFDB
:10E34000042C02D14FF4C87001E04FF4C8700546A8
:10E35000854804706420B5FBF0F08449096800FB2F
:10E3600001F70022394682480068FFF777FA06462F
:10E37000A3E100BF7A4801684FF4E010884300F43D
:10E38000F010784908600020091D086000BF75483A
:10E39000001F006880F4F01000F4003080B100BF6E
:10E3A0004FF40030091F08600020091D086000BFFD
:10E3B000052C01D1C82001E04FF47A60054610E039
:10E3C00000BF4FF400306749091D08600020091F95
:10E3D000086000BF052C01D1C82001E04FF4C870CF
:10E3E0000546614804706420B5FBF0F05F49096898
:10E3F00000FB01F7002239465D480068FFF72EFA5E
:10E4000006465AE100BF564801684FF4E0108843C1
:10E4100000F4F010534908600020091D086000BF97
:10E420005048001F006880F4F01000F4003040B144
:10E4300000BF4FF40030091F08600020091D08606C
:10E4400009E000BF4FF400304649091D0860002074
:10E45000091F086000BF4448047044480022016856
:10E4600043480068FFF7FAF9064626E100BF3C483A
:10E4700001684FF4E010884300F4F0103949086057
:10E480000020091D086000BF00BF4FF40030086085
:10E490000020091F086000BF334804700DE100BF71
:10E4A0003049091F08684FF4802181432D4A1160CB
:10E4B00000F48021121D116000BF2C480022016869
:10E4C0002B480068FFF7CAF90646F6E000BF254969
:10E4D000091F08684FF480218143224A116000F42B
:10E4E0008021121D116000BF2048006800EB8001F0
:10E4F00000221F480068FFF7B1F90646DDE000BFC3
:10E500001849091F08684FF480218143154A11609A
:10E5100000F48021121D116000BF14480022016820
:10E5200013480068FFF79AF90646C6E000BF0D4998
:10E53000091F08684FF4802181430A4A116000F4E2
:10E540008021121D116000BF0848006800EB8001A7
:10E55000002207480068FFF781F90646ADE0000099
:10E56000CC1E002008050050C01E0020C41E002044
:10E57000B433020000BF4FF4F0105249086000208D
:10E58000091F086000BF5048047096E000BF00BF3C
:10E5900000BF00BF4D480068FFF78CF90646C4F184
:10E5A00011050DB306BB4FF4002049490860012D49
:10E5B0000FD9C82068436421B0FBF1F045490968D0
:10E5C00000FB01F70022394640480068FFF746F992
:10E5D000064600BF3E48006800F4F0103949086064
:10E5E0000020091F08600DE000BF3948006800F4F2
:10E5F000F0103449091F08600020091D086000BFA1
:10E600003349086059E000BF4FF4F0102D49091F4D
:10E6100008600020091D086000BF2B4804704CE012
:10E6200000BF4FF4E0102749091F08600020091DB2
:10E63000086000BF00BF4FF4003008600020091FD1
:10E64000086000BF2048047037E000BF4FF4D010CE
:10E650001C49091F08600020091D086000BF00BF99
:10E660004FF4802008600020091F086000BF164892
:10E67000047022E000BF4FF4C0101249091F086067
:10E680000020091D086000BF00BF4FF4C0200860D3
:10E690000020091F086000BF0B4804700DE000BF98
:10E6A00000BF4FF4F010074908600020091F086000
:10E6B00000BF0548047000E000BF00BF3046BDE861
:10E6C000F08100000C050050C01E0020B83302008D
:10E6D000CC1E0020C41E002030B5024600201AE0E7
:10E6E0000F4C54F82040A40004F1A044D4F80017C3
:10E6F0000124844014400CB1032400E0002423468C
:10E7000021F4403141EA0341064C054D55F82050B3
:10E7100044F82510401C0428E2D3002030BD00003E
:10E72000C03302000007005010B5044620780221D3
:10E73000FFF7A2FB10BD0000F8B50546174A40F6EA
:10E74000CD410320FFF792FC044600BF264646B1A8
:10E7500013A10020FEF7D6FA00BF3046FEF7BAFF3D
:10E7600000BF00BF69460020FFF720FB044600BF42
:10E77000264646B10AA10020FEF7C4FA00BF304683
:10E78000FEF7A8FF00BF00BF9DF80000022801D1DE
:10E79000012000E000202870F8BD00008DDF01009E
:10E7A0004572726F7220436865636B204661696CC5
:10E7B00065640A004FF0FF31054A42F8201008282E
:10E7C00004DBFF23A0F108015032535470470000CE
:10E7D000582600200146024850F8210070470000EA
:10E7E000582600202DE9F04F03460C464FF0FF3924
:10E7F0000AB1002000E0082084460AB1082000E0A9
:10E800000C208046614624E0154850F82100401C49
:10E81000F0B91D460846274616464FFA80FBDFF83A
:10E8200040A00AF1300A0AF805B0DFF834A04AF82F
:10E8300020704EB94FFA85FBA0F1080ADFF820E0FE
:10E840000EF1500E0EF80AB000BF4FFA81F902E047
:10E85000491C4145D8D300BF4846BDE8F08F0000B1
:10E86000582600200146014840567047882600205F
:10E87000F8B504460E4694F8A601C0EBC00000EBC4
:10E88000800004EB400594F8A501B8B194F8A521E7
:10E89000521ED1B294F8A621C2EBC20202EB820250
:10E8A00004EB420501EB410305F10A0202EB830090
:10E8B0000289521C92B2ADF8002002E0E888ADF85F
:10E8C00000002889ADF802006946304692DFF8BDA5
:10E8D0002DE9F84F3A48007800EB80013848001DD8
:10E8E00000EB8104E668A06800EB4000354901EBCD
:10E8F0008000B0F80890A06800EB400001EB8000B9
:10E90000B0F80AA0A06800EB400001EB800040686E
:10E91000009003F03EFAB6FBF0F100FB116008B97D
:10E92000012000E000208046009809FB0A0760886B
:10E930003044A1884518002023490860B8F1000F31
:10E9400004D003F026FA6188884209D0B8F1000F9C
:10E9500003D0BD4201D1A08810B1A068022809D11E
:10E9600003F017FAB6FBF0F018490860032003F033
:10E97000B5FE22E003F00DFAA1883144B1FBF0F2BC
:10E9800000FB121080081249086003F002FAB5FB80
:10E99000F0F100FB115008B9012000E0002083468F
:10E9A000BD4206D0BBF1000F03D1B9B2A8B204F04A
:10E9B00067F9022003F092FE00BFBDE8F88F000067
:10E9C000D02600209C270020141F0020181F0020A4
:10E9D000101F002010B50848007800EB80010648A1
:10E9E000001D00EB81042078042802D000F0BAF862
:10E9F00001E004F0BDF810BDD026002010B50F488E
:10EA0000007800EB80010D48001D00EB8104608858
:10EA10000B4908602078012804D0032805D0042879
:10EA200009D105E004F0A4F806E0FFF751FF03E088
:10EA300004F02EFC00E000BF00BF10BDD026002077
:10EA4000241F002010B50348407808B1FFF7D6FF17
:10EA500010BD0000D0260020002200EB80031149E9
:10EA600001F8232000EB800301EB83014A8001229F
:10EA700000EB80030B4901EB83018A60002200EB6D
:10EA80008003084901EB8301CA6000EB800305495C
:10EA900001EB83010A6100EB8003024901EB830172
:10EAA0008A807047D42600202DE9F04706460F469D
:10EAB00090469946DDF820A0204840780A2839D0B1
:10EAC0001E4800781D49497844180A2C00D30A3C96
:10EAD00004EB84011948001D00F8216004EB840157
:10EAE00000EB8100C0F8108004EB84011348001D86
:10EAF00000EB8100D7E90012C0E9021204EB8401A7
:10EB00000E48001D00EB8100A0F8029004EB840188
:10EB10000A48001D00EB8100A0F804A007484078D7
:10EB2000401C064948700648007808B9FFF766FFA0
:10EB3000002500E004252846BDE8F087D026002007
:10EB40000C1F002010B500200549087048700024F3
:10EB500003E02046FFF780FF641C0A2CF9D310BDA8
:10EB6000D026002010B50848007800EB8002064847
:10EB7000001D00EB82010020FEF7CAFD00F006F840
:10EB8000002003F0ABFD10BDD026002010B50949D0
:10EB90000878FFF761FF07484078401E0549487034
:10EBA00008460078401CC0B208700A2801D1002035
:10EBB000087010BDD02600202DE9F04782461F487E
:10EBC0000068002836D01D480068056803F060FB27
:10EBD00007461B4804682146384604F077F8C61CEF
:10EBE0001848007808B903F065FBAE4201D2284608
:10EBF00000E03046044424F07F44204603F042FB0A
:10EC000003F046FB80463946404604F05FF800F1C9
:10EC100003093946204604F059F8814509D903F023
:10EC200037FB814603F02EFB2F20FDF739FC04F063
:10EC3000B1F901E003F05CFBBDE8F087481F00205C
:10EC40004C1F0020601F002010B501220021084643
:10EC5000FFF7CEF9044600BF1CB1072C01D02046B7
:10EC600010BD00BF072202210120FFF7C1F90446B1
:10EC700000BF1CB1072C01D02046F1E700BF0422E1
:10EC800002210020FFF7B4F9044600BF1CB1072C95
:10EC900001D02046E4E700BF0020E1E770B503465D
:10ECA0000C460820002117E001EB41050C4E06EB55
:10ECB0008505AD7A254075B14FF6FF75AB4206D09C
:10ECC00001EB410506EB85052D899D4202D11160BE
:10ECD000002003E00520491C0029E5D000BF70BDDD
:10ECE00028260020012100EB40020D4B03EB82029D
:10ECF00091724FF6FF7100EB400203EB820211812B
:10ED0000FF2100EB400203EB8202D17200EB4001D5
:10ED10001A4602EB810100220A608A808A717047DC
:10ED20002826002010B51A48007800F0080058BBCB
:10ED300018480068401C174908601748006818B157
:10ED4000042003F07BFF21E001F06AFF18B10220EC
:10ED500003F074FF1AE01148006890B10C48007885
:10ED600000F0010048B90A48006840F00100084975
:10ED70000860002003F062FF08E0032003F05EFF5C
:10ED800004E003F02FFF01E003F03CFF10BD0000A2
:10ED9000281F0020181F0020101F0020141F002013
:10EDA00010B50B48007800F0080070B908480078EA
:10EDB00000F0020028B10648006840F00100044954
:10EDC0000860022003F03AFF01E003F01BFF10BDD2
:10EDD000281F002010B5044621460448FEF7E0FE37
:10EDE00021460348FEF78DFD10BD000030210020B4
:10EDF0003C21002070B50948FEF7CEFD044600BF57
:10EE0000254645B106A10020FDF77CFF00BF28463E
:10EE1000FEF760FC00BF00BF70BD0000D5ED010033
:10EE20004572726F7220436865636B204661696C3E
:10EE300065640A002DE9F84F04460F4690464FF0EE
:10EE4000000B94F8A601C0EBC00000EB800004EBBF
:10EE5000400594F8A50100EB400105F10A0000EB24
:10EE6000810A94F8A501401C2979884207D16B4694
:10EE700000225146204601F0A4FE834627E094F884
:10EE8000A5611FE02879401EB04202D14FF0000971
:10EE900006E0701C00EB400105F10A0000EB81095F
:10EEA0006B464A465146204601F08BFE10B14FF0AA
:10EEB000010B0AE0CA4694F8A501401C84F8A5019C
:10EEC000701CC6B22879B042DCDC00BF00BFBBF1C9
:10EED000000F04D1012038700020BDE8F88F002019
:10EEE00038706946404693DFF7E700002DE9F047A8
:10EEF0008146002532E01C48006800EBC5042178FB
:10EF0000012000FA01F619480068304020B3174884
:10EF10000068B04315490860207802F065F907469B
:10EF2000217801208840124909680840217807FAB1
:10EF300001F188420FD16078012800D100E0002063
:10EF4000784080F00108606820B108F0FF01207867
:10EF50006268904700BF00BF681CC5B205480078D2
:10EF60008542C8DBBDE8F0872C1F00203C1F002035
:10EF7000381F0020301F00202DE9FC4104460D46BB
:10EF8000A1786A462B4802F015FE0746002F4ED1A5
:10EF9000607800EB4000284901EB8000807A00F0A7
:10EFA0004000402801D0022D01D1244E04E0012D63
:10EFB00001D1234E00E0234EA07800EB4000224A0E
:10EFC00002EBC001002318226846B0470746EFB99C
:10EFD000022D1BD0607800EB4000174901EB800048
:10EFE000807A20F04000617801EB4101124A02EB87
:10EFF000810188726078C0EBC000144A02EB800186
:10F0000018231C226846B047074600BF022D0ED0C9
:10F01000207800EB40000E4901EB8000807A0D491A
:10F0200051F82020214668469047074600BFBDE8BA
:10F03000FC810000F41E002028260020552102003B
:10F0400031200200012B020058250020002600205C
:10F0500034260020F033020070B503460A4648F219
:10F060004300002135E001EB41041C4D05EBC404D5
:10F07000E47DFF2C2CD11478022C18D001EB410434
:10F0800005EBC404E47D24F0020401EB4105134EBA
:10F0900006EBC505EC7501EB4104354605EBC404F0
:10F0A000156825619588A5829579A5750DE001EB18
:10F0B00041040A4D05EBC404E47D24F0010401EB96
:10F0C0004105064E06EBC505EC751970002002E0FF
:10F0D000491C0729C7D300BF70BD00005825002078
:10F0E0002DE9F04105460E46052700240FE004EB0C
:10F0F00044010A4A02EBC10101F11000072229462E
:10F10000FDF728FA10B93460002702E0641C072CD0
:10F11000EDD300BF3846BDE8F0810000582500203F
:10F120002DE9F04106460F461546387815287CD063
:10F1300008DC11280DD012284DD013287DD01428BA
:10F1400075D198E0212873D0222872D02328F7D1D6
:10F15000E8E083A10020FDF7D5FD0720FEF776FF4C
:10F16000044600BFA046B8F1000F08D082A10020DD
:10F17000FDF7C8FD00BF4046FEF7ACFA00BF00BF78
:10F18000786800888149088081483168016001F011
:10F190000BF8044600BFA046B8F1000F08D076A1D6
:10F1A0000020FDF7AFFD00BF4046FEF793FA00BF19
:10F1B00000BF78480078401C7649087008460078FF
:10F1C000012801DA03F0FAF873A10020FDF79AFD97
:10F1D000FDF734FDBFE073A1002001F08DFE4FF478
:10F1E000D6717948FDF77DFA0020FEF72FFF04461F
:10F1F00000BFA046B8F1000F08D05FA10020FDF7C6
:10F2000081FD00BF4046FEF765FA00BF00BF6148C0
:10F210000078012801D103F0D1F85E480078401E43
:10F220005C49087069A1002004E02DE005E091E050
:10F2300048E05FE001F060FE8DE072786CA1002094
:10F2400001F05AFE524800F0AFFF044600BFA0464E
:10F25000B8F1000F08D048A10020FDF753FD00BF12
:10F260004046FEF737FA00BF00BF72786BA100205E
:10F2700001F042FE6FE074A1002001F03DFE7DA18F
:10F28000002001F039FE66E085A1002001F034FE87
:10F29000786801884C48FEF7D1FB044600BFA046C1
:10F2A000B8F1000F08D034A10020FDF72BFD00BFFE
:10F2B0004046FEF70FFA00BF00BF82A1002001F018
:10F2C0001BFE48E088A1002001F016FE00BFA84602
:10F2D000B8F1000F08D028A10020FDF713FD00BFF2
:10F2E0004046FEF7F7F900BF00BF88A1002001F0FB
:10F2F00003FE30E090A1002001F0FEFD00BFA84613
:10F30000B8F1000F08D01CA10020FDF7FBFC00BFE6
:10F310004046FEF7DFF900BF00BF92A1002001F0D8
:10F32000EBFD18E09AA1002001F0E6FD00BFA84621
:10F33000B8F1000F08D010A10020FDF7E3FC00BFDA
:10F340004046FEF7C7F900BF00BF9CA1002001F0B6
:10F35000D3FD00E000BF00BF0020BDE8F081000049
:10F36000444D20434F4E4E454354494F4E20455641
:10F37000454E540A000000004572726F72204368C7
:10F3800065636B204661696C65640A00B81E0020E5
:10F39000B11E0020B51E0020456E746572204B65BD
:10F3A000790A00005B4150504C5D3A203E3E2044BB
:10F3B0004D5F4556545F444953434F4E4E45435469
:10F3C000494F4E0D0A000000841F00205B41505041
:10F3D0004C5D3A203C3C20444D5F4556545F4449C7
:10F3E00053434F4E4E454354494F4E0D0A000000C3
:10F3F0005B4150504C5D3A5B3078253032585D208F
:10F400003E3E20444D5F4556545F53454355524957
:10F4100054595F53455455500D0A00005B415050FC
:10F420004C5D3A5B3078253032585D203C3C2044BE
:10F430004D5F4556545F53454355524954595F53A8
:10F44000455455500D0A00005B4150504C5D3A2028
:10F450003E3E20444D5F4556545F53454355524907
:10F4600054595F53455455505F434F4D504C45548C
:10F47000450D0A005B4150504C5D3A203C3C204415
:10F480004D5F4556545F53454355524954595F5358
:10F49000455455505F434F4D504C4554450D0A005F
:10F4A0005B4150504C5D3A203E3E20444D5F4C49FC
:10F4B0004E4B5F534543555245445F494E440D0AF8
:10F4C000000000005B4150504C5D3A203C3C204421
:10F4D0004D5F4C494E4B5F534543555245445F4940
:10F4E0004E440D0A000000005B4150504C5D3A2034
:10F4F0003E3E20444D5F4556545F4C494E4B5F5352
:10F500004543555245440D0A000000005B415050F0
:10F510004C5D3A203C3C20444D5F4556545F444589
:10F52000564943455F434F4E544558545F4C4F41F5
:10F530004445440D0A0000005B4150504C5D3A20A8
:10F540003E3E20444D5F4556545F44455649434531
:10F550005F434F4E544558545F53544F5245440DEA
:10F560000A0000005B4150504C5D3A203C3C204476
:10F570004D5F4556545F4445564943455F434F4EA2
:10F58000544558545F53544F5245440D0A000000EF
:10F590005B4150504C5D3A203E3E20444D5F455605
:10F5A000545F4445564943455F434F4E5445585474
:10F5B0005F44454C455445440D0A00005B415050A2
:10F5C0004C5D3A203C3C20444D5F4556545F4445D9
:10F5D000564943455F434F4E544558545F44454C4C
:10F5E000455445440D0A00007FB50546039502F0D9
:10F5F000D5FB044600BF264646B139A10020FDF7E1
:10F6000081FB00BF3046FEF765F800BF00BF03A8CE
:10F6100000F0E0FB044600BF264646B130A10020C2
:10F62000FDF770FB00BF3046FEF754F800BF00BF87
:10F630000020CDF805008DF809002E48009002202A
:10F640008DF804009DF8050020F00100401C8DF8A5
:10F6500005009DF8050020F00200801C8DF80500D3
:10F660009DF8050020F004008DF805009DF80500C8
:10F6700020F008008DF805009DF8050020F07000CE
:10F6800030308DF805009DF8050020F080008DF8E1
:10F69000050007218DF8061010218DF807109DF840
:10F6A000090020F00100401C8DF809009DF80900B8
:10F6B00020F00200801C8DF8090069460E4800F019
:10F6C00041FD044600BF264646B105A10020FDF7D6
:10F6D00019FB00BF3046FDF7FDFF00BF00BF7FBD37
:10F6E0004572726F7220436865636B204661696C76
:10F6F00065640A0021F10100B01E00202DE9F041EF
:10F7000004460D46164694F8A601C0EBC00000EB77
:10F71000800004EB4008404602F094FD0746002FAD
:10F7200040D02148006806283CD21F48006800EB02
:10F7300080001E4901EB001046801B49096801EB5F
:10F7400081011A4A02EB0111081D46224146FCF7CD
:10F7500051FF4DB100201449096801EB8101134AA2
:10F7600002EB0111087008E002200F49096801EB63
:10F7700081010E4A02EB011108700B48006800EB92
:10F7800080000A4901EB0010C76407480068401C6C
:10F79000054908600846006805490968884201D1A2
:10F7A00002F088F9BDE8F081E81E00205C2300200B
:10F7B000EC1E00202DE9F04194B004460D4616469B
:10F7C00094F8A601C0EBC00000EB800004EB4008F9
:10F7D000404602F037FD074647B1ADF8066001200C
:10F7E0008DF80400029501A8B84700BF14B0BDE829
:10F7F000F08100002DE9F04790B004464FF0000979
:10F80000CA4600BFFA48007810B910B0BDE8F087CA
:10F8100000BF00BFF748006800B9F6E700BF0DA8B9
:10F8200000F0CCFA054600BF2E4646B1F2A10020FA
:10F83000FDF768FA00BF3046FDF74CFF00BF00BF80
:10F8400000270025201D0B902C20ADF83000FF2054
:10F850008DF8360000208DF834000F902088102895
:10F8600013D0A0880FAA0221FFF718FA054665B940
:10F870000F9800EB4000E54901EB8000C07A8DF85D
:10F8800036000F98C0B28DF83500208819287DD039
:10F8900006DC10280BD0112879D0132878D1E3E0AA
:10F8A0001A2876D01E2875D05228F7D123E20FAE41
:10F8B000324601214FF6FF70FFF7F0F98046B8F1AC
:10F8C000000F08D10220316801EB4101CF4A02EB61
:10F8D0008101887201E04FF0040800BF4546002D09
:10F8E0006BD14FF0010911208DF828000F98C0B29C
:10F8F0008DF83500A0880F9901EB4101C34A02EB56
:10F900008101088102200F9901EB410102EB810185
:10F9100088720F9800EB4000114601EB8001A2684D
:10F920000A60A2898A80A07B88710EA904F1080070
:10F93000FFF7D6FB054675BBDDE90E0101EB410182
:10F94000B24A02EB8101C8720F9800EB40001146E9
:10F9500001EB8000807A40F008000F9901EB410133
:10F9600002EB810188720E98C0B28DF836000E98B5
:10F9700081B26A46A64802F01DF90546E5B90F991D
:10F98000C1EBC101A34A02EB810005E0A4E015E050
:10F99000C0E145E1B8E110E018231C22694602F0FD
:10F9A00045FA05469348807A9B4951F820200DA9D5
:10F9B00068469047054600BF00BFACE10F9800EBDA
:10F9C0004000924901EB8000807A20F002000F99FC
:10F9D00001EB41018D4A02EB810188720F9800EB27
:10F9E0004000114601EB8000807A00F008000828F2
:10F9F0000ED10F9800EB400001EB8000807A00F000
:10FA0000800080280FD100210DA8FFF7B5FA0AE089
:10FA10009DF83600FF2806D09DF8360002F01CF84D
:10FA2000FF208DF836000F9800EB4000774901EB7E
:10FA30008000807A00F00400042807D14FF0010A0A
:10FA40006C48407A20F001006A49487210200F99F2
:10FA500001EB41016D4A02EB810188724FF001090F
:10FA600012208DF8280056E14FF000090020029086
:10FA70000390049005900F98C0EBC000654901EB1E
:10FA8000800006900F9800EB4000604901EB800079
:10FA9000C07A00EB4000614901EBC00107910021F1
:10FAA00008910991A08802AB002211467FDF05462C
:10FAB0000DB12F460FE00F9800EB4000534901EBCA
:10FAC0008000807A40F004000F9901EB41014F4A19
:10FAD00002EB810188721EE14648407A20F0010065
:10FAE000444948720F9800EB4000484901EB800000
:10FAF000807A20F004000F9901EB4101434A02EBA8
:10FB00008101887214208DF828004FF001094FF010
:10FB1000010A207A08B1277A68E0607AC0F3800091
:10FB2000F0B39DF83600FF2860D00F9800EB40003E
:10FB3000364901EB8000807A40F008000F9901EB14
:10FB40004101324A02EB81018872607BC0F34000C0
:10FB500088B19DF8360000EB4000304901EBC00051
:10FB6000C07D20F001009DF8361001EB41012B4AC9
:10FB700002EBC101C8750F9800EB4000234901EB6F
:10FB80008000C07AFF2831D00F9800EB400011F8B8
:10FB90002000022826D09DF8360000EB400000E04F
:10FBA00024E01E4901EBC0000F9901EB4101174A07
:10FBB00002EB81010A6802618A88828289798175F3
:10FBC0009DF8360000EB4000144901EBC000C07DF9
:10FBD00020F002009DF8361001EB41010F4A02EBC4
:10FBE000C101C87501210DA8FFF7C6F993E0000017
:10FBF000001F0020342600204572726F7220436877
:10FC000065636B204661696C65640A0028260020E4
:10FC1000F41E002000260020003402005825002099
:10FC2000207A0121B1EB101F43D1207A00F00F00A0
:10FC300001283ED10F9800EB40005C4901EB8000A9
:10FC4000807A00F00800082833D10F9800EB4000BC
:10FC5000574901EB800000214160018116208DF899
:10FC600028004FF0010A0F9800EB40004F4901EBCC
:10FC70008000807A40F020000F9901EB41014B4A4F
:10FC800002EB810188720F9800EB4000114601EBF6
:10FC90008000807A40F040000F9901EB410102EBB7
:10FCA000810188724348407A40F00200414948721D
:10FCB0001DE00F9800EB40003C4901EB8000807A8A
:10FCC00040F080000F9901EB4101384A02EB8101BD
:10FCD000887215208DF828003648807A364A52F806
:10FCE00020100DA8884705460DB148F241070027AE
:10FCF0004FF001090FE02F48807A2F4A52F8201068
:10FD00000DA88847074606E013208DF828004FF01D
:10FD1000010900E000BF00BFB9F1000F17D03A465B
:10FD20000AA90DA8FDF7E4FC9DF8280012280ED1C1
:10FD300000BF0F9800EB40001C4901EB8000807A67
:10FD4000012802D00F98FEF7CDFF00BF00BFBAF127
:10FD5000000F29D01748407A00F00200022823D172
:10FD600008AA20214FF6FF70FEF798FF0546A5B9B7
:10FD700000208DF824000898C0B28DF8250008985E
:10FD800000EB4000094901EB8000C07A8DF82600A5
:10FD900009A800F06BFE054605E00648407A20F011
:10FDA00002000449487200BF00BF2EE5282600204B
:10FDB0001C2600203426002010340200014611B910
:10FDC00048F20E007047FF20087048708870C870B5
:10FDD0000020F7E77FB506461EB948F20E0004B0D2
:10FDE00070BD002412E02046002100EB4002334B9E
:10FDF00043F8221000EB400203EB8202517200EB49
:10FE0000400203EB8202917200BF641C002CEAD016
:10FE1000002403E02046FEF765FF641C002CF9D0A7
:10FE200027480021016041608160002403E02046F2
:10FE300001F012FE641C072CF9D35C20ADF80C0015
:10FE40000720ADF80E001F4802901F4902A802F0DB
:10FE500067F8054625BB01201C490870307800BBB7
:10FE600000241BE0A1B26A46174801F0A3FE054634
:10FE70007DB904EB4401164A02EBC10000231822AD
:10FE8000694601F0D3FF05463DB100200F490870D7
:10FE900006E000200D49087002E0641C072CE1D345
:10FEA00009E0BDF80C00BDF80E20504381B20648B1
:10FEB00001F0D0FE0546284691E7000034260020D8
:10FEC0001C260020D5FE0100F41E0020001F00208B
:10FED000582500202DE9FF4F91B00F4692461D4650
:10FEE000DDF8789000BF8848006810B915B0BDE80B
:10FEF000F08F00BFB9F15C0F00D9F7E74FF0010BAD
:10FF00000DA8FFF75BFF064600BFB046B8F1000F33
:10FF100008D07EA10020FCF7F5FE00BF4046FDF7AB
:10FF2000D9FB00BF00BF00208DF834008DF83800E9
:10FF30000C95CDF82C90804614E01FFA88F108AAA1
:10FF4000774801F037FE064656B9082208A91198ED
:10FF5000FCF700FB20B908F0FF008DF8360004E044
:10FF600008F10108B8F1070FE7D300BF9DF836008C
:10FF7000FF2879D0032F0AD1B9F15C0F03D12020DB
:10FF80008DF838009CE040208DF8380098E06548F6
:10FF9000281A1821B0FBF1F4072C1BD20AA80F90E5
:10FFA000BAF1000F0ED19DF83600012181405E4A62
:10FFB0001268114009B1012100E0002111B94FF090
:10FFC000000B7DE09DF8360003F066F920208DF8E7
:10FFD000380075E05548281A1C21B0FBF1F4F4B93B
:10FFE0000AA80F9020208DF83800E0B28DF8350077
:10FFF000002000904E480190C4EBC4004B4901EB37
:020000040002F8
:10000000800004909DF8360000EB4000454901EB6C
:10001000C0010591CDF830D020200B9050E045482C
:10002000281A0C21B0FBF1F4FCB930208DF838000F
:10003000E0B28DF8350001208DF8370004EB440064
:100040003D4901EB8000807A00F00200022837D0A1
:100050009DF8350000EB4000364901EB800000219F
:100060000160416081602BE04CE04FF0000B4020CC
:100070008DF838003148854203D103274FF0010B3A
:100080001EE09DF836002E4951F82000A84217D1F5
:100090004FF0010B0AA80F9000200EE09DF83610DB
:1000A00000EB4002244B03EB8202D27A914203D14F
:1000B000C1B28DF8351002E0401C0028EED000BF20
:1000C000BBF1010F1ED1032F06D19DF8380040F07F
:1000D00003008DF838000EE0022F06D19DF838009D
:1000E00040F001008DF8380005E09DF8380040F040
:1000F00002008DF838000AA80F9052460EA90DA8EC
:10010000FDF7F6FA00BFF1E6342600204572726F63
:100110007220436865636B204661696C65640A0000
:10012000F41E002058250020FC1E00200026002080
:10013000402600201C260020282600202034020013
:100140003C25002010B5024600BF1548007810B9C4
:1001500048F2080010BD00BF12B948F20E00F9E7DE
:1001600011B948F20E00F5E7086810B948F20E0020
:10017000F0E70C48006878B90A4C0868206020460F
:10018000D1F8054044604C7A04720879054CA0729D
:1001900000201070002301E048F204031846D9E75C
:1001A000001F002034260020F8B5044600BF554843
:1001B000007810B948F20800F8BD00BF14B948F241
:1001C0000E00F9E700BF2078012806DA207800EB5E
:1001D00040004D4951F8200010B948F20800EBE703
:1001E00000BF00BF6078012808DA607800EB4000AB
:1001F000464901EB8000807A012802D148F21000C4
:10020000DAE700BF48F20805607800EB40003F499C
:1002100001EB8000807A00F00200022870D1A07803
:10022000FF2807D1607800EB400001EB8000C07A26
:10023000FF281ED0607800EB4000344901EB8000BD
:10024000C07AA0706378C3EBC303314E06EB830220
:100250006378C3EBC30306EB830303F112016378F6
:1002600003EB4303294E06EB8303188985DF05461C
:1002700046E0607800EB4000244A02EB80016846CB
:10028000FEF7EAFE0546ADBB9DF80000617801EB84
:1002900041011E4A02EB8101C8729DF80000A07066
:1002A000207800EB4000184901EB8000407A00F014
:1002B000010000B3607800EB4000114601EB8000C4
:1002C000807A40F02000617801EB410102EB81016E
:1002D0008872207800EB40000B4901EB8000407AE7
:1002E00040F00200217801EB4101074A02EB810155
:1002F0004872002503E0204600F0B8FB054600BF29
:10030000284659E7001F0020342600202826002018
:1003100000260020F0B5044600BF3C48007810B924
:1003200048F20800F0BD00BF14B948F20E00F9E72A
:1003300011B948F20E00F5E7086810B948F20E004E
:10034000F0E7886810B948F20E00EBE700BF2078AC
:10035000012806DA207800EB40002D4D55F82000EA
:1003600010B948F20800DDE700BF00220023002694
:10037000002045E00026002514E005EB4507DFF8E6
:1003800094C00CEB8707FF7A87420AD105EB45073B
:100390000CEB8707BF7A07F00207022F01D1012675
:1003A00002E06D1C002DE8D000BF46BB0D7B9D42D6
:1003B00010D900EB4005184F07EBC505ED7D05F0A2
:1003C00001053DB900EB400507EBC5058F6847F80F
:1003D00023505B1C0D79954211D900EB40050E4F5F
:1003E00007EBC505ED7D05F0020545B900EB4005BD
:1003F00007EBC50510350F6847F82250521C401C0A
:100400000728B7D30A710B7300208BE7001F002069
:1004100034260020282600205825002001461448B4
:100420000078144A127890421DD011480078401C80
:100430000F4A107010460078022801D10020107079
:100440000D480B4A127850F8220008600B4A0868E1
:1004500012681044094A10601046006820F07F407E
:100460001060012070470020086000BFFAE700001C
:10047000581F0020591F0020501F00204C1F002033
:1004800010B50C48007800F0080078B90A480068F8
:10049000401C0949086000F0C3FB10B9FEF79AFA46
:1004A00006E00648007802F019F901E000F08AFD44
:1004B00010BD0000281F0020181F00200C1F002066
:1004C0000A48007806280ED10848001D007800F080
:1004D0000F0040B905480830007800F0F0003028DF
:1004E00001D1012070470020FCE70000E00F00F080
:1004F00013480078062820D11148001D007800F02C
:100500000F00D0B90E480830007800F0F000302815
:1005100001D1012070470A480830007800F0F0004F
:10052000402801D10120F5E705480830007800F0A7
:10053000F000502801D10120ECE70020EAE700009C
:10054000E00F00F00A48007806280ED10848001D88
:10055000007800F00F0040B905480830007800F03E
:10056000F000302801D1012070470020FCE7000096
:10057000E00F00F013480078062820D11148001D34
:10058000007800F00F00D0B90E480830007800F075
:10059000F000302801D1012070470A480830007867
:1005A00000F0F000402801D10120F5E705480830AF
:1005B000007800F0F000502801D10120ECE7002085
:1005C000EAE70000E00F00F00A48007806280ED1A4
:1005D0000848001D007800F00F0040B905480830B9
:1005E000007800F0F000302801D101207047002091
:1005F000FCE70000E00F00F00A48007806280ED162
:100600000848001D007800F00F0040B90548083088
:10061000007800F0F000302801D101207047002060
:10062000FCE70000E00F00F00A48007806280ED131
:100630000848001D007800F00F0040B90548083058
:10064000007800F0F000502801D101207047002010
:10065000FCE70000E00F00F0F0B5034600241FE0C7
:10066000124E306806689E4203D90668F61A066084
:100670001AE006689B1B06683444002606600B4E91
:1006800035680A4FC6693E60C66846B10E1926F045
:100690007F464660C66886601668C661156000BF02
:1006A000024800680028DBD100BFF0BD481F0020D1
:1006B00010B5044614B1112C08D100E00AE0064838
:1006C000006840F008000449086003E02046FDF798
:1006D00037F800BF00BF10BD281F002010B50D481F
:1006E0000068401C0B490860B0F57A7F0DD00A48BD
:1006F0000078022804D00848007801F0EFFF07E0F6
:100700000648007802F09AFA02E00D20FDF718F88A
:1007100010BD00001C1F00200C1F00200D1F00201A
:1007200010B50A480078012804D0022808D0032810
:1007300009D102E002F022FA06E0FFF7A1FE03E091
:1007400002F070FA00E000BF00BF10BD0C1F0020D7
:1007500070B50446204628DF0546FFF7A9FF70BDA7
:100760002DE9F04104460D461646324629462046FC
:1007700029DF0746FFF79CFFBDE8F0810146002016
:100780007047024600207047024600207047000074
:100790002DE9F041044600260027607800EB400078
:1007A0001B4951F8200008B3607800EB400019495C
:1007B00001EB8000807A00F08000802816D16078FC
:1007C00000EB400001EB8000807A00F04000402800
:1007D0000CD0607800EB40000D4901EB8000061D55
:1007E000607800EB400031F8200087B2617801EBBF
:1007F0004101084A02EB8101088903233A46314648
:10080000A9DF05460DB148F241052846BDE8F08153
:100810001C2600202826002070B505460C4661786D
:1008200001EB41010D4A02EB810034230C222946E1
:1008300001F0FCFA064676B9607800EB4000074903
:1008400051F82000401C30B90020617801EB4101D3
:10085000024A42F82100304670BD00001C260020EC
:10086000FEB506460C4606200290617801EB410178
:100870002C4A02EB81010889032302AA6946AADFF8
:100880000746002F4BD1617801EB4101264A02EB6C
:100890008101081DBDF808206946FBF75BFEA8B979
:1008A000607800EB40001F4901EB8000807A00F087
:1008B0000200022833D0607800EB40001A4901EBB7
:1008C0008000002101604160816028E0607800EBD9
:1008D0004000154951F8200008B1144D00E0144DB6
:1008E000BDF80800617801EB41010F4A42F8210090
:1008F000617801EB410102EB8101081DBDF8082080
:100900006946FBF7BCFE607800EB4000064A02EB4C
:10091000800134230C223046A847074600BF002040
:10092000FEBD0000282600201C26002055210200C4
:100930003120020070B505462846FFF729FF04461E
:1009400014B900BF00200446204670BD70B50546AE
:100950000E4631462846FFF75FFF044614B900BF34
:1009600000200446204670BD70B505460E4631464F
:100970002846FFF775FF044614B900BF002004465F
:10098000204670BD2DE9F04105460F46012000FAD2
:1009900005F418480068FCF78DFF06460EB1BDE867
:1009A000F081154800682040E0B9284600F01CFCA2
:1009B00028B11248006820431049086004E00F483D
:1009C0000068A0430D4908600B48006820430A49AD
:1009D000086000220A48016806480068FCF73EFFEC
:1009E000064604E004480068A0430349086000BFCD
:1009F000D5E700004C3402003C1F0020381F0020C7
:100A0000341F002010B51648007800F0080018BB0D
:100A100000F032F960B10020124908601048006807
:100A200040F001000E490860002002F007F915E0CF
:100A300000F0F6F830B100200A490860022002F008
:100A4000FDF80BE00848006818B1032002F0F6F842
:100A500004E002F0C7F801E002F0D4F810BD000095
:100A6000281F0020101F0020141F002070B504460E
:100A7000227802EB42021F4B03EB8202111D6278C7
:100A800002EB42021C4B03EB820210897EDF05461B
:100A900075BB207800EB4000164901EB8000407ADE
:100AA00040F00100217801EB4101124A02EB810183
:100AB0004872607800EB40000F4901EB8000807ABB
:100AC00040F00400617801EB41010B4A02EB810127
:100AD0008872607800EB4000114601EB8000807A5C
:100AE00020F02000617801EB410102EB8101887266
:100AF000284670BD3426002028260020F8B523485B
:100B0000007800B9F8BD2248006808B9012000E06B
:100B1000002005461F48006808B9012000E00020B9
:100B2000064600BF8DB9684652DF0446052C01D148
:100B3000012509E024B100BF2046FCF7CBFD03E00E
:100B4000134900980968884700BFBEB91248008859
:100B5000009069461148006861DF0446052C01D108
:100B600001260AE024B100BF2046FCF7B3FD04E0F3
:100B70000A48006807490968884700BF0DB106B1F7
:100B800000E0CFE700BF00BFBCE700006C1F002003
:100B90007C1F0020781F0020741F0020701F002081
:100BA00002460B8992F8A601C0EBC00000EB800062
:100BB00002EB40000089834201DA012070470020E7
:100BC000FCE730B50446E2B90D8994F8A601C0EB04
:100BD000C00000EB800004EB40000089854201D199
:100BE000002030BD0889401C188094F8A601C0EB95
:100BF000C00000EB800004EB400000895880012019
:100C0000EFE70889401CD588A84201D10020E8E719
:100C10000889401C1880D088401E58800120E0E7D9
:100C20002DE9F0411148007800EB80010F48001DCC
:100C300000EB8105EF6801F0ACF869883944AA88B7
:100C40001144491EB1FBF0F609480068B04206D3D2
:100C500007480068B04204D10648006808B901247A
:100C600000E000242046BDE8F0810000D0260020EE
:100C7000181F0020141F00202DE9F0410F480078B4
:100C800000EB80010D48001D00EB8105EE6801F0CE
:100C900080F869883144AA881144491EB1FBF0F7F5
:100CA0000748006828B107480068B84201D101240C
:100CB00000E000242046BDE8F0810000D02600209E
:100CC000141F0020181F0020014601F0030008B97E
:100CD000012070470020FCE710B504460448007866
:100CE00000F0010018B103480078FDF727FA10BDA5
:100CF000C81E0020C01E00202DE9F0412148D0F878
:100D00000080214806782FE02048006800EBC604E8
:100D1000257825E005EB4501606800EBC107681CFC
:100D2000C5B2A078A84200D100253878022802D0A8
:100D3000032812D103E0786802F05CF80EE007E0C7
:100D400010490868002101740E4AC169116000BF92
:100D50000C4800680028F3D100E000BF00BF00BFCE
:100D60006078A842D6D100BF301EA6F10101CEB2F4
:100D7000CAD104480068404502D00120BDE8F08196
:100D80000020FBE7481F0020401F0020441F0020D8
:100D90002DE9F04706463B48D0F800903A480778DE
:100DA00061E03A48006800EBC70555E016B13446EB
:100DB000E66923E02A7802EB4202696801EBC2008F
:100DC0002978491C29702978AA78914201D10021FB
:100DD000297044680178012901D1217C01B13BE0EF
:100DE00081686160C168A1600169E1604169A161D8
:100DF0002749097809B10021616000BF2549606871
:100E00000968401A20F07F402349884208D22149CE
:100E10006068096801F05AFFA1680844206010E08A
:100E20001C486168006801F051FF8046A068404599
:100E300004D9A068A0EB0800206001E00020206039
:100E400000BF00206060A060012020740020E061ED
:100E5000204601F09BFF00BF002EA7D128786978BB
:100E60008842A3D100BF381EA7F10101CFB298D1AB
:100E700004480068484502D00120BDE8F087002002
:100E8000FBE70000481F0020401F0020441F0020F7
:100E9000611F00204C1F0020FFFF7F0008B50F4896
:100EA000007808B1002008BD012083020C4A0DA182
:100EB00000900020FBF70CFE08B10820F3E70020AB
:100EC00010230A4A0AA10090FBF7B8FD08B10820D8
:100ED000E9E70120014908700020E4E7621F0020D3
:100EE000C82700204E6F726D616C0000C82B002077
:100EF000496E7075740000000FB438B5044606A83A
:100F000000906A4620460599FBF709FF00200090F3
:100F100038BC5DF814FB000008B500BF0023174A79
:100F200003211846FCF73EFC044600BF254645B1A8
:100F300013A10020FBF7E6FE00BF2846FCF7CAFB22
:100F400000BF00BF00BF6846FDF7F6FB00F0D8F910
:100F500010A10020FBF7D6FEFCF78AFE12A10020AC
:100F6000FBF7D0FE9DF80000FEF73EFBFDF742FFC9
:100F700001F024FA00BF00F0EBFDFCE7A021002007
:100F80004572726F7220436865636B204661696CBD
:100F900065640A000A0A43656E7472616C205072BF
:100FA0006F6772616D0A0000424C452053746163A3
:100FB0006B20496E697420436F6D706C6574650AAF
:100FC0000000000010B50548006820F00800034943
:100FD00008600348007801F081FB10BD281F002045
:100FE0000C1F002001460020704702460020704779
:100FF000024600207047000070B50B4601461A46B5
:10100000002907DA5407260E104C01F00F052D1F9A
:10101000665503E05407250E0D4C655400BF00BF14
:1010200000F01F02012191400A4A440942F82410AD
:1010300000BF00BF00F01F02012191404209920051
:1010400002F1E022C2F8001100BF70BD18ED00E00F
:1010500000E400E080E200E02DE9F04705460E469E
:10106000284600F053FDF8B12846FDF7FBFB083891
:1010700024490F5CBC11032C0BD100BF224800682F
:101080000121A940084008B1032000E00220804669
:1010900005E0012C01D1022000E0032080464146FA
:1010A000284600F0F5F82AE0284600F03BFD30B372
:1010B0002846FDF7D7FB0446A00000F5807087B2F4
:1010C0002046124951F8201041F001020F4941F821
:1010D000202000BF384600F0F3F87EB12846FDF727
:1010E000C1FB8146FDF776FB8046B8F1000F04D0C6
:1010F000012101FA04F000F0FDF800BF00BFBDE8D7
:10110000F0870000A8260020100500501065004060
:101110002DE9FC4704460E4617464FF000082046CE
:1011200000F0E6FC10B14FF0080851E0F2783946C3
:101130002046FDF757FB0546681C002845D0B078CF
:1011400060B100BFA10001F1A041D1F8001721F06A
:101150000200214941F8240000BF0CE096F80190FC
:10116000002000904B46024601460190204600F0C8
:101170007DF800BF00BFF078D0B13078174951F842
:101180002510174A1140154A42F82510114651F80A
:1011900025104FF4F85202EA04224FF4403303EAD8
:1011A00000431A4311430D4A42F8251000BF0EE0D8
:1011B000A5F108000B49085C317840EA811042B281
:1011C000A5F1080007490A5401E04FF0040800BFE8
:1011D0004046BDE8FC870000000700501065004055
:1011E000FFE0FCFFA8260020014600BF044800687D
:1011F000C84000F0010008B1012070470020FCE762
:101200001005005010B5134890F8540008B108209C
:1012100010BD002404E0204600F094FC601CC4B221
:10122000202CF8DB002404E02046FDF7C3FA601C04
:10123000C4B20C2CF8DB06210846FFF7DDFE4FF0A8
:10124000004000F057F80120024981F854000020C6
:10125000DEE7000058260020034890F8540008B14B
:10126000012070470020FCE758260020F0B5DDE99A
:10127000054541EA420646EA830646EA042646EA6E
:101280000547024E46F82070F0BD000000070050F0
:10129000074A52F8202022F44033054A42F8203011
:1012A00052F8202042EA0143014A42F820307047B8
:1012B00000070050014601480844704700600040A4
:1012C00038B504462046FFF7F5FF002101602046AF
:1012D000FFF7F0FF0068009000BF38BD10B504466E
:1012E0002046FFF7E7FF0068012800D110BD00206D
:1012F000FCE70000014908607047000004630040FB
:1013000070B5FFF7CBFD044600BF254645B105A1EA
:101310000020FBF7F7FC00BF2846FCF7DBF900BF15
:1013200000BF70BD4572726F7220436865636B20A9
:101330004661696C65640A000146D1F88004C1F811
:10134000800470470246505808B1012070470020C1
:10135000FCE7002242507047C0F80813704702466D
:10136000D2F80403084008B1012070470020FCE7D0
:101370000122425070470146D1F88004C1F8800430
:1013800070470246505808B1012070470020FCE722
:10139000002242507047014640F23C50405870478E
:1013A0002DE9FC4106465DA103C9CDE900014FF0DE
:1013B0000108351D3088102863D01B284FD01D2808
:1013C00002D01F287DD193E0002008E0691D095C50
:1013D0001DF80020914201D04FF00008401C062863
:1013E000F4DBB8F1000F00D195E04EA10020FBF72F
:1013F00089FC8BDF044624B122464BA10020FFF775
:101400007BFD0020FCF722FE044600BF274647B1C3
:101410004FA10020FBF776FC00BF3846FCF75AF9D5
:1014200000BF00BF4F48007820F002004D4908700F
:10143000002048604CA1FBF765FC514A4949281D32
:101440008CDF044600204F49087001204E49087087
:1014500024B122464DA10020FFF74EFD5BE0287924
:10146000022806D155A10020FFF746FD00F0A6FF97
:1014700006E02879032803D157A10020FFF73CFD9F
:1014800049E05FA10020FBF73DFC29880022664867
:10149000FCF778FB0446224664A10020FBF732FCEF
:1014A00000BF274647B12AA10020FBF72BFC00BF55
:1014B0003846FCF70FF900BF00BF298800226048BA
:1014C00000E027E0FCF710FA0446224657A100206E
:1014D000FBF718FC00BF274647B11DA10020FBF712
:1014E00011FC00BF3846FCF7F5F800BF00BF12E062
:1014F0002888291D75DF044600BF274647B114A17F
:101500000020FBF7FFFB00BF3846FCF7E3F800BF05
:1015100000BF00E000BF00BFBDE8FC818EBBFA55F4
:101520001CF400000A0000005B4150504C5D3A2062
:101530005363616E2073746F70206661696C6564BB
:101540002C20726561736F6E2025640D0A00000007
:101550004572726F7220436865636B204661696CE7
:1015600065640A0048210020496E697469617469E4
:101570006E6720436F6E6E656374696F6E0A00005C
:10158000A8330200BA1E0020BB1E00205B41505051
:101590004C5D3A20436F6E6E656374696F6E2052C6
:1015A000657175657374204661696C65642C207281
:1015B0006561736F6E2025640D0A00005B41505019
:1015C0004C5D3A205363616E2074696D6564206FD1
:1015D00075742E0D0A0000005B4150504C5D3A209E
:1015E000436F6E6E656374696F6E205265717565C9
:1015F00073742074696D6564206F75742E0D0A0014
:10160000424C455F4741505F4556545F434F4E4EF5
:101610004543544544204576656E742052656365A4
:10162000697665640A000000302100204572726FFF
:101630007220436F64652069732025640A000000EE
:101640003C2100202DE9FE4F06460C46002002906A
:101650002088B6F8AA11884201D0BDE8FE8F96F81E
:10166000A601C0EBC00000EB800006EB40056088DF
:10167000002862D104F1080A95F804B09AF8000035
:10168000019001985844052804DC29790198084400
:10169000287101E0052028715F464FF000091CE029
:1016A00007EB470105F10A0000EB810109EB890214
:1016B0000AF1020000EB420002680A6042684A60D8
:1016C00000890881002107EB470205F10A0000EBC1
:1016D000820041817F1C09F101092879B842DFD8D5
:1016E000781E00EB400105F10A0000EB810000903C
:1016F00030460099FFF754FA10B12879052802D135
:101700000120029018E0287986F8A501218830464A
:10171000FDF7AEF88046B8F1000F0DD0002086F836
:10172000A701228841463046FEF744F803201C49B1
:1017300008702088488090E701E00120029002981C
:1017400060B3002086F8A501228801A93046FDF784
:1017500071FB8046B8F1000F0DD0002086F8A7017C
:10176000228841463046FEF725F803200C490870D0
:101770002088488071E79DF8040070B123882A888A
:1017800008490020FFF7B8FB228801213046FDF709
:10179000B5FF2188304600F0F3F800BF00BF5CE7DA
:1017A0005C230020643402002DE9F84305460C4612
:1017B0002088B5F8AA11884201D0BDE8F88395F8D1
:1017C000A601C0EBC00000EB800005EB400704F170
:1017D000080695F8A50100EB400107F10A0000EBAF
:1017E00081086088C8B9002012E000EB4002B11CFB
:1017F00001EB4201498842F60212914207D100EB07
:101800004002B11C31F81210A8F80A1003E0401C85
:1018100031888142E9D800BF00BF0020009095F8D0
:10182000A501401C3979884202D1012000901CE0BA
:1018300095F8A501401C85F8A5012288694628462F
:10184000FDF7F8FA8146B9F1000F0DD0002085F8B8
:10185000A701228849462846FDF7ACFF03200D4921
:10186000087020884880A8E700BF9DF8000070B18C
:1018700023883A8808490020FFF73EFB228801218F
:101880002846FDF73BFF2188284600F079F800BF85
:1018900093E700005C230020103502000A88B0F8AE
:1018A000AA319A4202D1002280F8A7217047000095
:1018B0002DE9F04105460C4695F8A601C0EBC000A5
:1018C00000EB800005EB40062088B5F8AA1188429D
:1018D00001D0BDE8F081608808BB328818A10020E3
:1018E000FFF70AFB04F10808D8F802003060D8F8C6
:1018F0000600C6F8060021882846FCF7B9FF07460F
:1019000067B1002085F8A701228839462846FDF7EF
:1019100051FF032011490870208848800DE032886B
:101920000FA10020FFF7E8FA228800212846FDF7E2
:10193000E5FE2188284600F023F800BFC9E7000033
:10194000466F756E642073657276696365205555C0
:10195000494420307825780D0A0000005C230020DF
:101960005365727669636520555549442030782562
:1019700078204E6F7420666F756E640D0A0000004B
:101980002DE9F04104460D4694F8A801401C84F866
:10199000A80194F8A80121490968884233D200209F
:1019A00084F8A50194F8A601401C84F8A60194F8D7
:1019B000A601C0EBC00000EB800004EB400694F8E9
:1019C000A601174901EB80000068306000203071EB
:1019D00032882B461349FFF78FFA324601212846F9
:1019E00090DF074677B1002084F8A7012A463946E0
:1019F0002046FDF7DFFE03200B49087008464580AE
:101A0000BDE8F08107E0002084F8A7010320064923
:101A100008700846458000BFF2E70000EC1E002079
:101A200044230020C03402005C23002010B504468B
:101A3000022C02D0032C0AD100E000BF0548007838
:101A400020B100200349087000F0B8FC00E000BF9E
:101A500000BF10BDBC1E002010B5044604EB4400BE
:101A6000124901EBC0000021401C0161818204EB9E
:101A700044000E4901EBC00000210160416081601B
:101A8000C160FF2004EB4401084A02EBC101087465
:101A900004EB440102EBC101C875204601F0FCFBD8
:101AA0000020034941F8240010BD00005825002003
:101AB0003C25002010B5002400BF0BE004EB84029D
:101AC000084B03EB021004EB840203EB0212D16C0F
:101AD0008847641C044800688442EFD3002003490F
:101AE000086010BD5C230020EC1E0020E81E0020D2
:101AF000014605484056012202EBE07008B1012082
:101B000070470020FCE700008826002001460448BA
:101B10004056082801DB012070470020FCE7000048
:101B200088260020014606484056002805DB044868
:101B30004056082801DA012070470020FCE7000029
:101B400088260020FF2201490A5470478826002079
:101B500070B548DF044600BF254645B105A1002009
:101B6000FBF7D0F800BF2846FBF7B4FD00BF00BF6D
:101B700070BD00004572726F7220436865636B2010
:101B80004661696C65640A00014600BF0748007839
:101B900000F0040008B90820704700BF09B90E2002
:101BA000FAE70348407808600020F5E7281F002086
:101BB000D02600207CB5034600BF2448007800F002
:101BC000040008B908207CBD00BF0BB90E20FAE75D
:101BD0000AB90E20F7E7186830B9186800EB400022
:101BE0001B4C54F8200008B90720ECE7D3E90004A7
:101BF000CDE9000401981C6804EB4404144D05EB86
:101C00008404248901FB04000190009800EB40004B
:101C10002C4604EB80004068009C04EB440405EB78
:101C200084046489009D05EB4505094E06EB850596
:101C30002D8904FB0500019CA04201D80720C2E7C2
:101C4000DDE90004C2E900040020BCE7281F0020F1
:101C50009C2700202DE9F84304460D4600BF434869
:101C6000007800F0040010B90820BDE8F88300BF38
:101C70000CB90E20F9E7206830B9206800EB40006D
:101C80003B4951F8200008B90720EEE7206800EB37
:101C90004000374901EB80004068216801EB4101B9
:101CA000334A02EB81014989226802EB4202304B40
:101CB00003EB8202128901FB02006168884201D8AD
:101CC0000720D2E76068FEF7FFFF08B91020CCE7D5
:101CD000D4E9001001EB4101254A02EB810149687A
:101CE000401A216801EB410102EB81010989B0FB37
:101CF000F1F201FB120008B10720B6E7206800EB03
:101D000040001B4901EB8000008995FBF0F100FBCE
:101D1000115000B90DB90720A7E7206800EB40007B
:101D2000134901EB80000089216801EB4101104A51
:101D300002EB8101498900FB01F6606847192068C0
:101D400000EB4000114601EB8000406800EB060804
:101D5000474501D9072088E700202B460246214647
:101D600000900320FCF7A0FE7FE70000281F002062
:101D70009C27002010B54FF010204469601C20B152
:101D800000F007F8B4FBF0F010BD4FF08050406950
:101D9000FAE74FF08050006980B2704710B5FCF749
:101DA000D1FE002019490880FFF7E4FF841EFFF7E9
