:020000040001F9
:10C00000E05100208DC2010095C2010097C20100DD
:10C0100099C201009BC201009DC201000000000006
:10C020000000000000000000000000009FC20100AE
:10C03000A1C2010000000000A3C20100A5C20100CE
:10C04000A7C20100A7C2010065CF0100A7C201007D
:10C05000A7C20100A7C20100B5C50100A7C2010027
:10C06000A7C20100A7C20100A7C20100A7C2010028
:10C07000A7C20100A7C20100A7C20100A7C2010018
:10C08000A7C20100DDC70100A7C20100A7C20100CD
:10C09000ADCC0100A7C20100B5CC0100A7C20100D0
:10C0A000A7C20100A7C20100A7C20100A7C20100E8
:10C0B000A7C20100A7C201000000000000000000AC
:10C0C000A7C20100A7C20100A7C20100A7C20100C8
:10C0D000A7C20100A7C20100A7C201000000000022
:10C0E0000000000000000000000000000000000050
:10C0F0000000000000000000000000000000000040
:10C10000000000000000000000000000000000002F
:10C11000000000000000000000000000000000001F
:10C12000000000000000000000000000000000000F
:10C1300000000000000000000000000000000000FF
:10C1400000000000000000000000000000000000EF
:10C1500000000000000000000000000000000000DF
:10C1600000000000000000000000000000000000CF
:10C1700000000000000000000000000000000000BF
:10C1800000000000000000000000000000000000AF
:10C19000000000000000000000000000000000009F
:10C1A000000000000000000000000000000000008F
:10C1B000000000000000000000000000000000007F
:10C1C000000000000000000000000000000000006F
:10C1D000000000000000000000000000000000005F
:10C1E000000000000000000000000000000000004F
:10C1F000000000000000000000000000000000003F
:10C20000DFF80CD000F08AF900480047091002005E
:10C21000E0510020401E00BF00BF00BF00BF00BFB4
:10C2200000BF00BF00BF00BF00BF00BF00BF00BF16
:10C2300000BF00BF00BF00BF00BF00BF00BF00BF06
:10C2400000BF00BF00BF00BF00BF00BF00BF00BFF6
:10C2500000BF00BF00BF00BF00BF00BF00BF00BFE6
:10C2600000BF00BF00BF00BF00BF00BF00BF00BFD6
:10C2700000BF00BF00BF00BF00BF00BF00BF00BFC6
:10C2800000BF00BF00BFC5D170470000064880470F
:10C2900006480047FEE7FEE7FEE7FEE7FEE7FEE7AB
:10C2A000FEE7FEE7FEE7FEE7FDCC010001C201006C
:10C2B00040EA01039B0703D009E008C9121F08C028
:10C2C000042AFAD203E011F8013B00F8013B521EA8
:10C2D000F9D27047D2B201E000F8012B491EFBD21F
:10C2E00070470022F6E710B513460A460446194681
:10C2F000FFF7F0FF204610BD30B50446002003468E
:10C3000000E05B1C934203D2E05CCD5C401BF8D0A4
:10C3100030BD2DE9FE4F81EA030404F0004421F012
:10C32000004100944FF0000B23F0004350EA010459
:10C330005ED052EA03045BD0C3F30A54C1F30A553A
:10C340002C44A4F2F3340194A0FB0254C1F3130172
:10C3500041F48011C3F3130343F4801301FB02443F
:10C3600000FB034E840A970A44EA815447EA835744
:10C37000A4FB076802958D0A05FB07854FEA932CFD
:10C3800004FB0C542705029D4FEA065847EA16376E
:10C39000B5EB08056EEB070C870E920E47EA811786
:10C3A00042EA8312A7FB0201B6EB0B0164EB000427
:10C3B0002B0D43EA0C335E1844EB1C50DA46514611
:10C3C000E7FB0201C5F313044FEA0B3343EA1453AE
:10C3D0004FEA0432019C43EA0603A4F10C040294E0
:10C3E000009CCDE900B400F04BF803B0BDE8F08F3D
:10C3F00000200146F9E70EB540F2334102910021D9
:10C40000CDE900110A460B4600F03AF803B000BD32
:10C41000C1F30A5210B5C1F3130140F2FF3341F4E6
:10C4200080119A4201DA002010BD40F233439A4253
:10C43000A2F2334203DC524200F003F810BD9040F8
:10C4400010BD202A04DB203A21FA02F000217047B7
:10C4500021FA02F3D040C2F120029140084319466C
:10C46000704710B5141E73F1000408DA401C41F146
:10C47000000192185B411A4301D120F0010010BD68
:10C480002DE9F04D92469B4611B1B1FA81F202E0DE
:10C49000B0FA80F22032904600F052F804460F467F
:10C4A00040EA0A0041EA0B0153465A46084313D0BA
:10C4B000114653EA010019D0C8F140025046FFF777
:10C4C000C0FF05460E4650465946424600F038F831
:10C4D000084305D0012004E020463946BDE8F08D30
:10C4E0000020054346EAE0762C4337430A9863056B
:10C4F000E40AA0EB08000022FD0A44EA47540A308F
:10C5000002D500200146E9E7010510196941DDE97E
:10C51000084500196941BDE8F04DA2E7064C074DFA
:10C5200006E0E06840F0010394E807009847103403
:10C53000AC42F6D3FFF768FE003B0200203B02004E
:10C54000202A04DB203A00FA02F1002070479140D3
:10C55000C2F1200320FA03F319439040704770B5ED
:10C560008C1810F8015B15F0070301D110F8013B9E
:10C570002A1106D110F8012B03E010F8016B01F825
:10C58000016B5B1EF9D12B0705D40023521E0DD47D
:10C5900001F8013BFAE710F8013BCB1A921C03E0CB
:10C5A00013F8015B01F8015B521EF9D5A142D8D303
:10C5B000002070BD2DE9F04F87B00027BA464FF438
:10C5C000807006900125002412E0069804F098FF80
:10C5D00040B100BF60480068284018B1069804F0D8
:10C5E00081FF2F436D000698001D80B20690641CE9
:10C5F000082CEAD34FF4BE7004F082FF48B14FF428
:10C60000BE7004F06FFF47F0004700BF534800685A
:10C610008246F8B2F8B1012500241AE005EA0700C5
:10C62000A8B100BF4E4850F82400C0F304200646CD
:10C6300000BF4B4850F82400C0F30140804620461C
:10C6400002F0CCFA814641463046C84700BF6D0033
:10C65000641C082CE2D307F00040002879D04FF08A
:10C66000000B00200590401E049000BF4FF0000B0F
:10C67000002457E03B48005D0390039820F0C0067B
:10C6800038480057401C00284BD00120B040049986
:10C690000840002845D003984FEA9019304602F030
:10C6A000E5FA804602F09AFA0290029810B9B9F1C0
:10C6B000030F35D1012000FA06F5B9F1030F02D1BD
:10C6C00005982843059000BF274850F82600C0F37E
:10C6D000014800BF05EA0A0010B1B8F1020F05D009
:10C6E00005EA0A00D8B9B8F1030F18D1B9F1030F60
:10C6F0000FD1B8F1020F01D1032000E00220019018
:10C700003046019904F0D6FE0BF1010000F0FF0B5A
:10C7100000BF029818B149463046029A904700BFC0
:10C7200000BF641C042CA5D3BBF1000F0DD000BFCB
:10C730000A4909680846504503D14FF0000B03E051
:10C7400007E082460599049100BFBBF1000F8DD12F
:10C7500000BF07B0BDE8F08F046300401005005033
:10C7600010650040042800200007005000F01F0260
:10C7700001219140024A430942F82310704700000A
:10C7800080E200E000F01F02012191404209920086
:10C7900002F1E022C2F800117047000000F01F0211
:10C7A00001219140024A430942F8231070470000DA
:10C7B00000E200E010B5002807DA4A07140E054A27
:10C7C00000F00F031B1FD45403E04A07130E024A64
:10C7D000135410BD18ED00E000E400E010B5002097
:10C7E0000949086000210948C0F84411C0F84811FF
:10C7F000C0F84C1100200549C1F8000102493C393C
:10C80000086006F06DFA10BD4011014000100140B3
:10C810002DE9F04104460D4616461F46DDF8188006
:10C8200000F0ACFB19484069A0422CD904B304EBDA
:10C8300044011648483040F8315004EB440100EB05
:10C84000C100466004EB44011048483000EBC100D1
:10C850008760002104EB44020C48483000EBC20022
:10C86000016104EB44020948483000EBC200C1609A
:10C8700004EB44010548483000EBC100C0F81480C7
:10C880000020BDE8F0814FF0FF30FAE728220020B9
:10C890002DE9F04104460D4616461F46DDF8188086
:10C8A00000F06CFB19480069A0422CD904B304EBDA
:10C8B00044011648183040F8315004EB440100EBB5
:10C8C000C100466004EB44011048183000EBC10081
:10C8D0008760002104EB44020C48183000EBC200D2
:10C8E000016104EB44020948183000EBC200C1604A
:10C8F00004EB44010548183000EBC100C0F8148077
:10C900000020BDE8F0814FF0FF30FAE72822002038
:10C910002DE9F04704468946164600F02FFB04EB4C
:10C920004401564800EBC100007D00F003000228DE
:10C9300027D004EB4401514800EBC100D0F810802F
:10C9400004EB44014D4800EBC100C068A8EB0000B7
:10C95000451E002D06DA04EB4401484800EBC100F7
:10C9600080680544AE420CDD04EB4401434800EB13
:10C97000C100007D00F0030010B90020BDE8F08781
:10C980002E460EB90020F9E7002700BF04EB440152
:10C990003A4800EBC100D0F8108004EB440137485E
:10C9A00000EBC100C068A8EB0000451E002D06DAB0
:10C9B00004EB4401314800EBC1008068054404EBFE
:10C9C00044012E4800EBC10004EB440281682B486F
:10C9D00000EBC200C068081AA84201DD28460CE03E
:10C9E00004EB4401254800EBC10004EB44028168DC
:10C9F000224800EBC200C068081A0546B54201DAB9
:10CA0000284600E03046054604EB44021B4901EB92
:10CA1000C20104EB44034A68184901EBC301C96829
:10CA200050182A464946FFF743FC2F44A944761B79
:10CA300004EB4401114800EBC100C068411904EB4C
:10CA400044020E4800EBC200C16004EB44010B48F5
:10CA500000EBC100C16804EB4402084800EBC200CF
:10CA60008068814206D1002104EB4402034800EBB8
:10CA7000C200C160002E89D138467FE740220020E5
:10CA800070B505460C46204600F099FB0646324636
:10CA900021462846FFF73CFF70BD0FB438B5044669
:10CAA00006A800906A462046059900F003F838BCB5
:10CAB0005DF814FB2DE9F04F99B081460D46144600
:10CAC00003A814904020159000201690CDF8609097
:10CAD000179000BF15F8016B06B9D4E0252E73D16D
:10CAE000002700BF2E78232E12D02B2E0CD02D2EF7
:10CAF00002D0302E10D103E047F001076D1C0CE08E
:10CB000047F002076D1C08E047F004076D1C04E0C5
:10CB100047F008076D1C00E001E000BFE2E74FF0BE
:10CB2000000800BF2E78302E01DB392E00DD07E033
:10CB30006D1CA6F1300008EB880100EB4108F1E71D
:10CB400000BF002013902E782E2E12D16D1C00BF36
:10CB50002E78302E01DB392E00DD09E06D1CA6F1A8
:10CB60003000139901EB810100EB41001390EFE7D6
:10CB700000BF2E7800BF6C2E01D0682E02D115F8B0
:10CB8000016B00E000E0F6E700BF702E5BD008DC30
:10CB9000252E68D0582E35D0632E09D0642E67D14B
:10CBA00013E0732E3CD0752E1DD0782E60D128E076
:10CBB0002168081D2060D1F800A00AF0FF0B59463B
:10CBC00014A800F0CBFA53E055E02168081D20605E
:10CBD000D1F800A0CDE900870A22514614A8139B82
:10CBE00000F0CDF944E02168081D2060D1F800A0D4
:10CBF000CDE900870A22514614A8139B00F034FAAD
:10CC000036E000BF2168081D2060D1F800A0CDE902
:10CC100000871022514614A8139B00F025FA27E044
:10CC20002168081D2060D1F800B000BF1BF8016B1F
:10CC300006B906E0314614A800F090FA17980028CB
:10CC4000F4DA00BF14E02168081D2060D1F800A0CC
:10CC5000002008210B461022CDE90010514614A8EF
:10CC600000F002FA04E0252114A800F077FA00BFD2
:10CC700000BF6D1C03E0314614A800F06FFA17984E
:10CC80000028BFF627AF00BF179800280ADD1698C6
:10CC900020B103A94846169AFFF73AFEDDE91610BF
:10CCA00008441790179819B0BDE8F08F10B505F03B
:10CCB0002FFF10BD70B50B48006880B109480068AF
:10CCC0008047044600BF25463DB100BF064A4FF4E9
:10CCD000B371284600F067FC00BF00BF01E003F01D
:10CCE00077FF70BD5C210020CC340200014802496E
:10CCF000086070470090D003A422002010B503F014
:10CD0000E7FA28B188480088C0F304208749086002
:10CD100003F008FB10B186488649486703F01AFB08
:10CD200030B18148E0380068C0F342308249086081
:10CD300003F03AFB28B18148006820F080707F49F9
:10CD4000086003F049FB48B100207D4908604FF0BE
:10CD50008041C1F810017849091F086003F066FBA3
:10CD600018B1032074496431086003F077FB68B19F
:10CD7000052074490860012072497831086000205C
:10CD80007049083108603F20091F086003F07EFBEE
:10CD9000002855D06448E03000686B49086062485C
:10CDA000E4300068091D08605F48E8300068091D2C
:10CDB00008605D48EC300068091D08605A48F03092
:10CDC0000068091D08605848F4300068091D0860B3
:10CDD0005548F83000685C49203108605248FC3002
:10CDE0000068091D086059480068091D0860574817
:10CDF000001D0068091D0860544808300068091DBE
:10CE0000086052480C300068091D08604F48103017
:10CE100000684D49403108604C4814300068091DD5
:10CE200008604A4818300068091D086047481C30EF
:10CE30000068091D0860454820300068091D086029
:10CE400003F01CFA30B13848CC38006800F04F00CD
:10CE50003F49086039487438006840F47000374929
:10CE60007439086000BF00BF00BFBFF34F8F00BF21
:10CE700000BF00BF00BF00BF00BFBFF36F8F00BF88
:10CE800000BF00BF3348006800F0004028B93148B7
:10CE9000001D006800F00040F0B301202E4908603A
:10CEA00000BF2E4800680028FBD0152029490860E3
:10CEB00000BF2A4800680028FBD015212548001D26
:10CEC000016000BF254800680028FBD000202249EF
:10CED000086000BF214800680028FBD000BF00BFE9
:10CEE00000BF00BF00BFBFF34F8F00BF00BF00BF38
:10CEF0001248F038006800F4E06019490843001D4A
:10CF00000E49F039086000BF00BF00BFBFF34F8F6C
:10CF100000BF00BF00BF00E002E000BF00BFFDE7B0
:10CF2000FFF7E4FE10BD000024030010403501406F
:10CF30000DF0ADBA00C007403C050040FCED00E03C
:10CF40000C0100401056004020C500402404001091
:10CF5000E40E00400012001004E5014000E401402E
:10CF60000000FA0510B50448007F10B106F04CF837
:10CF700001E005F099FF10BD0C28002070472DE955
:10CF8000FC5F07460E4692469846DDE90C45002EAA
:10CF900001DA704200E0304683464FF0010903E0B9
:10CFA000BBFBFAFB09F10109D345F9D2C84500D909
:10CFB000C14634B1002E03DB05F00400042800D183
:10CFC000641E05F0020010B1B8F1000F12D005F098
:10CFD000010078B974B108E02021384600F0BEF8AD
:10CFE000F868002801DABDE8FC9F1CB12046641EE9
:10CFF0004845F1D8002E08DA76422D21384600F057
:10D00000ADF8F86800280CDAEDE705F00400042814
:10D0100007D12B21384600F0A1F8F868002800DA83
:10D02000E1E705F00200022814D105F0010088B9FB
:10D03000B8F1000F0ED16CB107E03021384600F096
:10D040008DF8F868002800DACDE71CB12046641E90
:10D050004845F2D84346524631463846CDE9004568
:10D0600000F002F800BFBEE72DE9FE4F81460F46F3
:10D0700014469846DDE90C5B01260197B24605E0AF
:10D080000198B0FBF4F001900AF1010A0198A04266
:10D09000F6D2D04500D9C2460BF00100E0B9DDB1AF
:10D0A0000BF00200022805D1B8F1000F02D13020A8
:10D0B000009001E02020009009E04846009900F02F
:10D0C0004DF8D9F80C00002801DABDE8FE8F1DB13B
:10D0D00028466D1E5045F0D800E06643B7FBF6F0D9
:10D0E000A04201D3012000E000204146A8F1010840
:10D0F000012901DD012100E0002108430028ECD1D5
:10D1000000BFB7FBF6F00290029800FB1677124AB8
:10D110000298115C484600F021F8D9F80C0000286C
:10D1200000DA03E0B6FBF4F6002EEAD100BF0BF004
:10D13000010078B175B108E02021484600F00EF8F2
:10D14000D9F80C00002800DABFE71DB128466D1E93
:10D150005045F1D800BFB8E77034020070B50446FE
:10D160000E46A568681C6168814206DB206846554A
:10D17000681CA060E068401CE060D4E901108842AF
:10D180000DD1A26821682069FFF7C2FBA16888421F
:10D1900003D04FF0FF30E06001E00020A06070BDE0
:10D1A00002E008C8121F08C1002AFAD17047704770
:10D1B000002001E001C1121F002AFBD17047014687
:10D1C000002209B90020704700BF087800B902E0CA
:10D1D000521C491CF9E700BF1046F4E72DE9FC4159
:10D1E0000446884616460025378800203080606B4C
:10D1F00068B1616B08783B463246414605F0A2F8BB
:10D20000054600BF15B12846BDE8FC8100BF206B74
:10D2100058B13B4632464146206B05F0D3FD0546EA
:10D2200000BF0DB12846EFE700BF94F82E0060B1B3
:10D2300094F82E003B463246414603F08FFD0546EA
:10D2400000BF0DB12846DFE700BF94F82D0050B1B4
:10D250003A463146404600F0AAFE054600BF0DB1F1
:10D260002846D1E700BFA07850B13A463146404643
:10D2700000F0EAFA054600BF0DB12846C4E700BF3A
:10D28000E07860B1E17848B23B463246414603F06F
:10D2900041F9054600BF0DB12846B5E700BF6068FB
:10D2A00068B1616891F900003B463246414605F09D
:10D2B000DFFD054600BF0DB12846A5E700BF208968
:10D2C00000280EDD43460622022104F10800CDE9C4
:10D2D000006705F0D1FF054600BF0DB1284693E772
:10D2E00000BF208A00280EDD43460722032104F1F7
:10D2F0001000CDE9006705F0BFFF054600BF0DB186
:10D30000284681E700BF208B00280EDD434615220A
:10D31000142104F11800CDE9006705F0ADFF0546C2
:10D3200000BF0DB128466FE700BF206A58B13B46E9
:10D3300032464146206A01F088FE054600BF0DB125
:10D34000284661E700BF606A58B13B463246414615
:10D35000606A03F0BDFE054600BF0DB1284653E7E5
:10D3600000BF94F82C0000280BDD3B4632464146B6
:10D37000204605F002F8054600BF0DB1284643E7F8
:10D3800000BF207858B13B4632464146204603F064
:10D39000DAFE054600BF0DB1284635E700BF284636
:10D3A00032E70146C87800F0040008B9072070474A
:10D3B0000020FCE710B501220221002001F020F836
:10D3C000044600BF1CB1072C01D0204610BD00BF91
:10D3D00007220221012001F013F8044600BF1CB10E
:10D3E000072C01D02046F1E700BF0A2200210846A1
:10D3F00001F006F8044600BF1CB1072C01D02046FE
:10D40000E4E700BF0020E1E730B5A7B0382119A854
:10D41000FEF767FF02208DF8640006208DF8670094
:10D42000242110A8FEF75DFF01208DF84C0032206A
:10D430001490B4201590114800680F90382101A86D
:10D44000FEF74FFF0120ADF814000FA90691002050
:10D450000B4B10AA01A9009019A800F069FA044624
:10D4600000BF25463DB100BF06A240F2E9112846A3
:10D4700000F099F800BF00BF27B030BDB8330200FC
:10D480008D1502002E2E5C2E2E5C2E2E5C6D616999
:10D490006E2E6300014600BF064A10684FF400225A
:10D4A0008243044B1B1D1A6000F400221B1D1A60EE
:10D4B00000BF70470405005010B5002407E007497D
:10D4C000096811F83400012103F0D8FE641C0448F7
:10D4D00000788442F3D3002010BD000020210020FA
:10D4E000242100202DE9F84306460C461746052F57
:10D4F00002D20720BDE8F88303F0C0FF38B903F07B
:10D5000093FF054600BF0DB12846F3E700BF16485C
:10D510000660164804701648076000201549086028
:10D520001549086015E006EBC4081448006800902F
:10D5300098F802008DF8010098F80000104A69463A
:10D5400003F0F8FE054600BF0DB12846D2E700BF44
:10D5500000BF201EA4F10101CCB2E4D1094A002190
:10D56000094800F0B1F8C5E720210020242100205F
:10D57000282100202C210020302100206C340200C2
:10D58000E90A020059F301006834020070B504464C
:10D590000D4616460C2000F061FF32462946204613
:10D5A00000F012F870BDFEB504460E461546B0B246
:10D5B000ADF80000019502946A46002144F2010092
:10D5C000FFF7E4FFFEBD000018B5012300939DF8AE
:10D5D00000301E4B186059609A606FF4804303441A
:10D5E00063B1012B19D1194BDA60DB681B88174C2A
:10D5F000A3612346DB685B68E3610EE0134B1A61AD
:10D600001B699B68114C636123461B691B88A361DE
:10D6100023461B695B68E36100BF00BF0B4B1B68BF
:10D620000A4B5B68094B9B68084BDB68074B1B691F
:10D63000064B5B69054B9B69044BDB6972B600BF07
:10D640009DF80030002BFBD162B618BD30290020B8
:10D650002DE9F04104460D46164604480768324657
:10D6600029462046B847BDE8F081000090270020F9
:10D67000F8B505460C462778A06800EB400006493F
:10D6800051F820600548006800902A46394604F1A8
:10D6900008002369B047F8BDF828002018210020B1
:10D6A00010B504460748007800EB80020548001DCD
:10D6B00000EB82012046FFF7DBFF042004F0E4FECC
:10D6C00010BD00002C28002010B503460C4600BFFA
:10D6D0000B48006808B9082010BD00BF0AB9072030
:10D6E000FAE70BB90720F7E71868007C08B10820B3
:10D6F000F2E71968002008744C744A6100BFEBE738
:10D70000382100202DE9F04180460E4614461F4680
:10D71000204600F0030109B9012100E0002111B900
:10D720000720BDE8F08124B900201D4908600720CA
:10D73000F7E704F0EFFC1B48076003201A49087064
:10D7400017480460183400250DE01549096801EBFD
:10D75000C5000021017041708670446006EB4601EF
:10D7600004EBC1046D1C032DEFDB00200F490860A2
:10D770000F4908700F4908701420FEF7F7FF0621C3
:10D780001420FFF717F81420FEF7FCFF404604F0C2
:10D7900097FC04F08FFC084908600020C1E70000F6
:10D7A0003821002050210020342100203C2100207D
:10D7B0004C2100204D210020402100202DE9F8437C
:10D7C00004460D461746264600BF1148006810B9AA
:10D7D0000820BDE8F88300BF0CB90820F9E7052D43
:10D7E00001D20720F5E7706908B90820F1E7707CDD
:10D7F000012801D1284600E00020804605F0F6FC13
:10D80000814643462A463146009705F01BFAE0E779
:10D810003821002070B50446254600BF094800683D
:10D8200008B9082070BD00BF0CB1686908B90820AC
:10D83000F8E70020287405F0D9FC0646294605F0D3
:10D840002FFAEFE738210020F8B505460C461746B9
:10D850002088001DB84201D90C20F8BD684679DF48
:10D86000064600BF0EB13046F7E700BF032021880F
:10D8700068542088401C2080192021886854208802
:10D88000401C208020884119BDF8000005F052FCA2
:10D890002188084420800020DFE770472DE9F0410F
:10D8A00092B080460D461F2011901090B8F1000FE5
:10D8B00017D04046FFF775FD044600BF1CB1204657
:10D8C00012B0BDE8F08100BF11AA08A94046FFF7D9
:10D8D00085FC044600BF0CB12046F1E700BF08AE4E
:10D8E00002E0002600201190ADB1284604F0C4FEED
:10D8F000044600BF0CB12046E2E700BF10AA69460B
:10D900002846FFF76BFC044600BF0CB12046D7E762
:10D9100000BF6F4602E0002700201090BDF84000D5
:10D92000C3B2BDF84400C1B23A46304672DFC7E721
:10D930002DE9F04704460F4615461E46DDF82080C7
:10D9400000BF14B90E20BDE8F08700BF00BF0DB9BD
:10D950000E20F8E700BF00204649087046480660E0
:10D960004648C0F80080242229464548FEF7A0FC1E
:10D9700000F03EF943484449086044488860382133
:10D980004348FEF7AEFC207841490870A0788870C3
:10D99000E078C870607848700846D4E90412C0E99D
:10D9A0000412D4E90212C0E90212D4E90612C0E955
:10D9B0000612606AD8B137483549486236498160F5
:10D9C000606A00883249496A0880606A8088304904
:10D9D000496A8880002005E0616A8968095C2E4AEE
:10D9E0001154401C2A49496A89888142F4D8A06AA6
:10D9F00020B32A492A48816025498862274924485A
:10DA0000806A8160A06A80882149896A8880A06ACA
:10DA100000881F49896A0880002005E0A16A89689A
:10DA2000095C1E4A1154401C1949896A898881423F
:10DA3000F4D894F82C00164981F82C00206A58B1CB
:10DA4000184813490862206A4088096A4880206A99
:10DA500000880F49096A0880606820B112480C49A3
:10DA600048606068486039460948FFF717FF8146FB
:10DA7000484668E7C0200020B8200020BC200020D5
:10DA80005C2500209025002080250020B025002066
:10DA900024250020D0250020DC2500200826002099
:10DAA000FC250020C4200020C820002070B50446BA
:10DAB0002088102804D0112809D01B2863D11BE02E
:10DAC000A07D012802D1A088304908805CE00020B8
:10DAD0002F490870A0882D49098888420BD1012060
:10DAE00000F0CAF8054635B12A48006818B1284642
:10DAF00028490968884747E0207A002842D126480B
:10DB00000078012806D0022811D003281CD0042850
:10DB100036D129E0022000F0AFF8054635B11D48A6
:10DB2000006818B128461B490968884729E0032086
:10DB300000F0A2F8054635B11648006818B128462D
:10DB40001449096888471CE0032014490870042020
:10DB500000F092F8054635B10E48006818B1284625
:10DB60000C49096888470CE000200C4908700C48F3
:10DB7000006820B10846007809490968884700E034
:10DB800000BF00BF00E000BF00BF70BDCA20002082
:10DB9000C1200020BC200020C0200020B420002094
:10DBA000B820002070B504460025022C02D0032CBA
:10DBB00015D100E000BF0B48007878B1002009497A
:10DBC00008700948007800F057F8054635B1074855
:10DBD000006818B1284605490968884700E000BF79
:10DBE00000BF70BDAC200020C0200020BC20002061
:10DBF000024800210160818081717047AD200020C2
:10DC000010B518480078012829D11748007830BB92
:10DC10001648007830B174DF044600BF0CB12046CE
:10DC200010BD00BF01201049087006201049C870BF
:10DC300000210F48FFF732FE044600BF0CB120461A
:10DC4000EEE700BF0948007800F016F8044634B14A
:10DC50000848006818B1204606490968884700202E
:10DC6000DEE700005C250020C1200020C02000204D
:10DC700024250020BC20002030B587B005469548FB
:10DC8000057002F062FC28B1012093490870002061
:10DC900007B030BDFFF7ACFF9048407818B18D4811
:10DCA000007801280DD08D48807818B18948007817
:10DCB000012806D08948807888B1864800780228F3
:10DCC0000DD18748006838B10120864908700820C6
:10DCD00083490968884702E00020824908707D482E
:10DCE0000078012809D17D48407818B17E4803F0BA
:10DCF000BFFD10B9022077490870764800780228E5
:10DD000009D17648807818B1774803F0B1FD10B991
:10DD10000320704908707148007B30B96D48007865
:10DD2000032802D104206B4908706C48007E40B97A
:10DD300068480078042804D10020664908706B49BF
:10DD4000087067480068A8B162480078032803D0CB
:10DD50006048007804280DD16048007850B16448CC
:10DD6000007838B901206349087007205C490968C8
:10DD7000884702E000205F490870182101A8FEF7DB
:10DD8000B0FA00208DF8040002908DF80C00049089
:10DD900050480078012806D0022813D0032825D047
:10DDA000042876D150E05048401E029001208DF8A2
:10DDB00004000020ADF81600ADF8140001204B4916
:10DDC000087071E04848401E029001208DF8040060
:10DDD0004248008980B2ADF816004048808880B281
:10DDE000ADF814000220414908705DE03B48808A8C
:10DDF00080B2ADF816003948008A80B2ADF8140040
:10DE00003D4805F0CEFAD8B134480078C0B1384862
:10DE10000078A8B902208DF80C003748049004203F
:10DE20003649C87000213548FFF738FD044600BF69
:10DE30000CB120462CE700BF05202C49087002E0F9
:10DE400003202A4908702FE02448808B80B2ADF867
:10DE500014002248008C80B2ADF81600264805F068
:10DE6000A0FAE0B11D480078C8B121480078B0B9E7
:10DE700002208DF80C002048049004201F49C8702F
:10DE800000211E48FFF70AFD044600BF14B12046DA
:10DE9000FEE608E000BF06201449087002E00420F6
:10DEA0001249087000E000BF00BF0A48007838B18E
:10DEB00001A873DF044600BF0CB12046E8E600BFAE
:10DEC0000748006820B10948007805490968884773
:10DED0000020DDE6C0200020AC2000205C250020D2
:10DEE000B8200020C3200020AE200020B420002055
:10DEF000C1200020C22000208025002024250020F1
:10DF000070B505461C2229461248FEF7D1F90020BB
:10DF100011490870286850B1104829680A680260E1
:10DF2000496841607ADF04463CB1204670BD0B4829
:10DF30007BDF04460CB12046F8E74FF6FF70084936
:10DF40000880002007490870074A00210748FFF7AA
:10DF5000BBFBEBE728260020E0200020CC2000209F
:10DF6000D6200020D42000205D31020008340200B9
:10DF700010B504462088102806D0112808D0122891
:10DF80000ED0502810D107E0204603F081FB0CE0B2
:10DF9000204603F099FB08E0204603F0B5FB04E0BF
:10DFA000204603F069FB00E000BF00BF10BD2DE973
:10DFB000FC4105460C46174620880930B84202D974
:10DFC0000C20BDE8FC81684671DF064600BF0EB13B
:10DFD0003046F6E700BF0820218868542088401C9E
:10DFE00020801B20218868542088401C20802088A5
:10DFF0002844DDF801100160BDF8051081802088FB
:10E00000801D20809DF8000018B9002021886854E8
:10E0100002E00120218868542088401C20800020D4
:10E02000CFE710B50446204601F064FB2046FFF719
:10E030009FFF204600F0D2F8204603F0CBFA20469E
:10E04000FFF734FD10BD000070B586B03848006899
:10E05000059000BF00234822364905A804F0CCFAF9
:10E06000054600BF2E463EB100BF33A24FF4AB7150
:10E070003046FFF798FA00BF00BF00BF6A46012193
:10E08000002004F099FA044600BF25463DB100BFC8
:10E0900029A24FF4AE712846FFF785FA00BF00BFF2
:10E0A00001208DF80C0000BF274E304604F098F890
:10E0B000044600BF25463DB100BF1FA240F26111DA
:10E0C0002846FFF770FA00BF00BF00BF684604F0A3
:10E0D000F1F9044600BF25463DB100BF16A240F24B
:10E0E00065112846FFF75FFA00BF00BF174804F02C
:10E0F000D5F9044600BF25463DB100BF0EA240F24F
:10E1000069112846FFF74FFA00BF00BF104804F01E
:10E11000A7FA044600BF25463DB100BF06A240F263
:10E120006D112846FFF73FFA00BF00BF06B070BD73
:10E13000B4330200702400202E2E5C2E2E5C2E2E76
:10E140005C6D61696E2E6300E81F002023E0010012
:10E15000112A02007CB50446A1786A460D4803F0F6
:10E1600059FC0546ADB96178C1EBC1010A4A02EB21
:10E1700081001C231A46694603F08AFD05460748BC
:10E18000807A074951F82020214668469047054685
:10E1900000BF7CBDE4200020442700209027002001
:10E1A0001C34020070B505460C460026094805607F
:10E1B00044B1204604F067FA064600BF0EB130466F
:10E1C00070BD00BF0448006810B9FFF7F3F80646B9
:10E1D0003046F5E7A4200020A820002070B50546B1
:10E1E0002888102802D011282CD115E01748006883
:10E1F00060B900F0EBFF044600BF34B1144800687A
:10E2000018B1204612490968884700BF0F480068C6
:10E21000401C0E49086016E00C480068401E0B497F
:10E2200008600846006860B9FFF7C4F8044600BFFC
:10E2300034B10748006818B1204605490968884785
:10E2400000BF00E000BF00BF70BD0000A82000209C
:10E25000A420002010B5032000F046FC044600BFB7
:10E260001CB1062C01D0204610BD00BF0020FBE7EA
:10E270002DE9F04105460F464FF00008002400E06C
:10E28000641C042C04D22A4850F82400A842F7D178
:10E29000042C41D227B3012F02D0022F3BD133E00F
:10E2A00004EB4400234911F8008004EB44000844C7
:10E2B000407868B12048006800EB800041001F4AA8
:10E2C0001F480068FFF77AFA06460EB91B4805702A
:10E2D00004EB44001749084480781A4908551AE0AD
:10E2E00017480068FFF796FA1648005D04EB4401F2
:10E2F000104A11448978884205D104EB4400114644
:10E30000084490F8028006E004EB44000949084400
:10E3100090F8018000BF00BFB8F1000F06D00A4896
:10E32000006818B14046084909688847BDE8F0818F
:10E33000D8330200F82400208C2000209C200020EC
:10E34000D43302009D2000209820002010B5024602
:10E35000042A0ED2094B1B68D843094B13F82240FC
:10E360000123A34003400BB1012300E000230B7005
:10E3700001E000200870002010BD000010050050D2
:10E38000D833020070B50546042D06D0072D18D0ED
:10E390000A2D28D104F044F826E013211348008800
:10E3A00076DF0446082C0BD000BF26463EB100BFE6
:10E3B0000FA24FF4C1713046FFF7F5F800BF00BF60
:10E3C00012E0FFF71DFC0446082C0BD000BF2646C8
:10E3D0003EB100BF06A24FF4C5713046FFF7E3F827
:10E3E00000BF00BF00E000BF00BF70BD8220002062
:10E3F0002E2E5C2E2E5C2E2E5C6D61696E2E6300BF
:10E4000030B503460020042B23D2012A07D101296D
:10E4100003D103F10D04E4B200E00024224679B1F7
:10E42000012902D0022911D104E003EB43040A4D73
:10E430002A550DE003EB4304074D2C44627007E0BE
:10E4400003EB4304044D2C44A27001E0072000BFFD
:10E4500000E0072030BD0000F824002070B504461D
:10E4600000250548007800F0010018B1204600F0B2
:10E470006DF80546284670BD902000202DE9F0413A
:10E4800005460E469046002425480660254805604E
:10E490002548C0F8008005F00200F8B1002706E02A
:10E4A000012211463846FFF7ABFF04467F1C042FBC
:10E4B00001D2002CF4D02CB9720804211B48FFF7BC
:10E4C00011F8044614B9FEF7F7FF04462CB9184AB0
:10E4D00000211848FFF7F8F8044600BF05F00100D6
:10E4E00068B100BF4FF4F010134908600020091D07
:10E4F000086000BF4FF4F0100F49103108602CB9CC
:10E500000E4A00210E48FFF7DFF804462CB90D4AE9
:10E5100001210D48FFF7D8F804462046BDE8F081F8
:10E520008C2000209020002098200020E83302005A
:10E5300039EB0100D433020008050050C90D020078
:10E54000CC33020095D40100D03302002DE9F04114
:10E55000044600260025182C7DD2DFE804F00C1DAF
:10E560001E68B4EEEDECEBEAE9E8E7E6E5E4E3E2A9
:10E57000E1E0DFDEDDDC00BFFD4801684FF4F010B4
:10E58000884300F4F010FB4908600020091D086072
:10E5900000BFF948047098E200BF00BFF44801686A
:10E5A0004FF4E010884300F4F010F24908600020B6
:10E5B000091D086000BFEF48001F006880F4F010DC
:10E5C00000F4003088B100BF4FF40030091F08602C
:10E5D0000020091D086000BF022C02D14FF4E16049
:10E5E00001E04FF47A60054610E000BF4FF40030C0
:10E5F000E049091D08600020091F086000BF022CC7
:10E6000001D1C82001E04FF4C8700546DA48047013
:10E610006420B5FBF0F0D949096800FB01F700223E
:10E620003946D7480068FFF7C9F806464DE200BFF3
:10E63000CF4801684FF4E010884300F4F010CD4952
:10E6400008600020091D086000BFCA48001F00685C
:10E6500080F4F01000E037E200F4003088B100BF31
:10E660004FF40030091F08600020091D086000BF3A
:10E67000032C02D14FF4487001E04FF47A60054654
:10E6800010E000BF4FF40030BA49091D08600020B7
:10E69000091F086000BF032C01D1C82001E04FF41E
:10E6A000C8700546B44804706420B5FBF0F0B34967
:10E6B000096800FB01F700223946B1480068FFF7FE
:10E6C0007DF8064601E200BFA94801684FF4E0105A
:10E6D000884300F4F010A74908600020091D086075
:10E6E00000BFA448001F006880F4F01000F4003060
:10E6F00020B300BF4FF40030091F08600020091D3F
:10E70000086000BF042C02D14FF47A6001E04FF49E
:10E710007A60054624E0CBE1C9E1B3E19DE187E100
:10E7200079E13FE13DE13BE139E137E12AE105E112
:10E73000EDE0D3E0BBE0A1E06CE022E000BF4FF4ED
:10E7400000308C49091D08600020091F086000BFC7
:10E75000042C02D14FF4C87001E04FF4C870054694
:10E76000854804706420B5FBF0F08449096800FB1B
:10E7700001F70022394682480068FFF71FF8064675
:10E78000A3E100BF7A4801684FF4E010884300F429
:10E79000F010784908600020091D086000BF754826
:10E7A000001F006880F4F01000F4003080B100BF5A
:10E7B0004FF40030091F08600020091D086000BFE9
:10E7C000052C01D1C82001E04FF47A60054610E025
:10E7D00000BF4FF400306749091D08600020091F81
:10E7E000086000BF052C01D1C82001E04FF4C870BB
:10E7F0000546614804706420B5FBF0F05F49096884
:10E8000000FB01F7002239465D480068FEF7D6FF9D
:10E8100006465AE100BF564801684FF4E0108843AD
:10E8200000F4F010534908600020091D086000BF83
:10E830005048001F006880F4F01000F4003040B130
:10E8400000BF4FF40030091F08600020091D086058
:10E8500009E000BF4FF400304649091D0860002060
:10E86000091F086000BF4448047044480022016842
:10E8700043480068FEF7A2FF064626E100BF3C4879
:10E8800001684FF4E010884300F4F0103949086043
:10E890000020091D086000BF00BF4FF40030086071
:10E8A0000020091F086000BF334804700DE100BF5D
:10E8B0003049091F08684FF4802181432D4A1160B7
:10E8C00000F48021121D116000BF2C480022016855
:10E8D0002B480068FEF772FF0646F6E000BF2549A8
:10E8E000091F08684FF480218143224A116000F417
:10E8F0008021121D116000BF2048006800EB8001DC
:10E9000000221F480068FEF759FF0646DDE000BF01
:10E910001849091F08684FF480218143154A116086
:10E9200000F48021121D116000BF1448002201680C
:10E9300013480068FEF742FF0646C6E000BF0D49D7
:10E94000091F08684FF4802181430A4A116000F4CE
:10E950008021121D116000BF0848006800EB800193
:10E96000002207480068FEF729FF0646ADE00000D8
:10E970009420002008050050882000208C200020D2
:10E98000CC33020000BF4FF4F01052490860002061
:10E99000091F086000BF5048047096E000BF00BF28
:10E9A00000BF00BF4D480068FEF734FF0646C4F1C3
:10E9B00011050DB306BB4FF4002049490860012D35
:10E9C0000FD9C82068436421B0FBF1F045490968BC
:10E9D00000FB01F70022394640480068FEF7EEFED2
:10E9E000064600BF3E48006800F4F0103949086050
:10E9F0000020091F08600DE000BF3948006800F4DE
:10EA0000F0103449091F08600020091D086000BF8C
:10EA10003349086059E000BF4FF4F0102D49091F39
:10EA200008600020091D086000BF2B4804704CE0FE
:10EA300000BF4FF4E0102749091F08600020091D9E
:10EA4000086000BF00BF4FF4003008600020091FBD
:10EA5000086000BF2048047037E000BF4FF4D010BA
:10EA60001C49091F08600020091D086000BF00BF85
:10EA70004FF4802008600020091F086000BF16487E
:10EA8000047022E000BF4FF4C0101249091F086053
:10EA90000020091D086000BF00BF4FF4C0200860BF
:10EAA0000020091F086000BF0B4804700DE000BF84
:10EAB00000BF4FF4F010074908600020091F0860EC
:10EAC00000BF0548047000E000BF00BF3046BDE84D
:10EAD000F08100000C05005088200020D033020097
:10EAE000942000208C20002030B5024600201AE03F
:10EAF0000F4C54F82040A40004F1A044D4F80017AF
:10EB00000124844014400CB1032400E00024234677
:10EB100021F4403141EA0341064C054D55F820509F
:10EB200044F82510401C0428E2D3002030BD00002A
:10EB3000D83302000007005010B5044620780221A7
:10EB4000FFF796FB10BD0000F8B50546164A40F6E3
:10EB5000CD410320FFF792FC044600BF26463EB19C
:10EB600000BF12A24FF4FC713046FEF71CFD00BF3F
:10EB700000BF69460020FFF715FB044600BF26468C
:10EB80003EB100BF09A240F2FB113046FEF70BFD7B
:10EB900000BF00BF9DF80000022801D1012000E065
:10EBA00000202870F8BD000085E301002E2E5C2EA9
:10EBB0002E5C2E2E5C6D61696E2E63004FF0FF316E
:10EBC000054A42F82010082804DBFF23A0F10801C1
:10EBD0005032535470470000B427002001460248C9
:10EBE00050F8210070470000B42700202DE9F04FB5
:10EBF00003460C464FF0FF390AB1002000E0082020
:10EC000084460AB1082000E00C208046614624E0DA
:10EC1000154850F82100401CF0B91D46084627460B
:10EC200016464FFA80FBDFF840A00AF1300A0AF8D6
:10EC300005B0DFF834A04AF820704EB94FFA85FBD2
:10EC4000A0F1080ADFF820E00EF1500E0EF80AB02D
:10EC500000BF4FFA81F902E0491C4145D8D300BFFB
:10EC60004846BDE8F08F0000B42700200146014867
:10EC700040567047E42700202DE9F84F3A480078C5
:10EC800000EB80013848001D00EB8104E668A068B5
:10EC900000EB4000354901EB8000B0F80890A06817
:10ECA00000EB400001EB8000B0F80AA0A06800EB88
:10ECB000400001EB80004068009002F09CFFB6FB32
:10ECC000F0F100FB116008B9012000E0002080464F
:10ECD000009809FB0A0760883044A1884518002085
:10ECE00023490860B8F1000F04D002F084FF618866
:10ECF000884209D0B8F1000F03D0BD4201D1A088ED
:10ED000010B1A068032809D102F075FFB6FBF0F03E
:10ED100018490860032003F0B7FB22E002F06BFF04
:10ED2000A1883144B1FBF0F200FB121080081249B7
:10ED3000086002F060FFB5FBF0F100FB115008B96C
:10ED4000012000E000208346BD4206D0BBF1000F49
:10ED500003D1B9B2A8B203F073FE022003F094FB12
:10ED600000BFBDE8F88F00002C280020F828002004
:10ED7000082100200C2100200421002010B50848A3
:10ED8000007800EB80010648001D00EB810420782C
:10ED9000042802D000F0BAF801E003F0C9FD10BD6C
:10EDA0002C28002010B50F48007800EB80010D489A
:10EDB000001D00EB810460880B4908602078012861
:10EDC00004D0032805D0042809D105E003F0B0FDE4
:10EDD00006E0FFF751FF03E004F0B2F900E000BFE6
:10EDE00000BF10BD2C2800201821002010B50348BA
:10EDF000407808B1FFF7D6FF10BD00002C28002096
:10EE0000002200EB8003114901F8232000EB80036E
:10EE100001EB83014A80022200EB80030B4901EBE6
:10EE200083018A60002200EB8003084901EB830123
:10EE3000CA6000EB8003054901EB83010A6100EB26
:10EE40008003024901EB83018A807047302800204B
:10EE50002DE9F04706460F4690469946DDF820A07A
:10EE6000204840780A2839D01E4800781D49497842
:10EE700044180A2C00D30A3C04EB84011948001DF5
:10EE800000F8216004EB840100EB8100C0F81080E1
:10EE900004EB84011348001D00EB8100D7E9001248
:10EEA000C0E9021204EB84010E48001D00EB810052
:10EEB000A0F8029004EB84010A48001D00EB8100D9
:10EEC000A0F804A007484078401C0649487006484E
:10EED000007808B9FFF766FF002500E00425284602
:10EEE000BDE8F0872C2800200021002010B500206C
:10EEF000054908704870002403E02046FFF780FFB2
:10EF0000641C0A2CF9D310BD2C28002010B5084829
:10EF1000007800EB80020648001D00EB8201002013
:10EF2000FEF7A6FB00F006F8002003F0ADFA10BDD6
:10EF30002C28002010B509490878FFF761FF074821
:10EF40004078401E0549487008460078401CC0B211
:10EF500008700A2801D10020087010BD2C2800205C
:10EF60002DE9F04782461F480068002836D01D482A
:10EF70000068056803F09EF807461B4804682146B0
:10EF8000384603F083FDC61C1848007808B903F022
:10EF9000A3F8AE4201D2284600E03046044424F0F3
:10EFA0007F44204603F080F803F084F88046394619
:10EFB000404603F06BFD00F103093946204603F09B
:10EFC00065FD814509D903F075F8814603F06CF8B9
:10EFD0002F20FDF71FF903F0CFFE01E003F09AF8B0
:10EFE000BDE8F0873C210020402100205421002072
:10EFF00001460888062808DB0888B0F5486F06DD5A
:10F0000008884FF6FF72904201D007207047488869
:10F01000062808DB4888B0F5486F06DD48884FF6BB
:10F02000FF72904201D00720F0E708884FF6FF7288
:10F03000904208D04888904205D008884A8890427B
:10F0400001DD0720E2E70020E0E72DE9F041064678
:10F050000D46144698462088801D404502D90C2054
:10F06000BDE8F0813046FFF7C3FF074600BF0FB190
:10F070003846F5E700BF0520218868542088401CE9
:10F0800020801220218868542088401C20802288FB
:10F090005119308804F04EF82188084420802288D5
:10F0A0005119708804F046F8218808442080002017
:10F0B000D6E7000010B5044600BF03A2C1212046D8
:10F0C000FEF771FA00BF10BD2E2E5C2E2E5C2E2E88
:10F0D0005C6D61696E2E630030B587B01C21684697
:10F0E000FDF7FFF8002000904FF4203001904FF41E
:10F0F0007020029003208DF80C000020ADF80E0067
:10F100008DF810000A4805900A4806906846FEF7F8
:10F11000F7FE044600BF254635B100BF06A2D82140
:10F120002846FEF740FA00BF00BF07B030BD000020
:10F1300039160200B5F001002E2E5C2E2E5C2E2E0C
:10F140005C6D61696E2E630038B51B4801F098FD57
:10F1500020BB1A48007848B119484069E8B100203E
:10F160000090174841696846884716E015480078BE
:10F1700010B91348456801E0114885680022294606
:10F1800011480068FEF71AFB044634B10C48806948
:10F1900018B10B4881692046884709E00848406952
:10F1A00030B101200090064841696846884700BF99
:10F1B00000200249087038BDD8200020E02000203F
:10F1C00028260020D42000200834020010B5012297
:10F1D00000210846FFF714F9044600BF1CB1072CB4
:10F1E00001D0204610BD00BF072202210120FFF7F9
:10F1F00007F9044600BF1CB1072C01D02046F1E7F7
:10F2000000BF042202210020FFF7FAF8044600BFE5
:10F210001CB1072C01D02046E4E700BF0020E1E745
:10F2200070B503460C460820002117E001EB4105AC
:10F230000C4E06EB8505AD7A254075B14FF6FF758E
:10F24000AB4206D001EB410506EB85052D899D42B9
:10F2500002D11160002003E00520491C0029E5D0FF
:10F2600000BF70BD84270020012100EB40020D4B40
:10F2700003EB820291724FF6FF7100EB400203EB49
:10F2800082021181FF2100EB400203EB8202D17266
:10F2900000EB40011A4602EB810100220A608A80DD
:10F2A0008A7170478427002010B51A48007800F052
:10F2B000080058BB18480068401C174908601748E8
:10F2C000006818B1042003F099FB21E001F0EAFC8A
:10F2D00018B1022003F092FB1AE01148006890B1C7
:10F2E0000C48007800F0010048B90A48006840F076
:10F2F000010008490860002003F080FB08E00320BB
:10F3000003F07CFB04E003F04DFB01E003F05AFB4B
:10F3100010BD00001C2100200C2100200421002031
:10F320000821002010B50B48007800F0080070B9E3
:10F330000848007800F0020028B10648006840F054
:10F34000010004490860022003F058FB01E003F0CB
:10F3500039FB10BD1C2100202DE9F0478146002516
:10F3600032E01C48006800EBC5042178012000FA57
:10F3700001F619480068304020B317480068B043D0
:10F3800015490860207802F041F8074621780120ED
:10F390008840124909680840217807FA01F188423B
:10F3A0000FD16078012800D100E00020784080F083
:10F3B0000108606820B108F0FF012078626890477A
:10F3C00000BF00BF681CC5B2054800788542C8DB95
:10F3D000BDE8F08720210020302100202C210020D2
:10F3E000242100202DE9FC4104460D46A1786A46FF
:10F3F0002B4802F00FFB0746002F4ED1607800EB40
:10F400004000284901EB8000807A00F0400040284D
:10F4100001D0022D01D1244E04E0012D01D1234E53
:10F4200000E0234EA078C0EBC000224A02EB80012E
:10F4300000231C226846B0470746EFB9022D1BD0B7
:10F44000607800EB4000174901EB8000807A20F0E3
:10F450004000617801EB4101124A02EB81018872A0
:10F460006078C0EBC000144A02EB80011C231A46EE
:10F470006846B047074600BF022D0ED0207800EB4B
:10F4800040000E4901EB8000807A0D4951F82020A0
:10F49000214668469047074600BFBDE8FC81000052
:10F4A000E420002084270020B91F0200951E0200DE
:10F4B000C128020080260020442700209027002039
:10F4C0000C34020070B503460A4648F2430000219E
:10F4D00035E0C1EBC1041C4D05EB8404A47EFF2C78
:10F4E0002CD11478022C18D0C1EBC10405EB840494
:10F4F000A47E24F00204C1EBC105134E06EB850582
:10F50000AC76C1EBC104354605EB84041568256172
:10F510009588A5829579A5750DE0C1EBC1040A4DCA
:10F5200005EB8404A47E24F00104C1EBC105064E62
:10F5300006EB8505AC761970002002E0491C07290E
:10F54000C7D300BF70BD0000802600202DE9F04128
:10F5500005460E4617464FF0050800241AE03DB94F
:10F56000C4EBC4000E4901EB8000008BB8420CD004
:10F570007DB1C4EBC4010A4A02EB810101F1100024
:10F5800007222946FCF7B8FE18B934604FF000088E
:10F5900002E0641C072CE2D300BF4046BDE8F081C6
:10F5A000802600207CB50546A9B26A46074802F0CD
:10F5B00031FA044644B97421684602F07DFA0446E3
:10F5C00014B9284602F060F920467CBDE4200020F2
:10F5D0002DE9F04106460F46144600BF25463DB1D1
:10F5E00000BF05A24FF4CE712846FDF7DCFF00BF37
:10F5F00000BF0020BDE8F0812E2E5C2E2E5C2E2E4A
:10F600005C6D61696E2E63007FB50546039502F05F
:10F61000F7FA044600BF26463EB100BF2FA24FF4C2
:10F62000DB713046FDF7BFFF00BF00BF03A800F04D
:10F63000C9FB044600BF26463EB100BF27A240F2E8
:10F64000B9113046FDF7AFFF00BF00BF0020CDF875
:10F6500005008DF809009DF8050020F00100401C10
:10F660008DF805009DF8050020F002008DF80500DA
:10F670009DF8050020F004008DF805009DF80500B8
:10F6800020F008008DF805009DF8050020F07000BE
:10F6900030308DF805009DF8050020F080008DF8D1
:10F6A000050007218DF8061010218DF807100F486E
:10F6B000009001208DF8040069460D4800F034FDEB
:10F6C000044600BF26463EB100BF04A240F2C91165
:10F6D0003046FDF768FF00BF00BF7FBD2E2E5C2EB9
:10F6E0002E5C2E2E5C6D61696E2E6300D1F50100DB
:10F6F000802000202DE9F0478EB00446FF200C90BA
:10F700004FF000094FF0000A00BFFE48007810B922
:10F710000EB0BDE8F08700BF00BFFB48006800B92D
:10F72000F6E700BF0BA800F041FB054600BF2E46E0
:10F730003EB100BFF54A40F6F1113046FDF733FF08
:10F7400000BF00BF00270025201D09902C20ADF828
:10F750002800FF208DF82E0000208DF82C000D9041
:10F760002088102813D0A0880DAA0221FFF758FD89
:10F77000054665B90D9800EB4000E54901EB8000B6
:10F78000C07A8DF82E000D98C0B28DF82D0020881B
:10F7900019287DD008DC10280DD0112879D0132825
:10F7A00078D0142877D1C7E01A2875D01E2874D0D5
:10F7B0005228F7D1C0E20DAE324601214FF6FF705C
:10F7C000FFF72EFD8046B8F1000F08D10220316806
:10F7D00001EB4101CE4A02EB8101887201E04FF05A
:10F7E000040800BF4546002D62D14FF001091120E9
:10F7F0008DF820000D98C0B28DF82D00A0880D99CD
:10F8000001EB4101C24A02EB8101088102200D99FE
:10F8100001EB410102EB810188720D9800EB400081
:10F82000114601EB8001A2680A60A2898A80A07B50
:10F830008871E07D00F0010060B1E07DB54901EB29
:10F8400050000078FF280DD0E07D01EB50000078DB
:10F850000C9007E04FF6FF720CA904F10800FFF7C7
:10F8600075FE054625BBDDE90C0101EB4101A84A07
:10F8700002EB8101C8720D9800EB4000114601EBCC
:10F880008000807A40F008000D9901EB410105E00D
:10F890001AE10EE099E05EE2E3E156E202EB81015B
:10F8A00088720C98C0B28DF82E000BA8FEF752FC9F
:10F8B00052E20D9800EB4000954901EB8000807A00
:10F8C00020F002000D9901EB4101914A02EB810108
:10F8D00088720D9800EB4000114601EB8000807AA1
:10F8E00000F0080008280ED10D9800EB400001EB55
:10F8F0008000807A00F0800080280FD100210BA8C2
:10F90000FFF770FD0AE09DF82E00FF2806D09DF855
:10F910002E0001F0B9FFFF208DF82E0010200D9968
:10F9200001EB41017A4A02EB810188724FF0010933
:10F9300012208DF820000FE20D9800EB4000744972
:10F9400001EB8000C07AFF2824D1228A0CA9002074
:10F95000FFF7FCFD0546EDB9DDE90C0101EB4101C6
:10F960006B4A02EB8101C8720D9800EB4000114612
:10F9700001EB8000807A40F008000D9901EB410115
:10F9800002EB810188720C98C0B28DF82E000BA892
:10F99000FEF7E0FB0D9800EB40005D4901EB8000B5
:10F9A000C07AFF2805D00D98C0EBC0005A4901EB82
:10F9B000800A0D99C1EBC101584B03EB8102A0886D
:10F9C0000023514686DF0546C6E113208DF820004E
:10F9D0000D9800EB40004E4901EB8000807A40F02A
:10F9E00004000D9901EB4101494A02EB8101887243
:10F9F0004FF001090D9800EB4000114601EB80002B
:10FA0000C07AFF2842D10D9800EB400002EB800144
:10FA10000CA8FFF757FD054665B90C98C0B28DF8E4
:10FA20002E00DDE90C0101EB4101394A02EB8101B5
:10FA3000C87202E02F464FF00109002004900D9893
:10FA400000EB4000324901EB8000C07AC0EBC000FF
:10FA5000324901EB800105910021069107910D9833
:10FA6000C0EBC0002C4901EB800000900020019009
:10FA700002900390A0886B46234A121D00217FDF6D
:10FA8000054615B12F464FF000091CE00D9800EB1C
:10FA900040001F4901EB8000807A40F040000D9942
:10FAA00001EB41011A4A02EB8101887216208DF8A0
:10FAB0002000A08800231A4685217FDF054615B166
:10FAC0002F464FF0000947E10F48407A20F001002F
:10FAD0000D4948720D9800EB40000D4901EB800084
:10FAE000807A20F004000D9901EB4101084A02EBF5
:10FAF0008101887214208DF820004FF00109207ACE
:10FB000020B30DE0F0200020902700208034020078
:10FB100084270020F1200020442700208026002098
:10FB20000D9800EB4000114601EB8000807A00F058
:10FB30004000402809D00D9901EB410102EB810101
:10FB4000C87AFFF72FFD0646277A89E0607AC0F36E
:10FB50008000E0B39DF82E00FF2838D00D9800EB10
:10FB600040008C4901EB8000807A40F008000D993C
:10FB700001EB4101874A02EB81018872607BC0F38F
:10FB8000400088B19DF82E00C0EBC000824901EB17
:10FB90008000807E20F001009DF82E10C1EBC10195
:10FBA0007D4A02EB810188760D9800EB400079498F
:10FBB00001EB8000C07AFF2852D00D9800EB400086
:10FBC00011F82000022827D09DF82E0000E047E021
:10FBD000C0EBC000704901EB80000D9901EB4101C1
:10FBE0006C4A02EB81010A6802618A888282897903
:10FBF00081759DF82E00C0EBC000674901EB8000C5
:10FC0000807E20F002009DF82E10C1EBC101624AF7
:10FC100002EB810188761FE00D98C0EBC0005F49C0
:10FC200001EB8000408A9DF82E10C1EBC1015A4AB9
:10FC300002EB810108839DF82E00C0EBC000114645
:10FC400001EB8000807E20F001009DF82E10C1EBBA
:10FC5000C10102EB8101887601210BA8FFF7C2FBED
:10FC60007AE0207A0121B1EB101F43D1207A00F015
:10FC70000F0001283ED10D9800EB4000454901EBF3
:10FC80008000807A00F00800082833D10D9901EB3C
:10FC9000C101434A02EB810101F108001A21FCF77E
:10FCA00020FB16208DF820000D9800EB400039490C
:10FCB00001EB8000807A40F020000D9901EB4101BA
:10FCC000344A02EB810188720D9800EB4000114626
:10FCD00001EB8000807A40F040000D9901EB41017A
:10FCE00002EB810188722F48407A40F002002D49D2
:10FCF00048721DE00D9800EB4000264901EB8000A2
:10FD0000807A40F080000D9901EB4101214A02EB1D
:10FD10008101887215208DF820002248807A224ABD
:10FD200052F820100BA8884705460DB148F241074C
:10FD300000274FF001090FE01A48807A1A4A52F85A
:10FD400020100BA88847074606E013208DF82000F6
:10FD50004FF0010900E000BF00BFB9F1000F17D05C
:10FD60003A4608A90BA8FDF773FC9DF8200012285D
:10FD70000ED100BF0D9800EB4000064901EB80005A
:10FD8000807A012802D00D98FFF76EFA00BF00BFFD
:10FD900000BFBDE4842700208026002044270020E7
:10FDA00060270020902700202C340200014611B962
:10FDB00048F20E007047FF20087048708870C870C5
:10FDC0000020F7E77FB506461EB948F20E0004B0E2
:10FDD00070BD002412E02046002100EB4002344BAD
:10FDE00043F8221000EB400203EB8202517200EB59
:10FDF000400203EB8202917200BF641C002CEAD027
:10FE0000002403E02046FFF72FFA641C002CF9D0F1
:10FE100024212848FCF765FA002406E0204601F07A
:10FE200033FDFF2024490855641C072CF6D37420A9
:10FE3000ADF80C000720ADF80E00204802902049D4
:10FE400002A801F09FFF054625BB01201D4908704F
:10FE5000307800BB00241BE0A1B26A46184801F0CC
:10FE6000D9FD05467DB9C4EBC401174A02EB8100F8
:10FE700000231C22694601F00BFF05463DB100201E
:10FE80001049087006E000200E49087002E0641C6A
:10FE9000072CE1D309E0BDF80C00BDF80E2050435B
:10FEA00081B2074801F008FE054628468FE70000AA
:10FEB0009027002060270020F1200020CDFE0100C7
:10FEC000E4200020F0200020802600202DE9FF4FB4
:10FED00091B00F4692461D46DDF8789000BF8748E6
:10FEE000006810B915B0BDE8F08F00BFB9F1740F0C
:10FEF00000D9F7E74FF0010B0DA8FFF757FF0646B3
:10FF000000BFB046B8F1000F07D000BF7C4A40F2F6
:10FF1000A1514046FDF747FB00BF00BF00208DF810
:10FF200034008DF838000C95CDF82C90804614E004
:10FF30001FFA88F108AA734801F06CFD064656B90D
:10FF4000082208A91198FCF7D7F920B908F0FF009A
:10FF50008DF8360004E008F10108B8F1070FE7D387
:10FF600000BF9DF83600FF2878D0032F0AD1B9F1E1
:10FF7000740F03D120208DF838009BE040208DF8CD
:10FF8000380097E06048281A1C21B0FBF1F4072CD8
:10FF90001BD20AA80F90BAF1000F0ED19DF83600BF
:10FFA00001218140594A1268114009B1012100E044
:10FFB000002111B94FF0000B7CE09DF8360003F0F2
:10FFC000C3F820208DF8380074E05148281A1C210D
:10FFD000B0FBF1F4F4B90AA80F9020208DF8380096
:10FFE000E0B28DF83500002004904A490591C4EB39
:10FFF000C400474901EB800000909DF83600C0EB3B
:020000040002F8
:10000000C000414901EB80000190CDF830D02020A4
:100010000B904FE04048281A2421B0FBF1F4F4B9CA
:1000200030208DF83800E0B28DF8350001208DF8D1
:10003000370004EB4400394901EB8000807A00F07E
:100040000200022836D09DF8351001EBC101324A7A
:1000500002EB81002421FCF744F92BE04CE04FF047
:10006000000B40208DF838002D48854203D103272E
:100070004FF0010B1EE09DF836002A4951F8200090
:10008000A84217D14FF0010B0AA80F9000200EE0F4
:100090009DF8361000EB4002204B03EB8202D27A2F
:1000A000914203D1C1B28DF8351002E0401C002806
:1000B000EED000BFBBF1010F1ED1032F06D19DF87A
:1000C000380040F003008DF838000EE0022F06D112
:1000D0009DF8380040F001008DF8380005E09DF8EB
:1000E000380040F002008DF838000AA80F90524600
:1000F0000EA90DA8FDF7ACFA00BFF3E6902700208B
:1001000080340200E420002080260020EC20002023
:10011000442700209C2700206027002084270020FF
:100120003C3402006426002010B5024600BF284877
:10013000007810B948F2080010BD00BF12B948F2AB
:100140000E00F9E711B948F20E00F5E7086810B99A
:1001500048F20E00F0E71F48006898BB1D4C086885
:1001600020602046D1F8054044604C7A047208793A
:10017000184CA0722046007A20F001041548047241
:10018000007A20F00200801C124C20722046007A77
:1001900020F004040F480472C07920F00100401CD4
:1001A0000C4CE0712046C07920F00200801CE07108
:1001B0002046C07920F004040648C4710020107065
:1001C000002302E0FFE748F204031846B4E700000A
:1001D000F020002090270020014614480078144A9F
:1001E000127890421DD011480078401C0F4A1070C0
:1001F00010460078022801D1002010700D480B4AEB
:10020000127850F8220008600B4A086812681044FF
:10021000094A10601046006820F07F4010600120FD
:1002200070470020086000BFFAE700004C21002062
:100230004D210020442100204021002010B50C4811
:10024000007800F0080078B90A480068401C0949A5
:10025000086000F027FD10B9FEF790FD06E00648A3
:10026000007802F011F901E000F022FF10BD00005B
:100270001C2100200C2100200021002013480078C0
:10028000062820D11148001D007800F00F00D0B9D9
:100290000E480830007800F0F000302801D101202D
:1002A00070470A480830007800F0F000402801D17B
:1002B0000120F5E705480830007800F0F0005028EC
:1002C00001D10120ECE70020EAE70000E00F00F098
:1002D00013480078062820D11148001D007800F04E
:1002E0000F00D0B90E480830007800F0F000302838
:1002F00001D1012070470A480830007800F0F00072
:10030000402801D10120F5E705480830007800F0C9
:10031000F000502801D10120ECE70020EAE70000BE
:10032000E00F00F00A48007806280ED10848001DAA
:10033000007800F00F0040B905480830007800F060
:10034000F000302801D1012070470020FCE70000B8
:10035000E00F00F013480078062820D11148001D56
:10036000007800F00F00D0B90E480830007800F097
:10037000F000302801D1012070470A480830007889
:1003800000F0F000402801D10120F5E705480830D1
:10039000007800F0F000502801D10120ECE70020A7
:1003A000EAE70000E00F00F00A48007806280ED1C6
:1003B0000848001D007800F00F0040B905480830DB
:1003C000007800F0F000302801D1012070470020B3
:1003D000FCE70000E00F00F013480078062820D169
:1003E0001148001D007800F00F00D0B90E48083009
:1003F000007800F0F000302801D1012070470A4851
:100400000830007800F0F000402801D10120F5E725
:1004100005480830007800F0F000502801D1012094
:10042000ECE70020EAE70000E00F00F00A4800785F
:1004300006280ED10848001D007800F00F0040B9D2
:1004400005480830007800F0F000302801D1012084
:1004500070470020FCE70000E00F00F00A48007839
:1004600006280ED10848001D007800F00F0040B9A2
:1004700005480830007800F0F000302801D1012054
:1004800070470020FCE70000E00F00F00A48007809
:1004900006280ED10848001D007800F00F0040B972
:1004A00005480830007800F0F000502801D1012004
:1004B00070470020FCE70000E00F00F0F0B50346B5
:1004C00000241FE0124E306806689E4203D9066879
:1004D000F61A06601AE006689B1B0668344400267C
:1004E00006600B4E35680A4FC6693E60C66846B165
:1004F0000E1926F07F464660C66886601668C6619B
:10050000156000BF024800680028DBD100BFF0BDC5
:100510003C21002030B504461088C01C984201D907
:100520000C2030BD0220158848551088401C1080D2
:100530000120158848551088401C108015884C559E
:100540001088401C10800020EBE738B50020009098
:10055000684601F049FA0446082C02D00CB101208B
:1005600038BD082C06D1684600F070F804460CB17E
:100570000020F5E7009808B10120F1E70020EFE73F
:1005800010B5044614B1112C08D100E00AE0064869
:10059000006840F008000449086003E02046FDF7C9
:1005A0007FF800BF00BF10BD1C21002010B50D4812
:1005B0000068401C0B490860B0F57A7F0DD00A48EE
:1005C0000078022804D00848007801F05DFF07E0B9
:1005D0000648007802F012FA02E00D20FDF760F8FC
:1005E00010BD00001021002000210020012100206A
:1005F00010B50A480078012804D0022808D0032842
:1006000009D102E002F09AF906E0FFF717FE03E0D5
:1006100002F0E8F900E000BF00BF10BD002100209B
:1006200070B50446204628DF0546FFF7A9FF70BDD8
:100630002DE9F04104460D4616463246294620462D
:1006400029DF0746FFF79CFFBDE8F081014609B9A5
:10065000032070470248406D08600020F9E7000061
:100660005029002070B52DED048B044620881038E9
:10067000304951F8202030A10020FCF70EFAA28862
:1006800031A10020FCF709FA2088102804D0112895
:1006900040D0122848D11EE0208BFBF7ACFE9FED26
:1006A000300B53EC102BFBF734FEFBF7B1FE85B299
:1006B0002A462DA10020FCF7F0F9E08B00EB80002A
:1006C00042002FA10020FCF7E8F9A28B32A1002004
:1006D000FCF7E3F929E02089FBF78DFE9FED200B65
:1006E00053EC102BFBF715FEFBF792FE85B22A4662
:1006F0001DA10020FCF7D1F9E08900EB8000420049
:100700001FA10020FCF7C9F9A28923A10020FCF752
:10071000C4F90AE0207A1238244951F8202024A193
:100720000020FCF7BAF900E000BF00BFBDEC048B6D
:1007300070BD0000782100200A47415020457674A2
:100740003A2025730000000009436F6E6E20686137
:100750006E646C653A20307825233032780A0000C8
:10076000000000000000F43F094D494E5F434F4E2A
:100770004E5F494E54455256414C3A2025640A007A
:1007800009434F4E4E5F5355505F54494D454F55A9
:10079000543A2025640A000009534C4156455F4CE9
:1007A0004154454E43593A2025640A001422002042
:1007B0000925730A000000003EB500BF9DF8000047
:1007C00020F00F00401C00909DF8000020F0F00089
:1007D0001030009000BF0A2216A168467CDF044654
:1007E00000BF254635B100BF15A28D212846FCF774
:1007F000DAFE00BF00BF0020019002905020ADF84B
:100800000400A020ADF806000020ADF808004FF469
:10081000C870ADF80A0001A87ADF044600BF25467B
:1008200035B100BF06A297212846FCF7BCFE00BFE9
:1008300000BF3EBD4F7572536572766963650000F7
:100840002E2E5C2E2E5C2E2E5C6D61696E2E63004A
:1008500001460020704702460020704702460020F3
:10086000704700002DE9F04104460027B8460026F5
:10087000607800EBC000374901EB8000406848B366
:10088000607800EB4000344901EB8000807A00F092
:10089000800080281ED1607800EB400001EB8000D2
:1008A000807A00F04000402814D0607800EBC0004F
:1008B000284901EB800000F10807607800EBC000D8
:1008C00001EB800080881FFA80F8607800EBC000A0
:1008D00051F82060617801EB41011F4A02EB810170
:1008E0000889334642463946A9DF05460B2D0CD10F
:1008F0000126617801EB4101174A02EB8101088969
:10090000334642463946A9DF05460DB148F2410556
:10091000012E1BD1617801EB41010F4A02EB8101ED
:1009200008894FF6FF720C21A7DF054675B143F227
:100930000200854208D0082D06D0801C854203D0D5
:10094000112D01D0002501E048F241052846BDE8FF
:10095000F0810000602700208427002070B5054644
:100960000C46617801EBC1010E4A02EB810038238D
:100970002422294601F08CF9064686B9607800EBFE
:10098000C000084901EB80004068401C38B90020D5
:10099000617801EBC101034A02EB810148603046F6
:1009A00070BD0000602700202DE9F04188B00746A7
:1009B0000C4603261A200790617801EB4101324A68
:1009C00002EB81010889334607AA6946AADF8046FF
:1009D000B8F1000F54D1617801EBC1012B4A02EB51
:1009E000810101F10800BDF81C206946FBF784FC79
:1009F000A0B9607800EB4000234901EB8000807AC9
:100A000000F0020002283BD0617801EBC1011F4ACF
:100A100002EB81002421FBF764FC31E0607800EBFD
:100A2000C0001A4901EB8000406808B1184D00E091
:100A3000184D607800EBC000144941F82060BDF803
:100A40001C00617801EBC101104A02EB8101486092
:100A5000617801EBC10102EB810101F10800BDF8F1
:100A60001C206946FBF724FC607800EBC000074AB5
:100A700002EB8001382324223846A847804600BF75
:100A8000002008B0BDE8F081842700206027002006
:100A9000B91F0200951E020070B505462846FFF7F3
:100AA000E1FE044614B900BF00200446204670BD94
:100AB00070B505460E4631462846FFF74FFF0446FF
:100AC00014B900BF00200446204670BD70B505462D
:100AD0000E4631462846FFF767FF044614B900BFAB
:100AE00000200446204670BD2DE9F04105460F4622
:100AF000012000FA05F418480068FCF78BFE064652
:100B00000EB1BDE8F081154800682040E0B92846E4
:100B100000F07CFC28B112480068204310490860AE
:100B200004E00F480068A0430D4908600B480068C6
:100B300020430A49086000220A4801680648006804
:100B4000FCF73CFE064604E004480068A043034965
:100B5000086000BFD5E700006834020030210020A3
:100B60002C2100202821002010B51648007800F024
:100B7000080018BB00F0C2F860B1002012490860FC
:100B80001048006840F001000E490860002001F0A4
:100B900035FF15E000F086F830B100200A49086002
:100BA000022001F02BFF0BE00848006818B1032079
:100BB00001F024FF04E001F0F5FE01E001F002FF86
:100BC00010BD00001C21002004210020082100206D
:100BD000F8B52548007800B9F8BD2448006808B980
:100BE000012000E0002005462148006808B90120E6
:100BF00000E00020064600BF9DB9684652DF04466B
:100C0000052C01D101250BE034B100BF194A932115
:100C10002046FCF7C8FC03E014490098096888479F
:100C200000BFCEB914480088009069461348006898
:100C300061DF0446052C01D101260CE034B100BF70
:100C40000C4AB2212046FCF7AEFC04E00B480068D9
:100C500007490968884700BF0DB106B100E0CBE73E
:100C600000BF00BFB8E70000602100207021002015
:100C70006C210020CC340200682100206421002077
:100C800001464888064A1288904206DB4888044A92
:100C90005288904201DC012070470020FCE70000F0
:100CA000CC2000202DE9F0411148007800EB8001B4
:100CB0000F48001D00EB8105EF6800F09CFF69887C
:100CC0003944AA881144491EB1FBF0F6094800686E
:100CD000B04206D307480068B04204D10648006815
:100CE00008B9012400E000242046BDE8F08100009E
:100CF0002C2800200C210020082100202DE9F041A3
:100D00000F48007800EB80010D48001D00EB8105C5
:100D1000EE6800F070FF69883144AA881144491ECA
:100D2000B1FBF0F70748006828B107480068B842EF
:100D300001D1012400E000242046BDE8F08100003C
:100D40002C280020082100200C210020014601F061
:100D5000030008B9012070470020FCE730B50446C5
:100D60001088C01C984201D90C2030BD0220158883
:100D700048551088401C10801C2015884855108844
:100D8000401C1080012C06D0022C08D0032C0AD065
:100D9000042C10D10BE00020158848550DE00120EF
:100DA0001588485509E002201588485505E00320BC
:100DB0001588485501E00720D7E700BF1088401C80
:100DC00010800020D1E7000010B5044604480078E8
:100DD00000F0010018B103480078FDF7B7FB10BD23
:100DE00090200020882000202DE9F0412148D0F8F3
:100DF0000080214806782FE02048006800EBC604F8
:100E0000257825E005EB4501606800EBC107681C0B
:100E1000C5B2A078A84200D100253878022802D0B7
:100E2000032812D103E0786801F0D6FE0EE007E057
:100E300010490868002101740E4AC169116000BFA1
:100E40000C4800680028F3D100E000BF00BF00BFDD
:100E50006078A842D6D100BF301EA6F10101CEB203
:100E6000CAD104480068404502D00120BDE8F081A5
:100E70000020FBE73C210020342100203821002005
:100E80002DE9F04706463B48D0F800903A480778ED
:100E900061E03A48006800EBC70555E016B13446FA
:100EA000E66923E02A7802EB4202696801EBC2009E
:100EB0002978491C29702978AA78914201D100210A
:100EC000297044680178012901D1217C01B13BE0FE
:100ED00081686160C168A1600169E1604169A161E7
:100EE0002749097809B10021616000BF2549606880
:100EF0000968401A20F07F402349884208D22149DE
:100F00006068096801F0C2FDA1680844206010E033
:100F10001C486168006801F0B9FD8046A068404542
:100F200004D9A068A0EB0800206001E00020206048
:100F300000BF00206060A060012020740020E061FC
:100F4000204601F015FE00BF002EA7D12878697851
:100F50008842A3D100BF381EA7F10101CFB298D1BA
:100F600004480068484502D00120BDE8F087002011
:100F7000FBE700003C210020342100203821002024
:100F80005521002040210020FFFF7F0008B50F48B9
:100F9000007808B1002008BD012083020C4A0DA191
:100FA00000900020FBF774FC08B10820F3E7002054
:100FB00010230A4A0AA10090FBF72AFC08B1082076
:100FC000E9E70120014908700020E4E756210020EC
:100FD000A82900204E6F726D616C0000A82D0020C2
:100FE000496E7075740000000FB438B5044606A849
:100FF00000906A4620460599FBF75CFD00200090B2
:1010000038BC5DF814FB000008B517A219A1002038
:10101000FBF743FD01F0B6FE6846FDF795FDFDF7D1
:1010200013F89DF80000FEF7EFFAFFF7C5FB01F09B
:10103000EFF9FCF7E9F9FEF74FF8FCF72EFC032077
:10104000FCF71AFE044600BF25463DB100BF14A2BE
:1010500040F21F212846FCF7A6FA00BF00BF00BFE0
:1010600000F074FCFCE7000031303A35323A35329A
:10107000000000001B5B324A5475746F7269616C2A
:101080002053746172742E204D61696E2E6320634B
:101090006F6D70696C656420402025730A0A00003A
:1010A0002E2E5C2E2E5C2E2E5C6D61696E2E6300E2
:1010B00010B50548006820F008000349086003489F
:1010C000007801F0E1F910BD1C2100200021002072
:1010D0002DE9F04105460E4614469846A888871C1F
:1010E0002088801C3844404502D90C20BDE8F0819E
:1010F000FE2F01D90C20F9E7781C21887054208834
:10110000401C2080FF20218870542088401C2080B3
:1011100022889119288802F00DF82188084420803F
:10112000A88800280DDDA86808B90720DEE7AA888E
:1011300023889819A968FBF7BBF82088A988084478
:1011400020800020D2E72DE9F84F05460F461446CF
:1011500098462878012804D1687810B90720BDE89E
:10116000F88F2088801C404508D82878012807D1AE
:101170002088801C69780844404501D90C20EEE79E
:101180002088A8EB0000801E86B200962188891C6A
:10119000C81969467DDF814600BFB9F1000F01D053
:1011A0004846DCE700BF2878022806D1BDF80000D9
:1011B000B04202DC4FF0090A0BE04FF0080A287831
:1011C000012805D16878B04202DC6878009000E020
:1011D0000096BDF80000FE2801D90C20BFE7BDF83D
:1011E0000000401C218878542088401C20802088E2
:1011F00007F800A02088401C20802088BDF800103F
:10120000084420800020AAE70146002070470246DB
:1012100000207047024600207047000070B50B4662
:1012200001461A46002907DA5407260E104C01F031
:101230000F052D1F665503E05407250E0D4C655410
:1012400000BF00BF00F01F02012191400A4A44097B
:1012500042F8241000BF00BF00F01F02012191409E
:101260004209920002F1E022C2F8001100BF70BDF5
:1012700018ED00E000E400E080E200E02DE9F04736
:1012800005460E46284600F03FFBF8B12846FDF71C
:10129000EDFC083824490F5CBC11032C0BD100BFB6
:1012A000224800680121A940084008B1032000E05D
:1012B0000220804605E0012C01D1022000E003203D
:1012C00080464146284600F0F5F82AE0284600F01E
:1012D00027FB30B32846FDF7C9FC0446A00000F503
:1012E000807087B22046124951F8201041F0010267
:1012F0000F4941F8202000BF384600F0F3F87EB1D6
:101300002846FDF7B3FC8146FDF768FC8046B8F13E
:10131000000F04D0012101FA04F000F0FDF800BF35
:1013200000BFBDE8F0870000042800201005005031
:10133000106500402DE9FC4704460E4617464FF065
:101340000008204600F0D2FA10B14FF0080851E032
:10135000F27839462046FDF749FC0546681C00280E
:1013600045D0B07860B100BFA10001F1A041D1F833
:10137000001721F00200214941F8240000BF0CE0D1
:1013800096F80190002000904B46024601460190DD
:10139000204600F07DF800BF00BFF078D0B1307873
:1013A000174951F82510174A1140154A42F82510DF
:1013B000114651F825104FF4F85202EA04224FF476
:1013C000403303EA00431A4311430D4A42F8251003
:1013D00000BF0EE0A5F108000B49085C317840EA37
:1013E000811042B2A5F1080007490A5401E04FF00C
:1013F000040800BF4046BDE8FC870000000700501D
:1014000010650040FFE0FCFF04280020014600BFFB
:1014100004480068C84000F0010008B1012070478E
:101420000020FCE71005005010B5134890F8540058
:1014300008B1082010BD002404E0204600F080FA26
:10144000601CC4B2202CF8DB002404E02046FDF729
:10145000B5FB601CC4B20C2CF8DB06210846FFF774
:10146000DDFE4FF0004000F057F80120024981F8FE
:1014700054000020DEE70000B4270020034890F865
:10148000540008B1012070470020FCE7B427002079
:10149000F0B5DDE9054541EA420646EA830646EA3B
:1014A000042646EA0547024E46F82070F0BD0000CB
:1014B00000070050074A52F8202022F44033054A22
:1014C00042F8203052F8202042EA0143014A42F813
:1014D000203070470007005001460148084470471B
:1014E0000060004038B504462046FFF7F5FF0021B4
:1014F00001602046FFF7F0FF0068009000BF38BD94
:1015000010B504462046FFF7E7FF0068012800D128
:1015100010BD0020FCE70000014908607047000092
:10152000046300400146D1F88004C1F8800470478C
:101530000246505808B1012070470020FCE7002205
:1015400042507047C0F8081370470246D2F80403AF
:10155000084008B1012070470020FCE701224250FA
:1015600070470146D1F88004C1F8800470470246F4
:10157000505808B1012070470020FCE7002242507B
:101580007047014640F23C504058704770B50546E0
:1015900095B1032D13D10220FCF760FF044600BF74
:1015A00026463EB100BF07A240F205113046FBF7C8
:1015B000FAFF00BF00BF03E000F032FF00E000BF11
:1015C00000BF70BD2E2E5C2E2E5C2E2E5C6D6169D0
:1015D0006E2E630070B50546284600F0CFF92888C6
:1015E000102802D0112819D113E00720FCF736FF8C
:1015F000044600BF26463EB100BF0AA240F21D11BC
:101600003046FBF7D0FF00BF00BFA888094908801B
:1016100005E04FF6FF700749088000E000BF00BFFB
:1016200070BD00002E2E5C2E2E5C2E2E5C6D61692E
:101630006E2E63008220002070B50546287878B9A8
:101640003B210848008876DF044600BF264636B1B5
:1016500000BF05A2B6213046FBF7A5FF00BF00BFC3
:1016600070BD0000822000202E2E5C2E2E5C2E2EBF
:101670005C6D61696E2E630010B504460349A26873
:101680000A60E0684860FDF75FFD10BDD8200020CB
:1016900010B50446A088084908800849A2690A6074
:1016A000E06948600020064908700648C08908B90A
:1016B000FDF74AFD10BD0000D6200020D8200020F4
:1016C000D42000202826002070B505464FF6FF7074
:1016D0000949088000200949087009480068FCF79A
:1016E00099F8044634B10748806918B10548816902
:1016F0002046884770BD0000D6200020D42000205E
:10170000083402002826002070B50546AC1D20884C
:101710001149C98988421DD1608902281AD100BFA8
:1017200000BF217B627B41EA0221084600F00101F3
:1017300011B1FDF709FD0DE008480068FCF76AF8F3
:10174000064636B10448806918B1034881693046BD
:10175000884700BF70BD0000282600200834020022
:1017600070B586B005461F4B0FCB01AC0FC44AF6CF
:10177000CD30ADF81400A11C01A863DF044600BF02
:10178000264636B100BF18A23B213046FBF70BFFBF
:1017900000BF00BF2A4605A90120A0DF044600BF04
:1017A000264636B100BF10A242213046FBF7FBFEB1
:1017B00000BF00BF12A10020FBF762F9BDF81420A2
:1017C00017A10020FBF769F99DF816201AA1002047
:1017D000FBF763F92A881FA10020FBF75EF906B02A
:1017E00070BD0000BC3302002E2E5C2E2E5C2E2E0F
:1017F0005C6F75725F736572766963652E63000056
:10180000457865637475696E67206F75725F73657F
:1018100072766963655F696E697428292E0A000013
:101820005365727669636520555549443A2030788E
:1018300025233034780A0000536572766963652089
:101840005555494420747970653A20307825233005
:1018500032780A00536572766963652068616E6448
:101860006C653A20307825233034780A0000000077
:101870000246002104E0505C08B101207047491C79
:101880000629F8D30020F9E710B50446C4EBC400DC
:10189000144901EB80000021401C01618182C4EBEE
:1018A000C401104A02EB81001021FAF71AFDFF2053
:1018B000C4EBC4010B4A02EB81010874C4EBC40100
:1018C00002EB810188764FF6FF70C4EBC40102EB96
:1018D00081010883204601F037FC0020024941F8CD
:1018E000240010BD80260020642600200146054803
:1018F0004056012202EBE07008B101207047002041
:10190000FCE70000E4270020014604484056082870
:1019100001DB012070470020FCE70000E4270020E5
:10192000014606484056002805DB04484056082872
:1019300001DA012070470020FCE70000E4270020C6
:10194000FF2201490A547047E427002070B548DFA0
:10195000044600BF25463DB100BF04A240F2062167
:101960002846FBF720FE00BF00BF70BD2E2E5C2E68
:101970002E5C2E2E5C6D61696E2E630070B505467F
:101980002C88102C05D3302C03D82846FEF76AFE8D
:1019900012E0502C0CD3A52C0AD8288850380749BF
:1019A00051F82030224606A10020FBF776F803E02C
:1019B00008A10020FBF764F870BD0000B4210020EE
:1019C0004576743A20307825233032782C202573E0
:1019D00000000000556E646566696E65642065767A
:1019E000656E740D0A000000014600BF07480078CC
:1019F00000F0040008B90820704700BF09B90E20A4
:101A0000FAE70348407808600020F5E71C21002031
:101A10002C2800207CB5034600BF2548007800F044
:101A2000040008B908207CBD00BF0BB90E20FAE7FE
:101A30000AB90E20F7E71868022806D2186800EBEA
:101A400040001C4C54F8200008B90720EBE7D3E90C
:101A50000004CDE9000401981C6804EB4404154D12
:101A600005EB8404248901FB04000190009800EB3D
:101A700040002C4604EB80004068009C04EB4404CA
:101A800005EB84046489009D05EB4505094E06EBD2
:101A900085052D8904FB0500019CA04201D8072083
:101AA000C1E7DDE90004C2E900040020BBE7000053
:101AB0001C210020F82800202DE9F84304460D469B
:101AC00000BF4348007800F0040010B90820BDE8CA
