:020000040001F9
:10C00000984B00208DC4010095C4010097C4010025
:10C0100099C401009BC401009DC401000000000000
:10C020000000000000000000000000009FC40100AC
:10C03000A1C4010000000000A3C40100A5C40100C8
:10C04000A7C40100A7C4010005CB0100A7C40100DB
:10C05000A7C40100A7C401009DC501006DC7010070
:10C06000BDCA0100A7C40100A7C40100A7C4010004
:10C07000A7C40100A7C40100A7C40100A7C4010010
:10C08000A7C4010049C70100A7C40100A7C401005B
:10C0900029C80100A7C401002DC80100A7C40100E0
:10C0A000A7C40100A7C40100A7C40100A7C40100E0
:10C0B000A7C40100A7C401000000000000000000A8
:10C0C000A7C40100A7C40100A7C40100A7C40100C0
:10C0D000A7C40100A7C40100A7C40100000000001C
:10C0E0000000000000000000000000000000000050
:10C0F0000000000000000000000000000000000040
:10C10000000000000000000000000000000000002F
:10C11000000000000000000000000000000000001F
:10C40000DFF80CD000F09AF8004800472DF9010041
:10C41000984B0020401E00BF00BF00BF00BF00BF00
:10C4200000BF00BF00BF00BF00BF00BF00BF00BF14
:10C4300000BF00BF00BF00BF00BF00BF00BF00BF04
:10C4400000BF00BF00BF00BF00BF00BF00BF00BFF4
:10C4500000BF00BF00BF00BF00BF00BF00BF00BFE4
:10C4600000BF00BF00BF00BF00BF00BF00BF00BFD4
:10C4700000BF00BF00BF00BF00BF00BF00BF00BFC4
:10C4800000BF00BF00BFC5D170470000064880470D
:10C4900006480047FEE7FEE7FEE7FEE7FEE7FEE7A9
:10C4A000FEE7FEE7FEE7FEE751C8010001C4010018
:10C4B00010B5431A934209D28318881803E010F884
:10C4C000011D03F8011D521EF9D210BD40EA0103FF
:10C4D0009B0703D009E008C9121F08C0042AFAD23A
:10C4E00003E011F8013B00F8013B521EF9D210BDE8
:10C4F000D2B201E000F8012B491EFBD270470022A6
:10C50000F6E710B513460A4604461946FFF7F0FF52
:10C51000204610BD421C10F8011B0029FBD1801AD7
:10C52000704730B504460020034600E05B1C934290
:10C5300003D2E05CCD5C401BF8D030BD064C074D0B
:10C5400006E0E06840F0010394E8070098471034E3
:10C55000AC42F6D3FFF758FFC8100200E810020003
:10C5600030B58C1810F8012B12F00F0301D110F820
:10C57000013B120906D110F8012B03E010F8015B12
:10C5800001F8015B5B1EF9D101E001F8013B521E8D
:10C59000FBD1A142E6D3002030BD00002DE9FC5FB5
:10C5A0000025DFF83491A8464FF4807601242F4609
:10C5B000304603F0FFFB38B1D9F80403204203D022
:10C5C000304603F0EDFB2543361D64007F1CB6B2F8
:10C5D000082FEDD34FF4BE74204603F0EBFB38B1C7
:10C5E000204603F0DDFB3D4845F00045D0F80080D3
:10C5F0003B4E15F0FF0F14D0012700242F420CD022
:10C6000009EB8401D1F81005D1F81015C0F304200E
:10C6100056F82420C1F3014190477F00641C082C88
:10C62000ECD3002D56DA00200190401E4CE070192A
:10C6300010F8501F90F9000021F0C004401C38D0C1
:10C64000012000FA04FA1AEA090F32D04FEA911BCE
:10C65000204601F007FE56F82000009010B9BBF10B
:10C66000030F26D15146BBF1030F02D101980843B5
:10C670000190A00000F1A040D0F800071AEA080FCE
:10C68000C0F3014002D0022802D012E0032810D1EA
:10C69000BBF1030F07D102281AD00221204603F074
:10C6A00070FB7F1CFFB2009818B1009A59462046D3
:10C6B00090476D1C042DBAD3002F0BD0074800689B
:10C6C000404507D080460198002781463D46AEE7A9
:10C6D0000321E3E7BDE8FC9F006000401005005027
:10C6E000F027002000F01F02012191404009800046
:10C6F00000F1E020C0F88012704700F01F02012115
:10C7000091404009800000F1E020C0F8001170471E
:10C7100000F01F02012191404009800000F1E0205B
:10C72000C0F8001270474907090E002806DA00F029
:10C730000F0000F1E02080F8141D704700F1E020A8
:10C7400080F800147047000007480021C0F840112D
:10C75000C0F84411C0F84811C0F84C11C0F80011DD
:10C76000C0F8041104F0F0B9001001402DE9FE43B7
:10C770004FF4827003F026FBDFF89C80274C0026E4
:10C780004FF00109A8B1264940460E608DF80060BF
:10C790006168019123490968ADF80810E168A1B109
:10C7A0006160A18A2181E660C0F800902168684636
:10C7B00088474FF48A7003F005FB48B118481030E1
:10C7C000066084F82760BDE8FE8384F82760EDE703
:10C7D00027691EE0B7FA87F04FF00041C1408F4350
:10C7E0004FF48C7101EB8005284603F0EBFA80B121
:10C7F00045F80860A5F58C75E8088DF8040045F348
:10C800008000401C8DF800908DF805002168684676
:10C810008847002FDED1D6E700700040DC2A0020D8
:10C82000047100403476004004F02AB9074810B57E
:10C83000406830B18047002807D0BDE8104000F0C4
:10C8400001BBBDE8104002F00BBF10BDC0210020AD
:10C8500070B58D480023021D0178101D01240629A2
:10C8600007D115782D0704D10578C5F30315032DDD
:10C8700002D0062904D00FE0854E844D75670EE086
:10C8800015782D0708D10578C5F30315032D06D0BB
:10C89000042D04D0052D02D0062909D010E04FF058
:10C8A0008055D5F844527B4EC5F34235356002E0E1
:10C8B00015782D0704D10578C5F30315032D02D093
:10C8C000062906D011E0744D2E6826F080762E6081
:10C8D0000EE015782D0708D10578C5F30315032D53
:10C8E00006D0042D04D0052D02D006290AD011E06F
:10C8F0004FF08045C5F80C31C5F81031654D2D1F3E
:10C900002B6002E015782D0704D10578C5F30315D7
:10C91000032D02D0062905D00CE05E4A03216432C3
:10C9200011600AE015782D0704D10578C5F30315C9
:10C93000032D02D006290DD06AE0584A0521116066
:10C94000564978310C60554908310B603F21121D62
:10C95000116002E0117809075AD10078C0F3031082
:10C96000052855D14E4800684E4908604C48001DC6
:10C970000068091D08604A4808300068091D086001
:10C9800047480C300068091D0860454810300068B1
:10C99000091D0860424814300068091D08604048BD
:10C9A000183000683F49203108603D481C3000685D
:10C9B000091D08603A4820300068091D08603848A1
:10C9C00024300068091D0860354828300068091DBA
:10C9D000086033482C300068091D0860304830304A
:10C9E00000683049403108602D4834300068091D26
:10C9F00008602B4838300068091D086028483C3022
:10CA00000068091D0860264840300068091D08605C
:10CA100021487438016841F470010160BFF34F8F01
:10CA2000BFF36F8F4FF01021D1F80002002803DB15
:10CA3000D1F80402002822DA1B4A14601B4804685B
:10CA4000002CFCD01524C1F800420568002DFCD054
:10CA5000C1F8044201680029FCD013600168002974
:10CA6000FCD0BFF34F8F0C48F0380168104A01F436
:10CA7000E06111430160BFF34F8F00BFFDE70E4936
:10CA80000C48086070BD0000E00F00F00DF0ADBA7A
:10CA900000C007403C050040FCED00E0105600409F
:10CAA0000404001020C5004004E5014000E40140FA
:10CAB0000400FA050090D003D42100202DE9F047AE
:10CAC00000250E4C04274FF4A078BE034FEA050959
:10CAD00008EB850006FA05F122584AB1D4F8042380
:10CAE0000A4205D044F80090054A51681268904700
:10CAF0006D1CEDB2BD42EBD3BDE8F0870080004075
:10CB0000082B00200348007F08B104F045B904F069
:10CB1000BFB800004828002002E008C8121F08C162
:10CB2000002AFAD170477047002001E001C1121FAE
:10CB3000002AFBD170472DE9FC5F002516880746C7
:10CB40001580406B14468946A8464FF00C0A112305
:10CB50004FF0020B98B101784846032E48D380F875
:10CB600000B02288521C92B2228083542288521C28
:10CB700092B2228009F802102088401C20803A6B73
:10CB8000DAB12088494600F11205B54230D80B547D
:10CB900020881023401C80B220800B542088401C29
:10CBA00020800F202388155C401ECD54238840B27E
:10CBB0005B1C23800028F5DA454697F82E0030B13B
:10CBC00033462246494602F0B9FD050011D197F8D7
:10CBD0002D0030B132462146484600F059FE05008E
:10CBE00007D1B87820B32088C846001DB04202D9CA
:10CBF0005046BDE8FC9F684679DF0028F9D12188BE
:10CC0000032008F8010020881921401C80B22080F0
:10CC100008F800102088401C80B2208000EB08013A
:10CC2000BDF8000004F024F9014620880844208063
:10CC3000F878B8B1228897F90310D31C4846B3425C
:10CC4000D6D800F802B022880123521C92B222806A
:10CC500083542288521C92B2228009F80210208844
:10CC6000401C20807868B8B1218890F90020CB1C46
:10CC70004846B342BCD800F801B021880A23491CB9
:10CC800089B2218043542188491C89B2218009F846
:10CC900001202088401C2080388950B1CDE9004611
:10CCA0004B460622022107F1080004F054F9050062
:10CCB0009FD1388A50B1CDE900464B460722032167
:10CCC00007F1100004F047F9050092D1388B50B1FC
:10CCD000CDE900464B461522142107F1180004F057
:10CCE0003AF9050085D1386A30B1334622464946C3
:10CCF00001F068FC0500DBD1786A30B1334622468A
:10CD0000494602F09FFE0500D2D197F82C0038B1B9
:10CD1000334622464946384603F028FC0500C7D171
:10CD2000387838B1334622464946384602F0BCFED0
:10CD30000500BDD128465CE710B501220221002084
:10CD400001F0C2F808B1072810D107220221012002
:10CD500001F0BAF808B1072808D100210A220846D4
:10CD600001F0B2F808B1072800D1002010BD000082
:10CD7000054800680421044A8143121D1160111DF9
:10CD800000F00400086070470405005070B50024EE
:10CD9000064D06E06868012110F8340002F0F4FE48
:10CDA000641C28788442F5D3002070BD8C210020BB
:10CDB000F8B515460C460646052A01D20720F8BDEF
:10CDC00002F0C4FF18B902F097FF0028F7D110490C
:10CDD00000204E600C70C1E902500E4D08610DE05C
:10CDE00006EBC4006968009181788DF80110007825
:10CDF000094A694602F01AFF0028E0D1641EE4B235
:10CE0000EED2BDE8F840054A0021024800F054B8CF
:10CE10008C210020C0100200E9F3010075E7010039
:10CE2000BFF34F8F05480168054A01F4E0611143E3
:10CE30000160BFF34F8F00BFFDE700000CED00E085
:10CE40000400FA050EB500210091CDE901106A46F3
:10CE500044F20100FFF7E4FF0EBD0000014B1B6828
:10CE600018470000CC27002038B50C46074BA268B5
:10CE7000097802EB420253F82250054A126A0092E6
:10CE8000024604F108002369A84738BDC42A0020DF
:10CE900068210020074910B50A7802EB820201EBF5
:10CEA0008201091DFFF7E0FFBDE81040042003F0F8
:10CEB00057BC000068280020074B9B6823B12AB1AB
:10CEC00020B10068037C1BB1082070470720704721
:10CED0004174426100207047A02100202DE9F047F5
:10CEE0008046994614460F4690074FF0000634D10D
:10CEF0001C4D8CB303F038FA0320C5F81490287049
:10CF000004F11800002107EB4703AC6004EBC102F9
:10CF1000491C167056709770506000EBC3000329CF
:10CF2000F4DBEE606E70AE701420FFF7DBFB0621C1
:10CF30001420FFF7F8FB1420FFF7DFFB0A49C1F8C4
:10CF4000008006211120FFF7EEFB0748001F006854
:10CF500028610020BDE8F08701E00720FAE7AE6015
:10CF6000FBE70000A0210020081501402DE9F8434F
:10CF7000DFF870900D461746D9F80810044651B3F3
:10CF80004CB3052D02D20720BDE8F883606910B3C9
:10CF9000607C012821D0002603F0AAFFD9F80810F0
:10CFA000804601EBC800694603F0C1FFB8B101211A
:10CFB00000F8041B0C4910C0096880E8E200D9F8A9
:10CFC000081001EBC8009DF8001041701420FFF715
:10CFD0009FFB0020D8E70820D6E72E46DCE7042098
:10CFE000D2E70000A021002004150140F8B5124E40
:10CFF0000446B168E1B1DCB16069C8B100272774AB
:10D0000003F076FF0546B068694600EBC50003F003
:10D010008EFF78B1022101704460B0689DF8001065
:10D0200000EBC50041701420FFF772FB3846F8BDD5
:10D030000820F8BD0420F8BDA021002010B5144C34
:10D0400000224FF480312068FFF790FF08B1FFF70E
:10D05000F9FE00224FF400416068FFF787FF08B136
:10D06000FFF7F0FE002242F26661A068FFF77EFF44
:10D0700008B1FFF7E7FE00224FF42031E068FFF728
:10D0800075FF002803D0BDE81040FFF7DBBE10BDE0
:10D09000341002002DE9F0430546007D93B00E46A2
:10D0A0000024A0B107949DF81C0020F00F00401C44
:10D0B00020F0F00010308DF81C00707B8DF81D0002
:10D0C0009DF81E0020F00600801C8DF81E001C211B
:10D0D0006846FFF714FA9DF8000040F002008DF852
:10D0E0000000297D11B140F0100001E020F0100097
:10D0F0008DF80000019403940494287D00B107A8E2
:10D10000CDE9050401278DF8427042F61920ADF8EB
:10D1100040000D94B07B8DF83400F07B8DF8350025
:10D120009DF83600142120F00600801C20F0190024
:10D130008DF83600307B8DF8440008A8FFF7DFF942
:10D140000DF140080DF13409ADF8287011A8CDE9B2
:10D150000889ADF82A40ADF82C700C90A888AB1D5A
:10D1600008AA6946A2DF002838D1B06898B38DF8C4
:10D17000427042F60810ADF840000D94307C8DF8F6
:10D1800034009DF8350020F0FF008DF835009DF843
:10D19000360020F00600801C20F019008DF83600C3
:10D1A0000EA8B16800F00EFD0646142108A8FFF78E
:10D1B000A6F9ADF828600EA8CDE90889ADF82A4097
:10D1C000ADF82C600C90E88805F10E0208A9A3DFE9
:10D1D000002803D101E0FFE7EC81002013B0BDE897
:10D1E000F083000010B50D490D4803F0B2F9C1B24B
:10D1F0000A48683800F052FA00280DD008280BD0F1
:10D20000A0F54051043907D043F20141884203D0D0
:10D21000BDE81040FFF716BE10BD0000D02400206E
:10D220008C200020F0B50C4693B01F210726ADF8E6
:10D230000010ADF80410002750B1C17849070DD592
:10D240006A4602A9FFF777FC002808D102AD02E088
:10D250000025ADF800706CB1E07810B1304613B025
:10D26000F0BD01AA0AA92046FFF765FC0028F6D107
:10D270000AAA02E00022ADF80470BDF80400C3B2AF
:10D28000BDF80000C1B2284672DFE8E770B50D4670
:10D2900004991646040040D0F6B34148002242717A
:10D2A000C0E90331242231463E48FFF701F900F07E
:10D2B000D5F83C493431A1F1100001602031816082
:10D2C00038215C38FFF71BF936482178383801706F
:10D2D000A1788170E178C17061784170D4E904125D
:10D2E000C0E90412D4E90212C0E90212D4E906121C
:10D2F000C0E90612616AD1B100F1AC0100F1B802D7
:10D3000041628A60636A1B880B80616A436A89880C
:10D3100099800021436A07E0FFE70E2070BD666A2E
:10D32000B668765C5654491C9E888E42F7D8A16A2E
:10D33000D9B11C4AAC32A2F10C018A608162A36AA5
:10D340009B888B80A16A836A098819800021836A7F
:10D3500004E0A66AB668765C5654491C9E888E42E4
:10D36000F7D894F82C1080F82C10216A49B10C4998
:10D3700014310162226A52884A80216A026A09884D
:10D380001180616821B10649891D41606168416071
:10D390002946BDE8704003483838FFF743BF000016
:10D3A000D02000209825002010B502881D4C102A9E
:10D3B00018D00021112A1BD01B2A18D1007A00286E
:10D3C00015D16079012820D0022824D0032824D048
:10D3D00004280CD12171E2680846002A07D0BDE874
:10D3E00010401047817D012901D18088208110BD26
:10D3F0006170808821898842F9D1012006E0216985
:10D400000029F4D0BDE810400847022000F056F88B
:10D410000028F4D110BD0320F8E703202071042078
:10D42000F4E70000D020002010B5022801D0032826
:10D4300010D1094C207800280CD000202070607991
:10D4400000F03CF8002805D02169002902D0BDE891
:10D450001040084710BD0000D020002002480021E5
:10D460008161818381777047D0200020114810B5F9
:10D47000007801281BD1104C6078C0B9607910B1D8
:10D4800074DF002814D10B49012060703839062060
:10D49000C870084800213838FFF7C4FE002807D1BB
:10D4A000607900F00BF810B1216901B188470020C4
:10D4B00010BD000098250020D02000202DE9F04F5D
:10D4C000744C87B00026607106A8069602F00EFD27
:10D4D0000127082801D030B903E006A801F05EFE5C
:10D4E00018B9069808B12770C0E0FFF7B7FF6A4D7A
:10D4F000DFF8A0814FF0020A687808F118084FF0B1
:10D50000030B10B16079012806D0A87858B1607972
:10D51000012801D002281FD1E16819B1E770082065
:10D52000884700E0E6706079012806D1687840B14C
:10D5300008F1010002F07EFC18B16079022802D0E7
:10D540000AE084F805A0A87820B108F1010002F0F3
:10D5500071FC08B984F805B0287B4FF0040920B9A4
:10D560006079032801D184F80590287E20B960797C
:10D57000042801D166712671E16841B16079032800
:10D5800001D0042803D1287808B16078C0B1A67012
:10D5900018216846FEF7B3FF8DF8006001968DF8FC
:10D5A00008600396607901280ED0022816D03A4E02
:10D5B0002436A6F15C0703281DD004284CD13AE09C
:10D5C000A77007208847E3E7ADF81260CDF8048024
:10D5D0008DF80070ADF8106027713FE0CDF8048041
:10D5E0008DF800702889ADF81200A888ADF81000F9
:10D5F00084F804A032E0A88AADF81200288AADF8B9
:10D6000010002548243003F00DFD18B1287808B12A
:10D61000607810B184F804B01EE01F488DF808A0AF
:10D62000039687F8039000213838FFF7FBFD0028A8
:10D630001DD105202BE0A88BADF81000288CADF88B
:10D6400012001548243003F0EDFC18B1287808B119
:10D65000607878B184F80490607918B1684673DF17
:10D66000002804D1E16809B120798847002007B07B
:10D67000BDE8F08F08488DF808A0039687F803905E
:10D6800000213838FFF7CEFD0028F0D106202071A8
:10D69000E2E70000D02000209825002073B586B076
:10D6A000040034D0217C9DF81C20002091422CD015
:10D6B000002501260095ADF8006007A8ADF80250DE
:10D6C0000190E188608A6A46A4DF00281DD19DF898
:10D6D0001C002074608AA0F57F41FF3919D0207D9D
:10D6E000B8B10295039504950595E088ADF808005A
:10D6F000BDF80200ADF80C0001988DF80A60CDF875
:10D7000010D00590608A02A9A6DF08B070BD0E2077
:10D71000FBE70820F9E738B50D4604001BD0D5B16A
:10D72000286820604FF6FF70608228792075FF20FE
:10D73000207401208DF8020041F60F00ADF80000C2
:10D74000221D69460120A0DF002803D1294620467A
:10D75000FFF7A0FC38BD0E2038BD08B5002821D049
:10D7600000291FD00A88102A17D0112A17D0502A52
:10D7700018D1027D002A15D031F8062F43899A422C
:10D7800010D14A89022A0DD10268002A0AD0097BE9
:10D7900011F0010F07D0002106E0898801E04FF663
:10D7A000FF71418208BD01218DF800106946904744
:10D7B00008BD000070B5054601461C220F48FEF763
:10D7C00077FE0F4C00262670286830B10168616032
:10D7D0004068A060201D7ADF02E00948001D7BDF61
:10D7E00000280AD14FF6FF7060806670BDE8704077
:10D7F000044A00210448FFF75FBB70BD8426002067
:10D80000F0200020910E02006010020070B51E4C46
:10D81000068800251B49E289102E15D01B4B112EBE
:10D820001CD0122E29D0502E17D130F8061F91424D
:10D8300013D14189022910D1007B10F0010F11D0C2
:10D84000BDE8704000F004BF83884B808369CB60E3
:10D85000C06908614D70002AF2D070BD4FF6FF70AC
:10D8600048804D701868FFF7C1FB0028F5D0A1690A
:10D870000029F2D0BDE8704008478268CA60C068DD
:10D880000861DDE7F02000208426002060100200FF
:10D890007CB5054608880C460930904201D90C2019
:10D8A0007CBD684671DF0028FAD1218808206854C1
:10D8B00020881B21401C80B2208029542088401CD5
:10D8C00080B220802844DDF801100160BDF8051009
:10D8D00081802088801D80B220809DF8001001B1D9
:10D8E000012129542088401C208000207CBD00009C
:10D8F0007FB5044601208DF8060041F60A00ADF818
:10D900000400454A01A90120A0DF00287ED1228819
:10D9100004F13C0552B140482B46801C009042F671
:10D920002920616800F0A6FC002873D1228952B139
:10D9300039482B460A30009042F62420E16800F076
:10D9400099FC002866D1228A52B133482B46123006
:10D95000009042F62520616900F08CFC002859D126
:10D96000228B52B12C482B461A30009042F62720C9
:10D97000E16900F07FFC00284CD1228C52B126488E
:10D980002B462230009042F62620616A00F072FC9D
:10D9900000283FD1228D52B11F482B462A300090DB
:10D9A00042F62820E16A00F065FC002832D1216BA4
:10D9B00071B102A803F039F817482B4632300090B5
:10D9C000082202A942F6232000F054FC002821D1AD
:10D9D000606B58B110492B463A31009102790168C9
:10D9E00042F62A2000F046FC002813D1A16B81B139
:10D9F00002A802F061FA08482B4642300090072244
:10DA000002A942F6502000F035FC00E002E00028B8
:10DA100000D1002004B070BD0421002070B5044680
:10DA200000F0B0FF2146124800F080F8104821466F
:10DA30001838FFF792FE2046FFF7E8FE204600F078
:10DA400091F920880B4D102802D011280BD107E046
:10DA5000072000F053FA08B1FFF7F4F9A08801E0BD
:10DA60004FF6FF70A8802046BDE87040FFF79CBCD1
:10DA7000802400208020002030B50446008C8BB02C
:10DA8000A0F57F42FF3A23D005AA204601F09FFD72
:10DA90000546ADF80000002001900290039004902C
:10DAA0002189ADF804100121ADF808008DF80610A9
:10DAB00005A8CDF80CD00490208C01A9A6DF002881
:10DAC00004D1BDF80010A94200D00C200BB030BD2D
:10DAD0000820FBE738B504460868206008796071C3
:10DAE0004FF6FF702084002084F82200A4F84C0038
:10DAF00001208DF8020041F60D000D46ADF8000042
:10DB0000A21D69460120A0DF00280ED1294620462B
:10DB100001F0FCFC002808D1A86828B1294620465D
:10DB200000F092F8002800D1002038BD08B50A881E
:10DB3000102A14D0112A14D0502A15D131F8062FEA
:10DB400083899A4210D14A89022A0DD10268002A9B
:10DB50000AD0097B11F0010F07D0002106E0898867
:10DB600001E04FF6FF71018408BD01218DF800101E
:10DB70006946904708BD70B50446B0F84C000D46A4
:10DB800014280AD104F126012622881EFEF790FCF3
:10DB9000B4F84C00401EA4F84C00B4F84C0004EB60
:10DBA0004001401CA4F84C008D8470BD80F8221008
:10DBB000704770B504460D460846FEF7ABFC208062
:10DBC000656070BD0A780270497841700220704724
:10DBD00000B5184887B0002300690590482216490F
:10DBE00005A802F005FE08B1FFF72CF96A460121ED
:10DBF000002002F0E7FD08B1FFF724F90F4802F01A
:10DC0000F9FB08B1FFF71EF9684602F0D1FD08B133
:10DC1000FFF718F90A4802F0C1FD08B1FFF712F941
:10DC2000084802F0FFFD002801D0FFF70BF907B00C
:10DC300000BD00003410020020240020E81F002056
:10DC40001DDA0100190A0200F0B58FB00D46064634
:10DC50001C216846FEF753FC00249DF80000039445
:10DC600040F002008DF80000012701948DF8367015
:10DC700042F63820049405940694ADF834000C94D0
:10DC8000E87B8DF83000287C8DF831009DF832005B
:10DC9000142120F00600801C20F019008DF83200BD
:10DCA00007A8FEF72CFC0DA807900CA8ADF824706F
:10DCB0000890ADF82640ADF82870A8680B90F08861
:10DCC00006F1100307AA6946A2DF0FB0F0BD0000FD
:10DCD0001CB5044681786A460C4802F019F9002800
:10DCE00013D160780A49C0EBC00001EB80001C230F
:10DCF0001A46694602F0C8F9054806494C30807A50
:10DD000051F820202146684690471CBD6021002024
:10DD100080270020781002007CB5114E0C004FF0D7
:10DD20000005306015D06946002000F09BF80028FF
:10DD300015D101A9012000F095F800280FD19DF818
:10DD4000041009B1022003E09DF8001001B10B207E
:10DD50002070706810B9FEF7EFFF054628467CBDBD
:10DD6000C820002010B51A4C0188606810290ED018
:10DD700011292BD1401E606028D1FEF7DDFF00285D
:10DD800024D02168002921D0BDE810400847D0B92F
:10DD900000210122084600F097F808B107280FD1AA
:10DDA00007220221012000F08FF808B1072807D1CF
:10DDB00004220221002000F087F820B1072802D0B9
:10DDC000216801B188476068401C606010BD000098
:10DDD000C820002010B5032000F0F8F908B106288B
:10DDE00000D1002010BD00002DE9F04107461B487E
:10DDF0000068B84230D1194BDFF864800C3B08F161
:10DE00000105EE1E01B32846012940780BD00229F6
:10DE100022D10446002C1FD0716900291CD0204655
:10DE2000BDE8F04108472C7850B1B0680C4A00EBCF
:10DE300080004100521E9868FFF798F800B977708B
:10DE4000A97888F80010E5E79868FFF7CFF898F808
:10DE50000000AC78A042DDD0BDE8F0815410020093
:10DE6000B220002008B1002009E006480068C24343
:10DE70000548037801209840104000D00120087028
:10DE800000207047100500505410020010B50428FF
:10DE900007D0072810D00A2812D1BDE8104002F0A0
:10DEA0004BBC08481321808876DF07E0002807D0A4
:10DEB000BDE81040FEF7C6BFFFF7D8FA0828F5D135
:10DEC00010BD00008020002003004FF000000AD1A8
:10DED000094B012A02D1012907D0002251B10129A1
:10DEE00004D0022904D0072070470D221A70704711
:10DEF0005A7070479A707047B3200020044A014658
:10DF00000020127BD20702D0084600F055B87047B7
:10DF1000B020002070B50E462149054600204A6118
:10DF2000C1E90265A9071AD5002405E001221146BE
:10DF30002046FFF7C9FF641C54EA0001F6D070B90F
:10DF4000720801211748FEF733FF40B9FEF71EFFA4
:10DF500028B91448144A00210838FEF7ADFFE90734
:10DF60000AD0124A44F204011160104B00221B1D1A
:10DF70001A600E4A1032116000280FD109480C4A6D
:10DF800000211038FEF798FF002807D1BDE8704047
:10DF900004480121074A0C38FEF78EBF70BD00000F
:10DFA000B020002058100200F9E1010008050050DF
:10DFB00091F7010071CD01002DE9F84F814EDFF896
:10DFC00000B24FF0040C316907462CEA010C0091B5
:10DFD0000020B1680BF10404251D7B4B44F2040AB8
:10DFE0004FF4804201EB810E8146182F15D2DFE8F5
:10DFF00007F00C16163A4E607083868F868FE3A06A
:10E00000A0A0A0A0C9CFD5DCE3E3009A2AEA0201D0
:10E010002160C5F8009086F80090BDE8F88FC4F83C
:10E0200000C04846C5F80090DBF800C08CEA0A0C36
:10E030005FEA4C4C09D522602860022F02D14FF4D0
:10E04000E16009E04FF47A6006E02A602060022F68
:10E050003DD000BF4FF4C8706422B0FBF2F04143E2
:10E06000377000225EE0C4F800C04846C5F8009052
:10E07000DBF800C08CEA0A0C5FEA4C4C04D5226045
:10E0800028604FF44870E7E72A6020601FE0C4F87A
:10E0900000C04846C5F80090DBF800C08CEA0A0CC6
:10E0A0005FEA4C4C02D522602860CBE72A602060F2
:10E0B000D0E7C4F800C04846C5F80090DBF800C0BF
:10E0C0008CEA0A0C5FEA4C4CDED522602860C8203E
:10E0D000C2E7C4F800C04846C5F80090DBF800C0AD
:10E0E0008CEA0A0C5FEA4C4C02D52260286001E001
:10E0F0002A602060377014E0C4F800C04AE0DBF802
:10E10000000004228243226000F00400286008E03E
:10E11000DBF8000004218143216000F00400286046
:10E12000714600221868BDE8F84FFEF71FBF216056
:10E130002CE098465868FEF759FFD7F1110100D03E
:10E1400040B1316901EA0A012160C5F80090C6F8C2
:10E15000109062E70422326101290CD9C82011FB1A
:10E1600000F16420B1FBF0F1B06800224143D8F81F
:10E170000400FEF7FBFE316901EA0A012960C4F8D8
:10E1800000904AE7C4F800A0C5F80090377044E753
:10E19000042121604946C5F8009004E02260494608
:10E1A000C5F8009004222A60C1E74946C4F80090EF
:10E1B000C5F800905246F6E7C5F800A04946B6E714
:10E1C00004050050B02000204810020009490968E9
:10E1D000890001F1A041D1F8002710F0010000D022
:10E1E000032022F4403242EA0040C1F80007002038
:10E1F000704700005410020000780221FFF7F4BDC0
:10E2000005494FF0FF32082841F8202002D3084486
:10E2100080F8482070470000F0270020F0B54FF04C
:10E22000FF3512B10023082601E008230C260C4C10
:10E2300005E000BF54F823707F1C04D05B1CB34280
:10E24000F8D32846F0BD26185DB286F8305044F861
:10E250002310002AF5D1E11881F84800F1E7000009
:10E26000F02700200249084490F930007047000070
:10E27000F02700202DE9F0438FB01E46DDF85890BE
:10E2800015460F00804602D10020FEF7DBFD15B9D0
:10E290000020FEF7D7FD1C216846FEF730F9002468
:10E2A0009DF80000039440F002008DF8000001206A
:10E2B00001948DF83600049405940694ADF83480EA
:10E2C0000C9430788DF8300070788DF831009DF81E
:10E2D0003200142120F00600801C20F019008DF877
:10E2E000320007A8FEF70BF90DA807900CA80890BC
:10E2F0000748ADF82450ADF82640ADF828500B97EC
:10E300004B4607AA69460088A2DF0FB0BDE8F0833C
:10E31000042100202DE9F0413A48017801EB810108
:10E3200000EB8104D4E9030600EB40013648241DCC
:10E3300000EB8100B0F808804589476801F06FFE66
:10E34000B6FBF0F100FB116080B3002008FB0577FD
:10E350006188A288DFF8B48011448D190022C8F8C2
:10E36000102040B101F05BFE6188884221D0BD429F
:10E3700001D1A088E8B1A06803281AD001F04FFEAF
:10E38000A18844463144B1FBF0F200FB1210800832
:10E39000C8F80C0001F043FEB5FBF0F100FB115092
:10E3A00078B10020BD4228D068B126E0FFE7012007
:10E3B000CCE701F034FEB6FBF0F10320C8F81410EE
:10E3C0001CE00120EEE7ADB2BEB201F028FEB6FBC4
:10E3D000F0F701F024FEB5FBF0F0874201D1701B8D
:10E3E00009E001F01CFE064601F019FEB5FBF0F154
:10E3F00000FB1150301A800820610220BDE8F04176
:10E4000002F0AEB968280020C42A0020682100204C
:10E410000648017801EB810100EB810000790428B6
:10E4200001D000F059B8012002F09AB96828002004
:10E430000A480B4A017801EB810100EB8100C18899
:10E4400011620079012805D0032801D0042804D1E5
:10E45000FFF760BF012002F083B9704768280020F1
:10E460006821002000EB80020548002100EB8200BB
:10E4700002220171C180C0E903214161018170471D
:10E48000682800202DE9F041114D069E6C781E2C65
:10E490001BD02F783C441E2C00D31E3C04EB84047C
:10E4A00005EB840420716261D1E90001C4E9030134
:10E4B000E38026816878401C68700648007808B9B7
:10E4C000FFF7B6FF0020BDE8F0810420FBE7000065
:10E4D000682800206821002010B50E4C207800EB41
:10E4E000800004EB80010020091DFEF7BDFC2078B0
:10E4F000FFF7B8FF6078401E60702078401CC0B203
:10E5000020701E2801D100202070BDE8104000209E
:10E5100002F026B9682800202DE9F05F2648C1687E
:10E52000F1B3DFF898B00E688146DBF80040076968
:10E53000C078E11B21F07F45ED1CB0B9DFF8808089
:10E540004FF48030C8F84403C8F804031120FEF7E4
:10E55000C9F81120FEF7D1F84FF0010AC8F800A061
:10E560002F20FDF757FF89F803A0B54200D23546AA
:10E57000124BE8193C3320F07F401860DBF80010A4
:10E580005A46091B21F07F41001B20F07F40C91C27
:10E5900081420FD9106818602F20FDF73BFF00E083
:10E5A00004E0BDE8F05F1120FEF7B2B8BDE8F05F0F
:10E5B00001F0DABEBDE8F09FA02100200415014063
:10E5C000001001402DE9F04117880646B81D144699
:10E5D0000D46984202D90C20BDE8F081318807220F
:10E5E00006290AD34FF4486C4FF6FF73614501D9F1
:10E5F000994202D17088062801D21046ECE76045A6
:10E6000001D99842F9D1994203D0984201D0814270
:10E61000F3D80520E85520881221401C80B22080C4
:10E6200029542088401C80B220804119308802F093
:10E630001FFC2188084480B220804119708802F0B4
:10E6400017FC2188084420800020C5E7FEF7FABBAC
:10E65000F8B5134801F03CF8114D0026114C0C3D63
:10E6600030B16169B9B101208DF80000684611E050
:10E67000287820B1616971B18DF80060F6E768789B
:10E6800058B1A168084800220068FEF76FFC10B17D
:10E69000A16901B188472E70F8BD6168F2E70000FA
:10E6A000FC200020842600206010020070B5094B79
:10E6B000044608209E7A00250E4208D0A4F57F402B
:10E6C000FF3802D01889A04202D10020156070BD29
:10E6D000052070BDC027002000EB40020748012143
:10E6E00000EB820081724FF6FF710181FF21C17240
:10E6F000002101608180817170470000C0270020E7
:10E7000010B5134C207900071ED46069401C60616D
:10E71000E06808B104200AE000F0E8FF08B1022038
:10E7200005E0206960B16068C10704D00320BDE83E
:10E73000104002F067B940F0010060600020F6E789
:10E74000BDE81040FFF764BEBDE8104002F050B9CC
:10E750006821002006494868020707D4820702D5CD
:10E7600040F001004860022002F04CB902F040B9CC
:10E77000682100202DE9F04100260125144C22E0FB
:10E780006068226900EBC607387805FA00F111428B
:10E7900017D08A43226101F0A5FA02463878E3686F
:10E7A00005FA00F1194002FA00F3994209D179788B
:10E7B000012901D0012100E0002151407A6802B115
:10E7C0009047761CF6B220788642D9D3BDE8F08116
:10E7D0008C2100202DE9FC410E46044681786A46D2
:10E7E000254801F095FB002828D16078234F00EBE5
:10E7F000400007EB8000807A400621D4022E1FD013
:10E80000012E1FD01E4DA0781E49C0EBC00001EBA9
:10E81000800100231C226846A847A8B1022E0DD013
:10E820002078164900EB40000C3101EB80001649BE
:10E83000807A51F82020214668469047BDE8FC8147
:10E84000124DE0E7124DDEE7022EF7D0607800EBC4
:10E85000400007EB8000817A21F040018172074976
:10E8600060784039C0EBC00001EB80011C231A46E0
:10E870006846A847D4E7000060210020C027002098
:10E8800079090200BC26002068100200B5020200CF
:10E89000E50102002DE9F04705250F4F9046894616
:10E8A00006460024C4EBC40007EB800036B1072203
:10E8B00031461030FDF735FE18B106E0018B4145B9
:10E8C00003D10025C9F8004002E0641C072CE9D3FD
:10E8D0002846BDE8F0870000BC2600207CB5054630
:10E8E00081B26A46074801F013FB040008D1742185
:10E8F000684601F037FB040002D1284601F0A4FA73
:10E9000020467CBD6021002010B5100001D0FEF72C
:10E9100099FA002010BD00001FB58DF80C0001F021
:10E9200083FB08B1FEF78EFA03A800F061FA08B184
:10E93000FEF788FA0020CDF805008DF809009DF853
:10E940000500694620F07E0040F00100303020F0E4
:10E9500080008DF8050007208DF8060010208DF846
:10E9600007000648009001208DF80400044800F0DC
:10E9700067FB002801D0FEF765FA1FBD09E9010019
:10E98000822000202DE9F04F054693B0FA48FF247D
:10E99000079400784FF0000A002853D0F74E3068F3
:10E9A00000284FD001A800F018FA08B1FEF74AFA83
:10E9B000281D05902C20ADF818000027FF208DF8A9
:10E9C00006008DF804700097EC4C28880C3CBB4680
:10E9D00010280FD0A8886A460221FFF767FE48B9C1
:10E9E000009800EB400104EB8101C97A8DF8061014
:10E9F0008DF80500DFF884932888A9F14C091321CC
:10EA0000A9F1C408192874D010DC10281DD01128D1
:10EA10005DD013286ED0142814D1009800EB40006C
:10EA200004EB8000C07AFF287CD099E0D44A1A28F1
:10EA300076D01E2875D0522804D1B07A52F8201012
:10EA400001A8884713B0BDE8F08F4FF6FF766A46FD
:10EA500001213046FFF72AFE0028F3D10099022257
:10EA600001EB410004EB8000827211228DF810202E
:10EA70008DF80510A9880181A9680160A9898180A4
:10EA8000A97B8171E87DC10708D0BB49083101EB42
:10EA900050000078FF2809D0079007E0324607A908
:10EAA00005F10800FFF7F6FE00280FD1009907983E
:10EAB00001EB410104EB8101C8728A7A42F008023D
:10EAC0008A728DF8060001A8FFF702F96FE100983D
:10EAD00000EB400004EB8001887A20F0020088728D
:10EAE000010708D500060FD5002101A8FFF772FE27
:10EAF0000AE0BDE043E09DF80600FF2804D001F0E5
:10EB0000A3F9FF208DF806000099102001EB4101C8
:10EB100004EB8101887212208DF8100047E101E0BA
:10EB2000FDE042E12A8A07A90020FFF7B3FE78B989
:10EB30000098079900EB400004EB8000C172827AD4
:10EB400042F0080282728DF8061001A8FFF7C0F8A3
:10EB5000009800EB400004EB8000C07AFF2804D04E
:10EB60000098C0EBC00109EB810A00980023C0EBBC
:10EB7000C00108EB8102A888514686DF62E7009851
:10EB80008DF8101000EB400004EB8001887A40F013
:10EB900004008872CA7AFF2A0BD040F040008872C5
:10EBA000162000238DF81000A8881A4685217FDFE3
:10EBB00033E00DF11C0C48F2430300204FEA080239
:10EBC000C0EBC00802EB880898F81A80B8F1FF0F74
:10EBD00026D0401C0728F3D34FEA03070099CDF84D
:10EBE00030B001EB410304EB8303DB7AC3EBC303D7
:10EBF00002EB8302CDE90D2BC1EBC10209EB8201CF
:10EC0000CDE9081BCDF83CB0CDF828B0CDF82CB03C
:10EC1000321DA88808AB00217FDF0028AED1C6E0F6
:10EC20000B78022B12D0C0EBC00302EB83034FF032
:10EC3000FD0883F81A80D1F80080C3F81080B1F87D
:10EC40000480A3F814808979997505E0C0EBC001B0
:10EC500002EB8101FE238B768CF800000099079867
:10EC600001EB410104EB81018DF80600C872B5E7A4
:10EC7000707A20F001007072009E06EB460304EBF0
:10EC80008300817A21F00402827214218DF8101021
:10EC9000297A31B1510603D4C07AFFF71FFE2F7ACB
:10ECA00085E0697A490739D59DF80610FF297ED09D
:10ECB00042F0080282726A7B920707D5C1EBC10558
:10ECC00008EB8502957E25F001059576C27AFF2A2C
:10ECD0006DD014F82320022A0ED0C1EBC10208EB3C
:10ECE000820102680A6182888A8280798875887EBA
:10ECF00020F0020088760DE0C6EBC60209EB820028
:10ED0000C1EBC101428A08EB81000283817E21F0C0
:10ED100001018176012101A8FFF75CFD47E0287A17
:10ED20000121B1EB101F2DD100F00F00012829D1D6
:10ED3000009800EB400104EB8101897A090721D595
:10ED40000E4900EBC000303901EB80001A21083079
:10ED5000FDF7D5FB16208DF81000009800EB400061
:10ED600004EB8000817A41F060018172707A40F09A
:10ED70000200707217E0000050210020CC27002014
:10ED800088100200009800EB400004EB8000817ABC
:10ED900041F08001817215208DF81000B07A52F890
:10EDA000201001A88847002701E08DF810103A468E
:10EDB00004A901A8FEF752F89DF8100012287FF46C
:10EDC000DDAE009800EB400104EB8101897A012956
:10EDD0003FF4D4AEFFF780FC34E630B1FF21017080
:10EDE00041708170C1700020704748F20E0070477A
:10EDF0002DE9FF4105003AD02B48002404604472FD
:10EE000084722046FFF768FC274824213038FDF73C
:10EE100076FB0026DFF89480FF27304601F014F8D7
:10EE200008F80670761C072EF7D37420ADF804009E
:10EE30000720ADF806001E481C49009008316846BE
:10EE400001F076F900280FD1184E0120083E3070ED
:10EE5000287878B1BDF80400BDF80610484381B2A7
:10EE600006F1100001F07EF804B0BDE8F08148F230
:10EE70000E00F9E70F4F00250C48A9B202AA08308E
:10EE800001F046F848B9C5EBC50007EB8000002348
:10EE90001C2202A901F0F8F808B13470E4E76D1CF7
:10EEA000072DE9D3E0E70000CC27002058210020FF
:10EEB000B9EE0100BC2600202DE9F04F80465C48E9
:10EEC00091B01E4600681A9F93468A46002870D06B
:10EED000742F6ED86846FFF780FF08B1FDF7B2FFC8
:10EEE00000248DF800408DF80440CDE905762546D4
:10EEF000A9B20FAA4F4801F00BF828B908220FA9B0
:10EF00004046FDF70EFBE0B16D1C072DF0D300BFAE
:10EF10009DF80200FF287FD04FF020094FF0400CF1
:10EF200004ADBAF1030F0FD0434A1C27B11AB1FB4D
:10EF3000F7F1012307291AD20295BBF1000F0BD07C
:10EF400010E08DF80250E3E7742F02D08DF804C072
:10EF500065E08DF8049062E03649834010394968D5
:10EF60000B4259D001F08AFF8DF8049045E03049FA
:10EF70004C39A6EB0108B8FBF7F7DFB101F11C0231
:10EF8000B11A2427B1FBF7F702F124013FB32B4A52
:10EF90008DF804C0964242D0A1F5907252F820201C
:10EFA000B24239D10295C97A884226D18DF8014002
:10EFB00023E031E01E4B02958DF804908DF801405E
:10EFC0000C330791CDE90B439DF80210C1EBC10151
:10EFD00002EB8101089107A9CDE905910DE03020F0
:10EFE0008DF801408DF804008DF80330887A800791
:10EFF00003D424211046FDF782FA9DF80400BAF1EB
:10F00000020F11D040F002008DF804005A4601A909
:10F0100068460295FDF722FF11B0BDE8F08F9DF81C
:10F02000040040F00300EFE740F00100ECE70000CF
:10F03000CC27002060210020BC26002064100200A4
:10F04000174A10B512785AB148F20E0258B151B1B0
:10F050000B6843B1134A14683CB148F2040010BD78
:10F0600048F2080010BD104610BD0E4C13602C3C39
:10F07000D1F8053023634B7A84F8343009799172E2
:10F0800023F0050141F002011172D17921F0040150
:10F0900041F00301D17100210170084610BD00004C
:10F0A00050210020CC2700200E4910B54A788C78DA
:10F0B0000023A24212D0521CD2B24A70022A00D1BE
:10F0C0004B70084A4B78183252F8232002600869C6
:10F0D000104420F07F400861012010BD0360002033
:10F0E00010BD0000A0210020002808D0112801D068
:10F0F000FDF7D0BE0248416841F008014160704709
:10F100006821002010B51F4C204621784068012955
:10F1100010D002292DD0032932D1000725D46069EF
:10F12000401C606100F0E2FAD8B12078BDE81040E0
:10F1300001F016BB000718D41348A28B017801EB2D
:10F14000810100EB8100C188891A0904090CC18082
:10F1500003D0BDE8104001F011BCBDE81040FFF73E
:10F16000BBB9BDE81040FFF753B9BDE8104000F04F
:10F170005FBC0648617850F82100BDE810400047A8
:10F1800010BD00006821002068280020AC1002009B
:10F1900028DFFFF7A9BF29DFFFF7A6BF20B103498A
:10F1A000496D01600020704703207047342B002018
:10F1B0000EB517A19DF8080020F00F00401C20F0AC
:10F1C000F00010308DF808000A2202A87CDF08B198
:10F1D000FDF738FE40F2413078DF08B1FDF732FE2E
:10F1E0000020009001904FF4A071ADF80400ADF83C
:10F1F00000104FF4C8704FF40271ADF80600ADF87E
:10F20000021068467ADF002801D0FDF71BFE0EBD14
:10F210004E6F726469635F48524D00000020704772
:10F2200000207047002070472DE9F0474178DFF853
:10F23000A890054601EBC10209EB8200002401EB16
:10F24000410109F1240A4368274626460AEB810159
:10F2500063B191F80AC05FEA0C6807D55FEA4C6CAD
:10F2600004D459F8226000F108049FB20889D046FE
:10F2700033463A462146A9DF48F241090B281ED001
:10F2800000B14846012E18D168784FF6FF7200EBA6
:10F29000400008EB80000C210089A7DF00280CD07B
:10F2A000A0F54051023915D0082813D0A0F54051DF
:10F2B00004390FD011280DD00020BDE8F087687800
:10F2C000012300EB400008EB80003A46008921460C
:10F2D000A9DFD9E74846F0E79C27002070B50C4627
:10F2E000014660780A4D00EBC00005EB8000382332
:10F2F000242200F0C9FE002808D1617801EBC10189
:10F3000005EB81014A68521C00D14A6070BD0000C3
:10F310009C2700202DE9F04188B0804603271A2061
:10F32000ADF81C0048782A4E00EB400006EB800048
:10F330000D4600893B4607AA6946AADF28BB6878C4
:10F34000A6F1240400EBC00004EB8000BDF81C20F3
:10F3500069460830FDF7E5F80028687807D000EB2B
:10F36000C00004EB8001496881B11A4E0FE000EB48
:10F37000400106EB8101897A890724D400EBC000A3
:10F3800004EB80002421FDF7BAF81CE0124E44F88B
:10F3900020706878BDF81C2000EBC00004EB8000F2
:10F3A00069464260687800EBC00004EB80000830DA
:10F3B000FDF77EF86878382300EBC00004EB80018D
:10F3C00024224046B04708B00020BDE8F08100008C
:10F3D000C0270020B5020200E5010200FFF724BFAC
:10F3E000FFF77CBFFFF796BF2DE9F041124E0746AD
:10F3F0000125BD403068FDF7F9FD00280DD10F4C07
:10F400002069284207D1384600F06CFC0028E068EB
:10F4100005D0284304E0A8432061BDE8F081A8435B
:10F42000E060206928432061A1683068BDE8F041B0
:10F430000022FDF79BBD0000C01002008C210020BF
:10F4400070B51B4C207900072DD41A48017801EBC8
:10F45000810100EB81052E6900F0E1FDE9882A8930
:10F46000761E11443144B1FBF0F02169002549B109
:10F470006169814206D1E560606840F0010060602A
:10F48000002008E000F032F910B10220E56002E04F
:10F49000206920B10320BDE8704001F0B3BABDE897
:10F4A0007040FEF7B5BFBDE8704001F0A1BA0000A2
:10F4B000682100206828002010B51249124801F088
:10F4C00048F8114C81B2143CA068401CA0600D4863
:10F4D0006038FEF7D1FA58B1082809D0A0F540519C
:10F4E000043905D043F20141884201D0FDF7AAFC5E
:10F4F000A0680321B0FBF1F201FB120000B1012072
:10F50000207010BDE02400209420002070B594B03D
:10F510000024054607949DF81C000E4620F00F00BD
:10F52000401C20F0F00010308DF81C00087B8DF896
:10F530001D009DF81E001C2120F00600801C8DF887
:10F540001E006846FCF7DBFF9DF80000019440F0C8
:10F5500010008DF8000007A8CDE9044001208DF8C7
:10F560004E00039442F637200694ADF84C000D94FB
:10F57000707B8DF83400B07B8DF835009DF8360037
:10F58000142120F00600801C20F0180040F001003B
:10F590008DF8360008A8FCF7B2FF13A808900DA854
:10F5A00009900EAA0021284600F011F8ADF82800B5
:10F5B0001420ADF82C000EA8ADF82A400C90E88875
:10F5C00005F1080308AA6946A2DF14B070BD2DE951
:10F5D000F041044640799046002500B1042594F896
:10F5E000220008B145F00205CAB2FF2908D9090A6C
:10F5F00088F8012045F0010588F80210032602E092
:10F6000088F801200226B4F84C0008B145F0100536
:10F61000002718E0B01C14280BD9B4F84C0004EBF8
:10F620004701C01B420004F124002431FCF740FFD5
:10F630000DE004EB470108EB0602898C1170090A02
:10F640005170C6B27F1CB4F84C00B842E2DC34F80A
:10F650004C0FC01B208088F800503046BDE8F08178
:10F66000F8B51A4C207800282ED0206928B1002641
:10F67000E06820B1002526B110E00126F8E7012559
:10F68000F9E7684652DF052803D020B1FDF7DAFB21
:10F6900004E0012602E021690098884785B9608866
:10F6A000ADF800006946A06861DF052803D020B1ED
:10F6B000FDF7C8FB04E0012502E0D4E90201884718
:10F6C000002EDED0002DD6D0F8BD0000C0210020D5
:10F6D000054940880A88904204D34988884201D865
:10F6E0000120704700207047F420002070B50E48BC
:10F6F000017801EB810100EB8104256900F08FFCAA
:10F70000E18822896D1E11442944B1FBF0F10748BC
:10F7100042698A4205D301D1006910B14FF000005F
:10F7200070BD4FF0010070BD6828002068210020E6
:10F73000800701D0002070470120704730B5148841
:10F74000E51C9D4201D90C2030BD02250D551388C2
:10F750001C245B1C9BB21380CC5413885B1C9BB293
:10F760001380012807D0022807D0032807D00428D7
:10F7700007D0072030BD002004E0012002E0CD5476
:10F7800001E00320C8541088401C1080002030BDC8
:10F790000348017BC90702D00078FEF70DBC704713
:10F7A000B02000202DE9F047DFF8ACA0DAF80C001B
:10F7B0009AF8004080469AF80460DAF80890DAF87F
:10F7C00010703AE009EBC4052A7833E002EB4201FD
:10F7D0006B68521C03EBC101AB78D2B2934200D1EB
:10F7E00000220B78022B02D0032B23D11FE0D1F88B
:10F7F00004C00346014603E0614503D00B46C969D6
:10F80000C1B1F9E7B1B18B4205D1C06918B9134F45
:10F810000126BE600027D1F800C0C969D96149B18D
:10F820000B6863440B6005E00174C06900E00021CF
:10F830000028F9D169789142C8D1641EE4B2C1D2DE
:10F84000CAE903078AF80460404502D00120BDE8F8
:10F85000F0870020FBE70000A021002000100140FD
:10F860002DE9F04705462F48002680460778D0F856
:10F870000C904BE0D8F8080000EBC70440E002D041
:10F880002846ED691EE02078616800EB4002401CCC
:10F89000C0B201EBC2012070A278904200D1267064
:10F8A0000A784868012A2DD1027C5ABB8A684260D6
:10F8B000CA6882600A69C2604969816198F8041067
:10F8C00001B146604268D8F81030DFF85CC0D11A48
:10F8D00021F07F41614502D28268114406E0991A05
:10F8E000826821F07F418A4202D9511A016000E00A
:10F8F00006604660012186600174C66101F006F968
:10F90000002DBCD1207861788842BCD17F1EFFB227
:10F91000B0D2D8F80C10494502D00120BDE8F087DC
:10F920000020FBE7A0210020FFFF7F0098B001F03E
:10F930004DF9394A40F6CD410320FEF7EBFA08B104
:10F94000FDF780FA69460020FEF7E6F908B1FDF7F9
:10F9500079FA9DF80000022856D00024FEF738F905
:10F960002046FEF7D9FFFFF723FC382101A8FCF75A
:10F97000C6FD02208DF8040001248DF80640062003
:10F980008DF80700254803250690ADF81450242172
:10F990000FA8FCF7B4FD8DF848404FF49670002492
:10F9A0001390B420009414901D4B0FAA214601A877
:10F9B000FDF76CFC08B1FDF745FA00F01BFE00F006
:10F9C00071FD1C216846FCF79AFD4FF42030CDE90B
:10F9D00000404FF47020029012488DF80C5080893E
:10F9E000ADF80E0010480590104806908DF81040B4
:10F9F0006846FDF7DFFE08B1FDF724FAFDF71EFBB0
:10FA00000320FDF75BFD02E00124A7E748DF0028A3
:10FA1000FCD0FDF717FAF9E78DDE0100A4200020E5
:10FA2000F5FD01008024002019FE01004DE60100D3
:10FA30000348416821F008014160007800F090BE61
:10FA40006821002070B5144682880E46054620883D
:10FA5000111D0144921C994201D8FE2A01D90C20A3
:10FA600070BD521C32542088FF21401C80B220807F
:10FA700031542088401C80B220808119288801F0F0
:10FA8000F7F92188084480B22080AA8842B1A96889
:10FA900041B13044FCF70CFD2088A988084420803F
:10FAA000002070BD072070BDF8B50E4601781446E1
:10FAB0000546012901D1687830B12088821C9A421C
:10FAC0002DD8012902D006E00720F8BD697801444D
:10FAD000891C994223D8181A801E87B2ADF800708D
:10FAE0002188B01C084469467DDF0028EDD12878C4
:10FAF000022805D1BDF80010B94201D809210AE059
:10FB00000821012805D16878B84202D8ADF8000074
:10FB100001E0ADF80070BDF80000FE2801D90C200E
:10FB2000F8BD2288401CB0542088401C80B2208040
:10FB300031542088401C2080BDF8001008442080EB
:10FB40000020F8BD0020704700207047002070475B
:10FB50004907090E002806DA00F00F0202F1E02240
:10FB600082F8141D03E000F1E02282F8001400F096
:10FB70001F02012191404009800000F1E020C0F8FF
:10FB80008012C0F8001170472DE9F0478846814681
:10FB900000F07AF90124224E0028484618D0FEF7DA
:10FBA00061FB304490F848008009032802D0012806
:10FBB00006D007E01B48006804FA09F4204201D18E
:10FBC000022100E003214846BDE8F04700F0D9B823
:10FBD00000F066F9002820D04846FEF743FB0546B2
:10FBE000114F4FF4807007EB850100EB8500D1F8D1
:10FBF000102580B242F00102C1F8102500F0D0F8C3
:10FC0000B8F1000F09D04846FEF72CFB56F820004B
:10FC1000002802D0AC40C7F80443BDE8F0870000DC
:10FC2000F027002010050050006000402DE9FC4145
:10FC3000DFF8A480044608EB0400002790F93000A8
:10FC40001346C0170E46401C01D0082740E0F2784A
:10FC500019462046FEF7E2FA0546401C37D0B07838
:10FC600048B1A00000F1A040D0F8001721F0020137
:10FC7000C0F8001707E000217378204600910A467B
:10FC8000019100F06DF8F078C0B11448317800EBC4
:10FC90008500D0F81025124B1A40C0F810254FF4FB
:10FCA000F8524FF4403302EA042203EA01410A43C6
:10FCB000D0F810150A43C0F8102509E008EB05003C
:10FCC000327810F8481F41EA8211017000E00427E1
:10FCD0003846BDE8FC810000F027002000600040AD
:10FCE000FFE0FCFF03490968C14011F0010000D0AA
:10FCF000012070471005005070B5124D95F8540062
:10FD000008B1082070BD0020411E2A18401CC0B256
:10FD100082F830102028F8D300242046FEF770FA2D
:10FD2000641CE4B20C2CF8D306210846FFF710FF40
:10FD300005494FF00040C1F80403012085F8540044
:10FD4000002070BDF027002000600040034890F8BC
:10FD50005400002800D0012070470000F027002048
:10FD600030B541EA4201DDE9034541EA8301800003
:10FD700041EA042100F1A04041EA0541C0F8001722
:10FD800030BD800000F5E06000F1A040026822F480
:10FD900040320260026842EA01410160704700009F
:10FDA000034908B50844002101600068009008BDBF
:10FDB0000060004002494058012800D000207047F0
:10FDC0000060004002494058002800D001207047E0
:10FDD000007000404058002800D001207047D0F843
:10FDE0000403084000D0012070474058002800D08C
:10FDF0000120704710B550B103280CD10220FEF746
:10FE00007DF8002807D0BDE81040FDF71BB8BDE81D
:10FE1000104000F091BC10BD0078002807D10448C4
:10FE20003B21808876DF002801D0FDF70BB87047B2
:10FE3000802000200021425C0AB101207047491C4B
:10FE40000629F8D30020704770B50546C0EBC50100
:10FE50000C48002600EB81042046C4F81160A4F889
:10FE600015601021FCF74BFBFF202074A0764FF6A5
:10FE7000FF702083284601F001F802481C3840F842
:10FE8000256070BDBC2600200449084490F930006C
:10FE9000082801DB0120704700207047F027002070
:10FEA0000449084490F93000082801D20120704725
:10FEB00000207047F027002070B50D00044602D1E5
:10FEC0000020FCF7BFFF14B90020FCF7BBFF287827
:10FED000207069886170090AA170A988E170090A17
:10FEE0002171E8886071000AA07170BD0649097926
:10FEF000490701D40820704720B1044949780160BE
:10FF0000002070470E2070476821002068280020DC
:10FF100070B5124B1B795B0701D4082070BDB8B1D6
:10FF2000B2B10368022B11D20D4C03EB430554F818
:10FF300025605EB1466804EB850004894568408908
:10FF400001FB046100FB0450884203D8072070BD08
:10FF50000E2070BDC2E90031002070BD6821002074
:10FF6000C42A0020F8B5044623480E46007940070D
:10FF700001D40820F8BD24B32068022831D21F4DD7
:10FF800000EB400055F8201059B305EB8000428982
:10FF90004168008902FB00116068814221D9FFF7A6
:10FFA000C7FB80B1D4E9000200EB400005EB800004
:10FFB00043680189D51AB5FBF1F701FB175585B9DF
:10FFC00003E00E20F8BD1020F8BDB6FBF1F501FBF3
:10FFD000156535B92EB140894143901919448842BD
:10FFE00001D90720F8BD0020024600903346214683
:10FFF0000320FEF747FAF8BD68210020C42A00203C
:020000040002F8
:1000000010B54FF010204469601C04D000F007F8D0
:10001000B4FBF0F010BD4FF08050406910BD4FF0C0
:100020008050006980B2704770B51448002425469E
:10003000047044702846FEF715FA6D1C1E2DF9D386
:100040000F4D6C80FFF7DCFFC61EFFF7E8FF46434D
:100050000C49AE6000206C6100EB4002401C41F88E
:10006000224001EB8202022814815481F4D32C70C7
:10007000AC610420EC616860002070BD682800203D
:1000800068210020C42A00202DE9F8438046264834
:100090001F46164600790C46400702D40820BDE8EA
:1000A000F883ECB1B8F1000F1AD02068022815D2FD
:1000B0001E4D00EB400055F8201079B105EB800093
:1000C00042894168008902FB00116268914205D9AA
:1000D00026B1B04202D3F119814203D90720DEE7ED
:1000E0000E20DCE74046FFF723FBD0B13846FFF790
:1000F0001FFBB0B16068FFF71BFB90B16068324630
:10010000C1194046FCF7D4F900962068002200EBA4
:100110004000434655F8205002212046A8470020C1
:10012000BDE71020BBE7000068210020C42A0020A2
:100130002DE9F041294D04460E462879400702D4A6
:100140000820BDE8F081ECB1E6B12068D0B1FFF73E
:1001500066FF0146A088814212D3102810D3E088A0
:1001600070B1FFF74DFF471EFFF759FF4743E28885
:10017000A188A86802FB0102974201D3890703D036
:100180000720DEE70E20DCE76988022924D0C6E9D3
:100190000010134A01EB410302EB83014860206821
:1001A00042F82300A0880881E0884881FFF737FFE4
:1001B000A188E288401E01FB0204FFF730FF94FB98
:1001C000F0F4FFF72CFFA96804FB0010A860688812
:1001D000401C68800020B4E70420B2E768210020BA
:1001E000C42A0020F8B504461E481E46154600796C
:1001F0000F46400701D40820F8BDDFB1D4B1206814
:10020000022815D2184900EB400051F820207AB19D
:1002100001EB800042894168008902FB001162689D
:10022000914205D925B1A84202D3A919814203D927
:100230000720F8BD0E20F8BD3846FFF779FA78B1EF
:100240003046FFF775FA58B16068FFF771FA38B1B8
:100250002B463A46214601200096FEF713F9F8BDD9
:100260001020F8BD68210020C42A00201049024651
:10027000087800281AD0042818D0022A14D0032A9B
:1002800014D10A7912070FD48A69521C8A61B2F517
:100290007A7F06D0022801D000F062BA487800F0D8
:1002A000B1BB0D20FCF7F6BDFEF72CBF7047000078
:1002B00068210020F8B504461E481E461546007900
:1002C0000F46400701D40820F8BDDFB1D4B1206843
:1002D000022815D2184900EB400051F820207AB1CD
:1002E00001EB800042894168008902FB00116268CD
:1002F000914205D925B1A84202D3A919814203D957
:100300000720F8BD0E20F8BD3846FFF711FA78B186
:100310003046FFF70DFA58B16068FFF709FA38B1B7
:100320002B463A46214604200096FEF7ABF8F8BD6E
:100330001020F8BD68210020C42A0020084810B50C
:10034000007800280BD0064806491C3000F001F95F
:1003500081B20448BDE810407038FDF70CBC10BDF8
:1003600080200020F024002070B5012670044FF09A
:10037000E0210025C1F88001084C4010C4F8480372
:10038000C4F8080366602F20FCF744F8A660044C0C
:100390002F202561FCF73EF8E57070BD001001408C
:1003A000A021002009480A490022C37DC1F8082184
:1003B00043B1D1F81815437EC268D154417E491C1F
:1003C00041767047D1F81805704700004828002092
:1003D000002000401FB501228DF8080004488DF868
:1003E00000200191D0E90012684690471FBD00002F
:1003F0004828002008B502490020009108BD0000EF
:100400008020002010B50121202803DA1D4A8140F8
:10041000114004E0402803DAA0F12002914041B1EC
:10042000002809DA00F00F0101F1E02191F8141D14
:1004300006E042F2010010BD00F1E02191F8001445
:100440004909082914D299B1012911D004290FD0E2
:1004500005290DD00C4A946800F01F030121994032
:10046000400944B152F820300B4342F8203007E0F5
:1004700042F2020010BD800000F1E020C0F800113F
:10048000002010BDFC06FFBC8C2B002003484178E7
:1004900081F0010141700248FDF788BB80200020F7
:1004A0008024002070B51548012451216425846002
:1004B000C0E9001504730146114800F03FF80F48E9
:1004C0008C211030002601604FF4967141600A21A2
:1004D0008160067301460A48083000F02FF807488B
:1004E0004FF4FA7120300560C0E90114067301462B
:1004F000BDE870400248103000F020B8D024002041
:100500008C20002010B503680A6889689C1A8C4208
:1005100002D9591A016010BD01210260017110BD9C
:1005200010B54B68026889689C1A8C4202D9114444
:10053000016010BD00210360017110BD0A7B1AB17A
:1005400049680160002102E0096801600121017130
:10055000704710B5044600790028204602D0FFF706
:10056000DFFF01E0FFF7CEFF206810BD2DE9F0416D
:100570000746806A14468846C8B3002531E000BFAC
:10058000B96A05EB450001EB8006B088801CFE28A7
:1005900002D90C20BDE8F0812288401C08F8020036
:1005A00020881622401C80B2208008F80020208875
:1005B000401C80B2208000EB0801308800F058FC1D
:1005C0002188084480B22080B28842B1B16871B1FC
:1005D0004044FBF76DFF2088B188084420806D1CE3
:1005E000EDB297F82C00A842CAD80020D2E7FFE766
:1005F0000720CFE730B59BB003208DF868001421A9
:100600006846FBF77CFF1AA802909DF80C000024B6
:1006100020F00F00401C20F0F00010308DF80C008E
:100620009DF80D00012520F0FF008DF80D009DF8CC
:100630000E00009420F0FF008DF80E009DF80F00D2
:100640008DF8045020F00F00401C20F0F000103016
:100650008DF80F009DF81000694620F0FF008DF81E
:1006600010002F48FDF736FA08B1FCF7EBFB142118
:1006700005A8FBF744FF9DF82100059420F00F002A
:10068000401C20F0F00010308DF821009DF8220071
:100690008DF8185020F00F00401C20F0F0001030B2
:1006A0008DF822009DF82300079420F0FF008DF8BC
:1006B00023009DF8240005A920F00F00401C20F025
:1006C000F00010308DF8240064208DF820001448CC
:1006D0001838FDF720F808B1FCF7B4FB40210AA850
:1006E000FBF70DFF0FA10AA8FDF763FA9DF8640060
:1006F00020F00F00401C20F0F00010308DF8640056
:100700009DF8650020F0FF008DF865000AA8FDF750
:10071000EFF8002801D0FCF795FB1BB030BD0000BE
:10072000802400204E6F7264696353656D69636F46
:100730006E647563746F720010B50020FDF7DEFB08
:1007400008B1FCF77FFBFDF745FB08B1FCF77AFB2E
:100750003CDF002803D0BDE81040FCF773BB10BDA0
:100760000C49087040B101280FD002280FD003288F
:100770000FD14869FEF70CBD00208861C8610648AA
:100780004078002805D0FDF753BE00F0F7B800F020
:1007900053B87047682100206828002018B1034929
:1007A000C860002070470E2070470000C021002064
:1007B0001CB5034901910091694660DF1CBD000032
:1007C0008020002070B50E460546144614211046C0
:1007D000FBF795FE01202080002121612173267204
:1007E000657205B1A072002070BDFCF719BB000056
:1007F00030B409B18C0702D0072030BC7047074CD9
:100800000125A16062800649636010DF0028F4D1F1
:10081000257030BC1620FFF7F5BD0000C021002078
:10082000EB07020018B103490861002070470E2051
:1008300070470000C02100202DE9F041164C60688F
:1008400020F0010060601548017801EB810100EBA8
:1008500081063569FFF7E3FBB5FBF0F76761FFF74A
:10086000DEFBF1886D1E2944B1FBF0F08742606821
:1008700002D140F0020001E020F002006060207927
:10088000E16800F00200084304D00020BDE8F04118
:1008900000F0B8B80220F9E768210020682800209D
:1008A00001484069FEF774BC6821002010B5FFF7CD
:1008B000A7FB441EFFF7B3FB4443FFF7B0FB05491A
:1008C0004A69521E5043CA682146BDE81040FEF7EF
:1008D00062BC0000682100202DE9F0411048017839
:1008E00001EB810100EB81042569FFF798FBE188AA
:1008F000228911442944B1FBF0F200FB1216FFF7E4
:100900007FFB471EFFF78BFB07FB0061E088228916
:100910001044044A28441269BDE8F041FEF73BBC8C
:10092000682800206821002010B5FFF769FB441EED
:10093000FFF775FB4443FFF772FBB4FBF0F0BDE833
:100940001040FEF725BC000070B5FFF768FB860875
:10095000FFF765FB0749496900FB01F4FFF750FB0E
:10096000451EFFF75CFB684332462146BDE87040F8
:10097000FEF711BC682100200020704770B51448B4
:10098000017801EB810100EB8104241DFFF747FB97
:100990006188104E884211D2FFF741FB61880D1A21
:1009A000FFF73DFB8208A188E068084421692844DC
:1009B0002944FEF7F0FBFFF732FB07E0A288E0686E
:1009C00010448A082169FEF7E6FB6088F06170BD7B
:1009D000682800206821002004480079000702D41C
:1009E000012000F00FB800F003B8000068210020DB
:1009F0000348416821F008014160407800F002B8E6
:100A00006821002002494870024951F8200000473F
:100A1000682100209810020010B50446FFF726FC5C
:100A20002046BDE81040FCF7FFBC70B50C00054641
:100A300002D10020FCF706FA15B90020FCF702FAF3
:100A4000207828702088000A68702068000CA87040
:100A50002068000EE87020792871207A687120895A
:100A6000000AA871A068000CE87170BD0348007905
:100A7000000701D4FDF7CCBCFFF7BABF6821002006
:100A80002DE9F84F204C00256846D4E903B6FEF75F
:100A90000BFB8046FEF786FE0746A946B8F1000F1D
:100AA00025D00023009ACC46E06819E0076801468B
:100AB000974202D9BA1A026014E0C1F800C0D1F816
:100AC0000C80D21BC8693B448A46B8F1000F07D09E
:100AD000F71827F07F47C1E90178CAF81C500D4686
:100AE0000028E3D1E0602846FEF7BAFE04E028467D
:100AF000FEF7B6FE00B917B15846FDF70DFD84F8B4
:100B00000490BDE8F88F0000A02100200D4B10B527
:100B1000D96831B102680C68A24204D8A21A0A60EE
:100B2000C161D86010BD0B4603E00B46C969121BBA
:100B300021B10C689442F8D3A41A0C600260C16120
:100B4000D86110BDA02100202DE9F0411D4DEC68B9
:100B5000002C35D01C48002700682969B846401A87
:100B600020F07F462068B04215D82246361A074446
:100B7000E469107C68B182F810806B6933B1D2E906
:100B80000501984728B1FCF75DF902E0D2E90510AC
:100B90008847002CE6D16978A878814206D1401CAC
:100BA000C0B2A870022801D185F802800548A97852
:100BB000183040F82170BDE8F0411420FBF7A8BDC3
:100BC000BDE8F081A02100200415014010B50023EC
:100BD000174A05211846FCF781F908B1FCF732F9EC
:100BE000144A01211448FCF767F908B1FCF72AF907
:100BF0001148124A0121001DFCF75EF908B1FCF70B
:100C000021F90D480E4A01210830FCF755F908B1C9
:100C1000FCF718F908480B4A01210C30FCF74CF995
:100C2000002803D0BDE81040FCF70CB910BD00004F
:100C300058220020E5D1010034100200B9F401006F
:100C40003D0302008D040200064A0020C2F81C0188
:100C50000548838A8168C95C838A5B1C8382C2F8E9
:100C60001C15704700200040482800201FB50021B7
:100C70008DF8080005488DF8001082680192817592
:100C8000D0E90012684690471FBD000048280020A8
:100C90002DE9FF413E4D4FF400712846FFF79FF8C4
:100CA00001273C4C4FF40178002600B34FF49271B9
:100CB0002846FFF78FF8D0B1C5F82461C5F808833E
:100CC000A07E00B96F6002208DF80000D5F8800486
:100CD000C5F880040390E07D8DF80800E06801907D
:100CE000E6752676D4E900126846904724E0042190
:100CF0002846FFF774F8F8B14FF484712846FFF7DF
:100D000069F8C8B1FFF74EFBE07D617E884213D1E0
:100D1000227E3AB1607EE168E2752269E260267661
:100D2000667607E0A07E00B96F60C5F80883E675B7
:100D3000607EE168FFF74EFB4FF48E712846FFF7A7
:100D400049F858B1A18AA07D814202D2FFF77CFF09
:100D500004E0C5F81C6108B1FFF788FF4FF4A271E9
:100D60002846FFF737F800280FD0C5F84461A07E69
:100D700000B12F60E07D002807D0E675607EE16855
:100D800004B0BDE8F041FFF725BBBDE8FF810000DE
:100D900000200040482800207FB5334C4FF492716A
:100DA0002046FFF722F8314D0026B0B1C4F8246187
:100DB00002208DF80000D4F88004C4F88004039069
:100DC000D4F83C058DF80800E8680190EE752E76A1
:100DD000D5E90012684690471FE04FF4887120461D
:100DE000FFF703F8C8B1C4F81061D4F83C05E97DF9
:100DF000C0B2814211D12A7E5AB1E968D4F80032DA
:100E000023F02003C4F80032EA752A69EA602E76DE
:100E100001E0EE75E968FFF7DDFA4FF4A2712046B4
:100E2000FEF7E3FF50B1C4F84461E87D30B1EE75E0
:100E3000D4F83C05E968C0B2FFF7CCFA4FF49071E2
:100E40002046FEF7D2FF00280CD0C4F82061A87D10
:100E5000002807D0D4F84C0504B0C0B2BDE87040FB
:100E6000FFF704BF7FBD000000200040482800209D
:100E70000870000A4870022070470000012181407C
:100E8000024842688A4342607047000050210020B7
:100E900038B515494888A0F57F42FF3A23D04A78F3
:100EA000124C521CD2B24A70237B93420AD3091DC2
:100EB00075DF002817D0A169002914D001B0BDE862
:100EC0003040084700254D70217C29B13B2176DF59
:100ED00010B1A16901B188476169002903D08DF87B
:100EE00000506846884738BDF02000208426002046
:100EF000EFF30580C005C00D13D0103840B20028B4
:100F000006DA00F00F0000F1E02090F8140D03E085
:100F100000F1E02090F800044009022803D00628E0
:100F200003D00220704700207047012070474278AC
:100F30008378521CD2B2934200D1002203789342AC
:100F400001D1002070470A704168407800EB4000F2
:100F500001EBC00070472DE9FC411646DDE908545D
:100F6000CDE900541F468046022200F00CF800280C
:100F700007D1CDE900543B4610223146404600F0EF
:100F800002F8BDE8FC812DE9FC5F0026DDE90C4B91
:100F9000994692468E4680462788354630E0D8F8F6
:100FA0000400002200EB850069460068019001A85A
:100FB00065DF002830D19DF8000050451FD10EB1EB
:100FC000002100E00221228808441118594522D846
:100FD00046B9521C90B2208009F800E02088401CDD
:100FE00020800126218801A801EB0902694665DFFE
:100FF000002811D120889DF80010084420806D1C25
:10100000B8F80000A842CADC56B12088C01B401EB8
:1010100080B2FF2802D90C20BDE8FC9F09F8070028
:101020000020F9E7017911B9007B002800D00120E8
:1010300070470000D8210020F8210020182200204D
:101040003822002001000007002500202025002074
:10105000402500201F0000001F000000E9DD010006
:1010600064260020FFFFFFFF4DFB010015F3010088
:1010700025F20100E5F3010049FB0100DDF201006A
:1010800021F20100E1F3010045FB010029F201001A
:101090001DF20100DDF301002909020049090200E7
:1010A000A1080200D9080200AD080200D909020017
:1010B00055E7010001E701006D0A020041F401005B
:1010C000142B002003000000E81002008020002004
:1010D0005801000060C5010004110200D821002061
:1010E000C029000028CB01004201031FFFFF0C2A8A
:1010F0000D1801000F1801000A180103FCFFFF146E
:0411000090D0030088
:040000050001C40131
:00000001FF
