:020000040001F9
:10C000001852002019C5010021C5010023C50100F7
:10C0100025C5010027C5010029C501000000000059
:10C020000000000000000000000000002BC501001F
:10C030002DC50100000000002FC5010031C5010021
:10C0400033C5010033C50100FDCE010033C5010039
:10C0500033C5010033C50100E1C7010033C501004C
:10C0600033C5010033C5010033C5010033C50100EC
:10C0700033C5010033C5010033C5010033C50100DC
:10C0800033C501008DC9010033C5010033C501006E
:10C0900067CC010033C501006DCC010033C5010040
:10C0A00033C5010033C5010033C5010033C50100AC
:10C0B00033C5010033C5010000000000000000008E
:10C0C00033C5010033C5010033C5010033C501008C
:10C0D00033C5010033C5010033C501000000000075
:10C0E0000000000000000000000000000000000050
:10C0F0000000000000000000000000000000000040
:10C10000000000000000000000000000000000002F
:10C11000000000000000000000000000000000001F
:10C4000000F002F800F03CF80AA090E8000C82442A
:10C410008344AAF10107DA4501D100F031F8AFF207
:10C42000090EBAE80F0013F0010F18BFFB1A43F012
:10C43000010318470853000028530000103A24BF96
:10C4400078C878C1FAD8520724BF30C830C144BF79
:10C4500004680C60704700000023002400250026BB
:10C46000103A28BF78C1FBD8520728BF30C148BF57
:10C470000B6070471FB505F000F81FBD10B510BD6B
:10C4800000F07BF91146FFF7F5FF03F05DFB00F0CC
:10C4900099F903B4FFF7F2FF03BC00F0B2FE00000D
:10C4A000401E00BF00BF00BF00BF00BF00BF00BFF5
:10C4B00000BF00BF00BF00BF00BF00BF00BF00BF84
:10C4C00000BF00BF00BF00BF00BF00BF00BF00BF74
:10C4D00000BF00BF00BF00BF00BF00BF00BF00BF64
:10C4E00000BF00BF00BF00BF00BF00BF00BF00BF54
:10C4F00000BF00BF00BF00BF00BF00BF00BF00BF44
:10C5000000BF00BF00BF00BF00BF00BF00BF00BF33
:10C5100000BFC5D17047000009488047094800475F
:10C52000FEE7FEE7FEE7FEE7FEE7FEE7FEE7FEE7E3
:10C53000FEE7FEE704480549034A054B7047000043
:10C5400091CC010001C401001832002018520020D3
:10C550001832002040EA010310B59B070FD1042ACE
:10C560000DD310C808C9121F9C42F8D020BA19BABE
:10C57000884201D9012010BD4FF0FF3010BD1AB123
:10C58000D30703D0521C07E0002010BD10F8013B78
:10C5900011F8014B1B1B07D110F8013B11F8014B9F
:10C5A0001B1B01D1921EF1D1184610BD40EA0103B8
:10C5B000024630B59B0710D14FF0013400E008C2AD
:10C5C00008C91D1B9D4315EAC41FF8D013F0FF01D5
:10C5D00002F8011B0DD01B0AF8E711F8013B002BF4
:10C5E00002F8013B05D011F8013B002B02F8013B9A
:10C5F000F3D130BD032A40F2308010F0030C00F07C
:10C60000158011F8013BBCF1020F624498BF11F88C
:10C6100001CB00F8013B38BF11F8013BA2F1040245
:10C6200098BF00F801CB38BF00F8013B11F00303BD
:10C6300000F02580083AC0F0088051F8043B083A21
:10C6400051F804CBA0E80810F5E7121D5CBF51F8C3
:10C65000043B40F8043BAFF30080D20724BF11F83D
:10C66000013B11F801CB48BF11F8012B24BF00F8A2
:10C67000013B00F801CB48BF00F8012B704710B513
:10C68000203AC0F00B80B1E81850203AA0E81850CA
:10C69000B1E81850A0E81850BFF4F5AF5FEA027C8B
:10C6A00024BFB1E81850A0E8185044BF18C918C0FA
:10C6B000BDE810405FEA827C24BF51F8043B40F89B
:10C6C000043B08BF7047D20728BF31F8023B48BF80
:10C6D00011F8012B28BF20F8023B48BF00F8012BBE
:10C6E00070474FF000020429C0F0128010F0030CD4
:10C6F00000F01B80CCF1040CBCF1020F18BF00F855
:10C70000012BA8BF20F8022BA1EB0C0100F00DB803
:10C710005FEAC17C24BF00F8012B00F8012B48BF61
:10C7200000F8012B70474FF0000200B51346944605
:10C730009646203922BFA0E80C50A0E80C50B1F179
:10C740002001BFF4F7AF090728BFA0E80C5048BF8D
:10C750000CC05DF804EB890028BF40F8042B08BF2B
:10C76000704748BF20F8022B11F0804F18BF00F827
:10C77000012B7047704770477047754600F02CF8E2
:10C78000AE4605006946534620F00700854618B0BE
:10C7900020B5FFF7CFFEBDE820404FF000064FF078
:10C7A00000074FF000084FF0000B21F00701AC46E6
:10C7B000ACE8C009ACE8C009ACE8C009ACE8C00905
:10C7C0008D46704710B50446AFF300802046BDE8A3
:10C7D0001040FFF75EBE000000487047B4310020F3
:10C7E0002DE9FC5F0025DFF83491A8464FF48076F0
:10C7F00001242F46304603F057FB38B1D9F8040323
:10C80000204203D0304603F045FB2543361D64002B
:10C810007F1CB6B2082FEDD34FF4BE74204603F050
:10C8200043FB38B1204603F035FB3D4845F0004559
:10C83000D0F800803B4E15F0FF0F14D001270024E4
:10C840002F420CD009EB8401D1F81005D1F8101556
:10C85000C0F3042056F82420C1F3014190477F0023
:10C86000641C082CECD3002D56DA00200190401EE9
:10C870004CE0701910F8501F90F9000021F0C0042E
:10C88000401C38D0012000FA04FA1AEA090F32D00D
:10C890004FEA911B204601F091FC56F820000090D1
:10C8A00010B9BBF1030F26D15146BBF1030F02D1E2
:10C8B000019808430190A00000F1A040D0F80007C3
:10C8C0001AEA080FC0F3014002D0022802D012E099
:10C8D000032810D1BBF1030F07D102281AD002217F
:10C8E000204603F0C8FA7F1CFFB2009818B1009AE6
:10C8F0005946204690476D1C042DBAD3002F0BD00B
:10C9000007480068404507D08046019800278146C7
:10C910003D46AEE70321E3E7BDE8FC9F0060004031
:10C92000100500509427002000F01F0201219140C3
:10C930004009800000F1E020C0F88012704700F04C
:10C940001F02012191404009800000F1E020C0F861
:10C950000011704700F01F02012191404009800042
:10C9600000F1E020C0F8001270474907090E0028C6
:10C9700006DA00F00F0000F1E02080F8141D704787
:10C9800000F1E02080F80014704700000748002103
:10C99000C0F84011C0F84411C0F84811C0F84C115B
:10C9A000C0F80011C0F8041104F06ABB0010014087
:10C9B0002DE9F047114F0446DDF8209038781D46E8
:10C9C0001646884608B900F0A3FA7869A04211D942
:10C9D0000A4904EB440001EBC00134B1C1F84880BE
:10C9E000C1E913650020886548650020C1F85C90A6
:10C9F000BDE8F0874FF0FF30FAE70000303100204B
:10CA00002DE9F047114F0446DDF8209038781D4697
:10CA10001646884608B900F07BFA3869A04211D959
:10CA20000A4904EB440001EBC00134B1C1F818809D
:10CA3000C1E907650020886248620020C1F82C9097
:10CA4000BDE8F0874FF0FF30FAE7000030310020FA
:10CA500070B5074B0646144618780D4608B900F025
:10CA600057FA224629463046BDE8704000F002B829
:10CA70003031002070B50E46144900EB400001EB48
:10CA8000C0051446E86A183520B101280FD00228E5
:10CA900005D113E0284600F06FFAA04201D200242D
:10CAA00011E022463146284600F08CFB0BE0284678
:10CAB00000F062FAA042F4D20446F2E7314628467A
:10CAC00000F053FB0446204670BD000030310020CA
:10CAD0002DE9F04198B0064607A8029040200025B5
:10CAE000CDE90305CDE9055690460C4614F8011B27
:10CAF000002973D0252908D002A800F017FB05985B
:10CB00000028F3DA18B0BDE8F08100200122217876
:10CB100023291ED02B2919D02D2902D0302908D144
:10CB200002E040F0010001E040F00200641C002A35
:10CB3000EDD100222178A1F130030A2B0CD202EBB7
:10CB4000820201EB4202303A641CF3E740F0040039
:10CB5000ECE740F00800E9E70023CFB22E2F0BD11D
:10CB600014F8011FA1F130070A2F05D203EB83034C
:10CB700001EB4303303BF3E76C290DD068290BD060
:10CB8000702954D00BDC252916D0582931D06329BF
:10CB90000CD0642913D114E014F8011BECE77329BD
:10CBA00034D075291BD0782909D122E0D8F80000AB
:10CBB000011DC8F80010017802A800F0B7FA641C43
:10CBC0009DE7D8F800100F1DC8F800700968CDE97E
:10CBD00000200A2202A800F0DBF9F0E733E0D8F8E1
:10CBE00000100F1DC8F800700968CDE900200A2266
:10CBF00008E0D8F800100F1DC8F800700968CDE9EA
:10CC00000020102202A800F027FAD8E7D8F8000088
:10CC1000011DC8F80010076817F8011B0029CED0C5
:10CC200002A800F083FA05980028F5DAC7E7D8F8DB
:10CC30000000011DC8F8001001680820CDE90005BA
:10CC400003461022DEE7059800287FF75BAF0498C3
:10CC500020B1024607A93046FFF7FAFEDDE90410CD
:10CC6000084405904EE704F0A7B90000074810B546
:10CC7000406830B18047002807D0BDE8104000F080
:10CC80005FBBBDE8104002F0D5BD10BD681F00209D
:10CC900070B58D480023021D0178101D012406295E
:10CCA00007D115782D0704D10578C5F30315032D99
:10CCB00002D0062904D00FE0854E844D75670EE042
:10CCC00015782D0708D10578C5F30315032D06D077
:10CCD000042D04D0052D02D0062909D010E04FF014
:10CCE0008055D5F844527B4EC5F34235356002E09D
:10CCF00015782D0704D10578C5F30315032D02D04F
:10CD0000062906D011E0744D2E6826F080762E603C
:10CD10000EE015782D0708D10578C5F30315032D0E
:10CD200006D0042D04D0052D02D006290AD011E02A
:10CD30004FF08045C5F80C31C5F81031654D2D1FF9
:10CD40002B6002E015782D0704D10578C5F3031593
:10CD5000032D02D0062905D00CE05E4A032164327F
:10CD600011600AE015782D0704D10578C5F3031585
:10CD7000032D02D006290DD06AE0584A0521116022
:10CD8000564978310C60554908310B603F21121D1E
:10CD9000116002E0117809075AD10078C0F303103E
:10CDA000052855D14E4800684E4908604C48001D82
:10CDB0000068091D08604A4808300068091D0860BD
:10CDC00047480C300068091D08604548103000686D
:10CDD000091D0860424814300068091D0860404879
:10CDE000183000683F49203108603D481C30006819
:10CDF000091D08603A4820300068091D086038485D
:10CE000024300068091D0860354828300068091D75
:10CE1000086033482C300068091D08603048303005
:10CE200000683049403108602D4834300068091DE1
:10CE300008602B4838300068091D086028483C30DD
:10CE40000068091D0860264840300068091D086018
:10CE500021487438016841F470010160BFF34F8FBD
:10CE6000BFF36F8F4FF01021D1F80002002803DBD1
:10CE7000D1F80402002822DA1B4A14601B48046817
:10CE8000002CFCD01524C1F800420568002DFCD010
:10CE9000C1F8044201680029FCD013600168002930
:10CEA000FCD0BFF34F8F0C48F0380168104A01F4F2
:10CEB000E06111430160BFF34F8F00BFFDE70E49F2
:10CEC0000C48086070BD0000E00F00F00DF0ADBA36
:10CED00000C007403C050040FCED00E0105600405B
:10CEE0000404001020C5004004E5014000E40140B6
:10CEF0000400FA050090D0037C1F00200348007F47
:10CF000008B104F011BA04F08BB90000EC2700203E
:10CF100010B5124C02202061606111A0A061A4F53F
:10CF20008260E0614FF4806020620020A062606255
:10CF30000BA1A164E062A4F11001E164102121655C
:10CF4000A0656065E06509A1E01DFFF72FFB08A162
:10CF50002046FFF72BFB2020A07110BD30310020B0
:10CF60005465726D696E616C00000000525454008B
:10CF700053454747455200000269C1688A4203D8B9
:10CF80008068401A104400E0501A401E70470000AC
:10CF90002DE9FC5F0E008146DDE90C47C6F100007B
:10CFA00098469346824600D40846012503E000BF18
:10CFB00090FBFBF06D1C5845FADAA84500D94546B0
:10CFC00024B1002E01DB780700D5641EB80702D516
:10CFD000B8F1000F0FD0F8070DD164B1A5420AD205
:10CFE00020214846641E00F0A1F8D9F80C00002862
:10CFF000F3DABDE8FC9FD9F80C000028F9DB002E1D
:10D0000002DA56462D2102E0780707D52B21484643
:10D0100000F08CF8D9F80C000028EADB07F00300D8
:10D0200002280FD1B8F1000F0CD15CB1A54209D292
:10D0300030214846641E00F079F8D9F80C00002829
:10D04000F3DAD6E7CDE9004743465A46314648462B
:10D0500000F002F8CDE700002DE9F84F8246DDE947
:10D060000A4B0126984691460D460846374602E08F
:10D07000B0FBF9F07F1C4845FAD2B84500D94746C5
:10D080005FEACB7017D1B4B15FEA8B7002D5B8F10B
:10D09000000F02D0202000900BE03020FBE750462C
:10D0A000641E009900F042F8DAF80C00002838DB22
:10D0B0000CB1A742F3D3DAF80C00002831DB00BF33
:10D0C000B8F1010F02D9A8F1010803E0B5FBF6F0B1
:10D0D000484502D306FB09F6F2E7DFF84C8000BFB3
:10D0E000B5FBF6F000FB165518F80010504600F09E
:10D0F0001DF8DAF80C00002803DBB6FBF9F6002E69
:10D10000EED15FEACB700CD0002C0AD0A74208D237
:10D1100020215046641E00F009F8DAF80C000028BF
:10D12000F2DABDE8F88F00003015020010B50446B1
:10D13000D4E90130421C934205D323681954A260FC
:10D14000E068401CE060D4E90102824209D1216814
:10D150002069FFF77DFCA168884203D04FF0FF30C3
:10D16000E06010BD0020A06010BD2DE9F047C4684C
:10D170001746894606464FF000083069A04201D99B
:10D18000051B02E0B168201A0D1AB0686D1E001B65
:10D19000A84200D80546BD4200D33D4670682A46E5
:10D1A00020444946FFF726FAB0687F1B2C44A84468
:10D1B000A944A04200D10024F460002FDDD14046F4
:10D1C000BDE8F0872DE9F041C66804461746884659
:10D1D0008068851B6068BD4206D93044FFF70AFAB3
:10D1E000F019E060BDE8F0812A463044FFF702FA0A
:10D1F0007E1B08EB050132466068FFF7FBF9E6602D
:10D20000F0E7FEE770B500238D880C680DE0E618A6
:10D21000E15C7678864206D1E018801C491E1060D9
:10D220009180002070BD0B445B1C9D42EFD805200F
:10D2300070BD10B501220221002000F0ABFD08B145
:10D24000072810D107220221012000F0A3FD08B118
:10D25000072808D100210A22084600F09BFD08B1EA
:10D26000072800D1002010BD064800684FF40021B7
:10D27000044A8143121D1160111D00F40020086052
:10D28000704700000405005070B50024064D06E00C
:10D290006868012110F8340002F0F0FC641C287862
:10D2A0008442F5D3002070BD301F0020F8B515462C
:10D2B0000C460646052A01D20720F8BD02F0C0FD43
:10D2C00018B902F093FD0028F7D1104900204E60F4
:10D2D0000C70C1E902500E4D08610DE006EBC40070
:10D2E0006968009181788DF801100078094A6946D3
:10D2F00002F016FD0028E0D1641EE4B2EED2BDE8D3
:10D30000F840054A0021024800F054B8301F0020C0
:10D31000281502005DF6010035E60100BFF34F8FCE
:10D3200005480168054A01F4E06111430160BFF35B
:10D330004F8F00BFFDE700000CED00E00400FA0590
:10D340000EB500210091CDE901106A4644F20100BA
:10D35000FFF7E4FF0EBD0000014B1B6818470000FB
:10D360007027002038B50C46074BA268097802EBFD
:10D37000420253F82250054A126A0092024604F112
:10D3800008002369A84738BDD82800200C1F0020BA
:10D39000074910B50A7802EB820201EB8201091DF0
:10D3A000FFF7E0FFBDE81040042003F015BC0000CB
:10D3B0000C280020074B9B6823B12AB120B10068DC
:10D3C000037C1BB1082070470720704741744261FD
:10D3D00000207047441F00202DE9F0478046994601
:10D3E00014460F4690074FF0000634D11C4D8CB305
:10D3F00003F0CCFA0320C5F81490287004F118004B
:10D40000002107EB4703AC6004EBC102491C167016
:10D4100056709770506000EBC3000329F4DBEE6098
:10D420006E70AE701420FFF77FFA06211420FFF70C
:10D430009CFA1420FFF783FA0A49C1F800800621FC
:10D440001120FFF792FA0748001F006828610020AA
:10D45000BDE8F08701E00720FAE7AE60FBE70000D7
:10D46000441F0020081501402DE9F843DFF87090B3
:10D470000D461746D9F80810044651B34CB3052D94
:10D4800002D20720BDE8F883606910B3607C0128F0
:10D4900021D0002603F0BEFFD9F80810804601EB2A
:10D4A000C800694603F0D5FFB8B1012100F8041B9C
:10D4B0000C4910C0096880E8E200D9F8081001EBB7
:10D4C000C8009DF8001041701420FFF743FA0020B7
:10D4D000D8E70820D6E72E46DCE70420D2E7000094
:10D4E000441F002004150140F8B5124E0446B168EF
:10D4F000E1B1DCB16069C8B10027277403F08AFF8D
:10D500000546B068694600EBC50003F0A2FF78B19C
:10D51000022101704460B0689DF8001000EBC50066
:10D5200041701420FFF716FA3846F8BD0820F8BD00
:10D530000420F8BD441F002070B5054608780C464D
:10D5400078B1012828D0022829D1227914A10020FD
:10D5500002F0EEFA2279BDE870401BA1002002F033
:10D56000E7BA1EA1002002F0E3FA26A1002002F093
:10D57000DFFA284600F0B0F808B1FFF7E1FE2AA173
:10D58000002002F0D5FA284600F07AF8002806D0EC
:10D59000BDE87040FFF7D4BE22792FA1D7E770BD58
:10D5A0005B4150504C5D3A20426174746572792041
:10D5B0004C6576656C20526561642061732025643A
:10D5C0002025250D0A0000004261747465727920DF
:10D5D0003D2025642025250D0A0000005B415050A8
:10D5E0004C5D3A204261747465727920536572769D
:10D5F00069636520646973636F76657265642E2064
:10D600000D0A00005B4150504C5D3A205265616448
:10D61000696E672062617474657279206C657665E5
:10D620006C2E200D0A0000005B4150504C5D3A20EA
:10D63000456E61626C696E672042617474657279CF
:10D64000204C6576656C204E6F7469666963617401
:10D65000696F6E2E200D0A005B4150504C5D3A20E0
:10D6600042617474657279204C6576656C207265D0
:10D670006365697665642025642025250D0A000010
:10D6800070B518B30288A2F57F41FF391CD0104C49
:10D690004388104D206800EB8001401C00F007001B
:10D6A000206005EB810102204B81C881081D0861C3
:10D6B00000248C810120087208714C710A808870E6
:10D6C00003F020FD204670BD082070BD0E2070BD07
:10D6D000DC1E00204023002010B5D8B10188A1F540
:10D6E0007F42FF3A14D00C4B0C4C1A6802EB8201BB
:10D6F000521C02F0070204EB81011A6082888A80C2
:10D70000008808800020887003F0FCFC002010BD19
:10D71000082010BD0E2010BDDC1E0020402300207C
:10D7200030B1018012B11168C0F8021000207047BA
:10D730000E20704708B598B191B101228DF80220F2
:10D7400041F60F02ADF800204FF6FF720280002272
:10D750004280828009688160684600F08FF808BDC9
:10D760000E2008BD1CB5002820D000291ED00A8834
:10D77000112A39D0362A1FD0382A18D0392A15D183
:10D7800003888A88934211D18B898488A3420DD162
:10D790000B8A012B0AD1ADF8022001228DF800205E
:10D7A000897C8DF804108268694690471CBD00880A
:10D7B00089888842FAD113E003888A889342F5D198
:10D7C00031F80C3F8488A3420AD1ADF8022002222E
:10D7D0008DF8002089798DF8041082686946904799
:10D7E000BDE81C4003F08EBC028889888A42DDD1E6
:10D7F0004FF6FF7101800021418081801CBD000037
:10D800007CB50A78002A38D18A88A2F5C0530F3B2C
:10D8100033D18A79012A30D100228DF800204A883C
:10D82000ADF80220002242F619240B7A14E000BF62
:10D8300002EB420501EB8505ED89A5420AD102EB19
:10D84000420201EB82010A8BADF80420C98AADF8CF
:10D85000061003E0521CD2B29342E9D80188A1F528
:10D860007F42FF3A06D0418821B9818811B90199D8
:10D87000C0F802108268694690477CBD70B540B11F
:10D880000C4D297839B1044603F064F828B1002022
:10D8900070BD0E2070BD082070BDE868062807D254
:10D8A0000549226801EB8001401C0A60E860EEE750
:10D8B000042070BDE41E0020E023002040B1054993
:10D8C00000220123CA600B70C1E9010210467047B3
:10D8D0000E207047E41E002000281FD000291DD014
:10D8E0000F4A1278002A19D00A88112A0ED0302A3D
:10D8F00006D0322A07D0332A10D1091D02F066BCA7
:10D90000091D02F037BD091D02F0D2BB8988B0F8AD
:10D91000AA21914202D1002180F8A711704700008E
:10D92000E41E002070B50D46040009D014490878A3
:10D9300040B1C86830B194F8A70128B1112070BD7A
:10D940000E2070BD082070BDA4F8AA510020886088
:10D9500084F8A80184F8A6010A482B460A49006801
:10D9600020602288002002F0E3F8224601212846A8
:10D9700090DF0028E7D1012084F8A701002070BDC6
:10D98000E41E0020E02300209C15020010B5044690
:10D9900001F062F921460A48FFF79EFF2146094837
:10D9A00000F03CF8074821460C30FFF7DBFE20462C
:10D9B00000F010F92046BDE8104002F08DBA0000DA
:10D9C00000210020AC22002030B1018012B111688A
:10D9D000C0F80210002070470E20704720B1418827
:10D9E0000088012200F08ABB0E20704708B598B16C
:10D9F00091B101228DF8022041F60D02ADF8002010
:10DA0000096881604FF6FF710180002141808180AB
:10DA10006846FFF733FF08BD0E2008BD00281AD066
:10DA2000002918D00A88112A0BD0382A03D0392AA5
:10DA300011D102F037BC0088898888420BD103F0ED
:10DA400085BB028889888A4205D14FF6FF71018023
:10DA500000214180818070477FB504460878002806
:10DA60003BD18888A0F5C0520D3A36D1887901287B
:10DA700033D18DF800004888ADF80200002042F64E
:10DA800037230A7A13E000BF00EB400501EB850560
:10DA9000ED899D420AD100EB400001EB8000018B33
:10DAA000ADF80810C08AADF80A0002E0401C8242BE
:10DAB000EAD80AA1002002F03BF82088A0F57F41B7
:10DAC000FF3906D0608820B9A08810B90298C4F840
:10DAD0000200A2686946204690477FBD5B485253CA
:10DAE0005F435D3A2048656172742052617465201D
:10DAF0005365727669636520646973636F766572D6
:10DB0000656420617420706565722E0D0A00000046
:10DB100000B5184887B000230068059048221649D0
:10DB200005A803F015F908B1FFF70AFC6A460021C1
:10DB3000012003F0F7F808B1FFF702FC0F4802F0EC
:10DB4000C1FF08B1FFF7FCFB684603F06DF808B1B0
:10DB5000FFF7F6FB0A4803F05DF808B1FFF7F0FBAA
:10DB6000084803F00FF9002801D0FFF7E9FB07B0E0
:10DB700000BD000084140200801F0020E01C002073
:10DB80008DD90100790F02007CB5114E0C004FF0C9
:10DB90000005306015D06946002000F0B1F800287B
:10DBA00015D101A9012000F0ABF800280FD19DF894
:10DBB000041009B1022003E09DF8001001B10B2010
:10DBC0002070706810B9FFF734FB054628467CBD0D
:10DBD000D41E002010B51A4C0188606810290ED0A0
:10DBE00011292BD1401E606028D1FFF722FB0028AD
:10DBF00024D02168002921D0BDE810400847D0B9C1
:10DC000000210122084600F0C5F808B107280FD10D
:10DC100007220221012000F0BDF808B1072807D132
:10DC200004220221002000F0B5F820B1072802D01C
:10DC3000216801B188476068401C606010BD000029
:10DC4000D41E002010B5032000F036FA08B10628D3
:10DC500000D1002010BD00002DE9F0470746002448
:10DC6000244802E0641C042C41D250F82420BA421B
:10DC7000F8D1042C3BD21F48DFF87C901F4E0C38A3
:10DC8000A9F1140841B301290FD002292FD104EBC7
:10DC9000440030444578002D29D0D8F810100029D0
:10DCA00025D02846BDE8F047084704EB4401755CE1
:10DCB0000E44717861B1D8F804100F4A01EB81016C
:10DCC0004900133A8068FFF7CFFB08B988F8017064
:10DCD000B17809F80410DEE78068FFF705FC04EB73
:10DCE0004401314419F804008D78A842D3D0BDE82E
:10DCF000F08700009C140200D01E00201423002096
:10DD000004280CD2074A1268074B13F82030012070
:10DD10009840904300D001200870002070470020F8
:10DD2000FAE70000100500509C14020070B5184C72
:10DD3000042810D0072819D00A2825D1002000F087
:10DD40004BF808B1FFF7FCFAFFF77CFF08B1FFF7CB
:10DD5000F7FA3CDF04E01321E08876DF082813D0CF
:10DD6000002811D0BDE87040FFF7EABA60780125BD
:10DD7000012808D1A07830B9A5708BDF28B1082818
:10DD800001D0FFF7DDFAA57070BD02F045FEFAE79D
:10DD9000B01E002070B50023042810D20D4D00EBFA
:10DDA0004004012A02D101290CD00022094E00EBC7
:10DDB0004000304461B1012906D0022906D0072372
:10DDC000184670BD0D30C2B22A55F9E74270F7E728
:10DDD0008270F5E714230020044A01460020127ADD
:10DDE000D20702D0084600F055B87047BC1E00208C
:10DDF00070B50E462149054600200A61C1E901655A
:10DE0000A9071BD50024012211462046FFF7C2FFB7
:10DE1000641C042C02D20028F5D00FE070B97208FF
:10DE200004211748FFF742FA40B9FFF72DFA28B945
:10DE30001348144A00211438FFF7BCFAE9070AD046
:10DE4000114A4FF4F01111600F4B00221B1D1A6094
:10DE50000D4A1032116000280FD109480B4A0021E9
:10DE60001C38FFF7A7FA002807D1BDE87040044826
:10DE70000121074A1838FFF79DBA70BDBC1E00206B
:10DE8000AC140200F5E001000805005041F9010062
:10DE900069D201002DE9F84F854EDFF810A24FF44A
:10DEA000E01CF16807462CEA010C00910020716823
:10DEB0000AF10404251D7F4B4FF400324FF4802BF0
:10DEC00001EB810E8146182F16D2DFE807F00C1700
:10DED000173A4E607083868F868FEAA0A0A0A0A01C
:10DEE000CAD1D8E1EAEA009A4FF4F01191432160D7
:10DEF000C5F8009086F80090BDE8F88FC4F800C01F
:10DF00004846C5F80090DAF800C08CF4F01C5FEACF
:10DF10008C3C09D522602860022F02D14FF4E160C9
:10DF200008E04FF47A6005E02A602060022F3CD0C0
:10DF30004FF4C8706422B0FBF2F041433770002206
:10DF40005EE0C4F800C04846C5F80090DAF800C0AA
:10DF50008CF4F01C5FEA8C3C04D5226028604FF4FE
:10DF60004870E7E72A6020601FE0C4F800C0484618
:10DF7000C5F80090DAF800C08CF4F01C5FEA8C3C25
:10DF800002D522602860CCE72A602060D0E7C4F880
:10DF900000C04846C5F80090DAF800C08CF4F01CC8
:10DFA0005FEA8C3CDED522602860C820C2E7C4F856
:10DFB00000C04846C5F80090DAF800C08CF4F01CA8
:10DFC0005FEA8C3C02D52260286001E02A60206074
:10DFD000377014E0C4F800C04DE0DAF800002BEA16
:10DFE0000002226000F48020286008E0DAF80000D7
:10DFF0002BEA0001216000F4802028607146002295
:10E000001868BDE8F84FFFF72FBA21602EE0984658
:10E010005868FFF769FAD7F1110100D040B1F168F3
:10E0200001F4F0112160C5F80090C6F80C9063E788
:10E030004FF40022F26001290CD9C82011FB00F135
:10E040006420B1FBF0F1706800224143D8F804006D
:10E05000FFF70AFAF16801F4F0112960C4F80090A2
:10E060004AE74FF4F0112160C5F80090377043E79C
:10E070004FF4E01121604946C5F8009006E04FF4E6
:10E08000D01121604946C5F800905A462A60BCE785
:10E090004FF4C01121604946C5F800904FF4C022EA
:10E0A000F4E74FF4F01129604946AEE7040500504B
:10E0B000BC1E00209014020070B500210C4D0124FC
:10E0C00055F82120920002F1A042D2F8006704FA2C
:10E0D00001F3034000D0032326F4403646EA03430D
:10E0E000C2F80037491C0429EAD3002070BD0000A3
:10E0F0009C14020000780221FFF7AEBD70B51446F3
:10E100000D46064603460A461049002001F010FD60
:10E110000F49104B086800EB8002401C00F007001C
:10E12000086003EB820202205581D081101D10612E
:10E1300000209081012010721471210A5171168003
:10E14000907003F003F8002070BD0000A4160200D8
:10E15000F41E0020D825002005494FF0FF32082882
:10E1600041F8202002D3084480F84820704700007E
:10E1700094270020F0B54FF0FF3512B10023082698
:10E1800001E008230C260C4C05E000BF54F8237076
:10E190007F1C04D05B1CB342F8D32846F0BD261880
:10E1A0005DB286F8305044F82310002AF5D1E1180A
:10E1B00081F84800F1E70000942700200249084454
:10E1C00090F93000704700009427002008B50246FF
:10E1D00090F8A6010B46C0EBC00000EB800002EBFC
:10E1E000400092F8A52142B1521ED2B202EB420188
:10E1F00000EB8102518A491C00E0C188ADF8001093
:10E200000089ADF802006946184692DF08BD00009B
:10E210002DE9F0413B48017801EB810100EB8104DD
:10E22000D4E9030600EB40013648241DCC3000EB56
:10E230008100B0F808804589476802F00CFAB6FB07
:10E24000F0F100FB116088B35FF0000008FB057778
:10E250006188A288DFF8B08011448D190022C8F8C7
:10E26000102040B102F0F7F96188884221D0BD4208
:10E2700001D1A088E8B1A06802281AD002F0EBF919
:10E28000A18844463144B1FBF0F200FB1210800833
:10E29000C8F80C0002F0DFF9B5FBF0F100FB1150FB
:10E2A00078B10020BD4228D068B126E0FFE7012008
:10E2B000CCE702F0D0F9B6FBF0F10320C8F8141057
:10E2C0001CE00120EEE7ADB2BEB202F0C4F9B6FB2D
:10E2D000F0F702F0C0F9B5FBF0F0874201D1701BF6
:10E2E00009E002F0B8F9064602F0B5F9B5FBF0F125
:10E2F00000FB1150301A800820610220BDE8F04177
:10E3000002F06ABC0C2800200C1F0020064801788F
:10E3100001EB810100EB81000079042801D000F0BD
:10E3200059B8012002F058BC0C2800200A480B4ABA
:10E33000017801EB810100EB8100C1881162007955
:10E34000012805D0032801D0042804D1FFF760BFBD
:10E35000012002F041BC70470C2800200C1F002057
:10E3600000EB80020548002100EB820001220171D0
:10E37000C180C0E903214161018170470C28002060
:10E380002DE9F041114D069E6C780A2C1BD02F7898
:10E390003C440A2C00D30A3C04EB840405EB8404BF
:10E3A00020716261D1E90001C4E90301E3802681A3
:10E3B0006878401C68700648007808B9FFF7B6FF17
:10E3C0000020BDE8F0810420FBE700000C280020BD
:10E3D0000C1F002010B50E4C207800EB800004EBE1
:10E3E00080010020091DFEF7BDFF2078FFF7B8FF70
:10E3F0006078401E60702078401CC0B220700A28EF
:10E4000001D100202070BDE81040002002F0E4BBE4
:10E410000C2800202DE9F05F2648C168F1B3DFF831
:10E4200098B00E688146DBF800400769C078E11BB0
:10E4300021F07F45ED1CB0B9DFF880804FF48030CB
:10E44000C8F84403C8F804031120FEF76DFA112040
:10E45000FEF775FA4FF0010AC8F800A02F20FEF76A
:10E460001FF889F803A0B54200D23546124BE819CF
:10E470003C3320F07F401860DBF800105A46091B3F
:10E4800021F07F41001B20F07F40C91C81420FD941
:10E49000106818602F20FEF703F800E004E0BDE8E4
:10E4A000F05F1120FEF756BABDE8F05F02F06EBAD9
:10E4B000BDE8F09F441F00200415014000100140FA
:10E4C00070B5094B044608209E7A00250E4208D0FC
:10E4D000A4F57F40FF3802D01889A04202D1002065
:10E4E000156070BD052070BD6427002000EB400260
:10E4F0000748012100EB820081724FF6FF71018114
:10E50000FF21C1720021016081808171704700008C
:10E510006427002010B5134C207900071ED46069D1
:10E52000401C6061E06808B104200AE001F0E0F9F5
:10E5300008B1022005E0206960B16068C10704D01D
:10E540000320BDE8104002F00DBD40F00100606006
:10E550000020F6E7BDE81040FFF7D8BEBDE8104048
:10E5600002F0F6BC0C1F002006494868020707D4D9
:10E57000820702D540F001004860022002F0F2BCA0
:10E5800002F0E6BC0C1F002010B504460146054809
:10E59000FFF762FA21460348BDE810400C30FFF750
:10E5A0002FB90000AC2200202DE9F843054690F871
:10E5B000A60195F8A541C0EBC00000EB800005EB7B
:10E5C00040060F4604EB4400914606EB8001327989
:10E5D000601C0A31904226D16B460022284601F089
:10E5E00061F918B310E0401EA04201D1002004E000
:10E5F00004EB440006EB80001630804602466B4672
:10E60000284601F04FF930B100203870694648467D
:10E6100093DFBDE8F88395F8A5014146401C641CD2
:10E6200085F8A501E4B23079A042DCD80120387029
:10E630000020EEE72DE9F04100260125144C22E0F0
:10E640006068226900EBC607387805FA00F11142CC
:10E6500017D08A43226101F0BFFB02463878E36895
:10E6600005FA00F1194002FA00F3994209D17978CC
:10E67000012901D0012100E0002151407A6802B156
:10E680009047761CF6B220788642D9D3BDE8F08157
:10E69000301F00202DE9FC410E46044681786A4671
:10E6A000254801F059FF002829D16078234F00EB5D
:10E6B000400007EB8000807A400622D4022E20D052
:10E6C000012E20D01E4D1D49A078D03900EB40000E
:10E6D00001EBC001002318226846A847A8B1022E0A
:10E6E0000DD02078154900EB40000C3101EB800083
:10E6F0001449807A51F82020214668469047BDE8A9
:10E70000FC81114DDFE7114DDDE7022EF7D0607877
:10E71000182300EB400007EB8000817A21F04001D4
:10E720008172064960782839C0EBC00001EB800196
:10E730001C226846A847D4E7041F00206427002055
:10E74000D90E0200D0140200C5080200FD07020025
:10E7500070B50546087814460E46152866D009DCC3
:10E76000494C11280DD012282BD0132845D014283D
:10E7700054D155E0212867D0222870D023284DD1CC
:10E7800077E042A1002001F0D3F90720FFF724FB36
:10E7900008B1FEF7D5FD70680088E0802868A060A9
:10E7A0003948083000F070FD08B1FEF7C9FD207847
:10E7B000401C10F0FF00207001D102F02DF93BA1A8
:10E7C00017E042A1002001F0B3F94FF4D671484898
:10E7D000FDF787FF0020FFF7FFFA08B1FEF7B0FD55
:10E7E0002078012801D102F017F9207841A1401EBC
:10E7F0002070002001F09CF910E06A7846A100200A
:10E8000001F096F92048083000F03EFD08B1FEF70F
:10E8100097FD6A784BA1002001F08AF9002070BDB5
:10E8200053A1002001F084F95CA1E2E766A1002079
:10E8300001F07EF9706801882D48FFF773F808B180
:10E84000FEF77EFD69A1D4E771A1002001F070F907
:10E85000200001D0FEF774FD76A1CAE7FFE780A192
:10E86000002001F065F9200001D0FEF769FD87A1C5
:10E87000BFE791A1002001F05BF9200001D0FEF775
:10E880005FFD98A1B5E70000B01E00205B4150502D
:10E890004C5D3A203E3E20444D5F4556545F434F09
:10E8A0004E4E454354494F4E0D0A00005B415050B7
:10E8B0004C5D3A203C3C20444D5F4556545F434FED
:10E8C0004E4E454354494F4E0D0A00005B41505097
:10E8D0004C5D3A203E3E20444D5F4556545F4449CE
:10E8E00053434F4E4E454354494F4E0D0A000000CE
:10E8F000002100205B4150504C5D3A203C3C2044BC
:10E900004D5F4556545F444953434F4E4E45435423
:10E91000494F4E0D0A0000005B4150504C5D3A5B80
:10E920003078253032585D203E3E20444D5F4556BC
:10E93000545F53454355524954595F5345545550BC
:10E940000D0A00005B4150504C5D3A5B3078253039
:10E9500032585D203C3C20444D5F4556545F534542
:10E960004355524954595F53455455500D0A0000C0
:10E970005B4150504C5D3A203E3E20444D5F455631
:10E98000545F53454355524954595F53455455506C
:10E990005F434F4D504C4554450D0A005B4150506C
:10E9A0004C5D3A203C3C20444D5F4556545F5345F6
:10E9B0004355524954595F53455455505F434F4D49
:10E9C000504C4554450D0A005B4150504C5D3A2077
:10E9D0003E3E20444D5F4C494E4B5F53454355529C
:10E9E00045445F494E440D0A000000005B41505011
:10E9F0004C5D3A203C3C20444D5F4C494E4B5F53AC
:10EA00004543555245445F494E440D0A00000000FD
:10EA10005B4150504C5D3A203E3E20444D5F455690
:10EA2000545F4C494E4B5F534543555245440D0A84
:10EA3000000000005B4150504C5D3A203C3C2044BB
:10EA40004D5F4556545F4445564943455F434F4EDD
:10EA5000544558545F4C4F414445440D0A00000052
:10EA60005B4150504C5D3A203E3E20444D5F455640
:10EA7000545F4445564943455F434F4E54455854AF
:10EA80005F53544F5245440D0A0000005B41505003
:10EA90004C5D3A203C3C20444D5F4556545F444514
:10EAA000564943455F434F4E544558545F53544F66
:10EAB0005245440D0A0000005B4150504C5D3A2025
:10EAC0003E3E20444D5F4556545F444556494345BC
:10EAD0005F434F4E544558545F44454C455445445C
:10EAE0000D0A00005B4150504C5D3A203C3C2044F4
:10EAF0004D5F4556545F4445564943455F434F4E2D
:10EB0000544558545F44454C455445440D0A000053
:10EB10001FB58DF80C0001F0A3FD08B1FEF710FC45
:10EB200003A800F06BFA08B1FEF70AFC0020CDF84C
:10EB300005001148009002208DF804009DF80500A2
:10EB4000694620F07C0040F00300303020F0800067
:10EB50008DF8050007208DF8060010208DF80700BD
:10EB600003208DF80900054800F066FB002801D05D
:10EB7000FEF7E6FB1FBD000051E70100B41E0020B8
:10EB80002DE9F047894690F8A6119046C1EBC101E6
:10EB900001EB810100EB4107384601F0DBFE060086
:10EBA00039D01E4CA068062835D21D4D00EB8000E0
:10EBB00005EB00104622A0F802803946001DFDF743
:10EBC00019FD0027B9F1000F06D0A06800EB800006
:10EBD00005EB0010077006E0A168022001EB81013F
:10EBE00005EB01110870A06800EB800105EB011135
:10EBF000401CCE64A060E16888420CD1002606E08B
:10EC000006EB860005EB0010C16C8847761CE068B7
:10EC10008642F5D3A760BDE8F0870000E41E00201F
:10EC2000F823002030B50D4690F8A61193B0C1EB43
:10EC3000C10101EB8101144600EB410001F08AFEA5
:10EC4000030007D0ADF8024001208DF800006846AF
:10EC50000195984713B030BD2DE9F04F0646DE48C8
:10EC6000002795B00078002869D0DC4D286800287E
:10EC700065D005A800F0B6F908B1FEF761FB301DBC
:10EC80004FF0000803904FF0FF0B2C208DF816B0CA
:10EC9000ADF810008DF81480CDF81C80CF4C308872
:10ECA0000C3CC14610280FD0B08807AA0221FFF7FC
:10ECB00007FC48B9079800EB400104EB8101C97AD1
:10ECC0008DF816108DF815003188DFF810A319297A
:10ECD000AAF1DC0A70D035DC102940D011296CD0A3
:10ECE00013292CD1CDF830900799BC4AC1EBC10350
:10ECF000343A02EB830201EB410104EB8101CDF8D0
:10ED00002490CDF82890CDF82C900D92C97ACDF8AA
:10ED1000409001EB41020AEBC201CDE90E1900223D
:10ED2000B08809AB11467FDF002808D1079800EBB7
:10ED3000400004EB8000817A41F00401817215B03B
:10ED4000BDE8F08FA6481A2973D01E2972D0522927
:10ED5000F5D1A97A50F8211005A88847EFE707AA4E
:10ED600001214FF6FF70FFF7ABFB0028E7D10798B2
:10ED7000022200EB400104EB81018A7211228DF81E
:10ED800008208DF81500B088088156F8080F086033
:10ED9000B0888880B079B3468871002606EB4601BA
:10EDA0000AEBC100072259461030FDF7D3FB28B10A
:10EDB000761C072EF2D3D6E059E028E0079811AA76
:10EDC00000EB400004EB8000C672817A41F008013C
:10EDD000817281488DF81660B1B2083001F0BCFB39
:10EDE000002813D107981823C0EBC0017B481C22D0
:10EDF000343800EB810011A901F058FC7849A87A59
:10EE0000103951F8202005A911A89047ABE00798C8
:10EE100000EB400004EB8001887A20F00200887249
:10EE2000010708D500060ED5002105A8FFF732FC22
:10EE300009E060E0A1E09DF81600FF2803D001F092
:10EE400043FB8DF816B0079800EB400004EB800000
:10EE5000817A490704D5697A012721F00101697295
:10EE6000102181725FF012008DF808007BE0687A53
:10EE700020F001006872079800EB400204EB82006A
:10EE8000817A21F00403837214218DF80810317AFD
:10EE9000012709B1884666E0717A490763D59DF874
:10EEA0001610FF295FD043F008038372737B9B0722
:10EEB00007D501EB41060AEBC603DE7D26F001060D
:10EEC000DE75C37AFF2B4ED014F82220022A0DD013
:10EED00001EB41020AEBC20102680A6182888A8260
:10EEE00080798875C87D20F00200C875012105A8C9
:10EEF000FFF7D0FB37E0317A0122B2EB111F1FD1AF
:10EF000001F00F0101291BD1079901EB410104EB2D
:10EF10008102937A1E0713D53048183800EB81011F
:10EF20001620C1F80490A1F808908DF8080043F06D
:10EF300060009072687A012740F00200687212E067
:10EF4000079901EB410104EB81018A7A42F08002CA
:10EF50008A7215218DF80810A97A50F8211005A899
:10EF600088474FF00008424602A905A8FEF7F4F9C9
:10EF70009DF80800122802D00BE0132074E70798D0
:10EF800000EB400104EB8101897A012901D0FFF7F0
:10EF9000ADFA002F3FF4E2AE687A80077FF5DEAE6F
:10EFA00006AA20214FF6FF70FFF78AFA20B1687A8F
:10EFB00020F002006872C2E68DF8049006988DF881
:10EFC000050000EB400004EB8000C07A8DF80600DD
:10EFD00001A800F0FDFBB2E6FC1E00207027002017
:10EFE000F014020030B1FF21017041708170C170D6
:10EFF0000020704748F20E00704700002DE9FF41E5
:10F00000050033D0274800240460447284722046EF
:10F01000FFF76CFA23487838002604664466846655
:10F02000304601F051FA761C072EF9D35C20ADF87A
:10F0300004000720ADF806001B4800901B496846F5
:10F0400001F082FB00280ED1184E0120083E3070DE
:10F05000287870B1BDF80400BDF80610484381B2AD
:10F06000124801F09FFA04B0BDE8F08148F20E00AA
:10F07000F9E70C4F0025DC3FA9B202AA0B4801F0CA
:10F080006BFA48B905EB450007EBC00000231822D6
:10F0900002A901F00BFB08B13470E4E76D1C072DE9
:10F0A000EAD3E0E770270020B1F00100041F002040
:10F0B0002DE9F04F80465D4891B01E4600681A9FCA
:10F0C00093468A46002872D05C2F70D86846FFF7B6
:10F0D00089FF08B1FEF734F900248DF800408DF85F
:10F0E0000440CDE905762546A9B20FAA504801F0A3
:10F0F00033FA28B908220FA94046FDF72BFAE8B1E8
:10F100006D1C072DF0D300BF9DF80200FF284ED0E4
:10F110004FF020094FF0400C04ADBAF1030F10D0AE
:10F12000424B1822DC3BF11AB1FBF2F10122072914
:10F130001AD20295BBF1000F0BD010E08DF80250EF
:10F14000E2E75C2F02D08DF804C066E08DF80490F1
:10F1500063E037498240083949680A425AD002F0D0
:10F160004FF98DF8049045E030494FF01C083439D0
:10F17000771AB7FBF8F7DFB101F11C03F11A0C277E
:10F18000B1FBF7F703F10C013FB32A4A8DF804C035
:10F19000964242D0A1F1EC0252F82020B24239D17D
:10F1A0000295C97A884225D18DF8014022E031E0EC
:10F1B0001E4A8DF8049002958DF801400C320B9197
:10F1C000CDE907429DF8021001EB410103EBC101BB
:10F1D0000C9107A9CDE905910CE030208DF8014094
:10F1E0008DF804008DF80320887A800702D41C6013
:10F1F0005C609C609DF80400BAF1020F12D040F0F0
:10F20000020000BF8DF804005A4601A96846029525
:10F21000FEF7A2F811B0BDE8F08F9DF8040040F0B1
:10F220000300EFE740F00100ECE70000702700204A
:10F23000041F0020CC140200114A10B512785AB1F4
:10F2400048F20E0258B151B10B6843B10D4A14682F
:10F250003CB148F2040010BD48F2080010BD104651
:10F2600010BD1360074BD1F80540783BDC674C7A42
:10F2700083F880400979917200210170084610BD21
:10F28000FC1E002070270020F8B53E4948F2080215
:10F290000978002974D018B10178002970D102E0F2
:10F2A00048F20E00F8BD384C2168002968D041783A
:10F2B00061B9A4F10C03997A012907D089075FD5B8
:10F2C00019468278C97AFF2A05D102E048F2100077
:10F2D000F8BDFF2907D02C4A8170343A02F112019F
:10F2E000188985DF4BE0284D00216E4648F2430225
:10F2F000B5F1DC0501EB410705EBC707FF7DFF2FEB
:10F3000003D0491C0729F5D33AE01A78022A01EB09
:10F31000410205EBC20208D0FD25D5751F681761B3
:10F320009F8897829D79957501E0FE25D57531708E
:10F3300045789DF8001005EB450503EB8505002297
:10F34000E9728170017801EB410104EB8101497A96
:10F35000C90712D0417801EB410103EB81018B7A9F
:10F3600043F020038B72007800EB400004EB800038
:10F37000417A41F00201417202E000F029FA0246AE
:10F380001046F8BDFC1E002070270020F0B5244A6E
:10F39000137848F2080233B3931D38B131B10C68C9
:10F3A00024B18C6814B10078E8B901E01846F0BDCA
:10F3B0001C480068B8B100231A4C1A460C3C184689
:10F3C000A4F1D005E67A864202D1A67AB6071FD408
:10F3D0000E7B96420DD900EB400605EBC606F77D85
:10F3E000FF0702D005E01046F0BD8F6847F82260A5
:10F3F000521C0E799E420BD900EB400605EBC60667
:10F40000F77DBF0704D40F68103647F823605B1CF4
:10F41000401C0728D6D30B710A730020F0BD0000F2
:10F42000FC1E0020702700200E4910B54A788C7809
:10F430000023A24212D0521CD2B24A70022A00D13A
:10F440004B70084A4B78183252F823200260086942
:10F45000104420F07F400861012010BD03600020AF
:10F4600010BD0000441F0020002808D0112801D042
:10F47000FDF78EBF0248416841F0080141607047C6
:10F480000C1F002010B51F4C204621784068012930
:10F4900010D002292DD0032932D1000725D460696C
:10F4A000401C606100F024FAD8B12078BDE810401B
:10F4B00001F092BB000718D41348A28B017801EB2E
:10F4C000810100EB8100C188891A0904090CC180FF
:10F4D00003D0BDE8104001F001BDBDE81040FEF7CB
:10F4E00079BFBDE81040FEF711BFBDE8104000F045
:10F4F00099BB0648617850F82100BDE810400047EC
:10F5000010BD00000C1F00200C2800201415020064
:10F5100028DFFFF7A9BF29DFFFF7A6BF002070474C
:10F5200000207047002070472DE9F04140780F4CD3
:10F5300000EB4003002154F8235004F10C000A466C
:10F5400000EB830045B1867A370605D5760603D4ED
:10F5500004EB8301AAB2091D00890323A9DF002857
:10F5600001D048F24100BDE8F0810000582700209A
:10F5700070B50D46014668780A4C00EB400004EB7C
:10F58000800034230C2201F091F8002808D169781A
:10F5900001EB410154F82120521C01D144F82120F3
:10F5A00070BD000058270020FEB507460620ADF8C4
:10F5B00008004878234E00EB400006EB80000D4623
:10F5C0000089032302AA6946AADF08BB6878A6F16E
:10F5D0000C0400EB400004EB8000BDF808206946F5
:10F5E000001DFCF7B7FF0028687800EB400004D04E
:10F5F00054F8201069B1144E0CE006EB8001897AB2
:10F6000089071DD404EB8000002101604160816006
:10F6100016E00E4EBDF8082044F8202068786946B0
:10F6200000EB400004EB8000001DFDF728F868782F
:10F63000342300EB400004EB80010C223846B04735
:10F640000020FEBD64270020C5080200FD0702005F
:10F65000FFF76ABFFFF78CBFFFF7A6BF2DE9F041A8
:10F66000124E07460125BD403068FDF73DFF0028DA
:10F670000DD10F4C2069284207D1384600F0ACFB71
:10F680000028E06805D0284304E0A8432061BDE8D5
:10F69000F081A843E060206928432061A1683068B8
:10F6A000BDE8F0410022FDF7DFBE00002815020092
:10F6B000301F002070B51B4C207900072DD41A484C
:10F6C000017801EB810100EB81052E6900F0C3FF99
:10F6D000E9882A89761E11443144B1FBF0F0216992
:10F6E000002549B16169814206D1E560606840F05A
:10F6F00001006060002008E000F0FAF810B102207C
:10F70000E56002E0206920B10320BDE8704001F00F
:10F7100029BCBDE87040FEF7F9BDBDE8704001F0BE
:10F7200017BC00000C1F00200C28002010B50C4650
:10F73000097801290FD0022918D1D4E902230CA19C
:10F74000002000F0F5F9D4E90223BDE8104012A131
:10F75000002000F0EDB9FEF741F908B1FDF7F0FD2A
:10F76000BDE8104011A1002000F0E2B910BD00007A
:10F770005B4150504C5D3A204852204D6561737595
:10F7800072656D656E742072656365697665642067
:10F790002564200D0A0000004865617274205261E2
:10F7A0007465203D20256C6C750D0A0048656172FA
:10F7B0007420726174652073657276696365206474
:10F7C0006973636F7665726564200D0A000000003E
:10F7D00070B504460078164E00EB400006EB800141
:10F7E0006078A6F10C0500EB400005EB8000091DD8
:10F7F00000897EDF002819D1217801EB410106EB59
:10F8000081014A7A42F001024A72617801EB4101BA
:10F8100005EB8102917A41F004019172627821F046
:10F82000200102EB420205EB8202917270BD0000E2
:10F8300070270020F8B51A4C207800282ED02069B7
:10F8400028B10026E06820B1002526B110E001268D
:10F85000F8E70125F9E7684652DF052803D020B113
:10F86000FDF76EFD04E0012602E02169009888475B
:10F8700085B96088ADF800006946A06861DF052899
:10F8800003D020B1FDF75CFD04E0012502E0D4E9DE
:10F8900002018847002EDED0002DD6D0F8BD000032
:10F8A000681F002009892AB1D088491C814218D1DB
:10F8B0000020704790F8A621C2EBC20202EB820240
:10F8C00000EB420212899142F2D0491C198090F853
:10F8D000A611C1EBC10101EB810100EB41000089E0
:10F8E00002E01980D088401E588001207047000037
:10F8F00070B50E48017801EB810100EB81042569A8
:10F9000000F0A9FEE18822896D1E11442944B1FB53
:10F91000F0F1074842698A4205D301D1006910B16C
:10F920004FF0000070BD4FF0010070BD0C280020AA
:10F930000C1F0020800701D0002070470120704775
:10F940000348017AC90702D00078FEF7A3BA7047CE
:10F95000BC1E00202DE9F047DFF8ACA0DAF80C005F
:10F960009AF8004080469AF80460DAF80890DAF8CD
:10F9700010703AE009EBC4052A7833E002EB42014B
:10F980006B68521C03EBC101AB78D2B2934200D139
:10F9900000220B78022B02D0032B23D11FE0D1F8D9
:10F9A00004C00346014603E0614503D00B46C96924
:10F9B000C1B1F9E7B1B18B4205D1C06918B9134F94
:10F9C0000126BE600027D1F800C0C969D96149B1DC
:10F9D0000B6863440B6005E00174C06900E000211E
:10F9E0000028F9D169789142C8D1641EE4B2C1D22D
:10F9F000CAE903078AF80460404502D00120BDE847
:10FA0000F0870020FBE70000441F002000100140A9
:10FA10002DE9F04705462F48002680460778D0F8A4
:10FA20000C904BE0D8F8080000EBC70440E002D08F
:10FA30002846ED691EE02078616800EB4002401C1A
:10FA4000C0B201EBC2012070A278904200D12670B2
:10FA50000A784868012A2DD1027C5ABB8A68426024
:10FA6000CA6882600A69C2604969816198F80410B5
:10FA700001B146604268D8F81030DFF85CC0D11A96
:10FA800021F07F41614502D28268114406E0991A53
:10FA9000826821F07F418A4202D9511A016000E058
:10FAA00006604660012186600174C66101F0CAFAF1
:10FAB000002DBCD1207861788842BCD17F1EFFB276
:10FAC000B0D2D8F80C10494502D00120BDE8F0872B
:10FAD0000020FBE7441F0020FFFF7F0038B50D4CDE
:10FAE000207808B1002038BD0125AB020A4A0BA1DD
:10FAF00000200095FCF784FF38B900201023094A44
:10FB000009A10090FCF754FF08B1082038BD25700A
:10FB1000E8E70000641F00200F2900204E6F726D7F
:10FB2000616C00000F2D0020496E7075740000009C
:10FB30000FB408B504A900916A460399FCF7C8FF01
:10FB400001B05DF814FB000008B50023274A03212B
:10FB50001846FDF741FC08B1FDF7F2FB244A40F6D8
:10FB6000CD410320FEF744F908B1FDF7E9FB6946F2
:10FB70000020FEF709F808B1FDF7E2FB9DF8000050
:10FB8000022830D05FF00004FFF7A8FF08B1FDF7AE
:10FB9000D7FB18A10020FFF7CBFFFDF7B9FF2046E8
:10FBA000FEF7B6FF1B48FDF789FE08B1FDF7C8FB5D
:10FBB0001948009069461948FDF718FF08B1FDF78C
:10FBC000BFFB17480090154869460C30FDF7B2FDA1
:10FBD00008B1FDF7B5FB00F01FFF48DF0028FCD09F
:10FBE000FDF7AEFBF9E70124CEE70000C81F0020B7
:10FBF0002DDD0100486561727420726174652063B7
:10FC00006F6C6C6563746F72206578616D706C6584
:10FC10000D0A000089E501002DF70100AC2200204B
:10FC200039D501000348416821F00801416000789E
:10FC300000F0D2BF0C1F002000207047002070474A
:10FC4000002070474907090E002806DA00F00F026D
:10FC500002F1E02282F8141D03E000F1E02282F8B4
:10FC6000001400F01F02012191404009800000F1C2
:10FC7000E020C0F88012C0F8001170472DE9F0476D
:10FC80008846814600F03EFC0124224E002848466A
:10FC900018D0FEF793FA304490F848008009032802
:10FCA00002D0012806D007E01B48006804FA09F4D6
:10FCB000204201D1022100E003214846BDE8F0477F
:10FCC00000F0D9B800F02AFC002820D04846FEF702
:10FCD00075FA0546114F4FF4807007EB850100EB74
:10FCE0008500D1F8102580B242F00102C1F810253C
:10FCF00000F0D0F8B8F1000F09D04846FEF75EFAE0
:10FD000056F82000002802D0AC40C7F80443BDE8F4
:10FD1000F08700009427002010050050006000408C
:10FD20002DE9FC41DFF8A480044608EB040000271D
:10FD300090F930001346C0170E46401C01D008272A
:10FD400040E0F27819462046FEF714FA0546401CBA
:10FD500037D0B07848B1A00000F1A040D0F800172B
:10FD600021F00201C0F8001707E000217378204657
:10FD700000910A46019100F06DF8F078C0B1144886
:10FD8000317800EB8500D0F81025124B1A40C0F8EE
:10FD900010254FF4F8524FF4403302EA042203EAEC
:10FDA00001410A43D0F810150A43C0F8102509E0B4
:10FDB00008EB0500327810F8481F41EA8211017003
:10FDC00000E004273846BDE8FC81000094270020AD
:10FDD00000600040FFE0FCFF03490968C14011F0EA
:10FDE000010000D0012070471005005070B5124D81
:10FDF00095F8540008B1082070BD0020411E2A1853
:10FE0000401CC0B282F830102028F8D300242046CD
:10FE1000FEF7A2F9641CE4B20C2CF8D306210846C4
:10FE2000FFF710FF05494FF00040C1F8040301201F
:10FE300085F85400002070BD942700200060004029
:10FE4000034890F85400002800D0012070470000BB
:10FE50009427002030B541EA4201DDE9034541EA3B
:10FE60008301800041EA042100F1A04041EA0541FC
:10FE7000C0F8001730BD800000F5E06000F1A04040
:10FE8000026822F440320260026842EA01410160E5
:10FE900070470000034908B508440021016000686C
:10FEA000009008BD0060004002494058012800D081
:10FEB00000207047006000404058002800D001201A
:10FEC0007047D0F80403084000D001207047405824
:10FED000002800D0012070472DE9FF47041D00884D
:10FEE000102873D01B285DD01D2805D01F2850D1A5
:10FEF0002088211D75DF78E004F10D000290207B41
:10FF00006A46C008ADF80C0002A90220FDF77AF994
:10FF100030B16A4602A90320FDF774F9002838D1F0
:10FF2000002501274FF6FF7841F60D0934E000BFA8
:10FF3000009807EB4501405C009908EA002011F8A1
:10FF400015602DA1064332460020FFF7F1FD4E4516
:10FF500021D18BDF020003D02BA10020FFF7E8FDA9
:10FF60000020FDF739FF08B1FDF7EAF93048002518
:10FF7000304A017821F00201017001464560201DE0
:10FF80008CDF02002C48857003D02CA10020FFF7E5
:10FF9000CFFDBDE8FF876D1CBDF80400B5EB500F29
:10FFA000C6D3F6E72079022808D00328F1D104B09F
:10FFB0002EA1BDE8F0470020FFF7BABD35A1002013
:10FFC000FFF7B6FDBDE8FF4700F026BD18482188C1
:10FFD00000221838FDF7F8FC08B1FDF7B1F9144814
:10FFE000218800220C38FDF79BFB0028D1D004B0FB
:10FFF000BDE8F047FDF7A4B9095B4150504C5D3AAC
:020000040002F8
:100000002025780D0A0000005B4150504C5D3A20DD
:100010005363616E2073746F70206661696C6564F0
:100020002C20726561736F6E2025640D0A0000003C
:10003000C422002088140200B01E00205B415050F2
:100040004C5D3A20436F6E6E656374696F6E20522B
:10005000657175657374204661696C65642C2072E6
:100060006561736F6E2025640D0A00005B4150507E
:100070004C5D3A20436F6E6E656374696F6E2052FB
:100080006571756573742074696D6564206F75742E
:100090002E0D0A005B4150504C5D3A205363616E57
:1000A0002074696D6564206F75742E0D0A00000060
:1000B0002DE9F84F05460C460888B5F8AA11884284
:1000C00054D195F8A601DFF8FCA0C0EBC00000EB0E
:1000D000800005EB400660884FF003094FF00008F0
:1000E000F0BB2389307904F10801DAB250FA83F3C6
:1000F000052B01D8024400E005223271002215E0F0
:1001000000EB400302EB820701EB470706EB83039A
:10011000D7F802C0C3F80AC0D7F806C0C3F80EC0AB
:100120007F895F82401CA3F81480521C337983427C
:10013000E6D895F8A61100EB4000C1EBC10101EB38
:10014000810106EB800005EB4101C08809898842E6
:100150000ED2D8B205280BD085F8A501218800E081
:1001600006E02846FEF732F801000AD1BDE8F88F14
:1001700085F8A581228869462846FEF715FA010010
:100180000BD085F8A78122882846FEF74BFD8AF818
:1001900000902188AAF80210E8E79DF800000028E6
:1001A000E4D02388328808490020FFF7C1FC228868
:1001B00001212846FEF7E4FC2188284600F03AF9A0
:1001C000D4E70000F823002040150200F8B50546EA
:1001D0000C460888B5F8AA1188424AD195F8A601BC
:1001E00004F10801C0EBC00000EB800005EB400605
:1001F00095F8A50100EB400006EB800260880A320A
:10020000B0B9002042F602170B880FE000EB400C5B
:1002100001EB4C0CBCF804C0BC4506D100EB40001F
:1002200001EB40004088508102E0401C8342EDD841
:1002300000278DF8007095F8A5013179401C88429F
:1002400003D101208DF8000018E085F8A50122886F
:1002500069462846FEF7A8F901000BD085F8A7717A
:1002600022882846FEF7DEFC0C4803210170218815
:100270004180F8BD9DF800000028FAD0238832881C
:1002800007490020FFF754FC228801212846FEF789
:1002900077FC2188284600F0CDF8F8BDF82300202F
:1002A000EC1502007FB5054600888A880E4690420C
:1002B00006D004B02049BDE870400020FFF738BCEC
:1002C000AB88B2891DA10020FFF732FCB089A98854
:1002D00088422CD102208DF800002888ADF8020059
:1002E000B07C06F10104C1074FF0000020D0E27C91
:1002F000A07C237D110E40EA022040EA034041EA3F
:100300001341637DA27D41EA13211143E27D40EA5E
:10031000036041EA0221227E41EA0241627E41EA13
:100320000261CDE90201AA686946284690477FBD6F
:10033000F17CCDE90210F6E7EC1602005B4852535F
:100340005F435D3A2072656365697665642048564F
:1003500058206F6E2068616E646C65203078257857
:100360002C2068726D5F68616E646C652030782542
:10037000780D0A0070B5064690F8A6010C46C0EB51
:10038000C00000EB800006EB40050888B6F8AA1113
:1003900088422ED160882A8870B116A10020FFF70C
:1003A000C7FB228800213046FEF7EAFB2188304651
:1003B000BDE8704000F03EB816A10020FFF7B8FB82
:1003C000D4F80A102960D4F80E00C5F80600218878
:1003D0003046FDF7FBFE01000BD0002086F8A70198
:1003E00022883046FEF71EFC114803210170218847
:1003F000418070BD536572766963652055554944E7
:100400002030782578204E6F7420666F756E640DED
:100410000A000000466F756E64207365727669632A
:1004200065205555494420307825780D0A00000094
:10043000F82300202DE9F047044690F8A8010D4666
:10044000401C1E49C0B284F8A801C968DFF870904A
:1004500000264FF0030888422CD284F8A56194F856
:10046000A6012B46401CC0B2C0EBC00101EB8101CC
:1004700004EB410784F8A601A9F1180101EB800003
:100480001049006838603E713A880020FFF750FB41
:100490003A460121284690DF010009D084F8A7617F
:1004A0002A462046FEF7BEFB89F80080A9F80250D4
:1004B000BDE8F08784F8A761F6E70000E41E00209D
:1004C000F82300209C15020070B5054600EB45019D
:1004D0000B48002400EBC101FF20C1F81140A1F836
:1004E00015400C604C608C60CC600874C875284660
:1004F00000F086FF02481C3840F8254070BD00001F
:10050000942600200449084490F93000082801DBB3
:1005100001207047002070479427002004490844B8
:1005200090F93000082801D2012070470020704760
:100530009427002006490979490701D4082070470B
:1005400020B1044949780160002070470E207047AF
:100550000C1F00200C28002030B5104B1B795B07C6
:1005600001D4082030BD18B112B104687CB901E093
:100570000E2030BD0A4B1D684DB140681D8901FB3E
:10058000050059685B8903FB0511814201D80720EA
:1005900030BDC2E90040002030BD00000C1F00202B
:1005A000D8280020F8B5054621480E4600794007B6
:1005B00001D40820F8BD15B1286870BB01E00E20F9
:1005C000F8BD1C4C0027206838B361892289606817
:1005D00001FB0201686881421FD9FFF7ABF970B1D6
:1005E000D5E9000200EB400004EB8000436801897C
:1005F000D41AB4FBF1FC01FB1C4474B901E01020D7
:10060000F8BDB6FBF1F401FB146434B92EB1408996
:10061000324400FB0130824201D90720F8BD334645
:100620000022294603200097FDF7AAFEF8BD00002E
:100630000C1F0020D828002010B54FF0102044696E
:10064000601C04D000F007F8B4FBF0F010BD4FF0D0
:100650008050406910BD4FF08050006980B27047F3
:1006600070B5104800242546047044702846FDF7F4
:1006700077FE6D1C0A2DF9D30B4D6C80FFF7DCFF64
:10068000861EFFF7E8FF46430648AE60CC306C613B
:100690000460048144812C70AC610420EC616860CA
:1006A000002070BD0C2800200C1F00202DE9F8430D
:1006B000804623481F46164600790D46400702D45F
:1006C0000820BDE8F8832DB1B8F1000F02D02868EA
:1006D00098B901E00E20F4E71A4C206868B16289ED
:1006E0002089616802FB00116A68914205D926B130
:1006F000B04202D3F119814201D90720E1E7404617
:10070000FFF718F9D0B13846FFF714F9B0B16868AF
:10071000FFF710F990B168683246C1194046FBF7FF
:1007200069FF00962868002200EB4000434654F819
:10073000204002212846A0470020C2E71020C0E741
:100740000C1F0020D82800202DE9F041294D044637
:100750000E462879400702D40820BDE8F081ECB1AC
:10076000E6B12068D0B1FFF776FF0146A08881424C
:1007700012D3102810D3E08870B1FFF75DFF471E39
:10078000FFF769FF4743E288A188A86802FB0102DE
:10079000974201D3890703D00720DEE70E20DCE76C
:1007A0006988012924D0C6E90010134A01EB4103EE
:1007B00002EB83014860206842F82300A08808818A
:1007C000E0884881FFF747FFA188E288401E01FBCF
:1007D0000204FFF740FF94FBF0F4FFF73CFFA96829
:1007E00004FB0010A8606888401C68800020B4E703
:1007F0000420B2E70C1F0020D8280020F8B50446DA
:100800001C481E46154600790F46400701D40820B3
:10081000F8BD1FB114B1206898B901E00E20F8BDF1
:100820001548016869B142894168008902FB0011DD
:100830006268914205D925B1A84202D3A919814223
:1008400001D90720F8BD3846FFF774F878B1304673
:10085000FFF770F858B16068FFF76CF838B12B46B5
:100860003A46214601200096FDF78AFDF8BD10208A
:10087000F8BD00000C1F0020D828002010490246B7
:10088000087800281AD0042818D0022A14D0032A85
:1008900014D10A7912070FD48A69521C8A61B2F501
:1008A0007A7F06D0022801D000F096B9487800F08F
:1008B00059BB0D20FCF76CBDFEF7E4BD704700008E
:1008C0000C1F0020F8B504461C481E46154600794A
:1008D0000F46400701D40820F8BD1FB114B12068AD
:1008E00098B901E00E20F8BD1548016869B1428948
:1008F0004168008902FB00116268914205D925B167
:10090000A84202D3A919814201D90720F8BD38466F
:10091000FFF710F878B13046FFF70CF858B160686F
:10092000FFF708F838B12B463A46214604200096D6
:10093000FDF726FDF8BD1020F8BD00000C1F0020BB
:10094000D82800204FF08050D0F80C01800200F130
:100950000050704770B50C4B00210A4ADC680DE06E
:1009600002EB81058678AD78B54206D132F8215088
:100970000688B54201D1586870BD491CA142EFD329
:10098000002070BDE0230020E41E002070B5012689
:1009900070044FF0E0210025C1F88001084C4010A0
:1009A000C4F84803C4F8080366602F20FBF778FDFD
:1009B000A660044C2F202561FBF772FDE57070BD29
:1009C00000100140441F002009480A490022C37D4D
:1009D000C1F8082143B1D1F81815437EC268D1543B
:1009E000417E491C41767047D1F8180570470000D8
:1009F000EC270020002000401FB501228DF80800E0
:100A000004488DF800200191D0E900126846904713
:100A10001FBD0000EC27002030B595B004A8FFF7FB
:100A200089FD08B1FCF78CFC244D049818B1012015
:100A3000E87015B030BD08208DF8040005A80090BE
:100A40000DA802901D4800248DF80C406946001D39
:100A5000FEF79CFC08B1FCF773FC9DF804301848C5
:100A6000A021502213B99DF80C3023B16B78012BD3
:100A700001D1AB7843B1037823F003030370018104
:100A80004281446084810BE0037823F0010343F04A
:100A90000203037001814281C0F804D01E218181CC
:100AA00007488ADF08B1FCF74BFC0120FDF794F9F9
:100AB0000028BED0FCF744FCBBE70000B01E0020BD
:100AC000C422002038B5044609480090A0420DD049
:100AD000FFF738FF0546234606A10020009AFFF7DE
:100AE00027F82A1B10A10020FFF722F8002038BDAC
:100AF000B01E002052414D205354415254204144D5
:100B0000445220307825782073686F756C642062B9
:100B1000652061646A757374656420746F20307831
:100B200025780D0A0000000052414D2053495A45D6
:100B30002073686F756C642062652061646A7573E8
:100B400074656420746F2030782578200D0A0000C9
:100B500010B50121202803DA1D4A8140114004E02C
:100B6000402803DAA0F12002914041B1002809DABF
:100B700000F00F0101F1E02191F8141D06E042F2AE
:100B8000010010BD00F1E02191F800144909082985
:100B900014D299B1012911D004290FD005290DD003
:100BA0000C4A946800F01F0301219940400944B1A8
:100BB00052F820300B4342F8203007E042F20200A6
:100BC00010BD800000F1E020C0F80011002010BD31
:100BD000FC06FFBCA83100200C49087040B1012878
:100BE0000FD002280FD003280FD14869FEF790BC20
:100BF00000208861C86106484078002805D0FDF7CC
:100C000095BB00F06BB900F0C7B870470C1F00200F
:100C10000C28002018B10349C860002070470E203E
:100C200070470000681F00207CB5044613480190FF
:100C30000246009012A10020FEF77AFF6946204686
:100C400060DF0446DDE9000188420ED0FFF77AFE3E
:100C5000054614A10020009AFEF76AFF009820A123
:100C60002A1A0020FEF764FF06E02CB1224626A1D6
:100C70000020FEF75DFFFEE720467CBDB01E002091
:100C800073645F626C655F656E61626C653A205289
:100C9000414D2053544152542061742030782578BE
:100CA0000D0A000073645F626C655F656E61626C63
:100CB000653A206170705F72616D5F62617365207B
:100CC00073686F756C642062652061646A75737403
:100CD000656420746F20307825780D0A00000000CC
:100CE00072616D2073697A652073686F756C64201A
:100CF00062652061646A757374656420746F203066
:100D0000782578200D0A000073645F626C655F656A
:100D10006E61626C653A206572726F722030782560
:100D2000780D0A0070B50E4605461446142110468B
:100D3000FBF7F9FC0120208000212161217326723C
:100D4000657205B1A072002070BDFCF7E7BA000023
:100D500030B409B18C0702D0072030BC7047074C73
:100D60000125A16062800649636010DF0028F4D18C
:100D7000257030BC1620FFF7EBBE0000681F002076
:100D80004B0D020018B103490861002070470E2086
:100D900070470000681F00202DE9F041164C606884
:100DA00020F0010060601548017801EB810100EB43
:100DB00081063569FFF74FFCB5FBF0F76761FFF778
:100DC0004AFCF1886D1E2944B1FBF0F0874260684F
:100DD00002D140F0020001E020F0020060602079C2
:100DE000E16800F00200084304D00020BDE8F041B3
:100DF00000F0B8B80220F9E70C1F00200C280020F2
:100E000001484069FEF784BB0C1F002010B5FFF7B6
:100E100013FC441EFFF71FFC4443FFF71CFC05496D
:100E20004A69521E5043CA682146BDE81040FEF789
:100E300072BB00000C1F00202DE9F0411048017822
:100E400001EB810100EB81042569FFF704FCE188D7
:100E5000228911442944B1FBF0F200FB1216FFF77E
:100E6000EBFB471EFFF7F7FB07FB0061E0882289D9
:100E70001044044A28441269BDE8F041FEF74BBB18
:100E80000C2800200C1F002010B5FFF7D5FB441ED6
:100E9000FFF7E1FB4443FFF7DEFBB4FBF0F0BDE8F6
:100EA0001040FEF735BB000070B5FFF7D4FB860895
:100EB000FFF7D1FB0749496900FB01F4FFF7BCFBD1
:100EC000451EFFF7C8FB684332462146BDE8704027
:100ED000FEF721BB0C1F00200020704770B514489E
:100EE000017801EB810100EB8104241DFFF7B3FBC6
:100EF0006188104E884211D2FFF7ADFB61880D1A50
:100F0000FFF7A9FB8208A188E0680844216928440A
:100F10002944FEF700FBFFF79EFB07E0A288E0688C
:100F200010448A082169FEF7F6FA6088F06170BD06
:100F30000C2800200C1F002004480079000702D470
:100F4000012000F00FB800F003B800000C1F0020D3
:100F50000348416821F008014160407800F002B880
:100F60000C1F002002494870024951F82000004738
:100F70000C1F00200015020010B50446FFF77EFC90
:100F8000022C01D0032C09D10548C178002905D0D5
:100F90000021C170BDE81040FFF73EBD10BD00004C
:100FA000B01E002003480079000701D4FDF7AEB958
:100FB000FFF7CEBF0C1F00202DE9F84F204C002575
:100FC0006846D4E903B6FEF72FFA8046FEF7C2FC66
:100FD0000746A946B8F1000F25D00023009ACC4659
:100FE000E06819E007680146974202D9BA1A026020
:100FF00014E0C1F800C0D1F80C80D21BC8693B4492
:101000008A46B8F1000F07D0F71827F07F47C1E9EB
:101010000178CAF81C500D460028E3D1E06028464C
:10102000FEF7F6FC04E02846FEF7F2FC00B917B123
:101030005846FDF7EFF984F80490BDE8F88F0000FA
:10104000441F00200D4B10B5D96831B102680C68FF
:10105000A24204D8A21A0A60C161D86010BD0B4632
:1010600003E00B46C969121B21B10C689442F8D306
:10107000A41A0C600260C161D86110BD441F002039
:101080002DE9F0411D4DEC68002C35D01C4800279F
:1010900000682969B846401A20F07F462068B042AF
:1010A00015D82246361A0744E469107C68B182F8E4
:1010B00010806B6933B1D2E90501984728B1FCF77C
:1010C0003FF902E0D2E905108847002CE6D16978A3
:1010D000A878814206D1401CC0B2A870022801D174
:1010E00085F802800548A978183040F82170BDE8DD
:1010F000F0411420FBF72EBCBDE8F081441F002016
:101100000415014010B50F4CD4E90010884211D0ED
:1011100000EB80020C4800EB82018B785BB130F869
:101120002200083198DF002804D12079401C00F00B
:101130000700606010BD30F822008988002296DF29
:10114000F1E70000DC1E00204023002010B5134C06
:10115000D4E90010884220D000EB8002104800EB58
:1011600082018B7853B130F82200083198DF58B1F2
:10117000BDE810400B490020FEF7DABC30F8220031
:101180008988002296DFF2E707A10020FEF7D0FC55
:101190002079401C00F00700606010BDF41E0020A4
:1011A000D8250020481602005B4852535F435D3A41
:1011B00020534420526561642F5772697465204141
:1011C00050492072657475726E7320537563636540
:1011D00073732E2E0D0A0000064A0020C2F81C016F
:1011E0000548838A8168C95C838A5B1C8382C2F854
:1011F0001C15704700200040EC2700201FB500217F
:101200008DF8080005488DF80010826801928175FC
:10121000D0E90012684690471FBD0000EC2700206F
:101220002DE9FF413E4D4FF400712846FEF749FE7F
:1012300001273C4C4FF40178002600B34FF4927123
:101240002846FEF739FED0B1C5F82461C5F80883F9
:10125000A07E00B96F6002208DF80000D5F88004F0
:10126000C5F880040390E07D8DF80800E0680190E7
:10127000E6752676D4E900126846904724E00421FA
:101280002846FEF71EFEF8B14FF484712846FEF79B
:1012900013FEC8B1FFF798FBE07D617E884213D151
:1012A000227E3AB1607EE168E2752269E2602676CC
:1012B000667607E0A07E00B96F60C5F80883E67522
:1012C000607EE168FFF798FB4FF48E712846FEF7C9
:1012D000F3FD58B1A18AA07D814202D2FFF77CFFC5
:1012E00004E0C5F81C6108B1FFF788FF4FF4A27154
:1012F0002846FEF7E1FD00280FD0C5F84461A07E26
:1013000000B12F60E07D002807D0E675607EE168BF
:1013100004B0BDE8F041FFF76FBBBDE8FF810000FE
:1013200000200040EC2700207FB5334C4FF4927131
:101330002046FEF7CCFD314D0026B0B1C4F8246143
:1013400002208DF80000D4F88004C4F880040390D3
:10135000D4F83C058DF80800E8680190EE752E760B
:10136000D5E90012684690471FE04FF48871204687
:10137000FEF7ADFDC8B1C4F81061D4F83C05E97DB5
:10138000C0B2814211D12A7E5AB1E968D4F8003244
:1013900023F02003C4F80032EA752A69EA602E7649
:1013A00001E0EE75E968FFF727FB4FF4A2712046D4
:1013B000FEF78DFD50B1C4F84461E87D30B1EE75A3
:1013C000D4F83C05E968C0B2FFF716FB4FF4907102
:1013D0002046FEF77CFD00280CD0C4F82061A87DD3
:1013E000002807D0D4F84C0504B0C0B2BDE8704066
:1013F000FFF704BF7FBD000000200040EC27002065
:1014000001218140024842688A43426070470000DF
:10141000FC1E0020EFF30580C005C00D13D010386E
:1014200040B2002806DA00F00F0000F1E02090F84A
:10143000140D03E000F1E02090F8000440090228B8
:1014400003D0062803D002207047002070470120F7
:10145000704742788378521CD2B2934200D1002266
:101460000378934201D1002070470A7041684078A8
:1014700000EB400001EBC00070474FF04070E1EE20
:10148000100A7047010000070600180000009001D4
:10149000D4220020F4220020202300200D00000090
:1014A0000E0000000F000000100000000D000300FF
:1014B00059DC01000E00030059DC01000F0003009D
:1014C00059DC01001000030059DC0100FFFFFFFFA1
:1014D00041FC0100A9F5010025F5010059F60100C4
:1014E0003DFC010071F5010021F5010055F60100F8
:1014F00039FC010029F501001DF5010051F601003C
:10150000890E0200A90E0200010E0200390E02002F
:101510000D0E0200390F020069E5010015E501001A
:10152000A50F0200B5F60100E4280020030000002A
:101530003031323334353637383941424344454609
:101540005B44425D3A20446973636F76657279202B
:101550006F662073657276696365207769746820A9
:1015600055554944203078257820636F6D706C653F
:101570007465642077697468207375636365737339
:1015800020666F7220436F6E6E656374696F6E20A4
:1015900068616E646C652025640D0A005B44425DE1
:1015A0003A205374617274696E6720646973636F63
:1015B00076657279206F662073657276696365203F
:1015C000776974682055554944203078257820661D
:1015D0006F7220436F6E6E656374696F6E20686111
:1015E0006E646C652025640D0A0000005B44425D5A
:1015F0003A20446973636F76657279206F66207351
:101600006572766963652077697468205555494429
:10161000203078257820636F6D706C657465642068
:1016200077697468207375636365737320666F727E
:1016300020436F6E6E656374696F6E68616E646C73
:10164000652025640D0A00005B4852535F435D3AF4
:1016500020534420526561642F577269746520419C
:1016600050492072657475726E73206572726F7264
:101670002E2054686973206D6573736167652073EC
:10168000656E64696E672077696C6C2062652061A5
:101690007474656D7074656420616761696E2E2E67
:1016A0000D0A00005B4852535F435D3A20436F6E62
:1016B0006669677572696E6720434343442E204311
:1016C0004343442048616E646C65203D2025642CB2
:1016D00020436F6E6E656374696F6E2048616E643F
:1016E0006C65203D2025640D0A0000005B485253C4
:1016F0005F435D3A2072656365697665642048568C
:1017000058206F6E206C696E6B20307825782C2005
:101710006E6F74206173736F6369617465642074A4
:101720006F207468697320696E7374616E63652CD1
:101730002069676E6F72650D0A0000005C17020079
:10174000B01E0020D00000003CC401002C18020094
:10175000801F00209832000058C4010000020000E1
:101760000000000000000000000000000000000079
:101770000000000000000000000000000000000069
:101780000000000000000000000000000000000059
:101790000000000000000000000000000000000049
:1017A0000000000000000000000000000000000039
:1017B0000000000000000000000000000000000029
:1017C0000000000000000000000000000000000019
:1017D0000000000000000000000000000000000009
:1017E00000000000000000000000000000000000F9
:1017F00000000000000000000000000000000000E9
:1018000000000000000000000000000000000000D8
:1018100000000000000000000000000000000000C8
:0C18200000000000000000000090D00359
:040000050001C40131
:00000001FF
