:020000040001F9
:10C00000186C002039C5010041C5010043C501007D
:10C0100045C5010047C5010049C5010000000000F9
:10C020000000000000000000000000004BC50100FF
:10C030004DC50100000000004FC5010051C50100C1
:10C0400053C5010053C501005DD0010053C5010077
:10C0500053C5010053C5010019C90100F9CB010006
:10C0600053C5010053C5010053C5010053C501006C
:10C0700053C5010053C5010053C5010053C501005C
:10C0800053C5010099CA010053C5010053C5010001
:10C09000B9CC010053C50100BDCC010053C501005E
:10C0A00053C5010053C5010011D0010053C5010063
:10C0B00053C5010053C5010000000000000000004E
:10C0C00053C5010053C5010053C5010053C501000C
:10C0D00049CB010053C5010053C501000000000019
:10C0E0000000000000000000000000000000000050
:10C0F0000000000000000000000000000000000040
:10C10000000000000000000000000000000000002F
:10C11000000000000000000000000000000000001F
:10C4000000F002F800F04CF80AA090E8000C82441A
:10C410008344AAF10107DA4501D100F041F8AFF2F7
:10C42000090EBAE80F0013F0010F18BFFB1A43F012
:10C4300001031847805E0000A05E00000A4410F867
:10C44000014B14F00F0508BF10F8015B240908BF69
:10C4500010F8014B6D1E05D010F8013B6D1E01F860
:10C46000013BF9D1641E03D0641E01F8015BFBD1CE
:10C470009142E4D3704700000023002400250026E9
:10C48000103A28BF78C1FBD8520728BF30C148BF37
:10C490000B6070471FB505F0AFFE1FBD10B510BD96
:10C4A00000F0FFF91146FFF7F5FF04F00BF900F07B
:10C4B0001DFA03B4FFF7F2FF03BC00F025FA0000F9
:10C4C000401E00BF00BF00BF00BF00BF00BF00BFD5
:10C4D00000BF00BF00BF00BF00BF00BF00BF00BF64
:10C4E00000BF00BF00BF00BF00BF00BF00BF00BF54
:10C4F00000BF00BF00BF00BF00BF00BF00BF00BF44
:10C5000000BF00BF00BF00BF00BF00BF00BF00BF33
:10C5100000BF00BF00BF00BF00BF00BF00BF00BF23
:10C5200000BF00BF00BF00BF00BF00BF00BF00BF13
:10C5300000BFC5D17047000009488047094800473F
:10C54000FEE7FEE7FEE7FEE7FEE7FEE7FEE7FEE7C3
:10C55000FEE7FEE704480549054A064B7047000020
:10C5600041CD010001C40100182C0020186C0020EE
:10C57000184C0020184C002040EA010310B59B071E
:10C580000FD1042A0DD310C808C9121F9C42F8D03D
:10C5900020BA19BA884201D9012010BD4FF0FF30EE
:10C5A00010BD1AB1D30703D0521C07E0002010BD04
:10C5B00010F8013B11F8014B1B1B07D110F8013B90
:10C5C00011F8014B1B1B01D1921EF1D1184610BD71
:10C5D00010B5431C02E010F8011B71B18107FAD1BC
:10C5E0004FF0013202C88C1A8C4314EAC211F9D000
:10C5F000C01A0A0603D0C01E10BDC01A10BD0A041E
:10C6000001D0801E10BD0902FCD0401E10BD032ABF
:10C6100040F2308010F0030C00F0158011F8013B5F
:10C62000BCF1020F624498BF11F801CB00F8013B46
:10C6300038BF11F8013BA2F1040298BF00F801CB0A
:10C6400038BF00F8013B11F0030300F06780083A9F
:10C65000C0F0088051F8043B083A51F804CBA0E838
:10C660000810F5E7121D5CBF51F8043B40F8043B8D
:10C67000AFF30080D20724BF11F8013B11F801CBC2
:10C6800048BF11F8012B24BF00F8013B00F801CB93
:10C6900048BF00F8012B7047431A28BF9A427FF623
:10C6A000B6AF032A1044114440F2268010F0030F65
:10C6B0001EBF11F8013D521E00F8013D10F0030F9E
:10C6C0007FF4F6AF11F0030300F09F80083AC0F04A
:10C6D0000B8051F8043D083A51F804CD40F8043D70
:10C6E00040F804CDFFF7F3BF121D5CBF51F8043DC5
:10C6F00040F8043DAFF30080D20724BF11F8013D9C
:10C7000011F801CD48BF11F8012C24BF00F8013DFC
:10C7100000F801CD48BF00F8012C704710B5203A51
:10C72000C0F00B80B1E81850203AA0E81850B1E8EA
:10C730001850A0E81850BFF4F5AF5FEA027C24BFA0
:10C74000B1E81850A0E8185044BF18C918C0BDE897
:10C7500010405FEA827C24BF51F8043B40F8043B60
:10C7600008BF7047D20728BF31F8023B48BF11F815
:10C77000012B28BF20F8023B48BF00F8012B70476F
:10C7800002F0FF0343EA032242EA024200F069B8E2
:10C790004FF0000200B5134694469646203922BF5A
:10C7A000A0E80C50A0E80C50B1F12001BFF4F7AFA5
:10C7B000090728BFA0E80C5048BF0CC05DF804EB87
:10C7C000890028BF40F8042B08BF704748BF20F8F5
:10C7D000022B11F0804F18BF00F8012B70477047F3
:10C7E00070477047431A28BF9A427FF697AF1044AC
:10C7F00010F0030F11441EBF11F8013D521E00F846
:10C80000013D10F0030F7FF4F6AF103AC0F00A803C
:10C8100010B531E91850103A20E91850BFF4F9AFBB
:10C82000BDE81040530724BF31E9081020E9081083
:10C8300044BF51F8043D40F8043D12F0030F08BF17
:10C840007047D20728BF31F8023D48BF11F8012CCC
:10C8500028BF20F8023D48BF00F8012C70474FF078
:10C8600000020429C0F0128010F0030C3FF492AFD4
:10C87000CCF1040CBCF1020F18BF00F8012BA8BFCB
:10C8800020F8022BA1EB0C01FFF784BF5FEAC17C0B
:10C8900024BF00F8012B00F8012B48BF00F8012B42
:10C8A0007047754600F02CF8AE46050069465346C1
:10C8B00020F00700854618B020B5FFF74BFEBDE815
:10C8C00020404FF000064FF000074FF000084FF0F7
:10C8D000000B21F00701AC46ACE8C009ACE8C00988
:10C8E000ACE8C009ACE8C0098D46704710B50446F5
:10C8F000AFF300802046BDE81040FFF7DABD00002E
:10C9000000487047B82B002001491820ABBEFEE755
:10C9100026000200704700002DE9F84F0027012192
:10C92000594C3E464FF480703A46BC464FEA010AE5
:10C9300000F1804303F5C0431D68012D08D1D4F8F0
:10C9400004530D4204D0C3F800C01B680F4300938A
:10C95000001D4900521C80B2082AE9D34B48DFF879
:10C9600030910168012907D1C0F800C0006800902B
:10C97000D9F8006047F00047464D17F0FF0F1CBF85
:10C980004FF00108002417D018EA070F0FD0A000BD
:10C9900000F1804101F5C041D1F81005D1F8101522
:10C9A000C0F3042055F82420C1F301419047641CD2
:10C9B0004FEA4808082CE7D317F0004F1ABF0027AA
:10C9C0004FF0FF38BDE8F88F4FF000094C462A19A8
:10C9D00092F850104AB221F0C000B2F1FF3F1CBFE4
:10C9E0000AFA00FC1CEA080F25D005EB00024FEA0A
:10C9F000911192F9302055F8223013B1032902D059
:10CA000003E0032917D147EA0C07820002F1A04294
:10CA1000D2F800B71CEA060FCBF3014B03D0BBF1F1
:10CA2000020F03D007E0BBF1030F04D1032913D099
:10CA3000002B18BF9847641C042CC8D3B9F1000F11
:10CA400008BFBDE8F88F12480068B0421CBF064618
:10CA5000B846B9D1BDE8F88FBBF1020F14BF4FF053
:10CA6000020C4FF0030CD2F800B72BF4403BC2F895
:10CA700000B7D2F800B74BEA0C4CC2F800C709F176
:10CA8000010202F0FF09D3E7006000407C61004032
:10CA900010050050102800202DE9F04126484FF0E5
:10CAA0000008C0F84081C0F84481C0F84881C0F84F
:10CAB0004C81C0F80081C0F80481204FFC68002C34
:10CAC00008BFBDE8F08100261D4800683969401A9A
:10CAD00020F07F452068A84216D822462D1A064429
:10CAE000E469107C70B182F810807B693BB1D2E9B7
:10CAF00005019847002818BF00F0BAFE02E0D2E90D
:10CB000005108847002CE5D17978B878814206D1A4
:10CB1000401CC0B2B870022808BF87F802800948DC
:10CB2000B97840F821604FF0E0214FF48010C1F84F
:10CB30000002BDE8F081000000100140C02100208B
:10CB400004150140D82100202DE9F84F4FF00008CE
:10CB5000274CDFF8A0A04FF0040B4FF480354FF4C2
:10CB6000A0764746C14600BFD4F8040328421CBF44
:10CB7000A05900280BD0C4F84853C4F8085344F80F
:10CB80000690A05900905AF82810F8B28847301D36
:10CB90006D007F1C86B25F45E6D3D4F8040310F025
:10CBA000010F1CBFD4F80001002809D0C4F800917F
:10CBB000D4F8000100905AF828104FF0040088477C
:10CBC000D4F8040310F0020F1ABFD4F804010028AF
:10CBD000BDE8F88FC4F80491D4F8040100905AF825
:10CBE000281001B04FF00500BDE8F04F08470000E5
:10CBF00000400240A82100202DE9F0432B4C83B0D7
:10CC0000D4F8040100262A4D0127B8B1C4F8046104
:10CC10008DF800606868019026480068ADF808004B
:10CC2000E868002808BF85F8276004D06860A88AF3
:10CC30002881EE602760296868468847D4F8140187
:10CC400000281FBFC4F8146185F8276003B0BDE851
:10CC5000F0832C69002C19BF4FF000484FF48C79F9
:10CC600003B0BDE8F08300BFB4FA84F028FA00F105
:10CC70008C4309EB800000F1804101F5E0410A6836
:10CC800072B10E60A0F58C70C1088DF8041027EA0F
:10CC900090008DF800708DF8050029686846884777
:10CCA000002CE1D103B0BDE8F0830000007000402B
:10CCB000FC2A00203476004005F00EB8F8B51F4C71
:10CCC000606838B18047002808BFF8BDBDE8F8406B
:10CCD00000F0CEBD2078002808BFF8BD20690028EC
:10CCE0000CBF01250025E06800280CBF01260026A6
:10CCF00065B9684652DF052808BF012506D010B186
:10CD000000F0B6FD02E021690098884786B9608886
:10CD1000ADF800006946A06861DF052808BF01265C
:10CD200006D010B100F0A4FD02E0D4E9020188476A
:10CD3000002DDED0002EDBD0F8BD0000E021002069
:10CD40008E4830B40178021D101D00234FF0010CF5
:10CD5000062904BF147814F00F0F04D1047804F0EE
:10CD6000F004302C0CD0062904BF147814F00F0FF7
:10CD70000AD0062904BF147814F00F0F19D113E05C
:10CD8000804D7F4C6C6707E0047804F0F004302C91
:10CD90001CBF402C502CECD14FF08054D4F84442AE
:10CDA000794DC4F342342C60047804F0F004302C44
:10CDB0000CD0062904BF147814F00F0F0CD00629EC
:10CDC00004BF147814F00F0F1BD115E06F4C2568C9
:10CDD00025F08075256007E0047804F0F004302C1D
:10CDE0001CBF402C502CEAD14FF08044C4F80C31C9
:10CDF000C4F81031664C2360047804F0F004302C41
:10CE000006D0062904BF147814F00F0F0AD104E0ED
:10CE1000604A4FF0030111600BE0047804F0F00465
:10CE2000302C06D0062904BF117811F00F0F65D100
:10CE30000DE0594A4FF0050111605849C1F800C092
:10CE400057490B6002F104024FF03F011160007876
:10CE500000F0F000502851D1524800685249086053
:10CE60005248006801F1040108605148006801F16E
:10CE7000040108604F48006801F1040108604E4851
:10CE8000006801F1040108604C48006801F10401E8
:10CE900008604B4800684B4908604B48006801F146
:10CEA000040108604948006801F10401086048482D
:10CEB000006801F1040108604648006801F10401BE
:10CEC00008604548006801F10401086043480068B3
:10CED000434908604348006801F104010860424882
:10CEE000006801F1040108604048006801F1040194
:10CEF00008603F48006801F1040108603D4801688E
:10CF000041F470010160BFF34F8FBFF36F8F4FF09B
:10CF10001022D2F8000210F0004F04BFD2F8040231
:10CF200010F0004F24D0344CC4F800C033480168DE
:10CF30000029FCD04FF0150CC2F800C2016800298E
:10CF4000FCD0C2F804C201680029FCD0236001684B
:10CF50000029FCD0BFF34F8F29480168294A01F40A
:10CF6000E06141EA02010160BFF34F8F00BFFDE7BE
:10CF700026492548086030BC70470000E00F00F0EB
:10CF80000DF0ADBA00C007403C050040FCED00E0EC
:10CF900038050040A005004010560040885600406B
:10CFA000185600400404001020C50040080400107A
:10CFB0000C040010100400101404001018040010D9
:10CFC0001C04001040C50040200400102404001080
:10CFD000280400102C040010300400103404001049
:10CFE00060C50040380400103C04001040040010EC
:10CFF0004404001088ED00E004E5014000E4014035
:10D000000CED00E00400FA050090D003F4210020AC
:10D010002DE9F04706260F4D00240F4F4FF4A0785E
:10D020004FF48039A24600BF08EB840009FA04F1EE
:10D030002A58002A1CBFD5F804230A4204D045F818
:10D0400000A0D7E900219047601CC4B2B442EBD3E2
:10D05000BDE8F08700A00140282B00202DE9F04F0B
:10D06000974C0025214694F81C90D1E9030891F8CB
:10D0700017C00B7E4A68934E0127096885B04FF0B0
:10D08000020AB9F1000F73D0D6F82491B9F1000F5C
:10D0900012D0C6F824518DF800A0D6F88034C6F816
:10D0A00080340393D6F83C3501908DF80830E5754F
:10D0B00025766846904727E0D6F81091B9F1000F21
:10D0C00022D0C6F81051D6F83C9509F0FF09CC459E
:10D0D0001AD18BB1D6F800C22CF0200CC6F800C2D1
:10D0E000E375C4F80C80257601908DF800708DF8FA
:10D0F00008906846904707E0E57501908DF800704C
:10D100008DF8089068469047D6F8440180B1C6F87B
:10D110004451E07D60B1E575D6F83C05E1688DF8D5
:10D1200008008DF800700191D4E90012684690471C
:10D13000D6F82001002804BF05B0BDE8F08FC6F87E
:10D140002051A07D002804BF05B0BDE8F08FD6F8BF
:10D150004C058DF800508DF80800A0680190A57569
:10D16000D4E900126846904705B0BDE8F08FFFE7AC
:10D17000D6F8049319F4007FDFF8449199F81A90D7
:10D180001CBFD6F824B1BBF1000F18D0C6F824514B
:10D190004FF40173C6F80833B9F1000F08BF776088
:10D1A0008DF800A0D6F88034C6F88034019003933F
:10D1B0008DF808C0E5752576684690473FE0D6F8BB
:10D1C00004A31AF0040F1CBFD6F808A1BAF1000F8F
:10D1D00035D0BCF1000FC6F80851D6F818A509D013
:10D1E00094F819B000F80BA094F819A00AF1010AFC
:10D1F00084F819A094F819A0D44520D173B194F8FB
:10D2000019C0E375C4F80C802576657601908DF819
:10D2100000708DF808C06846904710E0B9F1000F23
:10D2200008BF77604FF40173C6F80833E575637E75
:10D2300001908DF800708DF8083068469047D6F858
:10D240001C01D0B1A18AA07DC6F81C51814208D230
:10D25000A18AA068405CA18A491CA1821A49086081
:10D260000BE050B18DF800508DF80800A0680190D7
:10D27000A575D4E9001268469047D6F84401002805
:10D2800004BF05B0BDE8F08FC6F84451A07E002869
:10D2900018BF3760E07D002804BF05B0BDE8F08FFF
:10D2A000E575607EE1688DF808008DF800700191E9
:10D2B000D4E900126846904705B0BDE8F08F000041
:10D2C00068280020002000401C250040002101604B
:10D2D0000171704700210160818070470021016069
:10D2E0008180817170470A6802600B790371704711
:10D2F0002DE9F04F83B04FF0000816880D46A2F8D4
:10D3000000800746416B14464FF00C0911204FF086
:10D31000020A91B10978032EC0F0F58185F800A0CA
:10D320002288521C92B22280A8542288521C92B2A7
:10D330002280A9542188491C2180396B41B322885D
:10D3400002F11203B34200F2DE81A85420881023B8
:10D35000401C80B220802B542088401C20800F204D
:10D36000B4F800C00B5C05F80C3022880B18521C76
:10D3700092B2228013F801CC05F802C02288801EE8
:10D38000521C40B22280B0F1FF3FE9DC4FF00008B0
:10D3900097F82E004FF0070B4FF0010E38B321889D
:10D3A000CA1CB24200F2AF8105F801A021881C22FC
:10D3B000491C89B221806A542188491C89B2218084
:10D3C000012808BF00200ED0022808BF05F801E0A0
:10D3D0000AD0032808BF05F801A005D0042808BF1B
:10D3E000032040F0878168542088401C208097F8F3
:10D3F0002D0070B320880930B04200F28481684665
:10D4000071DF00281CBF03B0BDE8F08F082122881F
:10D41000A95420881B21401C80B2208029542088D8
:10D42000401C80B220802844DDF801100160BDF866
:10D43000051081802088801D80B220809DF800101A
:10D44000002912BF05F800E0002129542088401C63
:10D450002080B87808B32088001DB04200F25381C4
:10D46000684679DF00281CBF03B0BDE8F08F0320B9
:10D4700022881921A8542088401C80B22080295479
:10D480002088401C80B220802844BDF80010017024
:10D49000090A41702088801C2080F878B0B121886A
:10D4A00097F90300CA1CB24200F22D8105F801A0D1
:10D4B0002188491C89B2218005F801E02188491C96
:10D4C00089B2218068542088401C20807868B0B1DF
:10D4D000218890F90000CA1CB24200F2148105F8BC
:10D4E00001A021880A23491C89B221806B5421881C
:10D4F000491C89B2218068542088401C20803889CA
:10D5000070B1CDE900462B460622022107F1080042
:10D5100004F0C0FD5FEA00081CBF03B0BDE8F08F57
:10D52000388A70B1CDE900462B460722032107F166
:10D53000100004F0AFFD5FEA00081CBF03B0BDE8B7
:10D54000F08F388B70B1CDE900462B46152214219F
:10D5500007F1180004F09EFD5FEA00081CBF03B04D
:10D56000BDE8F08F386AD0B3B4F800C00CF1060102
:10D570008E427DD30288062A7BD34FF6FF73B2F525
:10D58000486F01D99A4274D14188062971D3B1F507
:10D59000486F01D999426CD19A421CBF99428A4284
:10D5A00067D8052205F80C2021881223491C89B26E
:10D5B00021806B542188491C8AB222802A44018828
:10D5C0001170090A51702188891C89B2218029446F
:10D5D00040880870000A48702088801C2080D7F896
:10D5E00024A0BAF1000F2DD0BAF804002188021D42
:10D5F0000A44801CB24298BFFE2839D8401C6854A7
:10D600002088FF22401C80B220802A542088401CA1
:10D6100081B221802944BAF800000870000A4870DD
:10D620002088801C80B22080BAF8042052B1DAF839
:10D630000810F1B12844FEF7EAFF2088BAF8041078
:10D640000844208097F82C00E8B3B96A89B14FF0FC
:10D65000000A00283CD900BFB86A0AEB4A0100EB77
:10D660008108B8F80400801CFE284CD8411C01E059
:10D6700049E03FE02288A95420881621401C80B24E
:10D68000208029542088401C80B220802844B8F88B
:10D6900000100170090A41702088801C80B220802F
:10D6A000B8F8042052B1D8F8081019B32844FEF78E
:10D6B000AEFF2088B8F80410084420800AF1010069
:10D6C00000F0FF0A00E005E097F82C005045C3D8B1
:10D6D0004FF000083878E0B3C0B2012804BF797871
:10D6E000002907D0218801F10202B2420BD801289B
:10D6F0000DD103E003B05846BDE8F08F78780844B8
:10D70000801CB04203D903B04846BDE8F08F701AC0
:10D71000801E86B2ADF800602088A91C08446946C6
:10D720007DDF00281CBF03B0BDE8F08F39780229E7
:10D7300005D1BDF80000B04298BF09200CD90820DF
:10D74000012905D17978B14298BFADF8001003D90D
:10D7500000E014E0ADF80060BDF80010FE29D2D85A
:10D760002288491CA9542188491C89B22180685407
:10D770002088401C2080BDF800100844208003B0A1
:10D780004046BDE8F08F000005480068054A0421C6
:10D7900081431160111D00F0040008607047000013
:10D7A000040500500805005070B5084D0024287885
:10D7B000002809D96868012110F8340003F028FA1C
:10D7C0002878641CA042F5D8002070BDAC21002050
:10D7D000052A3CBF07207047F8B514460E4605469B
:10D7E00003F024FB20B903F0F1FA002818BFF8BDBC
:10D7F0001248002145600670C0E902410161701EB7
:10D80000C4B228BF0E4E11D305EBC400716800915D
:10D8100081788DF8011000780A4A694603F05AFAB7
:10D82000002818BFF8BD611ECCB2EDD2BDE8F840AB
:10D83000054A0021024800F029B80000AC21002070
:10D84000AC22020031040200FDF30100BFF34F8F50
:10D8500005480168054A01F4E06111430160BFF326
:10D860004F8F00BFFDE700000CED00E00400FA055B
:10D8700000B583B000210091CDE901106A4644F261
:10D880000100FFF7E3FF03B000BD0000094B9B68F8
:10D890003BB1002A12BF0028072070470068037CB4
:10D8A00013B14FF008007047417442614FF000001F
:10D8B00070470000C02100202DE9FF5F14460F468D
:10D8C000804612F0030F1EBF072004B0BDE8F09F92
:10D8D00000252B4E002C01BF0720B56004B0BDE829
:10D8E000F09F4FF0010B4FF0E0294FF40030C9F8E2
:10D8F0008001DFF890A04010CAF84803CAF8080376
:10D90000CAF804B02F20FEF7DBFDCAF808B02F20BC
:10D910003561FEF7D5FDF570039870610320307016
:10D92000B460257004F118006570A770606007EBA3
:10D930004702257200EBC2016572A772E16025748F
:10D9400001EBC2006574A7746061F5607570B57015
:10D950004FF48011C9F880120B4AC02082F80004ED
:10D96000C9F800110949C1F80080D11E81F80004EE
:10D9700007480068306104B00020BDE8F09F000057
:10D98000C02100200010014014E000E00815014013
:10D99000041501402F4BD3F808C0BCF1000F18BF8D
:10D9A000002805D005293CBF0720704743690BB903
:10D9B00008207047F0B4437C012B0CBF0D460025B6
:10D9C000EFF30583DB05DB0D15D0103B5BB2002BBD
:10D9D000B8BF03F00F0303F1E023B4BF93F8143D85
:10D9E00093F800345B09022B08BF002304D0062BF8
:10D9F00008BF012300D002230CEBC30C06469CF8A1
:10DA00000130581CC4B29CF80200A04208BF002498
:10DA10009CF800700020A74218D0DCF8047003EBDB
:10DA2000430317EBC30311D001271F705E600A4E3A
:10DA300036689E605A61C3E903154FF0E0228CF806
:10DA400001403905C2F80012F0BC7047F0BC042058
:10DA500070470000C021002004150140264910B481
:10DA60008A68002A18BF002840D041694FF0000C96
:10DA700000293BD080F810C0EFF30581C905C90D1E
:10DA800015D0103949B20029B8BF01F00F0101F1DA
:10DA9000E021B4BF91F8141D91F80014490902293E
:10DAA00008BF002104D0062908BF012100D00221AF
:10DAB00002EBC1014B788C785A1CD2B2944208BF59
:10DAC00000220C78944214D04C6803EB430314EB0F
:10DAD000C3030ED002241C7058604A704FF0E0223D
:10DAE000E1046046C2F8001210BC704710BC082068
:10DAF000704710BC04207047C021002010B50C49AD
:10DB00000C4803F084FEC1B20B4800F0D5FA00289F
:10DB100014BF082810BDA0F5405104391ABF43F2C4
:10DB20000141884210BDBDE81040FFF7A1BE0000D2
:10DB3000F02400209420002088240020F0B50C461A
:10DB400095B01F2107250027ADF84810ADF84C10FF
:10DB5000002804BF0026ADF848700CD0C17811F041
:10DB6000040F10D012AA01A9FFF7C2FB00280EBFB4
:10DB700001AE15B0F0BD002C04BF0022ADF84C7012
:10DB80000ED0E07810B115B02846F0BD13AA09A94F
:10DB90002046FFF7ADFB00280EBF09AA15B0F0BD67
:10DBA000BDF84C00C3B2BDF84800C1B2304672DFC8
:10DBB00015B0F0BD002812BF002A0E2070472DE9D5
:10DBC000F05F044656480D4600260A994671C0E9A2
:10DBD000033192E80B1F534F07F1380E8EE80B1FED
:10DBE000106AB8655048FFF779FB07F16C01A1F1A5
:10DBF0001000016000F1300181603E607E60BE6017
:10DC0000FE603E617E61BE61FE613E627E62BE621A
:10DC1000FE623E637E638C3920780870A07888703D
:10DC2000E078C87060784870D4E90402C7E904025B
:10DC3000D4E90202C7E90202D4E90602C7E90602F2
:10DC4000606A38B301F1AC0000F10C0248628260F6
:10DC5000636A1B880380606A8388486A8380CBB1CB
:10DC6000606A8068401E521E13F0010F03D010F846
:10DC7000013F02F8013F4B6A9B885B080AD000BF56
:10DC800090F801C082F801C010F802CF02F802CF6C
:10DC90005B1EF5D1A06A58B3244AA2F10C00826041
:10DCA0008862A36A9B888380A06A8B6A0088188038
:10DCB000886A8388C3B1A06A8068401E521E13F030
:10DCC000010F03D010F8013F02F8013F8B6A9B88D7
:10DCD0005B0809D090F801C082F801C010F802CFAB
:10DCE00002F802CF5B1EF5D194F82C0081F82C00CD
:10DCF000206A40B10E480862226A52884280206A37
:10DD00000A6A00881080606818B10A484860606834
:10DD100048602946BDE8F05F0248FFF70FBF0000EA
:10DD2000E020002080250020F8200020642600202C
:10DD3000F4200020E620002010B502882A4C102A8A
:10DD40001AD00021112A1DD01B2A06BF007A0028F4
:10DD500010BD6079012826D002282DD0032835D0A7
:10DD6000042818BF10BD2171E2680846002A08BFC8
:10DD700010BDBDE810401047817D012904BF808897
:10DD8000208110BD617080882189884218BF10BD34
:10DD9000012000F071F800281ABF2169002910BD88
:10DDA000BDE810400847022000F066F800281CBFBC
:10DDB00021690029F4D110BD4FF0030000F05CF898
:10DDC00000281CBF21690029EAD110BD4FF00300D3
:10DDD00020714FF0040000F04FF800281CBF2169AB
:10DDE0000029DDD110BD0000E020002002281CBF6A
:10DDF0000328704710B5094C2078002808BF10BDD3
:10DE000000202070607900F037F800281ABF2169DF
:10DE1000002910BDBDE8104008470000E0200020A8
:10DE2000124810B5007801281DD1114C6078D0B986
:10DE3000607918B174DF002818BF10BD01200D49AA
:10DE400060700620C87000210A48FFF777FE00289E
:10DE500018BF10BD607900F00FF800281CBF2169C1
:10DE6000002900D08847002010BD0000B825002000
:10DE7000E0200020802500202DE9F04F8A4C87B05B
:10DE80000027607106A8069703F0C8F94FF0010853
:10DE9000082801D020B105E006A802F0D9F838B969
:10DEA000069828B184F8008007B00020BDE8F08F04
:10DEB0007E4D2846FFF712FA7D4E4FF002094FF0D3
:10DEC000030B707810B16079012806D0B07868B182
:10DED0006079012818BF02283DD1E168002908BFF8
:10DEE000E77003D084F80380082088476079012810
:10DEF00002D0022817D02EE0707890B16978681CA3
:10DF0000002904BF4178002925D18178002904BF68
:10DF1000C17800291FD10179002904BF4079002868
:10DF200019D184F80590B07898B1697805F10100AD
:10DF3000002904BF417800290DD18178002904BF50
:10DF4000C178002907D10179002904BF4079002850
:10DF500001D184F805B0307B4FF0040A002802BFDD
:10DF60006079032884F805A0307E002801BF60791D
:10DF7000042867712771E16841B16079032818BFEF
:10DF8000042803D1307808B16078B8B1A770009741
:10DF9000029705970197039704978DF800708DF805
:10DFA00008706279012A0ED0022A16D04149032A4C
:10DFB00001F15C001DD0042A51D03EE084F80280BB
:10DFC00007208847E3E7ADF8127001958DF80080CF
:10DFD000ADF8107084F8048031E001958DF8008070
:10DFE0003089ADF81200B088ADF8100084F80490C4
:10DFF00025E0B28AADF81220328AADF810200279FD
:10E00000002A07BF027B002A3278002A01D06278FA
:10E0100012B184F804B012E003908DF8089081F8F2
:10E0200003A04FF000012348FFF788FD00280EBF32
:10E03000052007B0BDE8F08F2071607930B16846E7
:10E0400073DF00281CBF07B0BDE8F08FE16800292E
:10E050001CBF20798847002007B0BDE8F08FB28B45
:10E06000ADF81020328CADF812200279002A07BFDB
:10E07000027B002A3278002A01D0627812B184F83B
:10E0800004A0DCE703908DF8089081F803A04FF01E
:10E0900000010848FFF752FD002808BF0620CBD03A
:10E0A00007B0BDE8F08F0000E0200020F82000203D
:10E0B000B825002080250020002804BF0E207047CE
:10E0C00073B487B004469DF82020217C0020914243
:10E0D00002BF09B070BC7047002501260095ADF85D
:10E0E000006008A8ADF802500190E188608A6A4695
:10E0F000A4DF00281EBF09B070BC70479DF8200047
:10E100002074608AA0F57F41FF3919BF207D002867
:10E11000082009B004BF70BC7047029503950495B0
:10E120000595E088ADF80800BDF80200ADF80C00D8
:10E1300001988DF80A60CDF810D00590608A02A988
:10E14000A6DF09B070BC7047002812BF00290E205E
:10E1500070472DE9F043064695B0086830604FF6E9
:10E16000FF70708208793075FF20307401278DF8B8
:10E17000467041F60F000C46ADF84400321D11A95F
:10E180003846A0DF00281CBF15B0BDE8F083307D05
:10E190000025A0B10E959DF8380020F00F00401C1E
:10E1A00020F0F00010308DF83800607B8DF83900D9
:10E1B0009DF83A0020F00600801C8DF83A0000958A
:10E1C00005959DF80000019540F002000295039529
:10E1D000049506958DF80000317D002914BF40F0AC
:10E1E000100020F010008DF80000307D002818BFCE
:10E1F0000EA805908DF83E7042F61920ADF83C004F
:10E200000D95A07B8DF83400E07B8DF835009DF8EE
:10E2100036000DF13C0820F00600801C20F01900AB
:10E220008DF83600207B8DF848000A950DF13409F1
:10E230000B95ADF8287012A8CDE90889ADF82A50E1
:10E24000ADF82C700C90B088B31D08AA6946A2DF07
:10E2500000281CBF15B0BDE8F083A068002808BFE7
:10E26000F58132D08DF83E7042F60810ADF83C00D2
:10E270000D95207C8DF834009DF8350020F0FF00CE
:10E280008DF835009DF8360020F00600801C20F047
:10E2900019008DF8360013A8A16800F028FB0A9534
:10E2A0000B95ADF82800ADF82C0013A8CDE908892E
:10E2B000ADF82A500C90F08806F10E0208A9A3DFF1
:10E2C00000281CBF15B0BDE8F083284615B0BDE896
:10E2D000F08308B5002814BF002908BD0A88102A59
:10E2E00008BF898822D0112A08BF4FF6FF711DD0C0
:10E2F000502A18BF08BD027D002A08BF08BD31F8AA
:10E30000062F43899A4206BF4A89022A08BD02683D
:10E31000002A08BF08BD097B11F0010F0CBF0121C5
:10E3200000218DF800106946904708BD418208BD64
:10E33000F0B490E8FC10104981E8FC100F4C002567
:10E340002570006840B1016840686160A060201DD0
:10E350007ADF38B1F0BC704709487BDF00281CBF6A
:10E36000F0BC70474FF6FF7060806570F0BC054AE6
:10E3700000210548FFF78ABAA426002000210020CA
:10E3800004210020292002004022020070B5294CFF
:10E39000058800232649E289102D17D0DFF898C0A0
:10E3A000112D22D0122D3AD0502D18BF70BD30F84B
:10E3B000061F914206BF4189022970BD007B10F003
:10E3C000010F22D0BDE8704000F066BFB0F804C075
:10E3D000A1F802C0D0F818C0C069C1F80CC008612B
:10E3E0004B70002A18BF70BDECE74FF6FF704880F5
:10E3F0004B70DCF80000FFF731FB00281ABFA16961
:10E40000002970BDBDE870400847DCF80000FFF748
:10E4100025FB00281CBFA1690029F3D170BD8268CB
:10E42000C068CA600861BDE8704000F035BF0000F8
:10E4300000210020A42600204022020010B584B054
:10E44000044601208DF8060041F60A00ADF80400EC
:10E45000634A01A90120A0DF00281CBF04B010BD41
:10E46000228862B15F48009004F13C0342F6292003
:10E47000616800F0C7FD00281CBF04B010BD2289F0
:10E4800062B15948009004F13C0342F62420E1684F
:10E4900000F0B8FD00281CBF04B010BD228A62B194
:10E4A0005248009004F13C0342F62520616900F0D7
:10E4B000A9FD00281CBF04B010BD228B62B14C48DE
:10E4C000009004F13C0342F62720E16900F09AFD38
:10E4D00000281CBF04B010BD228C62B145480090DA
:10E4E00004F13C0342F62620616A00F08BFD00280F
:10E4F0001CBF04B010BD228D62B13F48009004F1F2
:10E500003C0342F62820E16A00F07CFD00281CBF95
:10E5100004B010BD206B50B301788DF8081001884D
:10E5200004F13C03090A8DF8091001680822090C5E
:10E530008DF80A100168090E8DF80B1001798DF81D
:10E540000C10017A8DF80D100189090A8DF80E1052
:10E55000806802A9000C8DF80F002848009042F650
:10E56000232000F04FFD00281CBF04B010BD606BDD
:10E5700068B1234900910279016804F13C0342F635
:10E580002A2000F03FFD00281CBF04B010BDA06B86
:10E5900010B301788DF8081041888DF80910090A28
:10E5A0008DF80A1081888DF80B10090A8DF80C106F
:10E5B000C0888DF80D00000A8DF80E0011480090FB
:10E5C00004F13C03072202A942F6502000F01AFD94
:10E5D00000281CBF04B010BD002004B010BD000016
:10E5E00014210020162100201E21002026210020B9
:10E5F0002E210020362100203E210020462100202F
:10E600004E2100205621002070B5044601F016F876
:10E610002146124800F01DF921461148FFF759FE26
:10E620002046FFF7B3FE204600F0B8F920880D4DD4
:10E63000102805D0112808BF4FF6FF7008D008E059
:10E64000072000F0BFFA002818BFFFF711F9A088D3
:10E65000A8802046BDE87040FFF76EBBA0240020D4
:10E66000882400208020002070B50446008C8CB0E7
:10E67000A0F57F41FF3902BF08200CB070BD06AE87
:10E680002046009601F0B6FF0546ADF804000020D4
:10E6900002900390049005902189ADF80C00ADF82C
:10E6A000081001A80121CDE904068DF80A10208C7C
:10E6B00002A9A6DF00281CBF0CB070BDBDF8041075
:10E6C000A94218BF0C200CB070BD2DE9F0410446E2
:10E6D00098B008682060087960714FF6FF70208458
:10E6E000002584F822500127A4F84C508DF84E7074
:10E6F00041F60D000E46ADF84C00A21D13A9384698
:10E70000A0DF00281CBF18B0BDE8F08114959DF86B
:10E7100050000DF1380820F00F00401C20F0F000F0
:10E7200010308DF85000307B8DF851009DF852006C
:10E73000029520F00600801C8DF852009DF808001C
:10E74000039540F010008DF8080014A80790069576
:10E750008DF85A7042F63720049505950895ADF866
:10E7600058001595707B8DF85400B07B8DF85500DE
:10E770009DF85600CDF8008020F00600801C20F0A7
:10E78000180040F001008DF8560016A8099015A851
:10E7900000220A900B950C950D951346204601F02A
:10E7A00029FFADF82C001420ADF82E50ADF8300044
:10E7B000CDF83480E08804F1080309AA02A9A2DF99
:10E7C00000281CBF18B0BDE8F081B06800283CD01C
:10E7D000009505959DF80000049540F002008DF825
:10E7E0000000019503958DF83A7042F638200295A5
:10E7F0000695ADF838000D95F07B8DF83400307C2F
:10E800008DF835009DF836000A9520F00600801C32
:10E8100020F019008DF836000EA808900B950DA871
:10E82000ADF828700C950990ADF82A50ADF82C7011
:10E83000B0680C90E08804F1100308AA6946A2DFD2
:10E8400000281CBF18B0BDE8F081002018B0BDE85A
:10E85000F08108B50A88102A08BF89881ED0112ABD
:10E8600008BF4FF6FF7119D0502A18BF08BD31F804
:10E87000062F83899A4206BF4A89022A08BD026888
:10E88000002A08BF08BD097B11F0010F0CBF012150
:10E8900000218DF800106946904708BD018408BD2D
:10E8A00070B50446B0F84C000D4614280AD104F1A6
:10E8B00026012622881EFDF7EFFEB4F84C00401E0C
:10E8C000A4F84C00B4F84C0004EB4001401CA4F840
:10E8D0004C008D8470BD80F82210704770B50446DE
:10E8E0000D460846FDF774FE2080656070BD0A780D
:10E8F000027049784170022070470000F0B5264F41
:10E9000083B04FF000040D002646386016D06946EB
:10E91000002000F0F3F800281CBF03B0F0BD01A9EF
:10E92000012000F0EBF800281CBF03B0F0BD9DF8FB
:10E930000400002818BF022005D02870786850B164
:10E9400003B02046F0BD9DF80000002814BF0B2046
:10E950002E70F2D1F2E701220221002000F016F918
:10E96000040018BF072CEBD14FF007024FF0020153
:10E970004FF0010000F00AF9040018BF072CDFD1A6
:10E980004FF000014FF00A02084600F0FFF80400C3
:10E9900014BF072C3446D3E7D820002010B52E4CE6
:10E9A00001886068102916D0112918BF10BD401EBB
:10E9B000606018BF10BD01220221002000F0E6F8BF
:10E9C000002818BF07282ED02168002908BF10BDD5
:10E9D000BDE81040084760B900210122084600F058
:10E9E000D5F8002818BF072807D02168002918BFCC
:10E9F00088476068401C606010BD0722022101202A
:10EA000000F0C4F8002818BF0728EED14FF0040228
:10EA10004FF002014FF0000000F0B8F8002818BFD6
:10EA20000728E2D1E5E74FF007024FF002014FF06F
:10EA3000010000F0ABF8002818BF0728C4D14FF040
:10EA400000014FF00A02084600F0A0F8002818BFA5
:10EA50000728B9D110BD0000D820002010B5032030
:10EA600000F0BCFA002814BF0628002010BD0000EA
:10EA70002DE9F04106461D480068B04218BFBDE8C8
:10EA8000F0811B4BDFF86C8008F10105EF1E19B314
:10EA90002846012940780ED002290CBF0446BDE863
:10EAA000F081002C1ABF79690029BDE8F081204669
:10EAB000BDE8F04108472C7850B1B8680E4A00EB29
:10EAC000800041009868FEF765FF002808BF7E704F
:10EAD000A87888F80000E4E79868FEF7BFFF98F888
:10EAE0000000AC78A042DCD0BDE8F0813422020006
:10EAF00028220200C2200020C120002000281CBFC4
:10EB00000020087001D00020704706480068064ABF
:10EB10000123127803FA02F232EA000018BF012042
:10EB20000870F0E7100500503422020010B50428E8
:10EB300019D0072820D00A2818BF10BD002000F0E7
:10EB400041F8002818BFFEF793FEFFF787FF002863
:10EB500018BFFEF78DFE3CDF002808BF10BDBDE8E2
:10EB60001040FEF785BE08481321808876DF08280C
:10EB700018BF0028F3D110BDFFF752F9082818BFBD
:10EB80000028ECD110BD00008020002003004FF0D1
:10EB900000000CD10A4B012A0BD0002904BF9A7047
:10EBA000704701290AD0022904BF5A707047072014
:10EBB0007047012914BF00220D22EED11A70704750
:10EBC000C3200020054902460020097B11F0010FF7
:10EBD00008BF7047104600F05FB80000C02000205A
:10EBE00070B50446214B002014F0020F5A61C3E9AE
:10EBF000021405461CD00022DFF874C00D2300204B
:10EC0000002A0CBF8CF800300720521C52EA000684
:10EC1000F5D068B94A0801211648FEF7D9FD38B980
:10EC2000FEF7C2FD20B9144A00211448FEF72EFE5B
:10EC300014F0010F07D0124A44F204011160121DB2
:10EC40001560104A1160002818BF70BD0E4A0021DF
:10EC50000E48FEF71BFE002818BF70BD0C4ABDE829
:10EC6000704001210B48FEF711BE0000C0200020BB
:10EC7000C320002038220200FDEF010030220200F4
:10EC80000805005018050050AD06020028220200B9
:10EC900089D701002C22020070B504460020182CF0
:10ECA00028BF70BDDFE804F00C19194F7092B8DE70
:10ECB000F7F5F7F5F4F3F3F3F3F3F2F1F0EFF4F41F
:10ECC000C04944F204030A6923EA0202BE4B1A60F7
:10ECD00000221B1D1A600A7070BDBA480422016927
:10ECE0008A43B9490A6000220B1D1A60A1F1040C85
:10ECF000DCF800C044F204058CEA050C1CF4804FDB
:10ED00004FF4804C16D0C1F800C01A60022C0CBF22
:10ED10004FF4E1614FF47A610470AC4A8068A2FB61
:10ED2000012149094143AA4800220068BDE870401A
:10ED3000FEF730BEC3F800C00A60022C14BF4FF4C7
:10ED4000C871C821E8E79F48042201698A439E49A7
:10ED50000A6000220B1D1A60A1F1040CDCF800C04F
:10ED600044F204058CEA050C1CF4804F4FF4804CEF
:10ED70001DBFC1F800C01A604FF44871C3F800C04D
:10ED800004BF0A60C821C7E78E48042201698A438C
:10ED90008D490A6000220B1D1A60A1F1040CDCF8F9
:10EDA00000C044F204058CEA050C1CF4804F4FF4BB
:10EDB000804C1DBFC1F800C01A604FF47A61C3F8DF
:10EDC00000C004BF0A604FF4C871A5E77D48042263
:10EDD00001698A437C490A6000220B1D1A60A1F177
:10EDE000040CDCF800C044F204058CEA050C1CF4A9
:10EDF000804F4FF4804C19BFC1F800C01A60C3F8AF
:10EE000000C00A60047080684100714800220068F8
:10EE1000BDE87040FEF7BEBD6A480422016922EADF
:10EE20000101694A11600023111D0B60A2F1040C5D
:10EE3000DCF800C044F204058CEA050C1CF4804F99
:10EE40004FF4804C19BFC2F800C00B60C1F800C07D
:10EE50001360047081685E4800220068BDE870405D
:10EE6000FEF798BD574904230A699343564A136035
:10EE700002F1040C0023CCF800304FF48045CCF8AC
:10EE8000005013609BE085E075E066E05BE02AE0FF
:10EE90008DE013E0FFE74F4800684B4A04218143AF
:10EEA0001160111D00F004000860464800228168CE
:10EEB00047480068BDE87040FEF76CBD45480068F3
:10EEC000414A042181431160111D00F004000860D3
:10EED0003C480022806800EB80013D480068BDE8A6
:10EEE0007040FEF757BD3A4D6868FEF7B7FDD4F1A4
:10EEF000110100D058B1334944F204030A691A40A1
:10EF0000314B1A6000221B1D1A600A6170BD2D4C26
:10EF10000422012922610CD9C82011FB00F02B49E1
:10EF20000022A1FB0010A168400941436868FEF778
:10EF300031FD216944F204021140274A1160002189
:10EF4000121F116070BD204A44F2040111600021BB
:10EF5000121D11601B490C7070BD1B4904220A6010
:10EF600000220B1D1A604FF4804CC3F800C00A60E9
:10EF700014490C7070BD14494FF480420A6000229D
:10EF80000B1D1A604FF0040CC3F800C00A600D4955
:10EF90000C7070BD0C4A00211160131D196044F201
:10EFA000040CC3F800C0116006490C7070BD0A4A19
:10EFB00044F2040111600021121F116001490C701C
:10EFC00070BD0000C0200020080500501F85EB51D7
:10EFD00028220200040500500C05005006490A686A
:10EFE00010F0010018BF032022F4403242EA004032
:10EFF00008600020704700007C0700500078022164
:10F00000FFF736BD2DE9F0418EB01D46DDF850808A
:10F0100014460E00074604BF0020FEF729FC002C12
:10F0200004BF0020FEF724FC0022009205929DF808
:10F030000000039240F002008DF8000001200192D0
:10F0400002928DF8360004920692ADF834700C925C
:10F0500028788DF8300068788DF831009DF83200FE
:10F06000099220F00600801C20F019008DF8320073
:10F070000DA807900CA808900A92ADF82440074804
:10F08000ADF82620ADF828400B96434607AA6946FE
:10F090000088A2DF0EB0BDE8F0810000142100203E
:10F0A0002DE9F0033B48017801EB810100EB810081
:10F0B000011D3948D1E9025C05EB450200EB8200F5
:10F0C0000389428944684FF080500669B6B2BCFBA0
:10F0D000F6F706FB17C6002E0CBF0126002603FB21
:10F0E00002434F888C884FF00008391901EB0C025D
:10F0F0002A49C1F810803EB10669B6B2BE422FD08F
:10F100009A4208BF002C2BD0032D29D00569A444B6
:10F11000ADB2BCFBF5F405FB14CC4FEA9C0CC1F876
:10F120000CC0D0F810C01FFA8CFCB2FBFCF40CFB36
:10F13000142CBCF1000F18BF9A4226D0D0F810C092
:10F1400092B29BB21FFA8CFCB3FBFCFC0469A4B224
:10F15000B2FBF4F4A4450DD1981A8008086114E0BC
:10F16000006980B2BCFBF0F04861BDE8F003032009
:10F1700002F06CBB036900699BB280B2B2FBF0FC89
:10F1800000FB1C20181A80080861BDE8F00302206B
:10F1900002F05CBB88280020E42A002078210020AF
:10F1A00070B5DFF878C0049D9CF801401E2C04BFA8
:10F1B000042070BD9CF8006034441E2C28BF1E3C07
:10F1C00004EB84040CEB840420716261D1E900013A
:10F1D000C4E90301E38025819CF801001049401C2B
:10F1E0008CF801000878B0B99CF8000000EB8000B2
:10F1F0000CEB8000C2880A620079012804D0032841
:10F2000018BF042805D006E04FF0010002F01EFBF5
:10F2100001E0FFF745FF002070BD000088280020B6
:10F220007821002038B5194C002204F5177C20788D
:10F2300000EB800004EB800010F8041F50F8083F3A
:10F2400003EB43035CF823C0114B1B6A00938368F4
:10F25000E0472178002001EB810104EB81010222CB
:10F260000871C880C1E90320486108816178491E9E
:10F2700061702178491CC9B221701E2908BF207015
:10F280000020BDE8384002F0E1BA000088280020E4
:10F2900078210020FEF7ECBAF8B51748174C002685
:10F2A00042880838051F038861699A4224BF408854
:10F2B000904207D3012019B18DF8000068468847B5
:10F2C0002E70F8BD287830B10029F9D08DF8006093
:10F2D00068468847F4E76878002814BFA168616829
:10F2E000002207480068FEF755FB00281CBFA169F3
:10F2F0000029E5D08847E3E70C210020A426002060
:10F3000040220200F0B42C482C49436813F0080F47
:10F3100007D023F008024260407851F82000F0BC8A
:10F3200000474269541C4461C26822B10422427001
:10F330000869F0BC0047224A4FF0805692F800C09E
:10F3400036690CEB8C0C02EB8C021569D788B2F88D
:10F3500008C06D1EBC44B6B2AC44BCFBF6F5DFF889
:10F3600058C0AC42DCF810C00FD300BF08BFBCF1DE
:10F37000000F0AD0BCF1000F14D013F0010F09D018
:10F3800003224270C868F0BC0047022242708868BD
:10F39000F0BC004743F0010242600022427008685E
:10F3A000F0BC00471079042802D0F0BCFFF73ABF48
:10F3B000F0BC012002F04ABA782100207822020035
:10F3C000882800200B480C4A416811F0080F06D02D
:10F3D00021F008014160407852F82000004711F008
:10F3E000020F1CBF41F00101416002214170906891
:10F3F0000047000078210020782202002DE9F0412A
:10F40000184C0025207800288CBF0127BDE8F0812A
:10F410006068226900EBC506307807FA00F11142F6
:10F4200018D022EA0101216101F0C6FC01463078C2
:10F43000E36807FA00F21A4001FA00F39A4209D190
:10F440007278012A14BF0122002251407268002AFA
:10F4500018BF9047681CC5B220788542D8D3BDE854
:10F46000F0810000AC210020F0B50E4683B00446C8
:10F4700081786A46274801F0E5FE00281CBF03B0EA
:10F48000F0BD6078244F00EB400007EB8000807AED
:10F4900010F0400F23D1022E21D0012E0CBF1F4DA2
:10F4A0001F4DA0781F49C0EBC00001EB8001002375
:10F4B0001C226846A847A0B1022E04BF03B0F0BDCD
:10F4C0002078194900EB400001EB80001749807A51
:10F4D00051F8202021466846904703B0F0BD144DF6
:10F4E000DFE7022E04BF03B0F0BD60781C2300EB01
:10F4F000400007EB80001A46817A21F040018172BA
:10F5000060780C49C0EBC00001EB80016846A84759
:10F51000D6E7000070210020E02700203915020006
:10F52000511C0200DC260020EC27002048220200AB
:10F5300055160200A02700202DE9F0413A4E0D4655
:10F5400007004FF0050436D00146072206F11000EF
:10F55000FDF712F800284ED00722394606F12C009C
:10F56000FDF70AF800284AD00722394606F148007C
:10F57000FDF702F8002847D00722394606F164005B
:10F58000FCF7FAFF002843D00722394606F1800035
:10F59000FCF7F2FF00283FD00722394606F19C0015
:10F5A000FCF7EAFF78B30722394606F1B800FCF70A
:10F5B000E3FFD0B11CE0308B90421CD0B08E904263
:10F5C0001DD0B6F8500090421ED0B6F86C009042A4
:10F5D0001ED0B6F8880090421ED0B6F8A400904223
:10F5E0001ED0B6F8C000904202D106200024286048
:10F5F0002046BDE8F081002004462860F8E701209D
:10F6000000242860F4E70BE0022000242860EFE7E4
:10F61000032000242860EBE7042000242860E7E7AB
:10F62000052000242860E3E7DC26002010B5100048
:10F6300018BFFEF71DF9002010BD00002DE9F04FA6
:10F640008FB00546FF210020CDE90410FE48007868
:10F65000002804BF0FB0BDE8F08FDFF8F093D9F8B1
:10F660000000002804BF0FB0BDE8F08F8DF8011036
:10F6700000202A1D8DF8021002928DF803102C2212
:10F68000F34CADF80C208DF800002A88E17A94F84C
:10F690000A8007468246102A1CBFAA8818F0020F6B
:10F6A00009D0A2F57F43FF3B19BF238993428DF810
:10F6B00002108DF801002A88DFF890C34FF0130381
:10F6C000ACF588769CF809B0192A00F0678110DC47
:10F6D000DFF880B3102A24D0112A76D0132A00F044
:10F6E000E780142A1CBF0FB0BDE8F08FFF296BD153
:10F6F000A8E0D648D8491A2A807A00F0E0811E2A6C
:10F7000008BF8DF8043000F00082522A1CBF0FB0F1
:10F71000BDE8F08F51F82010684688470FB0BDE86B
:10F72000F08F18F0010F04BF0FB0BDE8F08F022179
:10F73000A17211218DF804108DF80100A888208194
:10F74000A8682060A889A080A87BA071E87D2646D3
:10F7500010F0010F07D0C14901EB50000078FF28DD
:10F7600018BF049009E04FF6FF7204A905F10800E4
:10F77000FFF7E2FE002840F0C88104986D46C1B250
:10F78000F172B07A06AA40F00800B0728DF802104B
:10F79000B34801F057FD002840F0B7819DF8010003
:10F7A0001C23C0EBC001AF481A4600EB810006A93C
:10F7B00001F008FE99F80A0029465BF8202006A807
:10F7C000904700F0A2B900E067E0834628F002000D
:10F7D000A07210F0080F07D010F0800F2BD000217E
:10F7E0006846FFF741FE26E09DF80250FF2D22D02B
:10F7F000C5EBC50006EB800606F11100FDF76AFDBA
:10F80000C6F800B0C6F804B0C6F808B0C6F80CB028
:10F81000FF203074B0764FF6FF713183012101FA79
:10F8200005F289494B6823EA02024A608E4941F891
:10F8300025B08DF802001021A17212208DF804006D
:10F8400000F063B92A8A04A90020FFF775FE08BBFF
:10F8500004986F46C1B2E172A07A06AA40F008008F
:10F86000A0728DF802107E4801F0ECFC90B99DF872
:10F8700001001C23C0EBC0017A481A4600EB81004E
:10F8800006A901F09FFD99F80A0039465BF820208F
:10F8900006A89047E07AFF2801D0724805903246CA
:10F8A000A8880023059986DF0FB0BDE8F08F00BF60
:10F8B0008DF8043048F00402A272FF2910D042F003
:10F8C0004001A172162000238DF80400A8881A4672
:10F8D00085217FDF002800F018810FB0BDE8F08F90
:10F8E00004AAA44648F243035FF00001C1EBC1083B
:10F8F00006EB880898F81A80B8F1FF0F26D0491C4B
:10F900000729F3D34FEA03070AEB4A0104EB81010D
:10F910000A90C97ACAEBCA02C1EBC10106EB8101A8
:10F92000CDE90B104F490D9001EB8201CDE9061096
:10F9300008900990A88806AB09F1040200217FDF36
:10F9400000281CBF0FB0BDE8F08FDEE09CF800304F
:10F95000022BC1EBC10306EB830304BF4FF0FE0C87
:10F9600083F81AC00FD04FF0FD0883F81A80DCF836
:10F970000080C3F81080BCF80480A3F814809CF8C1
:10F9800006C083F816C011700AEB4A02049904EB12
:10F9900082028DF80210D172B6E700BF2BF001028F
:10F9A00089F8092028F00402A27214238DF804308B
:10F9B0002B7A8BB312F0400F70D183460F4606AA04
:10F9C000274801F03FFC28BB742106A801F06CFC1D
:10F9D00000BBC7EBC70006EB800606F11100FDF780
:10F9E00079FCC6F800B0C6F804B0C6F808B0C6F88E
:10F9F0000CB0FF203074B0764FF6FF7030830120DA
:10FA000000FA07F11048426822EA010141601648F5
:10FA100040F827B02F7A78E0FFE7687A10F0040FFB
:10FA20001CBF9DF80230FF2B6FD042F00802A2727B
:10FA30006A7B204612F0020F1CD0C3EBC30206EB18
:10FA4000820292F81AC011E060210020EC27002009
:10FA5000E0270020582202006822020068210020CE
:10FA600070210020A0270020C02600202CF0010CCF
:10FA700082F81AC0FF2948D0017802290FD0C3EBC1
:10FA8000C30106EB810102680A6182888A8280795B
:10FA90008875887E20F0020088760BE035E02C48DF
:10FAA000418AC3EBC30006EB80000183817E21F015
:10FAB0000101817601216846FFF7D6FC25E02A7A0C
:10FAC0000123B3EB121F04BF02F00F02012A12D16F
:10FAD00018F0080F0FD01F484FF01A01FCF758FE1E
:10FAE00016208DF8040048F06000A0724BF0020070
:10FAF00089F8090009E048F08002A27215228DF809
:10FB0000042051F8201068468847D9F8003068462C
:10FB100001A93A4698479DF8040012281CBF0FB06F
:10FB2000BDE8F08F0AEB4A0004EB8000817A0129DE
:10FB300004BF0FB0BDE8F08F012181724FF6FF7155
:10FB40000181FF21C172FDF7C9FB0FB0BDE8F08F45
:10FB5000A0270020C42700202DE9F14F84B004988D
:10FB6000002802BF48F20E0005B0BDE8F08F002665
:10FB700044484FF0010A4FF6FF7B066046728672DA
:10FB80000C384FF0FF0880F80AA0A0F808B080F801
:10FB90000B80FDF7A3FB3C483C4F0024C0F8FC6001
:10FBA000C0F80061C0F80461C0F80861C0F80C61D9
:10FBB000C0F81061C0F81461C0F8186100F11C09A8
:10FBC000C0F81C61C4EBC40009EB800505F111000D
:10FBD000FDF780FB2E606E60AE60EE6085F81080F1
:10FBE00085F81A80A5F818B079680AFA04F021EAB5
:10FBF00000007860244840F82460254800F804801C
:10FC0000641C072CDED37420ADF804000720ADF887
:10FC10000600204800902049684601F01FFC00289B
:10FC20001CBF05B0BDE8F08F87F800A004980078ED
:10FC3000002808BF00240BD0BDF80400BDF8061052
:10FC4000484381B2144801F02FFB05B0BDE8F08FA6
:10FC5000A1B202AA104801F0F5FA48B9C4EBC400F9
:10FC600009EB800000231C2202A901F0ABFB18B1B4
:10FC70003E7005B0BDE8F08F641C072CE8D305B0DA
:10FC8000BDE8F08FEC270020C02600206021002076
:10FC9000682100209DFC0100702100202DE9F04F1B
:10FCA00082466E4893B01E460068DDF87090174695
:10FCB0008846002804BF13B0BDE8F08FB9F1740F77
:10FCC00084BF13B0BDE8F08FFF208DF80100002441
:10FCD0008DF802008DF803008DF800408DF8044087
:10FCE000CDE905962546A9B210AA5D4801F0AAFA09
:10FCF00028B9082210A95046FCF73EFC08B36D1C39
:10FD0000072DF0D39DF80200FF2804BF13B0BDE813
:10FD1000F08F202204ABB8F1030F15D0DFF8449127
:10FD2000DFF844A1A6EB090C55460021ECFB0A5173
:10FD3000C9084FF0010C072921D24C490293A7B9F9
:10FD40000BE08DF80250DDE7B9F1740F1ABF4020C7
:10FD50008DF804008DF8042078E04D680CFA00F46A
:10FD60002C4204BF13B0BDE8F08F0CFA00F0D1F8BC
:10FD700004C02CEA000048608DF8042051E03C4D9E
:10FD8000DFF8E4E0A6EB050B0021EBFB0AE1C90874
:10FD90001FD005F11C01374D721AA5FB0252D50880
:10FDA00001F1240229D040218DF8041032498E42FD
:10FDB0004CD0A2F5907151F82010B1421CBF13B085
:10FDC000BDE8F08F0293D17A884208BF8DF80140D8
:10FDD00027E02A4802930895CDE90C408DF80140B0
:10FDE0009DF802008DF80420C0EBC00009EB8000F4
:10FDF000099008A8CDE9052013E030208DF80140D6
:10FE00008DF804008DF803C0907A10F0020F08D12D
:10FE10000C604C608C60CC600C614C618C61CC617E
:10FE20000C629DF80400B8F1020F0CBF40F0010015
:10FE300040F002008DF804000293084B684601A9C7
:10FE40001B683A46984713B0BDE8F08F9DF8040050
:10FE500040F003008DF80400EEE70000EC270020DE
:10FE600070210020DC2600204992244960210020D6
:10FE7000A0270020398EE33844220200F827002012
:10FE800070B5064616480D460078002804BF48F2B3
:10FE9000080070BD002E1DBF002D2868002848F204
:10FEA0000E0008BF70BD0F4C216800291CBF48F22E
:10FEB000040070BD691D20600B48FDF714FA287915
:10FEC000A072207A20F0050040F002002072E07954
:10FED00020F0040040F00300E0710020307070BD9D
:10FEE00060210020EC270020F027002070B53D4D58
:10FEF0004FF0805629462878D1F804C03A492CF0B2
:10FF0000080301280A7802EB820201EB820208D082
:10FF1000022860D0032818BF70BD1CF0080F03D161
:10FF200034E01CF0080F04D06B60BDE8704001F0B5
:10FF30008DBC101DD288AB8BD21A1204120C4280D9
:10FF40003CD0087800EB800001EB8000041D306994
:10FF500080B2824210D9306980B2111A3069A38808
:10FF6000C0F38D02E068184423690844194400F086
:10FF70003FF8306980B207E0A188E0689208084441
:10FF8000216900F035F86088E86170BD69694B1C33
:10FF90006B61D2F810C03469D6881189ACF1010CBC
:10FFA0003144A4B26144B1FBF4F18B420FD304BFDE
:10FFB000296900290BD01079042803D0BDE87040CE
:10FFC000FFF730B9BDE87040012001F03FBCBDE84B
:10FFD000704001F03BBC0548697850F82100BDE84D
:10FFE0007040004778210020882800208C220200E1
:10FFF00038B529DF002808BF38BD124B11281BD0A7
:020000040002F8
:1000000002461148114C017801EB810100EB810C93
:100010001CF8041FDCF8080000EB400054F82040F6
:10002000186A00900CF10800DCF81030A047BDE819
:100030003840042001F00ABC586840F008005860BD
:1000400038BD00007821002088280020E42A002004
:10005000002804BF032070470249496D0160002059
:1000600070470000542B002000207047002070478C
:10007000002070472DE9F00F044640782E4900EB30
:10008000C00C01EB8C034FF000085A6800EB4000F5
:1000900001F124064746454606EB8000002A1CBFB6
:1000A00090F80A9019F0800F07D019F0400F04D192
:1000B00051F82C5003F1080897B200892B463A46B4
:1000C0004146A9DF0B282BD0002818BF48F2410079
:1000D000012D1CBFBDE8F00F704760784FF6FF722E
:1000E00000EB400006EB80000C210089A7DF002810
:1000F00004BFBDE8F00F7047A0F54051023918BFAA
:10010000082808D0A0F5405104391FBF112800204D
:10011000BDE8F00F704748F24100BDE8F00F7047AE
:1001200060784FF0010300EB400006EB80003A4698
:1001300000894146A9DFD0E7BC27002070B50C46F6
:10014000014660780B4D00EBC00005EB80003823C2
:10015000242201F037F9002818BF70BD617801EB47
:10016000C10105EB81014A68B2F1FF3F04BF0022E3
:100170004A6070BDBC2700202DE9F04188B0804660
:1001800003261A20ADF81C0048782E4F00EB4000E3
:1001900007EB80000C460089334607AA6946AADFB0
:1001A00000284BD16078A7F1240500EBC00005EBD7
:1001B0008000BDF81C2069460830FCF7DDF90028F6
:1001C000607825D000EBC00005EB8001496800296C
:1001D0000CBF1D4F1D4F45F820606078BDF81C20F6
:1001E00000EBC00005EB800069464260607800EBE0
:1001F000C00005EB80000830FCF790FA60783823E7
:1002000000EBC00005EB800124224046B84715E012
:1002100000EB400107EB8101897A11F0020F0DD14B
:1002200000EBC00005EB80000021016041608160AF
:10023000C160016141618161C161016208B000205A
:10024000BDE8F081E02700203915020055160200B4
:100250002DE9F00F044640782E4900EBC00C01EB6D
:100260008C034FF000085A6800EB400001F12406AF
:100270004746454606EB8000002A1CBF90F80A90CE
:1002800019F0800F07D019F0400F04D151F82C500D
:1002900003F1080897B200892B463A464146A9DF88
:1002A0000B282BD0002818BF48F24100012D1CBF9D
:1002B000BDE8F00F704760784FF6FF7200EB40002A
:1002C00006EB80000C210089A7DF002804BFBDE8F1
:1002D000F00F7047A0F54051023918BF082808D028
:1002E000A0F5405104391FBF11280020BDE8F00FD0
:1002F000704748F24100BDE8F00F704760784FF05A
:10030000010300EB400006EB80003A4600894146BD
:10031000A9DFD0E7BC27002070B50C460146607805
:100320000B4D00EBC00005EB80003823242201F0C8
:1003300049F8002818BF70BD617801EBC10105EBD9
:1003400081014A68B2F1FF3F04BF00224A6070BDDC
:10035000BC2700202DE9F04389B080461A20ADF873
:100360001C0048782F4F00EB400007EB80000D4643
:100370004FF0030900894B4607AA6946AADF002609
:1003800000284AD16878A7F1240400EBC00004EBF0
:100390008000BDF81C2069460830FCF7EDF8002805
:1003A000687825D000EBC00104EB8100406800288C
:1003B0000CBF1D4F1D4F44F821906878BDF81C20DC
:1003C00000EBC00004EB800069464260687800EBF7
:1003D000C00004EB80000830FCF7A0F968783823EF
:1003E00000EBC00004EB800124224046B84714E033
:1003F00000EB400107EB8101897A11F0020F0CD16B
:1004000000EBC00004EB80010E604E608E60CE6099
:100410000E614E618E61CE610E6209B03046BDE85C
:10042000F0830000E0270020391502005516020075
:100430002DE9F0410746134E012000FA07F5306818
:10044000FDF70CFB002818BFBDE8F0810E4C2069B9
:1004500028421EBFA8432061BDE8F081384600F065
:10046000ABFC0028E06814BF2843A843E060206983
:1004700028432061A1683068BDE8F0410022FDF703
:1004800089BA0000AC220200AC2100202DE9F00363
:100490002B482C49D0F804C01CF0080F08D02CF0D1
:1004A00008024260407851F82000BDE8F0030047A0
:1004B000254A4FF0805713783D6903EB830302EB25
:1004C00083031C69DE881A89641E3244ADB2161992
:1004D000B6FBF5F81A4D046900226D6954B1454523
:1004E00008D14CF001034360C26042700868BDE867
:1004F000F0030047D7F810C01FFA8CFCB6FBFCFCD9
:10050000654509D308BF002C06D064B103224270B0
:10051000C868BDE8F0030047C260022242708868E4
:10052000BDE8F00300471879042803D0BDE8F003C4
:10053000FEF778BEBDE8F003012001F087B90000A6
:10054000782100207822020088280020264810B553
:10055000437802784FEA136C42EA03248378C27826
:1005600044EA03444CEA13434FEA122C43EA0C0CCE
:10057000037900214CEA030390F805C044EA0262C3
:1005800043EA0C2C8379A0F12C044CEA034390F845
:1005900007C0017041708170C1700171417181713A
:1005A000C171A160E06843EA0C63401CE0600F4841
:1005B000FEF75AF8002818BF082808D0A0F54051C7
:1005C00004391EBF43F201418842FDF751F9084941
:1005D000E068A1FB00214908A1EB8101081818BFC0
:1005E0000120207010BD0000AC200020A0240020BD
:1005F000ABAAAAAA2DE9F04104464079069F4FF024
:100600000008002818BF4FF0040894F822000028C2
:1006100018BF48F002080020D2F1FF0CD1B2984177
:1006200024BF7970022610D27970110AB970110CAA
:10063000F970110E39717B71190AB971190CF971C0
:10064000190E48F0010839720926B4F84C00002848
:1006500018BF48F010084FF000051CDD06F102023B
:10066000142A0BD980B2401B420004EB450000F174
:10067000240104F12400FCF70FF80CE004EB450022
:10068000B919808C0870000A4870B4F84C006D1CD1
:10069000D6B2A842E2DCB4F84C00401BA4F84C00EF
:1006A00087F800803046BDE8F08100000448017BF7
:1006B00011F0010F08BF70470078FEF7EDBA000097
:1006C000C02000209CB0012047DF00F0B9FB0028CB
:1006D00018BFFDF7CDF8FE4A0021FE4800F0C8FB28
:1006E000041E18BFFDF7C4F80121FA4800F0FEFB14
:1006F000F9480125C0F84453200018BFFDF7B8F8A9
:10070000F44800F0A9FB0023F44A05211846FDF740
:10071000D3F8002818BFFDF7ABF8F14A0121F148E2
:10072000FDF7B4F8002818BFFDF7A2F8EE4A012142
:10073000EE48FDF7ABF8002818BFFDF799F8EC4A32
:100740000121EC48FDF7A2F8002818BFFDF790F84A
:10075000E94A0121E948FDF799F8002818BFFDF79B
:1007600087F8E74A40F6CD410320FEF739FA002822
:1007700018BFFDF77DF869460020FEF7BFF8002896
:1007800018BFFDF775F89DF8000002280CBF012482
:100790000024D44E0023482230690690D94906A887
:1007A00001F02AF9002818BFFDF762F801AA01211B
:1007B000002001F00BF9002818BFFDF759F8D248C6
:1007C00001F006F8002818BFFDF752F801A801F063
:1007D000F3F8002818BFFDF74BF8CC4801F0E2F819
:1007E000002818BFFDF744F8C94801F043F9002874
:1007F00018BFFDF73DF88DF8104000F09FFD002870
:1008000018BFFDF735F804A8FFF7A6F9002818BFB0
:10081000FDF72EF80DF10500FCF758FD9DF80500D9
:10082000694620F07E0040F00100303020F080006A
:100830008DF8050007208DF8060010208DF80700C0
:10084000B44800908DF80450B348FFF719FB002816
:1008500018BFFDF70DF89DF80C00B0A120F00F00B7
:10086000401C20F0F00010308DF80C00102203A87E
:100870007CDF002818BFFCF7FBFF40F2413078DF37
:10088000002818BFFCF7F4FF002400940627019409
:10089000ADF80070ADF804404FF4C878ADF80270C0
:1008A000ADF8068068467ADF002818BFFCF7E0FF45
:1008B00002940C9402208DF808008DF80A508DF8EF
:1008C0000B700594069411940A940B94032798488E
:1008D000169404940F94ADF818700790039409943B
:1008E00010944FF41670009408940E94CDE914807F
:1008F0000D9413941294189417948DF84C508D4BBA
:1009000010AA002102A8FDF755F9002818BFFCF72E
:10091000AFFF8DF86C701BA8139412909DF84C00DB
:10092000149420F00F00401C20F0F00010308DF8DF
:100930004C009DF84D00119420F0FF008DF84D0003
:100940009DF84E00109420F0FF008DF84E009DF8A9
:100950004F008DF8445020F00F00401C20F0F000B4
:1009600010308DF84F009DF8500010A920F0FF00C6
:100970008DF850007048FDF7A8FE002818BFFCF75E
:1009800077FF159418949DF86100199420F00F00DA
:10099000401C20F0F00010308DF861009DF86200DE
:1009A000169420F00F00401C20F0F00010308DF85D
:1009B00062009DF863004FF0640820F0FF008DF89E
:1009C00063009DF86400179420F00F00401C20F095
:1009D000F00010308DF864008DF858508DF860806C
:1009E00015A95648FDF7B0FB002818BFFCF740FFDB
:1009F000009401940294039404940594069407943B
:100A0000089409940A940B940C940D940E944CA1A0
:100A100068460F94FDF762FF9DF83C0020F00F0040
:100A2000401C20F0F00010308DF83C009DF83D0097
:100A300020F0FF008DF83D006846FDF7FFFC002820
:100A400018BFFCF715FF512141488560C0E9001827
:100A5000057301463F4800F0CFFE3F488C210160FE
:100A60004FF4967141600A218160047301463B484E
:100A700000F0C2FE3A484FF4FA71C0F80080C0E9B5
:100A8000011504730146374800F0B6FE4FF42030DC
:100A900001904FF47020029027480394009404942E
:100AA0008DF80C708089ADF80E002F4805902F4806
:100AB00006908DF810406846FDF73AFC002818BFF4
:100AC000FCF7D6FE00224FF48031306850E0000081
:100AD0000D17020018220200004002407822002078
:100AE000FDDA0100042202004D0502000822020086
:100AF000DD1602000C220200E117020010220200A3
:100B00002DEB010040240020E81F002009E6010031
:100B1000811C02002DF6010082200020485045482B
:100B20002054657374205369676E616C0000000087
:100B3000B4200020BF110200A0240020882400203F
:100B400047656F7267696120546563680000000043
:100B5000F024002094200020002500209C2000206C
:100B600010250020A4200020FD11020095F20100B4
:100B7000FCF710FF002818BFFCF77AFE00224FF4A4
:100B800083717068FCF706FF002818BFFCF770FE41
:100B9000002242F26661B068FCF7FCFE002818BF34
:100BA000FCF766FE00224FF42031F068FCF7F2FEFD
:100BB000002818BFFCF75CFE0320FDF75DF910B9B3
:100BC00048DF0028FCD0FCF753FEF9E7002070470F
:100BD00000207047002070474907090E0028BDBF5C
:100BE00000F00F0202F1E02282F8141D00F1E02271
:100BF000A8BF82F8001400F01F02012191404009B3
:100C0000800000F1E020C0F88012C0F800117047A9
:100C1000F8B42D4B00251C184FF0010C94F930202E
:100C2000082A24DB02EB030191F848104FEA9111E6
:100C3000032902D0012906D007E0244909680CFAEB
:100C400000F2114201D1022100E00321800000F1F5
:100C5000A040D0F8002722F44032C0F80027D0F896
:100C6000002742EA0141C0F80017F8BC704724BFD2
:100C7000F8BC70474FF48070960006F1804606F588
:100C8000C04600EB8200D6F8107580B247F001072D
:100C9000C6F8107500F1804000F5C040056000689E
:100CA0000090002904BFF8BC704794F9300053F855
:100CB0002000002804BFF8BC70470CFA02F0044979
:100CC000C1F80403F8BC704710280020100500503C
:100CD000006000402DE9F001DFF8D8C000250CEBE2
:100CE0000003012493F9303014EBE37318BF082597
:100CF00011D1CE78002E19BF0023082708230C2716
:100D0000BB4207D25CF82340B4F1FF3F07D05B1C25
:100D1000BB42F7D304252846BDE8F00170470CEB31
:100D200000085CB288F830404CF82320002E04BF45
:100D30000CEB030282F84800B4F1FF3FEAD08B7855
:100D4000820002F1A042002B03BF4B78002646EA46
:100D50008303D2F8003718BF23F00203C2F800372C
:100D6000CA78E2B10A78A10001F1804101F5C041E1
:100D7000D1F8103523F4F85323F44033C1F810357B
:100D80004FF4F85303EA00204FF4403303EA0242E1
:100D90001043D1F810251043C1F81005BBE70CEB48
:100DA0000400097890F8482042EA811180F8481040
:100DB000B1E70000102800200349096821FA00F07B
:100DC00000F00100704700001005005010B5154CF0
:100DD00094F8540000281CBF082010BD4FF0FF32CB
:100DE000202104F13000FBF7CBFC0020B0F1010121
:100DF00044F82010082824BF221882F84810401C0C
:100E0000C0B20C28F4D306210846FFF7E5FE0649D8
:100E10004FF00040C1F80403012084F85400002082
:100E200010BD00001028002000600040034890F82A
:100E30005400002818BF012070470000102800202F
:100E40000448017800291CBF8520704701210170EA
:100E5000002070479C210020016801220A6040792F
:100E6000024A00EB4000022111547047A4210020E7
:100E700070B50D460446002A04BF072070BD607996
:100E8000174941F820202DB96079164900EB400040
:100E900001EB40056079144E00EB4000305C002807
:100EA0001CBF082070BDA97894F90400FFF794FED8
:100EB00020682988C0F808156179287901EB41017B
:100EC000314448706179E87801EB41013144887020
:100ED0006179012001EB41017054002070BD0000D8
:100EE000A8210020A4220200A4210020036881B0D0
:100EF0004FF0000C0122C3F800C1D3F80031009379
:100F00000368C3F8442300291CBF0068C0F8042309
:100F100001B0704770B41B4A0223C2F808331A4B61
:100F20001A4C4FF0000C93F82760251D012E0FD0AE
:100F30000226C2F80463012683F8276058601981ED
:100F4000C3F80CC020602960C2F800C1166016E02A
:100F5000DE68002E04BFD860998205D00220C2F856
:100F6000040370BC11207047D2F80031002BFBD075
:100F7000C2F800C1206029600220C2F8040370BCDE
:100F80000020704700700040FC2A00202C760040B2
:100F900070B5134A05460C4692F82700012804BF95
:100FA000112070BD02EB4500817D21B992F8281017
:100FB000491C82F82810A1798175E179C175214613
:100FC000284600F0CDF82A0102F1804202F5E04205
:100FD000A079E179C2F81415C2F81005002070BD9F
:100FE000FC2A002070B5184A92F82630002B1CBF4E
:100FF000082070BD002904BF072070BD002808BF6D
:1010000012481160124B017819601B1D417819605C
:10101000012582F82650002182F8271082F8281036
:101020000C4C11616FF00042C4F80823C4F804119D
:10103000817807208834FFF7CFFD0220C4F87C02B6
:1010400005480560002070BDFC2A0020A022020097
:10105000F075004000700040007500400549002018
:1010600091F82710002904BF112070470121024A7E
:1010700051607047FC2A0020007000402DE9F00309
:1010800080204FF0E0214FF0010C0022C1F88001D8
:101090002F4BC3F808C042F2107000BFD3F81411F0
:1010A00019B9002818BF401EF8D12A4802606FF015
:1010B0000040C3F808032849284C002081F8272065
:1010C0005FEA045701EB4005AE7D002E1CBF91F88E
:1010D0002760012E32D091F82860A6F1010681F830
:1010E0002860AA75EA754FEA001505F1804606F5F5
:1010F000E046C6F81425C6F8102540F2FF75C4EA8C
:101100000545C6F81C554FF080054FEA40060CEB2C
:101110004008D1F8109005FA06F527FA08F829EAF0
:101120000808C3F808534FF0400505FA06F527FAFA
:1011300006F628EA06060E61C3F8085300F101001E
:10114000C0B20828BED381F82620BDE8F00370475E
:101150000070004000750040FC2A002000F8FFFFEE
:101160000A784B784FF0300C02F003020CEA0313BC
:101170001A438B784FF4E06C0CEA03231A43CB78C4
:101180004FF4805C0CEA03331A430B794FF4E02CE4
:101190000CEA03431A434B794FF4801C0CEA0353C7
:1011A0001A43000100F1804000F5E040C0F8182526
:1011B0008A79C979C0F81415C0F81025704710B5A0
:1011C00038B1032818BF10BD0220FDF7FBFC88B919
:1011D00010BD0020FDF7F6FC002818BFFCF748FB07
:1011E000FDF73CFC002818BFFCF742FB3CDF002861
:1011F00008BF10BDBDE81040FCF73ABB00780028DE
:1012000018BF70473B210448808876DF002808BF5C
:101210007047FCF72DBB00008020002007490979AA
:1012200011F0040F04BF08207047002804BF0E20EF
:1012300070470349497801600020704778210020F9
:1012400088280020164B30B41B7913F0040F02BF1E
:10125000082030BC7047002811BF002A0E2030BC87
:1012600070470368022B17D20E4C03EB430C54F863
:101270002C508DB1456804EB8C00B0F808C0446870
:10128000408901FB0C5100FB0C40884281BFC2E940
:101290000031002030BC7047072030BC7047000090
:1012A00078210020E42A0020224A127912F0040F4B
:1012B00004BF08207047002804BF0E207047026852
:1012C000022A07D21C4B02EB420253F822C0BCF1A7
:1012D000000F01D107207047F8B503EB8202548953
:1012E0001389D2F804C0426804FB03C5954216D99D
:1012F00012F0030F1CBF1020F8BDA2EB0C05B5FBCC
:10130000F3F603FB165555B9B1FBF3F503FB1515C1
:101310002DB921B103FB04C30A449A4201D9072025
:10132000F8BD0B460022014603200092FDF738FF6E
:10133000F8BD000078210020E42A00201E4B002088
:101340000146187058704FF0020C00BF01EB81028B
:1013500003EB8202491C1071D080C2E903C05061C6
:1013600010811E29F2D315494FF01022488052698E
:101370004FF08053B2F1FF3F08BF5A6905D0D3F850
:1013800010C01FFA8CFCB2FBFCF2A2F1030C1A692C
:1013900092B20CFB02F28A60094A48611060108127
:1013A0005081D0609082D08208708861C86104202A
:1013B0004860002070470000882800207821002025
:1013C000E42A0020F8B50746224816460D46007963
:1013D00010F0040F04BF0820F8BD002D12BF002F2D
:1013E0000E20F8BD2868022816D21B4C00EB4000E6
:1013F00054F8201081B104EB8000B0F80AC00189D4
:10140000426868680CFB0122824205D926B1B142CC
:1014100024BFF218914201D20720F8BD47EA030128
:1014200011F0030F0EBF10F0030F1020F8BDC1180C
:1014300032463846FBF7EBF800962868002200EBAE
:1014400040003B4654F820C002212846E0470020D7
:10145000F8BD000078210020E42A0020344B1A79DE
:1014600012F0040F04BF0820704700281DBF002998
:101470000268002A0E2008BF7047F0B44FF0805277
:10148000D2F810C084881FFA8CFCA44528BF102C09
:1014900020D3C588F5B14FF0102CDCF814C0BCF196
:1014A000FF3F08BFD2F814C003D01669B6B2BCFB28
:1014B000F6FCACF10106D2F810C01FFA8CFC06FB5A
:1014C0000CF6D3F808C005FB04C5AE4228BF14F0E3
:1014D000030F02D0F0BC072070475C88022C02BFCB
:1014E0000420F0BC7047C1E9004C124D04EB4406E7
:1014F00005EB8601C1F804C0076845F826708588A9
:101500000D81C5884D811169858889B2C088491EC1
:1015100005FB0011106980B291FBF0F0116989B2EE
:1015200000FB01C09860601C5880F0BC0020704730
:1015300078210020E42A002038B5DFF87CC09CF830
:1015400004C01CF0040F04BF082038BD002912BFDE
:1015500000280E2038BDD0F800C0BCF1020F18D210
:10156000164C0CEB4C0C54F82C5095B104EB8C0C35
:10157000BCF80A50DCF80440BCF808C005FB0C4578
:101580004468A54205D922B1944524BFD518AC457D
:1015900001D2072038BD41EA030C1CF0030F0EBF37
:1015A00014F0030F102038BD009313460A4601467D
:1015B0000120FDF7F5FD38BD78210020E42A002048
:1015C00038B5204B01461878002814BF042838BDD0
:1015D000022906D0032918BF38BD197911F0080F68
:1015E00003D0BDE83840FEF781BC9969491C996178
:1015F000B1F57A7F0DD0022803D0BDE8384000F065
:1016000025B95878104951F8200001B0BDE83040A4
:1016100000470E480E4C1B6A01780D2201EB810138
:1016200000EB810010F8041F50F808CF0CEB4C0CB5
:1016300054F82CC000938368E047BDE8384004208C
:1016400000F004B9782100207822020088280020C8
:10165000E42A002038B5DFF87CC09CF804C01CF0F8
:10166000040F04BF082038BD002912BF00280E2037
:1016700038BDD0F800C0BCF1020F18D2164C0CEBEC
:101680004C0C54F82C5095B104EB8C0CBCF80A505F
:10169000DCF80440BCF808C005FB0C454468A542D2
:1016A00005D922B1944524BFD518AC4501D20720F5
:1016B00038BD41EA030C1CF0030F0EBF14F0030FFA
:1016C000102038BD009313460A4601460420FDF75A
:1016D00067FD38BD78210020E42A0020074810B5B6
:1016E0000078002808BF10BD0549064800F08FF8B3
:1016F00081B2BDE810400448FDF7D2B88020002038
:1017000010250020A4200020A024002000B51549A9
:1017100083B0D1E90701CDE9000113490020FFF7AB
:1017200061FC002818BFFCF7A3F869460020FFF70A
:101730002FFC002818BFFCF79BF801210B48FFF78E
:10174000E9FB002818BFFCF793F801210848FFF7D0
:10175000E1FB002818BFFCF78BF803B05DF804EB41
:10176000FFF77CBC042202007517020090200020C5
:101770009220002010B504460078C0B901216068AD
:10178000FFF7C8FB002818BFFCF772F86068B0F9D3
:101790000000C11700EB917082080B4800F12C0C7F
:1017A000816801F00703491C0CF803208160FFF7F2
:1017B00065FC06490220C1F808034FF0E0218020B3
:1017C000C1F8800210BD00008020002000700040A1
:1017D00081B002490091002001B0704780200020B4
:1017E0000348417881F0010141700248FDF773B868
:1017F00080200020A02400200A7B002A14BF496812
:101800000968016014BF002101210171704790F83F
:1018100004C08B680268BCF1000F0AD04968A1EBD4
:10182000020C9C459ABF01600021D1180AD90160C1
:1018300009E00968A2EB010C9C458EBFD11A01603A
:101840000121F4D80171006870470000F8B5514CCF
:10185000514D2070297801EB810105EB810148B3DE
:101860004FF0805601283ED002285DD0032818BFD3
:10187000F8BD606928DF002808BFF8BD11287BD0BB
:1018800002462878454B00EB800005EB800C1CF8E5
:10189000041FDCF8080000EB400053F82050206AD9
:1018A00000900CF10800DCF81030A847BDE8F840C3
:1018B0000420CBE70020A061E0616878002808BF21
:1018C000F8BD081DC98821620078012807D00328C7
:1018D0001CBF0428F8BDBDE8F840FDF7E1BBBDE83A
:1018E000F8400120B2E730690D1DC98880B28842F6
:1018F00010D2306980B2091A3069AB88C0F38D020A
:10190000E86818442B6908441944FEF771FB3069F4
:1019100080B207E0AA88E86810448A082969FEF7BF
:1019200067FB6888E061F8BD606820F001026260D2
:10193000086933699BB2B0FBF3F36361D6F810C05A
:10194000C988401E1FFA8CFC0844B0FBFCF083429F
:1019500014BF22F0020042F0020060602079E168CA
:1019600000F0020001430E4807D0002161700068BA
:1019700001B0BDE8F040004706E0022161708068D8
:1019800001B0BDE8F0400047606840F008006060CA
:10199000F8BD00007821002088280020E42A0020DB
:1019A00078220200002804BF0E2070470149C86059
:1019B00000207047E021002082B00349019100918E
:1019C000694660DF02B0704780200020002313606A
:1019D00053609360D3604FF0010C1361A2F800C014
:1019E000137311725072002818BF82F80AC00020C9
:1019F0007047FBF72BBF000011B111F0030F01D0AE
:101A00000720704730B4174CA160628016496360AC
:101A100010DF00281CBF30BC7047012020708105FA
:101A2000124890F800044009082817D2002818BF6F
:101A3000012813D0042818BF05280FD00C4882684D
:101A4000002A04BF4FF0E020C0F8001103D0016865
:101A500041F48001016030BC0020704730BC42F28C
:101A600002007047E0210020F319020016E000E0B8
:101A7000AC2B0020002804BF0E20704701490861EC
:101A800000207047E021002038B5144C606928DF41
:101A9000002808BF38BD11281BD002461048114B42
:101AA000017801EB810100EB810C1CF8041FDCF8CC
:101AB000080000EB400053F82050206A00900CF121
:101AC0000800DCF81030A847BDE838400420FFF7D4
:101AD000BDBE606840F00800606038BD782100201D
:101AE00088280020E42A00204FF0102041694FF0A0
:101AF0008050B1F1FF3F08BF416903D0026992B243
:101B0000B1FBF2F14A1E0169006989B25143044AEE
:101B100080B25369D2685B1E5843FEF769BA000071
:101B2000782100201548017801EB810100EB81004C
:101B30004FF0805102690B69B0F806C000899BB272
:101B400060441044B0FBF3F203FB12034FF0102289
:101B50005269B2F1FF3F08BF4A6905D0D1F810C001
:101B60001FFA8CFCB2FBFCF20969521E89B202FB1F
:101B70000131034A1269FEF73BBA000088280020B1
:101B8000782100204FF0102041694FF08050B1F1D2
:101B9000FF3F08BF416903D0026992B2B1FBF2F185
:101BA0004A1E0169006989B2514380B2B1FBF0F06D
:101BB00028DF002808BF7047124B112804D158684D
:101BC00040F008005860704738B502460E480F4C88
:101BD000017801EB810100EB810C1CF8041FDCF89B
:101BE000080000EB400054F82040186A00900CF107
:101BF0000800DCF81030A047BDE838400420FFF7AB
:101C000025BE00007821002088280020E42A00203A
:101C10004FF080500169C1F38D0201690B4B89B20D
:101C20005B6959434FF010235B69B3F1FF3F08BF75
:101C3000436905D0D0F810C01FFA8CFCB3FBFCF34D
:101C400000695B1E80B25843FEF7D2B978210020AC
:101C50000020704708480949426812F0080F06D072
:101C600022F008024260407851F82000004701222B
:101C70004270486800470000782100207822020066
:101C800010B50446FFF79CFC2046BDE81040FCF769
:101C9000ADB800000D48416811F0080F07D021F0E1
:101CA0000801416040780A4951F82000004709487E
:101CB000017801EB810100EB81000079042801D05B
:101CC000FDF7B0BA0120FFF7C1BD00007821002068
:101CD00078220200882800202DE9F04FCC4987B0F7
:101CE00000260A6903924B7891F802C0C86835460D
:101CF000634504BF00273A460FD05B1CDBB24B7034
:101D0000022B08BF4D70C34B91F801C053F82C70E3
:101D10003A4422F07F420A610122BD4902920590B5
:101D200009784A1ECDE9002102F0FF09B84AD2F82D
:101D3000088056D31146DFF8E0A20A69049291F8B0
:101D400004E04FF0010B00BF08EBC9042378617871
:101D500099423BD0616803EB430201EBC2015A1C7C
:101D6000D3B2A2789A4208BF00230A78022A02D08E
:101D7000032A23D027E0D1F804C0021E114622D046
:101D8000614504D00A46C9690029F9D11BE0D1B1E7
:101D90008A4204BFC069002807D1CAF808B04FF0D2
:101DA000000C4FF0010ECDF810C0D1F800C0C96989
