:020000040000FA
:10000000A0210020150400001D0400001F040000B2
:10001000210400002304000025040000000000006B
:1000200000000000000000000000000027040000A5
:1000300029040000000000002B0400002D04000033
:100040002F0400002F0400001D0800002F040000F2
:100050002F0400002F0400002F040000AD04000056
:10006000D50700002F0400002F0400002F0400001B
:100070002F0400002F0400002F0400002F040000B4
:100080002F0400002F0400002F0400002F040000A4
:100090002F0400002F0400002F0400002F04000094
:1000A0002F0400002F0400002F0400002F04000084
:1000B0002F0400002F0400000000000000000000DA
:1000C0002F0400002F0400002F0400002F04000064
:1000D0002F0400002F0400002F0400000000000087
:1000E0000000000000000000000000000000000010
:1000F0000000000000000000000000000000000000
:1001000000000000000000000000000000000000EF
:1001100000000000000000000000000000000000DF
:10040000DFF80CD000F040F800480047250C000051
:10041000A02100200648804706480047FEE7FEE787
:10042000FEE7FEE7FEE7FEE7FEE7FEE7FEE7FEE7A4
:10043000690500000104000040EA01039B0703D0A6
:1004400009E008C9121F08C0042AFAD203E011F813
:10045000013B00F8013B521EF9D2704730B50B4604
:10046000014600202022012409E021FA02F59D42E4
:1004700005D303FA02F5491B04FA02F52844151EB8
:10048000A2F10102F1DC30BD064C074D06E0E06848
:1004900040F0010394E8070098471034AC42F6D3CB
:1004A000FFF7B2FF9C190000BC1900002DE9FE43C4
:1004B0004FF4827000F0A6FFDFF89C80274C0026E6
:1004C0004FF00109A8B1264940460E608DF8006042
:1004D0006168019123490968ADF80810E168A1B18C
:1004E0006160A18A2181E660C0F8009021686846B9
:1004F00088474FF48A7000F085FF48B118481030E3
:10050000066084F82760BDE8FE8384F82760EDE785
:1005100027691EE0B7FA87F04FF00041C1408F43D2
:100520004FF48C7101EB8005284600F06BFF80B121
:1005300045F80860A5F58C75E8088DF8040045F3CA
:100540008000401C8DF800908DF8050021686846F9
:100550008847002FDED1D6E7007000404801002018
:10056000047100403476004070B58D480023021DB0
:100570000178101D0124062907D115782D0704D113
:100580000578C5F30315032D02D0062904D00FE02A
:10059000854E844D75670EE015782D0708D10578D6
:1005A000C5F30315032D06D0042D04D0052D02D06C
:1005B000062909D010E04FF08055D5F844527B4E03
:1005C000C5F34235356002E015782D0704D1057872
:1005D000C5F30315032D02D0062906D011E0744D92
:1005E0002E6826F080762E600EE015782D0708D153
:1005F0000578C5F30315032D06D0042D04D0052D71
:1006000002D006290AD011E04FF08045C5F80C3120
:10061000C5F81031654D2D1F2B6002E015782D07B0
:1006200004D10578C5F30315032D02D0062905D0A2
:100630000CE05E4A0321643211600AE015782D0750
:1006400004D10578C5F30315032D02D006290DD07A
:100650006AE0584A05211160564978310C605549C5
:1006600008310B603F21121D116002E0117809076B
:100670005AD10078C0F30310052855D14E480068C0
:100680004E4908604C48001D0068091D08604A4832
:1006900008300068091D086047480C300068091DD3
:1006A0000860454810300068091D08604248143051
:1006B0000068091D08604048183000683F49203133
:1006C00008603D481C300068091D08603A48203029
:1006D0000068091D0860384824300068091D08605A
:1006E000354828300068091D086033482C30006800
:1006F000091D0860304830300068304940310860DA
:100700002D4834300068091D08602B4838300068D7
:10071000091D086028483C300068091D086026480B
:1007200040300068091D086021487438016841F4B0
:1007300070010160BFF34F8FBFF36F8F4FF0102137
:10074000D1F80002002803DBD1F80402002822DAE5
:100750001B4A14601B480468002CFCD01524C1F807
:1007600000420568002DFCD0C1F804420168002950
:10077000FCD0136001680029FCD0BFF34F8F0C48F8
:10078000F0380168104A01F4E06111430160BFF3E1
:100790004F8F00BFFDE70E490C48086070BD000098
:1007A000E00F00F00DF0ADBA00C007403C0500407E
:1007B000FCED00E0105600400404001020C500408D
:1007C00004E5014000E401400400FA050090D00374
:1007D000240000202DE9F04700250E4C04274FF49B
:1007E000A078BE034FEA050908EB850006FA05F17B
:1007F00022584AB1D4F804230A4205D044F80090A4
:10080000054A5168126890476D1CEDB2BD42EBD3AA
:10081000BDE8F08700800040740100200348007F9D
:1008200008B101F01BB800F095BF00008001002066
:100830000FB4054B10B503A9044A029800F018F84C
:1008400010BC5DF814FB0000F30B0000200000203A
:1008500002E008C8121F08C1002AFAD17047704789
:10086000002001E001C1121F002AFBD170470000E7
:100870002DE9FF4F89B09B460446002506E0252858
:100880000BD05A460B999047641C6D1C20780028A9
:10089000F5D10DB02846BDE8F08F0027B8460122FB
:1008A000474900E0074314F8013F203B02FA03F0F8
:1008B0000842F7D120782E2819D114F8010F47F0FB
:1008C00004072A280ED06FF02F022078A0F1300103
:1008D00009290CD808EB880102EB410100EB010863
:1008E000641CF2E70A98641C50F8048B0A90207884
:1008F0000028CED0642808D0692806D075281ED0DC
:100900005A460B9990476D1C58E00A994FF00A0916
:1009100001C90A91002802DA40422D2102E039057E
:1009200004D52B218DF82010012103E0F90704D014
:100930002021F7E78A4608AE0DE00021FAE70A9980
:100940004FF00A0901C90A91F7E74946FFF786FD0A
:10095000303106F8011D0028F7D1ADEB060000F19B
:100960002009780701D44FF00108C84502DDA8EB43
:10097000090000E000208046002706E008A85A464B
:10098000C05D0B9990476D1C7F1C5745F6DB04E05A
:1009900030205A460B9990476D1CB8F10001A8F120
:1009A0000108F5DC05E016F8010B5A460B99904753
:1009B0006D1CB9F10001A9F10109F4DC641C65E7C3
:1009C00009280100BFF34F8F05480168054A01F46B
:1009D000E06111430160BFF34F8F00BFFDE70000EE
:1009E0000CED00E00400FA050EB500210091CDE900
:1009F00001106A4644F20100FFF7E4FF0EBD10B596
:100A00008268C368934203D000F0E0F8002010BD74
:100A1000052010BD29B112B1531E134203D0092085
:100A200070470E2070470160838000218160C160A3
:100A30000846704710B58268C3689A1A83889A423C
:100A400003D800F0CDF8002010BD042010BD000038
:100A500070B50446234888B01E460D00426035D06C
:100A6000A888296882B22048FFF7D4FF00282ED139
:100A7000A889A96882B21C481030FFF7CBFF002874
:100A800025D1202219496846FFF7D6FCA0680690B8
:100A9000207900B101208DF814008DF81C60607978
:100AA00000B10E208DF81500E0780290A078039038
:100AB00020780190607800900D49684600F07EFA39
:100AC000002804D19DF81D0018B104E0072008B0EB
:100AD00070BD00F003FB03480121401C00F0B8FA90
:100AE000F5E700000C00002028010020501900004C
:100AF000A916000010B501460948FFF79BFF040046
:100B00000CD100F019FC48B906490548FFF777FFFA
:100B100020B90121034800F087FB0446204610BDA0
:100B2000380100200C00002000F002B800F008B8E6
:100B300072B602480168491C016070471C00002021
:100B400003490868401E086000D162B67047000083
:100B50001C0000202DE9F04104460078184F0126C2
:100B600006FA00F03860206800F008FC0021606898
:100B700000F0FBFB1348144D007FA069C5F8240565
:100B8000607D217D0843C5F86C05D4E90001C5F8F6
:100B90000C05C5F81415207D01280FD10021A0688F
:100BA00000F0E3FB207B86403E60E06800F0E6FB5F
:100BB000D4E90201C5F80815C5F81005BDE8F081B3
:100BC00008050050800100200020004082688388D2
:100BD0001A4003689A5C0A708168491C81607047FA
:100BE000C26883881A4003689954C168491CC1606F
:100BF000704710B50446C0B2FFF77CFF204610BD19
:100C00000121814003484068014201D00120704722
:100C1000002070471400002001218140080300D00B
:100C20000120704700F01CFD05A0FFF701FE00F059
:100C3000B1FC00F075FC00F09FFC20BFFDE7000058
:100C40000A0D53414144432048414C2073696D7063
:100C50006C65206578616D706C652E0D0A00000072
:100C60004907090E002806DA00F00F0202F1E0221F
:100C700082F8141D03E000F1E02282F8001400F075
:100C80001F02012191404009800000F1E020C0F8DE
:100C90008012C0F8001170472DE9F0470427144E68
:100CA000814600244FF001080020FFF73DFF08FABD
:100CB00004F5354203D02046FFF7A2FF58B10020CB
:100CC000FFF734FF27B104F10104AE43E4B2EBD1E6
:100CD0003846BDE8F087074908FA04F000274A685B
:100CE0001043486089F800403846FFF71FFFEFE7E0
:100CF000FFFF0F001400002070B514460D000646DB
:100D000010D07CB1FFF788FF70B13046FFF778FF55
:100D100060B1074800EBC600C0F81055C0F8144594
:100D2000002070BD0E2070BD072070BD082070BD72
:100D300000F0014070B504460125A540FFF76CFFA7
:100D400018B12046FFF75CFF18B10348056000208A
:100D500070BD082070BD000004F501400448017812
:100D600009B1852070470121017000207047000003
:100D7000140000202DE9F05F1F4E054602200C46AE
:100D8000C6F808031D48DFF87C90002790F827205C
:100D9000DFF86C80B11509F1040A012A10D0022194
:100DA000C6F80413012180F8271045600481C7604C
:100DB000C9F80050CAF80040C8F80070316018E067
:100DC000C2682AB10220C6F804031120BDE8F09FD2
:100DD000C56084828B46584600F014FB0028FAD088
:100DE000C8F80070C9F80050CAF800400220C6F8E0
:100DF00004030020EAE700000070004048010020E2
:100E0000007100402C76004070B5104A05460C4633
:100E100092F82700012804D002EB4501887D10B12B
:100E200005E0112070BD12F8280F401C1070A07949
:100E30008875E079C8752146284600F0A9FAE2795C
:100E4000A179284600F0D4FA002070BD48010020A6
:100E500070B5174A92F826300BB1082070BD09B161
:100E600010B102E0072070BD1248134B42F80C1B72
:100E7000017819601B1D41781960012494760021C6
:100E8000D17611770D4D51606FF00042C5F80823FF
:100E90000B4A11608178072005F54175FFF7E0FEE8
:100EA000022028600448F0380460002070BD000073
:100EB0004801002070190000F075004000700040EB
:100EC0000471004030B54FF4803405688C4013B194
:100ED000C5F8044301E0C5F80843006800EB810051
:100EE000C0F8402530BD0000016801220A60007989
:100EF000034A00EB400002EB8000022101727047C0
:100F000074010020F0B40468049E40F20115D4F886
:100F100000728D40AF43C4F800720468D4F80052E8
:100F20001D43C4F800523346F0BCFFF7CBBF0000AE
:100F3000F0B504791F4D04EB440305EB83031D7AE0
:100F40000DB10820F0BD0AB111B104E00720F0BDD9
:100F5000194901EBC4011A604A685A60002216461A
:100F60004FF4A07706E000BF056807EB82042E511E
:100F7000521CD2B244799442F6D802684C78D2F826
:100F8000045564F30105C2F8045502688C78D2F860
:100F9000085564F30105C2F8085500680978D0F8CF
:100FA000102561F30302C0F81025012018720020FB
:100FB000F0BD000074010020741900002DE9F0411B
:100FC0001E4C07460D46E07E10B10820BDE8F081BA
:100FD00007B91B4F787F20773846FFF7BBFD656068
:100FE000386920602800174E4FF0000516D0397F71
:100FF000207F48B1C6F81051C6F82051C6F82451D8
:10100000C6F84451104804E0C6F81C51C6F84451D3
:101010000E48C6F804030220FFF722FE207F08B125
:10102000082000E00420C6F80005E5752576A575C2
:101030000120E076A5760020C8E7000080010020AE
:101040007C19000000200040100302008000020014
:101050002DE9F0411F4B1C7F3CB14FF40052B2EB25
:10106000104F02D01020BDE8F081D3F804C0002258
:10107000194D4FF404764FF40177BCF1000F05D001
:1010800014B1C5F8086301E0C5F8087393F817E0D8
:10109000BEF1000F10D01A7E52B1BCF1000F05D086
:1010A00014B1C5F8046301E0C5F804731120DAE750
:1010B00018610122197604E0D9750025D8605D76A3
:1010C0001D761CB1BDE8F04100F066B8BDE8F04106
:1010D00000F014B8800100200020004010B5064C3C
:1010E000207F002806D1A07E002803D100F0CAF995
:1010F0000120A07610BD0000800100202DE9F05FE6
:10110000234DA87E104301D100F0BCF9214C686842
:1011100030B14FF40170C4F804030020BDE8F09F23
:101120004FF000094FF4A27AC4F844914FF4927B37
:10113000A8465946204600F06DF905464FF48471E3
:10114000204600F067F907465146204600F062F954
:10115000064647EA06012943EBD055EA060007D1C7
:1011600000F068F998F8171098F819008142E0D853
:1011700088F817900DB10320D0E70EB10F20CDE70E
:1011800098F81A10012009B12060C6E76060C4E732
:1011900080010020002000402DE9F05F204C002657
:1011A0004FF48873C4F810614FF4A275C4F8446119
:1011B000C4F83405C4F838158AB1D4F8000240F0F8
:1011C0002000C4F80002DFF85C80D8F8040048B1C1
:1011D0004FF40470C4F804030020BDE8F09F012020
:1011E0002060F0E79A46A9464FF4927B514620468C
:1011F00000F01BF905464946204600F016F907465F
:101200005946204600F011F93D430543EED088F8D9
:10121000176008B10320E0E7002FDDD00F20DCE7E6
:1012200000200040800100202DE9F047204D0246BB
:10123000287F38B14FF40050B0EB124F02D010208D
:10124000BDE8F08700F078F808B11120F8E7A9753B
:101250000023AA60AB82287F28B3164C00264FF4E7
:1012600090709846C4F820314FF4AC73C4F858819C
:10127000C4F84425C4F848150121A160696881B902
:10128000824699465146204600F0CFF80746494627
:10129000204600F0CAF80743F4D000B10F2685F8C5
:1012A00016803046CCE7BDE8F04700F005B80000F6
:1012B00080010020002000402DE9F05F1C4F002538
:1012C0004FF48E7A2E46C7F81C514FF00108C7F82C
:1012D000088000F0A1F9174CB815616879B123E0D6
:1012E0005F465146484600F095F810B9A08AB842CA
:1012F000F7D1A08AB84204D000F08EF901E083460D
:10130000B946A08AA17D8842EAD3A08A584501D176
:101310000F2508E04F465146384600F07BF800287C
:10132000F9D0C7F80C80A6752846BDE8F09F0000EC
:1013300000200040800100200248807D002800D06D
:10134000012070478001002030B541EA4201DDE90B
:10135000034541EA8301800041EA042100F1A040F5
:1013600041EA0541C0F8001730BD1CB500220B460C
:10137000009211460192FFF7E7FF1CBD1CB500214A
:1013800000910B46012201911146FFF7DDFF1CBDC4
:1013900010B50A784B78302402F0030204EA0313F4
:1013A0001A438B784FF4E06404EA03231A43CB78A2
:1013B0004FF4805404EA03331A430B794FF4E024CA
:1013C00004EA03431A434B794FF4801404EA0353AD
:1013D0001A43030105481844C0F818258A79C979C9
:1013E000C0F81415C0F8102510BD000000700040B2
:1013F000030103481844C0F81425C0F810157047BD
:101400000070004002494058002800D00120704779
:10141000007000404058002800D001207047D0F8EC
:101420000403084000D0012070474058002800D035
:101430000120704709480A490022C37DC1F80821EC
:1014400043B1D1F81815437EC268D154417E491C7E
:1014500041767047D1F818057047000080010020E0
:10146000002000401FB501228DF8080004488DF8C7
:1014700000200191D0E90012684690471FBD00008E
:101480008001002004480021C0F82411C0F8081190
:1014900001210160704700000020004070B5044643
:1014A000007800281AD16068B0F900100CA0FFF78E
:1014B000BFF901216068FFF75DFC08B1FFF794FAFE
:1014C0000E4D0FA0A968FFF7B3F96068B0F90010DE
:1014D00011A0FFF7ADF9A868401CA86070BD00001E
:1014E0004669727374206275666665722073616DF9
:1014F000706C652069733A2025640A0000000020A2
:10150000414443206576656E74206E756D62657228
:101510003A2025640D0A000025640D0A0000000031
:101520001CB51249D1E90201CDE9000110490020A2
:10153000FFF78EFC08B1FFF757FA69460020FFF766
:1015400063FC08B1FFF750FA01210A48FFF712FCCB
:1015500008B1FFF749FA07480121801CFFF70AFC90
:10156000002801D0FFF740FA1CBD0000341900002C
:101570009D14000002000020054810B54078FFF7D8
:10158000D9FB002803D0BDE81040FFF72DBA10BDED
:101590000000002038B5FFF7E1FB08B1FFF724FA9F
:1015A000174A00211748FFF7C3FC08B1FFF71CFAE0
:1015B000144C2068D0F81005134A0123C2400020C3
:1015C000014600902046FFF79DFC2046FFF78CFC6B
:1015D00024680E4D0E4804F5A074FFF75DFB08B1BA
:1015E000FFF702FA0A482A46401E21464078FFF7D4
:1015F00083FB002803D0BDE83840FFF7F5B938BDBC
:10160000151600003419000000127A000470004022
:101610000100002070470000064A0020C2F81C01AB
:101620000548838A8168C95C838A5B1C8382C2F80F
:101630001C15704700200040800100201FB50021CC
:101640008DF8080005488DF80010826801928175B8
:10165000D0E90012684690471FBD000080010020BD
:1016600000B50D4A87B004AB07CA83E807000B48F2
:101670000090012001900A4802904FF4807003907E
:101680000623084A694604A8FFF7E2F9002801D0BA
:10169000FFF7AAF907B000BD4419000000000020C0
:1016A00028000020511700007CB50178264D012943
:1016B00009D002292CD0002929D129462348FFF737
:1016C0009EF980B334E04068017820481038FFF775
:1016D000B1F91E4C103C20B101218DF80010019091
:1016E00007E0A068E168081A012805D100208DF8FC
:1016F0000000696868468847A068E168081AA18800
:10170000884204D810480121401CFFF7A1FC7CBD91
:1017100002218DF80010C06801900B480121401C87
:10172000FFF796FC0CE0FFE701210748FFF77CFD7F
:1017300006488168C0688842E9D103208DF800001E
:101740006968684688477CBD0C000020380100208D
:10175000704700002DE9FF413E4D4FF400712846CF
:10176000FFF75DFE01273C4C4FF40178002600B3E3
:101770004FF492712846FFF74DFED0B1C5F82461B1
:10178000C5F80883A07E00B96F6002208DF80000C4
:10179000D5F88004C5F880040390E07D8DF808003A
:1017A000E0680190E6752676D4E900126846904715
:1017B00024E004212846FFF732FEF8B14FF484718B
:1017C0002846FFF727FEC8B1FFF734FEE07D617EB3
:1017D000884213D1227E3AB1607EE168E2752269C7
:1017E000E2602676667607E0A07E00B96F60C5F8F5
:1017F0000883E675607EE168FFF734FE4FF48E7172
:101800002846FFF707FE58B1A18AA07D814202D287
:10181000FFF702FF04E0C5F81C6108B1FFF70EFFF7
:101820004FF4A2712846FFF7F5FD00280FD0C5F848
:101830004461A07E00B12F60E07D002807D0E675EE
:10184000607EE16804B0BDE8F041FFF70BBEBDE883
:10185000FF81000000200040800100207FB5334C54
:101860004FF492712046FFF7E0FD314D0026B0B1F4
:10187000C4F8246102208DF80000D4F88004C4F874
:1018800080040390D4F83C058DF80800E8680190C6
:10189000EE752E76D5E90012684690471FE04FF4AA
:1018A00088712046FFF7C1FDC8B1C4F81061D4F8B3
:1018B0003C05E97DC0B2814211D12A7E5AB1E96866
:1018C000D4F8003223F02003C4F80032EA752A6904
:1018D000EA602E7601E0EE75E968FFF7C3FD4FF48C
:1018E000A2712046FFF7A1FD50B1C4F84461E87D24
:1018F00030B1EE75D4F83C05E968C0B2FFF7B2FD2F
:101900004FF490712046FFF790FD00280CD0C4F8EA
:101910002061A87D002807D0D4F84C0504B0C0B2DF
:10192000BDE87040FFF78ABE7FBD00000020004088
:101930008001002000800040000400000000000042
:10194000020001000D11070C0000000000E0D701AB
:10195000060000000800000007000000050000006D
:1019600000000000000000000000D601060000009A
:101970000100060000000306000000000600000051
:101980000800000007000000050000000000000043
:10199000000000000000D60106000000BC19000095
:1019A000000000202800000050080000E41900009A
:1019B00028000020782100006008000000000000DE
:1019C0000000000000000000000000000000000017
:1019D0000000000000000000000000000000000007
:0419E0000090D003A0
:0400000500000401F2
:00000001FF
