:020000040000FA
:1000000030200020150400001D0400001F04000023
:10001000210400002304000025040000000000006B
:1000200000000000000000000000000027040000A5
:1000300029040000000000002B0400002D04000033
:100040005D0400002F0400002F0400002F040000B6
:100050002F0400002F0400002F0400002F040000D4
:100060002F0400002F0400002F0400002F040000C4
:100070002F0400002F0400002F0400002F040000B4
:100080002F040000BD0400002F0400002F04000016
:100090002F0400002F0400002F0400002F04000094
:1000A0002F0400002F0400002F0400002F04000084
:1000B0002F0400002F0400000000000000000000DA
:1000C0002F0400002F0400002F0400002F04000064
:1000D000CD0400002F0400002F04000000000000E9
:1000E0000000000000000000000000000000000010
:1000F0000000000000000000000000000000000000
:1001000000000000000000000000000000000000EF
:1001100000000000000000000000000000000000DF
:10040000DFF80CD000F018F800480047F5070000AE
:10041000302000200648804706480047FEE7FEE7F8
:10042000FEE7FEE7FEE7FEE7FEE7FEE7FEE7FEE7A4
:10043000DD04000001040000064C074D06E0E06802
:1004400040F0010394E8070098471034AC42F6D31B
:10045000FFF7DAFF880B0000A80B00002DE9F04140
:100460004FF48077384600F007FA0124124EA507B2
:1004700050B1384600F007FA0120C5F8080374723D
:100480000021301D00F0A4F94FF48277384600F0C7
:10049000F3F900280DD0384600F0F5F90220C5F830
:1004A0000803B472BDE8F04103480121103000F0A8
:1004B0008FB9BDE8F081000018000020042200215F
:1004C000014800F0D5BA00000010014004220121CB
:1004D000014800F0CDBA00000040024070B58D48E0
:1004E0000023021D0178101D0124062907D115786B
:1004F0002D0704D10578C5F30315032D02D0062975
:1005000004D00FE0854E844D75670EE015782D07F9
:1005100008D10578C5F30315032D06D0042D04D0AA
:10052000052D02D0062909D010E04FF08055D5F8EE
:1005300044527B4EC5F34235356002E015782D07F5
:1005400004D10578C5F30315032D02D0062906D082
:1005500011E0744D2E6826F080762E600EE015783E
:100560002D0708D10578C5F30315032D06D0042DFA
:1005700004D0052D02D006290AD011E04FF08045A5
:10058000C5F80C31C5F81031654D2D1F2B6002E008
:1005900015782D0704D10578C5F30315032D02D076
:1005A000062905D00CE05E4A0321643211600AE09E
:1005B00015782D0704D10578C5F30315032D02D056
:1005C00006290DD06AE0584A052111605649783154
:1005D0000C60554908310B603F21121D116002E08B
:1005E000117809075AD10078C0F30310052855D1B6
:1005F0004E4800684E4908604C48001D0068091DBF
:1006000008604A4808300068091D086047480C30F7
:100610000068091D0860454810300068091D086021
:10062000424814300068091D0860404818300068CE
:100630003F49203108603D481C300068091D0860B2
:100640003A4820300068091D0860384824300068A6
:10065000091D0860354828300068091D08603348C6
:100660002C300068091D086030483030006830497F
:10067000403108602D4834300068091D08602B485F
:1006800038300068091D086028483C300068091DA2
:100690000860264840300068091D08602148743809
:1006A000016841F470010160BFF34F8FBFF36F8F9A
:1006B0004FF01021D1F80002002803DBD1F804022A
:1006C000002822DA1B4A14601B480468002CFCD066
:1006D0001524C1F800420568002DFCD0C1F8044281
:1006E00001680029FCD0136001680029FCD0BFF329
:1006F0004F8F0C48F0380168104A01F4E061114353
:100700000160BFF34F8F00BFFDE70E490C48086042
:1007100070BD0000E00F00F00DF0ADBA00C0074062
:100720003C050040FCED00E01056004004040010C1
:1007300020C5004004E5014000E401400400FA0542
:100740000090D0031400002002E008C8121F08C166
:10075000002AFAD170477047002001E001C1121F42
:10076000002AFBD170470000BFF34F8F0548016896
:10077000054A01F4E06111430160BFF34F8F00BFF0
:10078000FDE700000CED00E00400FA050EB50021C5
:100790000091CDE901106A4644F20100FFF7E4FF41
:1007A0000EBD00F003B800F009B8000072B60248B0
:1007B0000168491C01607047100000200349086867
:1007C000401E086000D162B6704700001000002093
:1007D00070B50D4604462068002805D001682160E8
:1007E000416828468847F6E770BD02680A60002A1B
:1007F000016070470020012244F204015FF003030E
:1008000002FA00F40C4204D0840004F1A044C4F8BD
:100810000037401C2028F3D31448016013490020FE
:10082000091D086000F038F808B1FFF7AFFF00209D
:1008300000F04CF80E4A00210E4800F0DDF808B137
:10084000FFF7A4FF01210B4800F062F901231822F1
:100850000021084800F082F808B1FFF797FF05482B
:1008600000F0BEF840BF20BF20BFFBE708050050E6
:10087000610B0000740B000000F18040006800284C
:1008800000D00120704708B500F1804000210160D0
:100890000068009008BD000070B50A4C207A08B1CD
:1008A000852070BD0025656025600748256101260B
:1008B000E56006600621284600F034F826722846D6
:1008C00070BD0000180000201805004070B50446F7
:1008D0000020FFF766FF114DA87A20B1B4B161681E
:1008E0000120884712E024B10C4821461030FFF760
:1008F0007CFFE86850B94FF48270FFF7C4FF022014
:100900004107C1F80403064901200860E868401C5B
:10091000E860BDE870400020FFF745BF18000020E8
:10092000080000404907090E002806DA00F00F020F
:1009300002F1E02282F8141D03E000F1E02282F8C7
:10094000001400F01F02012191404009800000F1D5
:10095000E020C0F88012C0F8001170472DE9F04186
:1009600005464FF4A07000EB810086B228684FF472
:1009700080348C40C0F848432868C0F8084322F00F
:100980007F406A79154F02EB42023A445278002ABE
:100990002A6802EB8101C1F8400512D02968D1F81C
:1009A0000425111A824202D26FF07F400144687917
:1009B00000EB400038448078884202DD0D20BDE81D
:1009C000F08133B13146286800F0C4F82868C0F8D7
:1009D00004432868C0F844430020F0E700000020EA
:1009E000016801220A604079024A00EB40000221BE
:1009F000115470470000002070B50D4604462AB11E
:100A00006079194941F8202015B107E0072070BD31
:100A10006079164900EB400001EB40056079124E09
:100A200000EB4000083E305C08B1082070BDA9789A
:100A300094F90400FFF776FF21682888C1F80805BB
:100A40006179287901EB4101314448706179E87896
:100A500001EB4101314488706179012001EB4101D2
:100A60007054002070BD0000080000207C0B0000C6
:100A70002DE9F0479146884604464FF480354FF4FF
:100A8000A0760027DFF884A016E000BFD4F80403A6
:100A900028420DD0A05958B1C4F84853C4F808539F
:100AA0003146204600F056F85AF82810F8B2884728
:100AB000361D6D00B6B27F1C4F45E7D3D4F8040352
:100AC0004FF4807110F0010F09D0D4F8000130B15B
:100AD000204600F03FF85AF8281004208847D4F840
:100AE00004034FF4827110F0020F0CD0D4F804010B
:100AF000002808D0204600F02DF85AF82810BDE84C
:100B0000F04705200847BDE8F087000008000020F6
:100B100070B50E4605464FF480710124006800F060
:100B200019F82868C0F84443002E02D02868C0F89D
:100B3000044370BD0121814005480068044B21EA4F
:100B400000021B1D1A600840191D08607047000054
:100B50000405005008B5002242504058009008BDDE
:100B600020B1042804D10E20FFF7E4BF0220FBE7E8
:100B700070470000004002402401040000000641CC
:100B80000000FF0F06000000A80B0000000000207E
:100B90001800000048070000C00B000018000020EB
:100BA00018200000580700000000000000000000AE
:100BB0000000000000000000000000000090D003D2
:0400000500000401F2
:00000001FF
