:020000040001F9
:10C00000B84700208DC4010095C4010097C4010009
:10C0100099C401009BC401009DC401000000000000
:10C020000000000000000000000000009FC40100AC
:10C03000A1C4010000000000A3C40100A5C40100C8
:10C04000A7C40100A7C401009DCE0100A7C4010040
:10C05000A7C40100A7C4010039CA0100A7C4010098
:10C06000A7C40100A7C40100A7C40100A7C4010020
:10C07000A7C40100A7C40100A7C40100A7C4010010
:10C08000A7C40100E5CB0100A7C40100A7C40100BB
:10C0900009CC0100A7C401000DCC0100A7C4010018
:10C0A000A7C40100A7C40100A7C40100A7C40100E0
:10C0B000A7C40100A7C401000000000000000000A8
:10C0C000A7C40100A7C40100A7C40100A7C40100C0
:10C0D000A7C40100A7C40100A7C40100000000001C
:10C0E0000000000000000000000000000000000050
:10C0F0000000000000000000000000000000000040
:10C10000000000000000000000000000000000002F
:10C11000000000000000000000000000000000001F
:10C40000DFF80CD000F078FA00480047A5EC0100F6
:10C41000B8470020401E00BF00BF00BF00BF00BFE4
:10C4200000BF00BF00BF00BF00BF00BF00BF00BF14
:10C4300000BF00BF00BF00BF00BF00BF00BF00BF04
:10C4400000BF00BF00BF00BF00BF00BF00BF00BFF4
:10C4500000BF00BF00BF00BF00BF00BF00BF00BFE4
:10C4600000BF00BF00BF00BF00BF00BF00BF00BFD4
:10C4700000BF00BF00BF00BF00BF00BF00BF00BFC4
:10C4800000BF00BF00BFC5D170470000064880470D
:10C4900006480047FEE7FEE7FEE7FEE7FEE7FEE7A9
:10C4A000FEE7FEE7FEE7FEE731CC010001C4010034
:10C4B00040EA01039B0703D009E008C9121F08C026
:10C4C000042AFAD203E011F8013B00F8013B521EA6
:10C4D000F9D27047D2B201E000F8012B491EFBD21D
:10C4E00070470022F6E710B513460A46044619467F
:10C4F000FFF7F0FF204610BD30B50B460146002087
:10C500002022012409E021FA02F59D4205D303FA15
:10C5100002F5491B04FA02F52844151EA2F1010296
:10C52000F1DC30BD2DE9F05F0546002092469B46C8
:10C5300088460646814640241BE028464146474639
:10C54000224600F0FAF953465A46C01A914110D3D8
:10C5500011461846224600F0E1F92D1A67EB010852
:10C560004F4622460120002100F0D8F917EB0009C0
:10C570004E41201EA4F10104DFDC484631462A4624
:10C580004346BDE8F09F2DE9FE4F804681EA030057
:10C59000C00F0C46009021F0004123F00045B8EB9D
:10C5A0000200A94105D24046214690461C460B4652
:10C5B000024623F00040104347D0270DC7F30A007E
:10C5C000C3F30A510290401A019040286BDAC3F37A
:10C5D000130040F4801B0098924620B10023D2EB58
:10C5E000030A63EB0B0B01985946C0F14002504619
:10C5F00000F094F906460D4650465946019A00F05F
:10C60000ACF910EB08006141002487EA115284EA7A
:10C61000E7731A4340D0009A62B3019A012A4FEAA5
:10C62000075215DC001B61EB02014FF0004202EAE9
:10C630000752CDE90042001C41F5801132462B46DD
:10C6400000F0ACF903B0BDE8F08F40462146F9E7B1
:10C65000001B61EB0201001C41F5801300185B41D7
:10C660002018A2F5001747EB030140EAD570B61970
:10C670006D4111E06D084FEA360645EAC0754FEA94
:10C680000752001B61EB0201001C41F580114908B3
:10C690004FEA30000019514132462B4603B0BDE845
:10C6A000F04F00F06CB90098012240000023D0EB5D
:10C6B000020263EBE073009821464FEAE074B8EBA6
:10C6C000000061EB0401E9E783F000435BE781F0E0
:10C6D000004158E72DE9FE4F81EA030404F00044CD
:10C6E00021F0004100944FF0000B23F0004350EA8A
:10C6F00001045ED052EA03045BD0C3F30A54C1F3D1
:10C700000A552C44A4F2F3340194A0FB0254C1F363
:10C71000130141F48011C3F3130343F4801301FBAD
:10C72000024400FB034E840A970A44EA815447EA14
:10C730008357A4FB076802958D0A05FB07854FEA1E
:10C74000932C04FB0C542705029D4FEA065847EA38
:10C750001637B5EB08056EEB070C870E920E47EA0D
:10C76000811742EA8312A7FB0201B6EB0B0164EBCF
:10C7700000042B0D43EA0C335E1844EB1C50DA46E0
:10C780005146E7FB0201C5F313044FEA0B3343EABA
:10C7900014534FEA0432019C43EA0603A4F10C044B
:10C7A0000294009CCDE900B400F0F8F803B0BDE8B5
:10C7B000F08F00200146F9E72DE9F04D81EA0304EE
:10C7C00004F0004B21F0004514464FF0000A23F01E
:10C7D000004150EA050220D054EA01021DD0C5F301
:10C7E0000A570246C5F31303C1F31300C1F30A56F7
:10C7F00040F4801543F48013A7EB0608101BD646BF
:10C8000008F2FD3873EB050002D308F1010801E0DE
:10C8100092185B41B8F1000F03DA00200146BDE831
:10C82000F08D00204FF48011064684460EE0171B61
:10C8300073EB050705D3121B63EB050306434CEAB4
:10C84000010C49084FEA300092185B4150EA010799
:10C85000EDD152EA030012D082EA040083EA050116
:10C86000084305D0101BAB4106D20122002306E08D
:10C8700000224FF0004302E06FF0010253101AEB68
:10C8800006004CEB085110EB0A0041EB0B01BDE830
:10C89000F04D00F074B8C1F30A52C1F3130140F235
:10C8A000FF3341F480119A4202DA002001467047BA
:10C8B00040F233439A42A2F2334202DC524200F089
:10C8C0003CB800F02BB8000030B5041E71F1000434
:10C8D00004DB4FF00044404264EB0101141E73F18D
:10C8E000000405DB1C464FF00043524263EB040397
:10C8F000994208BF904230BD064C074D06E0E06803
:10C9000040F0010394E8070098471034AC42F6D396
:10C91000FFF77AFD74FF010094FF0100202A04DB79
:10C92000203A00FA02F1002070479140C2F1200342
:10C9300020FA03F3194390407047202A04DB203A81
:10C9400021FA02F00021704721FA02F3D040C2F12F
:10C9500020029140084319467047202A06DBCB1776
:10C96000203A41FA02F043EAE07306E041FA02F3AA
:10C97000D040C2F12002914008431946704710B5DB
:10C98000141E73F1000408DA401C41F100019218F2
:10C990005B411A4301D120F0010010BD2DE9F04D9B
:10C9A00092469B4611B1B1FA81F202E0B0FA80F2F0
:10C9B00020329046FFF7B2FF04460F4640EA0A00D5
:10C9C00041EA0B0153465A46084313D0114653EA35
:10C9D000010019D0C8F140025046FFF7AEFF0546EE
:10C9E0000E46504659464246FFF798FF084305D089
:10C9F000012004E020463946BDE8F08D00200543C3
:10CA000046EAE0762C4337430A986305E40AA0EB34
:10CA100008000022FD0A44EA47540A3002D50020EB
:10CA20000146E9E7010510196941DDE908450019EA
:10CA30006941BDE8F04DA2E72DE9FC5F0025DFF874
:10CA40003491A8464FF4807601242F46304602F0F8
:10CA5000ABFC38B1D9F80403204203D0304602F0D1
:10CA600099FC2543361D64007F1CB6B2082FEDD318
:10CA70004FF4BE74204602F097FC38B1204602F015
:10CA800089FC3D4845F00045D0F800803B4E15F04C
:10CA9000FF0F14D0012700242F420CD009EB840192
:10CAA000D1F81005D1F81015C0F3042056F8242051
:10CAB000C1F3014190477F00641C082CECD3002D8A
:10CAC00056DA00200190401E4CE0701910F8501FFB
:10CAD00090F9000021F0C004401C38D0012000FA79
:10CAE00004FA1AEA090F32D04FEA911B204601F0EE
:10CAF00063FD56F82000009010B9BBF1030F26D15A
:10CB00005146BBF1030F02D1019808430190A000E8
:10CB100000F1A040D0F800071AEA080FC0F3014066
:10CB200002D0022802D012E0032810D1BBF1030F7B
:10CB300007D102281AD00221204602F01CFC7F1CDB
:10CB4000FFB2009818B1009A5946204690476D1CD4
:10CB5000042DBAD3002F0BD007480068404507D0FA
:10CB600080460198002781463D46AEE70321E3E772
:10CB7000BDE8FC9F00600040100500501027002019
:10CB800000F01F02012191404009800000F1E020E7
:10CB9000C0F88012704700F01F0201219140400947
:10CBA000800000F1E020C0F80011704700F01F0283
:10CBB000012191404009800000F1E020C0F80012FE
:10CBC00070474907090E002806DA00F00F0000F14F
:10CBD000E02080F8141D704700F1E02080F8001478
:10CBE0007047000007480021C0F84011C0F8441108
:10CBF000C0F84811C0F84C11C0F80011C0F8041179
:10CC000002F042BF0010014002F0DABE074810B542
:10CC1000406830B18047002807D0BDE8104000F0E0
:10CC200047BEBDE8104001F095BE10BD241F002096
:10CC300070B58D480023021D0178101D01240629BE
:10CC400007D115782D0704D10578C5F30315032DF9
:10CC500002D0062904D00FE0854E844D75670EE0A2
:10CC600015782D0708D10578C5F30315032D06D0D7
:10CC7000042D04D0052D02D0062909D010E04FF074
:10CC80008055D5F844527B4EC5F34235356002E0FD
:10CC900015782D0704D10578C5F30315032D02D0AF
:10CCA000062906D011E0744D2E6826F080762E609D
:10CCB0000EE015782D0708D10578C5F30315032D6F
:10CCC00006D0042D04D0052D02D006290AD011E08B
:10CCD0004FF08045C5F80C31C5F81031654D2D1F5A
:10CCE0002B6002E015782D0704D10578C5F30315F4
:10CCF000032D02D0062905D00CE05E4A03216432E0
:10CD000011600AE015782D0704D10578C5F30315E5
:10CD1000032D02D006290DD06AE0584A0521116082
:10CD2000564978310C60554908310B603F21121D7E
:10CD3000116002E0117809075AD10078C0F303109E
:10CD4000052855D14E4800684E4908604C48001DE2
:10CD50000068091D08604A4808300068091D08601D
:10CD600047480C300068091D0860454810300068CD
:10CD7000091D0860424814300068091D08604048D9
:10CD8000183000683F49203108603D481C30006879
:10CD9000091D08603A4820300068091D08603848BD
:10CDA00024300068091D0860354828300068091DD6
:10CDB000086033482C300068091D08603048303066
:10CDC00000683049403108602D4834300068091D42
:10CDD00008602B4838300068091D086028483C303E
:10CDE0000068091D0860264840300068091D086079
:10CDF00021487438016841F470010160BFF34F8F1E
:10CE0000BFF36F8F4FF01021D1F80002002803DB31
:10CE1000D1F80402002822DA1B4A14601B48046877
:10CE2000002CFCD01524C1F800420568002DFCD070
:10CE3000C1F8044201680029FCD013600168002990
:10CE4000FCD0BFF34F8F0C48F0380168104A01F452
:10CE5000E06111430160BFF34F8F00BFFDE70E4952
:10CE60000C48086070BD0000E00F00F00DF0ADBA96
:10CE700000C007403C050040FCED00E010560040BB
:10CE80000404001020C5004004E5014000E4014016
:10CE90000400FA050090D003381F00200348007FEB
:10CEA00008B102F05BBF02F0D5BE00006827002089
:10CEB0000FB4054B10B503A9044A029800F0DAF844
:10CEC00010BC5DF814FB0000EFE80100201F0020FB
:10CED00002E008C8121F08C1002AFAD17047704743
:10CEE000002001E001C1121F002AFBD170470000A1
:10CEF0002DE9FF5F82B00021DDE90430020DDDF88D
:10CF000040B0034318D044F61050A2F2FF3242431F
:10CF10001514119801281FD0A5EB0B00401C5FEAE7
:10CF2000000A4FF000064E4FDFF83891B0465046E9
:10CF300015D5CAF1000413E0119801244AA3012871
:10CF400001D16FEA0B010298119AC0E90031C0E9E2
:10CF5000024206B0BDE8F09FCBF10000DFE70446D7
:10CF60000021404A491842EB0450CDE9001012E07C
:10CF7000E00707D032463B4640464946FFF7AAFB4A
:10CF80008046894632463B4610461946FFF7A2FBCB
:10CF900006460F466410002CEAD1DDE90401DDE904
:10CFA0000023BAF1000F06DAFFF794FB42464B4626
:10CFB000FFF790FB05E0FFF7FFFB42464B46FFF70C
:10CFC000FBFB04460E460022284BFFF77DFC03D8EE
:10CFD0004FF0FF30014607E00022254B2046314646
:10CFE000FFF7D1FAFFF757FC102409E0002C0ADB09
:10CFF0000A220023FFF796FA039B30321A55641E6B
:10D0000050EA0102F2D1641C039AC4F111031444E2
:10D01000119A012A03D0012208430DD10AE00843E6
:10D0200004D000204FF0110B119072E7A3EB0B0519
:10D030006D1E0DE05B4504DD4FF0000205F10105BA
:10D0400004E003DA4FF00002A5F10105002AECD05C
:10D0500002981199C0E90231C0E9004579E7000062
:10D06000000014400000F03F300000000000F043DA
:10D070000000E03F2DE9FF4F95B09B4689460646EC
:10D0800000250FE2252877D100242746F84A012100
:10D09000059400E0044316F8013F203B01FA03F039
:10D0A0001042F7D130782A2811D06FF02F03307852
:10D0B000A0F13002092A16D8059A44F0020402EBC6
:10D0C000820203EB42021044761C0590EFE759F808
:10D0D000042B0592002A03DA504244F400540590D0
:10D0E00044F00204761C30782E2816D116F8010F71
:10D0F00044F004042A280DD06FF02F023078A0F1FC
:10D100003003092B09D807EB870302EB4303C71849
:10D11000761CF3E759F8047B761C30786C280FD026
:10D1200006DC4C2817D068280DD06A2814D104E0FA
:10D13000742810D07A280FD10DE044F400140AE0CE
:10D1400044F4801401E044F440147278824202D125
:10D1500004F58014761C761C307866280BD013DC1E
:10D16000582877D009DC002875D04528F6D0462805
:10D17000F4D047281AD19DE118E0632835D06428FF
:10D1800079D0652812D195E1702873D008DC672822
:10D19000F1D069286FD06E280DD06F2806D1B5E088
:10D1A00073282CD0752875D0782874D05A461799D2
:10D1B00090476D1C75E1C4F30250022809D0032882
:10D1C0000DD0D9F8001004280DD00D6009F1040924
:10D1D00067E1D9F80010EA17C1E90052F6E7D9F87B
:10D1E00000100D80F2E70D70F0E719F8041B8DF8C0
:10D1F000001000208DF80100EA46012003E059F8F4
:10D2000004AB4FF0FF3061074FF0000102D40DE096
:10D2100008F101018846B9420FDA8045F8DB1AF8B7
:10D2200008100029F4D108E008F101018846814284
:10D23000FADB1AF808100029F6D105985B46A0EB36
:10D24000080721463846179A00F094FA284400EB64
:10D25000080507E04DE029E10DE01AF8010B5A46F8
:10D2600017999047B8F10108F7D25B462146384636
:10D27000179A13E142E00A220092C4F302524FF0DF
:10D28000000A022A08D059F804CB032A4FEAEC71AD
:10D290000AD00DE029E02AE009F1070121F0070298
:10D2A000F2E802C1914609E00FFA8CFC4FEAEC71FA
:10D2B000042A03D14FFA8CFC4FEAEC71002907DAFB
:10D2C0000A460021DCF1000C61EB02012D2202E094
:10D2D000220504D52B228DF80420012203E0E20769
:10D2E00001D02022F7E7904659E00A2102E01022FF
:10D2F0000DE010214FF0000A00910BE010224FF0DA
:10D30000000A44F004040827009203E008224FF0CA
:10D31000000A0092C4F30252022A05D059F804CB45
:10D320000021032A08D009E009F1070121F00702D2
:10D33000F2E802C1914605E01FFA8CFC042A01D1F3
:10D340000CF0FF0C4FF00008220728D5702806D0FB
:10D35000009B83F0100353EA0A0305D00EE040223D
:10D360008DF80420012208E05CEA010206D0302298
:10D370008DF804208DF8050002229046009B83F072
:10D38000080353EA0A030AD15CEA010201D16207E9
:10D3900005D530228DF804204FF001087F1E582853
:10D3A00004D034A003900EA802900DE036A0F9E757
:10D3B00053466046009AFFF7B5F884460398825CAE
:10D3C0000298401E029002705CEA0100F0D10298BF
:10D3D00006A9081A00F1200A600702D524F4803457
:10D3E00000E00127574502DDA7EB0A0000E000201E
:10D3F00000EB0A01009005984144401A0590E003B3
:10D4000006D45B462146179A059800F0B3F9054407
:10D41000002706E001A85A46C05D179990476D1C89
:10D420007F1C4745F6DBE0030CD55B462146179A87
:10D43000059800F09FF9054404E030205A461799FA
:10D4400090476D1C0099481E00900029F5DC08E00B
:10D45000029802995A460078491C02911799904700
:10D460006D1CBAF10001AAF1010AF1DC65E10000CE
:10D4700009280100303132333435363738396162AA
:10D48000636465660000000030313233343536376E
:10D4900038394142434445460000000000F058F945
:10D4A0000544761C307800287FF4ECAD19B028468E
:10D4B000BDE8F08F620700D4062709F1070222F0C9
:10D4C000070CFCE80223E14603F000485FEA080C81
:10D4D00002D00FF2702C0DE05FEA045C02D50FF26F
:10D4E000682C07E05FEAC47C02D00FF2602C01E0F8
:10D4F000AFF2700C4FF0FF3823F00043CDF850C06E
:10D5000065280CD006DC452809D046281DD04728C0
:10D510003DD13DE0662818D067287ED138E0002153
:10D52000112F01DB112000E0781CCDE9000106A9D4
:10D530000EA8FFF7DDFCDDE90F010E9A0391002133
:10D54000009207F1010A04914DE04FF0004000976E
:10D55000CDE9011006A90EA8FFF7CAFCDDE90F020C
:10D5600003920E9B11990022DDF80CA00093049207
:10D5700011B9791C00EB010AB7EB0A0004D4C0F121
:10D58000FF3007F1010A0490AAEB0700019044E084
:10D59000012F00DA01270021112F01DD112000E009
:10D5A0003846CDE9000106A90EA8FFF7A1FCDDE988
:10D5B0000F010E9A0391002104910092BA462107AF
:10D5C0000CD40399514500DA8A46BAF1010F05DD02
:10D5D000009AAAF10101515C302908D0B84202DA60
:10D5E00010F1040F06DA0121CDE9011015E0AAF1CE
:10D5F0000101E9E7002805DC049901440491AAEB44
:10D60000000102E0411C514500DD8A460499401AA0
:10D61000401C01904FF000400290200704D4019874
:10D62000504501DBCDF8048000208DF84F000298B2
:10D630000DF14F07B0F1004F25D02B200E9002982E
:10D640004FF0020800280CDA404202902D200E9084
:10D6500007E00A210298FEF74FFF3031029007F8E9
:10D66000011DB8F10001A8F10108F2DC02980028C0
:10D67000EFD1791E0E980870307800F0200040F04D
:10D68000450007F8020D12A8C01B00F10708149806
:10D69000007800B1012000EB0A01019801EBE07174
:10D6A00005984144401A401E0590E00306D45B46AD
:10D6B0002146179A059800F05DF805441498007803
:10D6C00018B15A46179990476D1CE00324D55B4664
:10D6D0002146179A059800F04DF805441CE004987F
:10D6E000002807DBDDE90301884203DD0098405C88
:10D6F000179901E0179930205A469047049805F190
:10D700000105401C04900198401E019004D12E2078
:10D710005A46179990476D1CBAF10001AAF1010A07
:10D72000DDDC05E017F8010B5A46179990476D1C90
:10D73000B8F10001A8F10108F4DC5B462146179A14
:10D740000598ABE62D0000002B0000002000000033
:10D750002DE9F041044600251E461746880404D4EE
:10D7600005E039462020B0476D1C641EF9D52846D7
:10D77000BDE8F0812DE9F041044600251E469046A3
:10D78000C80301D5302700E02027880404D505E030
:10D7900041463846B0476D1C641EF9D52846BDE8A1
:10D7A000F08110B501220221002000F01FFD08B118
:10D7B000072810D107220221012000F017FD08B12F
:10D7C000072808D100210A22084600F00FFD08B101
:10D7D000072800D1002010BD064800684FF4002142
:10D7E000044A8143121D1160111D00F400200860DD
:10D7F000704700000405005070B50024064D06E097
:10D800006868012110F8340001F0CEFA641C287811
:10D810008442F5D3002070BDEC1E0020F8B51546FB
:10D820000C460646052A01D20720F8BD01F09EFBF2
:10D8300018B901F071FB0028F7D1104900204E60A3
:10D840000C70C1E902500E4D08610DE006EBC400FA
:10D850006968009181788DF801100078094A69465D
:10D8600001F0F4FA0028E0D1641EE4B2EED2BDE883
:10D87000F840054A0021024800F04EB8EC1E002096
:10D880006CFF0100FDE8010051E70100BFF34F8F7D
:10D8900005480168054A01F4E06111430160BFF3E6
:10D8A0004F8F00BFFDE700000CED00E00400FA051B
:10D8B0000EB500210091CDE901106A4644F2010045
:10D8C000FFF7E4FF0EBD10B58268C368934203D032
:10D8D00000F0FAFF002010BD052010BD29B112B1E3
:10D8E000531E134203D0092070470E207047016079
:10D8F000838000218160C1600846704710B582684E
:10D90000C3689A1A83889A4203D800F0E7FF002080
:10D9100010BD042010BD0000074B9B6823B12AB145
:10D9200020B10068037C1BB10820704707207047B6
:10D930004174426100207047001F00202DE9F0472C
:10D940008046994614460F4690074FF0000634D1A2
:10D950001C4D8CB301F040FF0320C5F814902870D3
:10D9600004F11800002107EB4703AC6004EBC1028F
:10D97000491C167056709770506000EBC300032965
:10D98000F4DBEE606E70AE701420FFF7F9F806213C
:10D990001420FFF716F91420FFF7FDF80A49C1F823
:10D9A000008006211120FFF70CF90748001F0068CE
:10D9B00028610020BDE8F08701E00720FAE7AE60AB
:10D9C000FBE70000001F0020081501402DE9F84387
:10D9D000DFF870900D461746D9F80810044651B389
:10D9E0004CB3052D02D20720BDE8F883606910B35F
:10D9F000607C012821D0002602F01CFAD9F808101A
:10DA0000804601EBC800694602F033FAB8B1012143
:10DA100000F8041B0C4910C0096880E8E200D9F83E
:10DA2000081001EBC8009DF8001041701420FFF7AA
:10DA3000BDF80020D8E70820D6E72E46DCE7042012
:10DA4000D2E70000001F002004150140F8B5124E77
:10DA50000446B168E1B1DCB16069C8B10027277440
:10DA600002F0E8F90546B068694600EBC50002F02F
:10DA700000FA78B1022101704460B0689DF800108E
:10DA800000EBC50041701420FFF790F83846F8BD50
:10DA90000820F8BD0420F8BD001F002010B5044682
:10DAA00009488168C2688088511A814206D10121E3
:10DAB000064801F0AFFA08B1052010BD2146BDE8C7
:10DAC00010400148FFF7FFBEF0260020E51E0020B1
:10DAD00070B50446234888B01E460D00426035D01C
:10DAE000A888296882B22048FFF7F8FE00282ED1C6
:10DAF000A889A96882B21C481030FFF7EFFE002801
:10DB000025D1202219496846FEF7D2FCA06806906C
:10DB1000207900B101208DF814008DF81C60607927
:10DB200000B10E208DF81500E0780290A0780390E7
:10DB300020780190607800900D49684601F020FA45
:10DB4000002804D19DF81D0018B104E0072008B09A
:10DB500070BD01F0A5FA03480121401C01F05AFAFA
:10DB6000F5E70000E41E0020F02600202CFF010055
:10DB7000ADFB010010B501460948FFF7BFFE0400E8
:10DB80000CD101F0BBFB48B906490548FFF79BFEE5
:10DB900020B90121034801F029FB0446204610BDAD
:10DBA00000270020E41E00202DE9F0410446007803
:10DBB000184F012606FA00F03860206801F0D1FB0A
:10DBC0000021606801F0C4FB1348144D007FA06978
:10DBD000C5F82405607D217D0843C5F86C05D4E9AE
:10DBE0000001C5F80C05C5F81415207D01280FD1DA
:10DBF0000021A06801F0ACFB207B86403E60E0681D
:10DC000001F0AFFBD4E90201C5F80815C5F810050D
:10DC1000BDE8F08108050050682700200020004082
:10DC200070B504460EA0FFF743F944B1154D2878AE
:10DC300038B1204601F0B4FD28B1002070BD0E209F
:10DC400070BD082070BDE868062807D20E4922681A
:10DC500001EB8001401C0A60E860EEE7042070BD23
:10DC6000424C4520444220446973636F7665727963
:10DC7000204576656E742052656769737465720D10
:10DC80000A000000D41E0020F824002040B10549FD
:10DC900000220123CA600B70C1E9010210467047DF
:10DCA0000E207047D41E002000281FD000291DD050
:10DCB0000F4A1278002A19D00A88112A0ED0302A69
:10DCC00006D0322A07D0332A10D1091D01F076BCC4
:10DCD000091D01F0D7BC091D01F0EABB8988B0F825
:10DCE000AA21914202D1002180F8A71170470000BB
:10DCF000D41E002010B50B46040009D0114801784D
:10DD000041B1C16831B194F8A71129B1112010BDFA
:10DD10000E2010BD082010BDA4F8AA31002181609A
:10DD200084F8A811084884F8A611224600682060EB
:10DD30000121184690DF0028EDD1012084F8A701C9
:10DD4000002010BDD41E0020F824002010B5044689
:10DD500001F042FB204600F07BF921460448FFF722
:10DD6000A3FF21460248BDE81040103800F062B819
:10DD7000E022002070B5054608780C46012807D03F
:10DD8000022817D0032821D1BDE8704001F076BDEC
:10DD9000618804F10A02284600F019F808B1FFF77B
:10DDA00087FD284600F0B6F800280FD0BDE8704087
:10DDB000FFF77EBD002506E06068405DFFF7DAFEF4
:10DDC0000028F9D16D1C207AA842F5D870BD48B161
:10DDD00041802AB15188C180118881809188018158
:10DDE000002070470E20704730B5114B0D460400DF
:10DDF0000FCB85B08DE80F0018D0BDB12146684625
:10DE000063DF002810D120788DF812000120ADF8D2
:10DE100010004FF6FF7060802868E0600020A0804E
:10DE2000208104A8FFF7FCFE05B030BD0E20FBE703
:10DE300004FF01001FB500282ED000292CD04288F5
:10DE40004FF6FF739A4202D08C88A24224D10C88EC
:10DE5000112C14D0392C1FD18288002A1CD08B8918
:10DE6000934219D1C268002A16D002228DF80020F0
:10DE700001F112020192097C8DF8081009E08988ED
:10DE8000914209D1C168002906D003218DF8001004
:10DE90004380C268694690471FBD7FB5002200924B
:10DEA0000192029203920B7801F10E02002B2FD106
:10DEB0008B88012B2CD18B790478A34228D10023A5
:10DEC00017E003EB430432F82450022D02D0032D57
:10DED0000ED105E002EB84042489ADF80E4007E082
:10DEE00002EB84042589ADF80A506489ADF80C4032
:10DEF0005B1C0C7A9C42E4D8C268002A08D049888E
:10DF0000ADF8021001218DF80010C26869469047F3
:10DF10007FBD00001FB5010019D04888A0F57F42E1
:10DF2000FF3A16D0C988A1B101228DF80C200A4B06
:10DF300000228DF80D20D3E90423CDE90023ADF8AC
:10DF4000021003A90291694698DF04B010BD0E20AB
:10DF5000FBE70820F9E7000004FF01003EB518B117
:10DF6000142A03D907203EBD0E203EBD4388A3F5E9
:10DF70007F44FF3C0DD0084D38CD8DE83800038933
:10DF80000291ADF80230ADF806204088694698DF6E
:10DF90003EBD08203EBD000020FF010000B5154831
:10DFA00087B00023406805904822134905A801F076
:10DFB000EDFC08B1FFF77CFC6A460021012001F06E
:10DFC000CFFC08B1FFF774FC0C4801F069FC08B104
:10DFD000FFF76EFC684601F0B9FC08B1FFF768FC7A
:10DFE000074801F0A9FC002801D0FFF761FC07B049
:10DFF00000BD00009CFE0100501F0020E01C00201E
:10E000004DDD01007CB5114E0C004FF00005306075
:10E0100015D06946002000F0B1F8002815D101A9FB
:10E02000012000F0ABF800280FD19DF8041009B1D1
:10E03000022003E09DF8001001B10B2020707068F1
:10E0400010B9FFF7AEFB054628467CBDCC1E00206C
:10E0500010B51A4C0188606810290ED011292BD1F7
:10E06000401E606028D1FFF79CFB002824D0216867
:10E07000002921D0BDE810400847D0B90021012275
:10E08000084600F0B3F808B107280FD10722022193
:10E09000012000F0ABF808B1072807D104220221C3
:10E0A000002000F0A3F820B1072802D0216801B1B8
:10E0B00088476068401C606010BD0000CC1E0020D6
:10E0C00010B5032000F024FA08B1062800D1002082
:10E0D00010BD00002DE9F04707460024244802E067
:10E0E000641C042C41D250F82420BA42F8D1042CEC
:10E0F0003BD21F48DFF87C901F4E0C38A9F1140862
:10E1000041B301290FD002292FD104EB4400304440
:10E110004578002D29D0D8F81010002925D02846A0
:10E12000BDE8F047084704EB4401755C0E44717884
:10E1300061B1D8F804100F4A01EB81014900133A8C
:10E140008068FFF743FC08B988F80170B17809F8D6
:10E150000410DEE78068FFF779FC04EB44013144EA
:10E1600019F804008D78A842D3D0BDE8F0870000EC
:10E17000D4FE0100C81E0020CC24002004280CD2AC
:10E18000074A1268074B13F820300120984090434B
:10E1900000D001200870002070470020FAE700003E
:10E1A00010050050D4FE010010B504280ED00A2836
:10E1B00018D1002000F03CF808B1FFF779FBFFF719
:10E1C0007FFF08B1FFF774FB3CDF05E00648132131
:10E1D000408876DF082805D0002803D0BDE810402D
:10E1E000FFF766BB10BD0000D022002070B50023F1
:10E1F000042810D20D4D00EB4004012A02D1012960
:10E200000CD00022094E00EB4000304461B10129DE
:10E2100006D0022906D00723184670BD0D30C2B2C1
:10E220002A55F9E74270F7E78270F5E7CC24002021
:10E23000044A01460020127AD20702D0084600F0B4
:10E2400055B87047B41E002070B50E4621490546EA
:10E2500000200A61C1E90165A9071BD5002401223C
:10E2600011462046FFF7C2FF641C042C02D200288E
:10E27000F5D00FE070B9720804211748FFF7CEFA05
:10E2800040B9FFF7B9FA28B91348144A00211438E5
:10E29000FFF742FBE9070AD0114A4FF4F011116071
:10E2A0000F4B00221B1D1A600D4A1032116000280E
:10E2B0000FD109480B4A00211C38FFF72DFB00281D
:10E2C00007D1BDE8704004480121074A1838FFF71C
:10E2D00023BB70BDB41E0020E4FE01004DE501002B
:10E2E0000805005009EB0100D9D701002DE9F84FCE
:10E2F000854EDFF810A24FF4E01CF16807462CEAC7
:10E30000010C0091002071680AF10404251D7F4B67
:10E310004FF400324FF4802B01EB810E8146182F11
:10E3200016D2DFE807F00C17173A4E607083868F1D
:10E33000868FEAA0A0A0A0A0CAD1D8E1EAEA009AFC
:10E340004FF4F01191432160C5F8009086F80090D9
:10E35000BDE8F88FC4F800C04846C5F80090DAF868
:10E3600000C08CF4F01C5FEA8C3C09D52260286068
:10E37000022F02D14FF4E16008E04FF47A6005E02B
:10E380002A602060022F3CD04FF4C8706422B0FB9A
:10E39000F2F04143377000225EE0C4F800C0484606
:10E3A000C5F80090DAF800C08CF4F01C5FEA8C3CF1
:10E3B00004D5226028604FF44870E7E72A602060A7
:10E3C0001FE0C4F800C04846C5F80090DAF800C065
:10E3D0008CF4F01C5FEA8C3C02D522602860CCE70C
:10E3E0002A602060D0E7C4F800C04846C5F8009015
:10E3F000DAF800C08CF4F01C5FEA8C3CDED52260B9
:10E400002860C820C2E7C4F800C04846C5F800909C
:10E41000DAF800C08CF4F01C5FEA8C3C02D5226074
:10E42000286001E02A602060377014E0C4F800C062
:10E430004DE0DAF800002BEA0002226000F48020B0
:10E44000286008E0DAF800002BEA0001216000F4FF
:10E4500080202860714600221868BDE8F84FFFF759
:10E46000B5BA21602EE098465868FFF7EFFAD7F169
:10E47000110100D040B1F16801F4F0112160C5F83C
:10E480000090C6F80C9063E74FF40022F260012977
:10E490000CD9C82011FB00F16420B1FBF0F17068C9
:10E4A00000224143D8F80400FFF790FAF16801F424
:10E4B000F0112960C4F800904AE74FF4F011216090
:10E4C000C5F80090377043E74FF4E01121604946EA
:10E4D000C5F8009006E04FF4D01121604946C5F818
:10E4E00000905A462A60BCE74FF4C01121604946AB
:10E4F000C5F800904FF4C022F4E74FF4F011296002
:10E500004946AEE704050050B41E0020C8FE0100D5
:10E5100070B500210C4D012455F82120920002F124
:10E52000A042D2F8006704FA01F3034000D00323AD
:10E5300026F4403646EA0343C2F80037491C042952
:10E54000EAD3002070BD0000D4FE01000078022153
:10E55000FFF7C0BD05494FF0FF32082841F82020E1
:10E5600002D3084480F8482070470000102700209C
:10E57000F0B54FF0FF3512B10023082601E0082363
:10E580000C260C4C05E000BF54F823707F1C04D00F
:10E590005B1CB342F8D32846F0BD26185DB286F85E
:10E5A000305044F82310002AF5D1E11881F84800D2
:10E5B000F1E70000102700200249084490F93000DC
:10E5C000704700001027002008B5024690F8A60109
:10E5D0000B46C0EBC00000EB800002EB400092F85D
:10E5E000A52142B1521ED2B202EB420100EB8102E0
:10E5F000518A491C00E0C188ADF800100089ADF8CF
:10E6000002006946184692DF08BD00002DE9F05F60
:10E610002648C168F1B3DFF898B00E688146DBF890
:10E6200000400769C078E11B21F07F45ED1CB0B9BF
:10E63000DFF880804FF48030C8F84403C8F8040342
:10E640001120FEF79DFA1120FEF7A5FA4FF0010AFE
:10E65000C8F800A02F20FDF7DDFE89F803A0B54221
:10E6600000D23546124BE8193C3320F07F40186049
:10E67000DBF800105A46091B21F07F41001B20F0F7
:10E680007F40C91C81420FD9106818602F20FDF708
:10E69000C1FE00E004E0BDE8F05F1120FEF786BA9D
:10E6A000BDE8F05F01F098B8BDE8F09F001F0020C2
:10E6B000041501400010014001460148FFF7EDBB81
:10E6C000D02200202DE9F843054690F8A60195F8E0
:10E6D000A541C0EBC00000EB800005EB40060F46F3
:10E6E00004EB4400914606EB80013279601C0A314C
:10E6F000904226D16B460022284600F063F918B3F9
:10E7000010E0401EA04201D1002004E004EB4400D0
:10E7100006EB80001630804602466B46284600F025
:10E7200051F930B1002038706946484693DFBDE8A2
:10E73000F88395F8A5014146401C641C85F8A501A5
:10E74000E4B23079A042DCD8012038700020EEE736
:10E750002DE9F04100260125144C22E06068226971
:10E7600000EBC607387805FA00F1114217D08A434A
:10E77000226100F0C7FB02463878E36805FA00F131
:10E78000194002FA00F3994209D17978012901D0A0
:10E79000012100E0002151407A6802B19047761CC7
:10E7A000F6B220788642D9D3BDE8F081EC1E002075
:10E7B0002DE9F047894690F8A6119046C1EBC101BA
:10E7C00001EB810100EB4107384600F0E9FF06004C
:10E7D00039D01E4CA068062835D21D4D00EB8000B4
:10E7E00005EB00104622A0F802803946001DFDF717
:10E7F0005FFE0027B9F1000F06D0A06800EB800093
:10E8000005EB0010077006E0A168022001EB810112
:10E8100005EB01110870A06800EB800105EB011108
:10E82000401CCE64A060E16888420CD1002606E05E
:10E8300006EB860005EB0010C16C8847761CE0688B
:10E840008642F5D3A760BDE8F0870000D41E002003
:10E850001025002030B50D4690F8A61193B0C1EBFD
:10E86000C10101EB8101144600EB410000F098FF6B
:10E87000030007D0ADF8024001208DF80000684683
:10E880000195984713B030BD0E4910B54A788C7881
:10E890000023A24212D0521CD2B24A70022A00D1E6
:10E8A0004B70084A4B78183252F8232002600869EE
:10E8B000104420F07F400861012010BD036000205B
:10E8C00010BD0000001F0020826883881A40036882
:10E8D0009A5C0A708168491C81607047C2688388AD
:10E8E0001A4003689954C168491CC160704710B54B
:10E8F0000446C0B2FFF73EF9204610BD2DE9F041B5
:10E90000124E07460125BD403068FFF79FF80028EA
:10E910000DD10F4C2069284207D1384600F0F2FA99
:10E920000028E06805D0284304E0A8432061BDE842
:10E93000F081A843E060206928432061A168306825
:10E94000BDE8F0410022FFF741B800006CFF010074
:10E95000EC1E0020F8B51A4C207800282ED0206933
:10E9600028B10026E06820B1002526B110E001267C
:10E97000F8E70125F9E7684652DF052803D020B102
:10E98000FEF796FF04E0012602E02169009888471F
:10E9900085B96088ADF800006946A06861DF052888
:10E9A00003D020B1FEF784FF04E0012502E0D4E9A2
:10E9B00002018847002EDED0002DD6D0F8BD000021
:10E9C000241F002009892AB1D088491C814218D10E
:10E9D0000020704790F8A621C2EBC20202EB82022F
:10E9E00000EB420212899142F2D0491C198090F842
:10E9F000A611C1EBC10101EB810100EB41000089CF
:10EA000002E01980D088401E588001207047000025
:10EA10002DE9F8430E468146002401F1090564E022
:10EA200029192F5D487802280AD0032808D0042825
:10EA300024D0052822D006283ED007283CD052E01A
:10EA40004FF0000816E000BF04EB48004119022017
:10EA50006A46891C64DF58B9BDF80010B9F8000097
:10EA6000814205D19DF8021099F80200814234D00C
:10EA700008F10108B8EB570FE6D334E04FF0000877
:10EA800016E000BF04EB8800411902206A46891C89
:10EA900064DF58B9BDF80010B9F80000814205D113
:10EAA0009DF8021099F80200814216D008F1010881
:10EAB000B8EB970FE6D316E010206A46891C64DF96
:10EAC00088B9BDF80010B9F8000081420BD19DF85B
:10EAD000021099F80200814205D107A0FEF7E8F97B
:10EAE0000120BDE8F8833C44641C307AB4EBD00FBD
:10EAF00096D30020F5E7000055554944206973205E
:10EB000070726573656E74000348017AC90702D09C
:10EB10000078FFF7EBBB7047B41E00202DE9F047EB
:10EB2000DFF8ACA0DAF80C009AF8004080469AF8BA
:10EB30000460DAF80890DAF810703AE009EBC405DE
:10EB40002A7833E002EB42016B68521C03EBC101EF
:10EB5000AB78D2B2934200D100220B78022B02D0C4
:10EB6000032B23D11FE0D1F804C00346014603E084
:10EB7000614503D00B46C969C1B1F9E7B1B18B4218
:10EB800005D1C06918B9134F0126BE600027D1F81E
:10EB900000C0C969D96149B10B6863440B6005E0E5
:10EBA0000174C06900E000210028F9D16978914220
:10EBB000C8D1641EE4B2C1D2CAE903078AF804606E
:10EBC000404502D00120BDE8F0870020FBE70000AF
:10EBD000001F0020001001402DE9F04705462F4896
:10EBE000002680460778D0F80C904BE0D8F8080053
:10EBF00000EBC70440E002D02846ED691EE0207813
:10EC0000616800EB4002401CC0B201EBC201207001
:10EC1000A278904200D126700A784868012A2DD146
:10EC2000027C5ABB8A684260CA6882600A69C26014
:10EC30004969816198F8041001B146604268D8F8CA
:10EC40001030DFF85CC0D11A21F07F41614502D25B
:10EC50008268114406E0991A826821F07F418A4255
:10EC600002D9511A016000E0066046600121866009
:10EC70000174C66100F0EAFE002DBCD120786178F5
:10EC80008842BCD17F1EFFB2B0D2D8F80C104945E3
:10EC900002D00120BDE8F0870020FBE7001F002024
:10ECA000FFFF7F00002388B0244A03211846FEF7A7
:10ECB00045FE08B1FEF7FCFD214A04AB07CA83E814
:10ECC00007002048009020494FF48070CDE90101F1
:10ECD000039006231D4A694604A8FEF7F9FE08B111
:10ECE000FEF7E6FD1A4A40F6CD410120FFF7ACFAE7
:10ECF00008B1FEF7DDFD69460020FFF783F908B192
:10ED0000FEF7D6FD1348FEF7C1FF08B1FEF7D0FDB0
:10ED1000FFF744F91048009069461048FFF764F87F
:10ED200008B1FEF7C5FD00F0A9FD0DA0FEF7C0F883
:10ED300048DF0028FCD0FEF7BBFDF9E79821002052
:10ED4000BCFE0100981F00209820002055FB010008
:10ED5000A9E10100B9E6010075DD0100D022002023
:10ED60005363616E20737461727465640D0A0000F0
:10ED70004907090E002806DA00F00F0202F1E0222E
:10ED800082F8141D03E000F1E02282F8001400F084
:10ED90001F02012191404009800000F1E020C0F8ED
:10EDA0008012C0F8001170472DE9F047884681466F
:10EDB00000F0DEFC0124224E0028484618D0FFF760
:10EDC000FBFB304490F848008009032802D001285A
:10EDD00006D007E01B48006804FA09F4204201D17C
:10EDE000022100E003214846BDE8F04700F0C3BA25
:10EDF00000F0CAFC002820D04846FFF7DDFB05469E
:10EE0000114F4FF4807007EB850100EB8500D1F8BE
:10EE1000102580B242F00102C1F8102500F0BAFAC4
:10EE2000B8F1000F09D04846FFF7C6FB56F820009E
:10EE3000002802D0AC40C7F80443BDE8F0870000CA
:10EE40001027002010050050006000402DE9FC4113
:10EE5000DFF8A480044608EB0400002790F9300096
:10EE60001346C0170E46401C01D0082740E0F27838
:10EE700019462046FFF77CFB0546401C37D0B0788A
:10EE800048B1A00000F1A040D0F8001721F0020125
:10EE9000C0F8001707E000217378204600910A4669
:10EEA000019100F033FAF078C0B11448317800EBEA
:10EEB0008500D0F81025124B1A40C0F810254FF4E9
:10EEC000F8524FF4403302EA042203EA01410A43B4
:10EED000D0F810150A43C0F8102509E008EB05002A
:10EEE000327810F8481F41EA8211017000E00427CF
:10EEF0003846BDE8FC81000010270020006000407B
:10EF0000FFE0FCFF03490968C14011F0010000D097
:10EF1000012070471005005070B5124D95F854004F
:10EF200008B1082070BD0020411E2A18401CC0B244
:10EF300082F830102028F8D300242046FFF70AFB7F
:10EF4000641CE4B20C2CF8D306210846FFF710FF2E
:10EF500005494FF00040C1F80403012085F8540032
:10EF6000002070BD1027002000600040034890F88A
:10EF70005400002800D00120704700001027002016
:10EF80002DE9F0411E4C07460D46E07E10B10820E9
:10EF9000BDE8F08107B91B4F787F20773846FEF730
:10EFA00003FE6560386920602800174E4FF00005A9
:10EFB00016D0397F207F48B1C6F81051C6F82051CD
:10EFC000C6F82451C6F84451104804E0C6F81C5154
:10EFD000C6F844510E48C6F804030220FFF7C8FEE5
:10EFE000207F08B1082000E00420C6F80005E57580
:10EFF0002576A5750120E076A5760020C8E70000FB
:10F00000682700204CFF0100002000401003020090
:10F01000800002002DE9F0411F4B1C7F3CB14FF4F2
:10F020000052B2EB104F02D01020BDE8F081D3F8AF
:10F0300004C00022194D4FF404764FF40177BCF15F
:10F04000000F05D014B1C5F8086301E0C5F80873D6
:10F0500093F817E0BEF1000F10D01A7E52B1BCF148
:10F06000000F05D014B1C5F8046301E0C5F80473BE
:10F070001120DAE718610122197604E0D97500251C
:10F08000D8605D761D761CB1BDE8F04100F066B831
:10F09000BDE8F04100F014B86827002000200040CF
:10F0A00010B5064C207F002806D1A07E002803D191
:10F0B00000F0D8FB0120A07610BD000068270020DA
:10F0C0002DE9F05F234DA87E104301D100F0CAFB6B
:10F0D000214C686830B14FF40170C4F8040300207B
:10F0E000BDE8F09F4FF000094FF4A27AC4F84491B4
:10F0F0004FF4927BA8465946204600F05DF905463C
:10F100004FF48471204600F057F9074651462046D7
:10F1100000F052F9064647EA06012943EBD055EACA
:10F12000060007D100F076FB98F8171098F8190040
:10F130008142E0D888F817900DB10320D0E70EB1D6
:10F140000F20CDE798F81A10012009B12060C6E71A
:10F150006060C4E768270020002000402DE9F05FD0
:10F16000204C00264FF48873C4F810614FF4A27548
:10F17000C4F84461C4F83405C4F838158AB1D4F829
:10F18000000240F02000C4F80002DFF85C80D8F8EC
:10F19000040048B14FF40470C4F804030020BDE833
:10F1A000F09F01202060F0E79A46A9464FF4927B39
:10F1B0005146204600F00BF905464946204600F02E
:10F1C00006F907465946204600F001F93D4305433C
:10F1D000EED088F8176008B10320E0E7002FDDD0FB
:10F1E0000F20DCE700200040682700202DE9F047D1
:10F1F000204D0246287F38B14FF40050B0EB124F3B
:10F2000002D01020BDE8F08700F078F808B1112096
:10F21000F8E7A9750023AA60AB82287F28B3164CB3
:10F2200000264FF490709846C4F820314FF4AC7328
:10F23000C4F85881C4F84425C4F848150121A160D8
:10F24000696881B9824699465146204600F0BFF868
:10F2500007464946204600F0BAF80743F4D000B10B
:10F260000F2685F816803046CCE7BDE8F04700F061
:10F2700005B8000068270020002000402DE9F05F5D
:10F280001C4F00254FF48E7A2E46C7F81C514FF0C4
:10F290000108C7F8088000F039FC174CB815616800
:10F2A00079B123E05F465146484600F085F810B931
:10F2B000A08AB842F7D1A08AB84204D000F026FC58
:10F2C00001E08346B946A08AA17D8842EAD3A08A9C
:10F2D000584501D10F2508E04F465146384600F009
:10F2E0006BF80028F9D0C7F80C80A6752846BDE851
:10F2F000F09F000000200040682700200248807D29
:10F30000002800D0012070476827002030B541EA6E
:10F310004201DDE9034541EA8301800041EA04211D
:10F3200000F1A04041EA0541C0F8001730BD30B5FA
:10F3300041EA4201DDE9034541EA8301800041EAF7
:10F34000042100F1A04041EA0541C0F8001730BD9A
:10F350001CB500220B46009211460192FFF7E7FF11
:10F360001CBD1CB5002100910B46012201911146E4
:10F37000FFF7DDFF1CBD800000F5E06000F1A0405C
:10F38000026822F440320260026842EA01410160F0
:10F3900070470000034908B5084400210160006877
:10F3A000009008BD0060004002494058012800D08C
:10F3B00000207047006000404058002800D0012025
:10F3C0007047D0F80403084000D00120704740582F
:10F3D000002800D0012070473EB50446011D00887A
:10F3E0001B2842D009DC10282FD013282CD1002351
:10F3F000A0881A4685217FDF31E01D2805D01F280F
:10F4000022D131F8040B75DF29E0091D0C461A489A
:10F41000FFF7FEFA002817D0174A2046083202F1FB
:10F4200008018CDF00280FD1FEF702FF08B1FEF7BC
:10F430003FFA2079A27961798DE80700E378A27814
:10F4400061780EA0FDF734FD3EBD0720FEF7F0FE0B
:10F4500008B1FEF72DFAA1881448FEF74BFC0028EE
:10F46000F2D0BDE83E40FEF723BA08790228EBD17E
:10F47000BDE83E4000F002BA9CFE0100436F6E6E94
:10F48000656374696E6720746F2074617267657458
:10F4900020253032782530327825303278253032C8
:10F4A0007825303278253032780D0A00E0220020AD
:10F4B0002DE9F84F05460C460888B5F8AA11884290
:10F4C00054D195F8A601DFF8F0A0C0EBC00000EB26
:10F4D000800005EB400160884FF003094FF0000801
:10F4E000F0BB2689087904F10802F3B250FA86F6D7
:10F4F000052E01D8034400E005230B71002315E01D
:10F5000000EB400603EB830702EB470701EB86069F
:10F51000D7F802C0C6F80AC0D7F806C0C6F80EC0B1
:10F520007F897782401CA6F814805B1C0E79864286
:10F53000E6D895F8A62100EB4000C2EBC20202EB30
:10F54000820201EB800005EB4202C08812899042E2
:10F550000ED2F0B205280BD085F8A501218800E075
:10F5600006E02846FFF730F801000AD1BDE8F88F21
:10F5700085F8A581228869462846FFF7A3F801008F
:10F580000BD085F8A78122882846FFF763F98AF80F
:10F5900000902188AAF80210E8E79DF800000028F2
:10F5A000E4D0228801212846FFF702F92188284665
:10F5B00000F0A0F8DAE7000010250020F8B50546B5
:10F5C0000C460888B5F8AA1188424AD195F8A601D8
:10F5D00004F10801C0EBC00000EB800005EB400225
:10F5E00095F8A50100EB400002EB800360880A3328
:10F5F000B0B9002042F602170E880FE000EB400C75
:10F6000001EB4C0CBCF804C0BC4506D100EB40003B
:10F6100001EB40004088588102E0401C8642EDD852
:10F6200000268DF8006095F8A5011179401C8842EC
:10F6300003D101208DF8000018E085F8A50122888B
:10F6400069462846FFF73EF801000BD085F8A76110
:10F6500022882846FFF7FEF8094803210170218817
:10F660004180F8BD9DF800000028FAD022880121D1
:10F670002846FFF79DF82188284600F03BF8F8BDA2
:10F680001025002070B5054690F8A6010C46C0EB89
:10F69000C00000EB800005EB40012288B5F8AA010C
:10F6A000824224D1608848B100212846FFF780F8C3
:10F6B00021882846BDE8704000F01CB8D4F80A2024
:10F6C0000A60D4F80E00C1F8060021882846FEF72B
:10F6D0007BFF01000BD0002085F8A7012288284677
:10F6E000FFF7B8F80248032101702188418070BDFE
:10F6F000102500202DE9F041044690F8A8010E469F
:10F70000401C1949C0B284F8A801C9680327174DE5
:10F710004FF0000E884224D284F8A5E194F8A601A7
:10F72000401CC0B2C0EBC00101EB810104EB4102FF
:10F7300084F8A601A5F1180101EB80000121006801
:10F74000106082F804E0304690DF010007D084F8B2
:10F75000A7E132462046FFF77DF82F706E80BDE8A6
:10F76000F08184F8A7E1F8E7D41E002010250020DE
:10F770000449084490F93000082801DB0120704753
:10F7800000207047102700200449084490F93000F9
:10F79000082801D201207047002070471027002060
:10F7A00070B50C4B00210A4ADC680DE002EB8105C4
:10F7B0008678AD78B54206D132F821500688B54238
:10F7C00001D1586870BD491CA142EFD3002070BD23
:10F7D000F8240020D41E002070B5012670044FF0DC
:10F7E000E0210025C1F88001084C4010C4F848030E
:10F7F000C4F8080366602F20FCF70CFEA660044CDA
:10F800002F202561FCF706FEE57070BD0010014059
:10F81000001F002009480A490022C37DC1F80821C1
:10F8200043B1D1F81815437EC268D154417E491CBA
:10F8300041767047D1F8180570470000682700200E
:10F84000002000401FB501228DF8080004488DF803
:10F8500000200191D0E90012684690471FBD0000CA
:10F860006827002004480021C0F82411C0F80811BE
:10F8700001210160704700000020004010B50748DA
:10F880008ADF08B1FEF714F80120FEF7D1FC00284A
:10F8900003D0BDE81040FEF70BB810BDACFE010070
:10F8A00008B502490020009108BD0000B01E0020EC
:10F8B00010B50121202803DA1D4A8140114004E0DF
:10F8C000402803DAA0F12002914041B1002809DA72
:10F8D00000F00F0101F1E02191F8141D06E042F261
:10F8E000010010BD00F1E02191F800144909082938
:10F8F00014D299B1012911D004290FD005290DD0B6
:10F900000C4A946800F01F0301219940400944B15A
:10F9100052F820300B4342F8203007E042F2020058
:10F9200010BD800000F1E020C0F80011002010BDE3
:10F93000FC06FFBCA827002018B10349C8600020BE
:10F9400070470E2070470000241F00201CB503499B
:10F9500001910091694660DF1CBD0000B01E0020CF
:10F9600070B50E460546144614211046FCF7B9FD45
:10F97000012020800021216121732672657205B16A
:10F98000A072002070BDFDF781BF000030B409B146
:10F990008C0702D0072030BC7047074C0125A160BE
:10F9A00062800649636010DF0028F4D1257030BC06
:10F9B0001620FFF77DBF0000241F002087F90100FB
:10F9C0002DE9F84F204C00256846D4E903B6FEF730
:10F9D0005BFF8046FFF7A2F80746A946B8F1000F83
:10F9E00025D00023009ACC46E06819E0076801465C
:10F9F000974202D9BA1A026014E0C1F800C0D1F8E7
:10FA00000C80D21BC8693B448A46B8F1000F07D06E
:10FA1000F71827F07F47C1E90178CAF81C500D4656
:10FA20000028E3D1E0602846FFF7D6F804E0284636
:10FA3000FFF7D2F800B917B15846FEF7E7FD84F892
:10FA40000490BDE8F88F0000001F00200D4B10B59A
:10FA5000D96831B102680C68A24204D8A21A0A60BF
:10FA6000C161D86010BD0B4603E00B46C969121B8B
:10FA700021B10C689442F8D3A41A0C600260C161F1
:10FA8000D86110BD001F00202DE9F0411D4DEC682C
:10FA9000002C35D01C48002700682969B846401A58
:10FAA00020F07F462068B04215D82246361A074417
:10FAB000E469107C68B182F810806B6933B1D2E9D7
:10FAC0000501984728B1FDF7F3FE02E0D2E90510E1
:10FAD0008847002CE6D16978A878814206D1401C7D
:10FAE000C0B2A870022801D185F802800548A97823
:10FAF000183040F82170BDE8F0411420FDF756B8E9
:10FB0000BDE8F081001F002004150140064A0020D6
:10FB1000C2F81C010548838A8168C95C838A5B1C22
:10FB20008382C2F81C15704700200040682700201F
:10FB30001FB500218DF8080005488DF80010826877
:10FB400001928175D0E90012684690471FBD000000
:10FB50006827002070B5017841B1012901D0022940
:10FB60001ED14068BDE87040FDF7A2BE0E4C0D4DA1
:10FB700020782844FDF792FF2078401CC0B2291855
:10FB8000207011F8011C0A2901D0142808D3054956
:10FB9000227801F56570FEF7E1F90028F7D12070B1
:10FBA00070BD00003C1F0020B01E00207CB5017815
:10FBB000264D012909D002292CD0002929D1294616
:10FBC0002348FDF780FE80B334E040680178204888
:10FBD0001038FDF793FE1E4C103C20B101218DF82A
:10FBE0000010019007E0A068E168081A012805D11B
:10FBF00000208DF80000696868468847A068E168C1
:10FC0000081AA188884204D810480121401CFFF737
:10FC100001FA7CBD02218DF80010C06801900B48EC
:10FC20000121401CFFF7F6F90CE0FFE7012107482E
:10FC3000FFF7DCFA06488168C0688842E9D10320F2
:10FC40008DF800006968684688477CBDE41E002086
:10FC5000002700202DE9FF413E4D4FF4007128465A
:10FC6000FFF7AFFB01273C4C4FF40178002600B3AF
:10FC70004FF492712846FFF79FFBD0B1C5F824617D
:10FC8000C5F80883A07E00B96F6002208DF80000DF
:10FC9000D5F88004C5F880040390E07D8DF8080055
:10FCA000E0680190E6752676D4E900126846904730
:10FCB00024E004212846FFF784FBF8B14FF4847157
:10FCC0002846FFF779FBC8B1FFF7A4FDE07D617E10
:10FCD000884213D1227E3AB1607EE168E2752269E2
:10FCE000E2602676667607E0A07E00B96F60C5F810
:10FCF0000883E675607EE168FFF7A4FD4FF48E711E
:10FD00002846FFF759FB58B1A18AA07D814202D253
:10FD1000FFF7FCFE04E0C5F81C6108B1FFF708FF1F
:10FD20004FF4A2712846FFF747FB00280FD0C5F813
:10FD30004461A07E00B12F60E07D002807D0E67509
:10FD4000607EE16804B0BDE8F041FFF77BBDBDE82F
:10FD5000FF81000000200040682700207FB5334C61
:10FD60004FF492712046FFF732FB314D0026B0B1BF
:10FD7000C4F8246102208DF80000D4F88004C4F88F
:10FD800080040390D4F83C058DF80800E8680190E1
:10FD9000EE752E76D5E90012684690471FE04FF4C5
:10FDA00088712046FFF713FBC8B1C4F81061D4F87E
:10FDB0003C05E97DC0B2814211D12A7E5AB1E96881
:10FDC000D4F8003223F02003C4F80032EA752A691F
:10FDD000EA602E7601E0EE75E968FFF733FD4FF437
:10FDE000A2712046FFF7F3FA50B1C4F84461E87DF0
:10FDF00030B1EE75D4F83C05E968C0B2FFF722FDDA
:10FE00004FF490712046FFF7E2FA00280CD0C4F8B6
:10FE10002061A87D002807D0D4F84C0504B0C0B2FA
:10FE2000BDE87040FFF784BE7FBD000000200040A9
:10FE300068270020EFF30580C005C00D13D01038EF
:10FE400040B2002806DA00F00F0000F1E02090F840
:10FE5000140D03E000F1E02090F8000440090228AE
:10FE600003D0062803D002207047002070470120ED
:10FE7000704742788378521CD2B2934200D100225C
:10FE80000378934201D1002070470A70416840789E
:10FE900000EB400001EBC0007047000001000200D1
:10FEA0000100000710003C0000009001010000006C
:10FEB00000000000A0005000000000000806050738
:10FEC0000100000000E0D7018C240020AC240020B9
:10FED000D82400200D0000000E0000000F000000DC
:10FEE000100000000D000300D5E001000E0003002B
:10FEF000D5E001000F000300D5E001001000030071
:10FF0000D5E001009ECADC240EE5A9E093F3A3B579
:10FF10000000406E0101000000000200000000002F
:10FF200002010000000000000000000006000000C8
:10FF300008000000070000000500000000000000AD
:10FF4000000000000000D6010600000006000000CE
:10FF5000080000000700000005000000000000008D
:10FF6000000000000000D6010600000088270020E5
:10FF70000300000094FF0100B01E00208C00000070
:10FF8000D0CE0100200002003C1F00207C28000091
:10FF9000E0CE0100000000000000000000000000B2
:10FFA0000000000000000000000000000000000051
:10FFB0000000000000000000000000000000000041
:10FFC0000000000000000000000000000000000031
:10FFD0000000000000000000000000000000000021
:10FFE0000000000000000000000000000000000011
:10FFF0000000000000000000000000000000000001
:020000040002F8
:1000000000000000000000000000000000000000F0
:100010000000000000000000000000000090D0037D
:040000050001C40131
:00000001FF
