:020000040001F9
:10C00000006900208DC4010095C4010097C401009F
:10C0100099C401009BC401009DC401000000000000
:10C020000000000000000000000000009FC40100AC
:10C03000A1C4010000000000A3C40100A5C40100C8
:10C0400009CE0100A7C40100E9D00100A7C4010086
:10C05000A7C40100A7C401000DCC0100A7C40100C2
:10C06000A7C40100A7C40100A7C40100A7C4010020
:10C07000A7C40100A7C40100A7C40100A7C4010010
:10C08000A7C4010031CE0100A7C40100A7C401006C
:10C0900055CE0100A7C4010059CE0100A7C401007C
:10C0A000A7C40100A7C40100A7C40100A7C40100E0
:10C0B000A7C40100A7C401000000000000000000A8
:10C0C000A7C40100A7C40100A7C40100A7C40100C0
:10C0D000A7C40100A7C40100A7C40100000000001C
:10C0E0000000000000000000000000000000000050
:10C0F0000000000000000000000000000000000040
:10C10000000000000000000000000000000000002F
:10C11000000000000000000000000000000000001F
:10C40000DFF80CD000F036FB0048004719070200A7
:10C4100000690020401E00BF00BF00BF00BF00BF7A
:10C4200000BF00BF00BF00BF00BF00BF00BF00BF14
:10C4300000BF00BF00BF00BF00BF00BF00BF00BF04
:10C4400000BF00BF00BF00BF00BF00BF00BF00BFF4
:10C4500000BF00BF00BF00BF00BF00BF00BF00BFE4
:10C4600000BF00BF00BF00BF00BF00BF00BF00BFD4
:10C4700000BF00BF00BF00BF00BF00BF00BF00BFC4
:10C4800000BF00BF00BFC5D170470000064880470D
:10C4900006480047FEE7FEE7FEE7FEE7FEE7FEE7A9
:10C4A000FEE7FEE7FEE7FEE77DCE010001C40100E6
:10C4B000A0F16101192900D82038704710B5431A3E
:10C4C000934209D28318881803E010F8011D03F87D
:10C4D000011D521EF9D210BD40EA01039B0703D093
:10C4E00009E008C9121F08C0042AFAD203E011F8B3
:10C4F000013B00F8013B521EF9D210BDD2B201E05F
:10C5000000F8012B491EFBD270470022F6E710B558
:10C5100013460A4604461946FFF7F0FF204610BDB1
:10C52000421C10F8011B0029FBD1801A704730B55E
:10C5300004460020034600E05B1C934203D2E05C0B
:10C54000CD5C401BF8D030BD034611F8012B00F83C
:10C55000012B002AF9D1184670472DE9F05F934668
:10C560000F4680460446002600F0DCFDD0F800901F
:10C57000824614F8015B2DB100F070F80068405D50
:10C58000C007F6D12B2D02D02D2D1AD0641E00210C
:10C59000CAF800105A463946204600F063F80146B2
:10C5A00027B13868A04201D1C7F80080DAF800004E
:10C5B000022809D0CAF80090700505D54842BDE8A8
:10C5C000F09F46F48066E2E70846F8E730B50B4690
:10C5D000014600202022012409E021FA02F59D42B3
:10C5E00005D303FA02F5491B04FA02F52844151E87
:10C5F000A2F10102F1DC30BD2DE9F05F054600201B
:10C6000092469B4688460646814640241BE02846C3
:10C6100041464746224600F04EFA53465A46C01A53
:10C62000914110D311461846224600F035FA2D1AD2
:10C6300067EB01084F4622460120002100F02CFA4A
:10C6400017EB00094E41201EA4F10104DFDC48462F
:10C6500031462A464346BDE8F09F00000048704737
:10C660004C3002002DE9F05F824600780027154625
:10C670008B460AF10104B946302801D09DB113E080
:10C6800014F8010B0127782803D0582801D045B1B0
:10C690000AE00DB1102D07D10027102514F8010B69
:10C6A00002E0082500E00A250026B0460EE005FB62
:10C6B000080005FB06F1012701EB10461FFA80F880
:10C6C000B6F5803F00D3B94614F8010B294600F0B7
:10C6D00014FA0028EBDABBF1000F05D00FB1641E8D
:10C6E00000E05446CBF80040B9F1000F06D000F04E
:10C6F00019FD02210160C81EBDE8F09F48EA06400E
:10C70000FAE72DE9FE4F804681EA0300C00F0C4690
:10C71000009021F0004123F00045B8EB0200A94150
:10C7200005D24046214690461C460B46024623F061
:10C730000040104347D0270DC7F30A00C3F30A5146
:10C740000290401A019040286BDAC3F3130040F4C2
:10C75000801B0098924620B10023D2EB030A63EBC2
:10C760000B0B01985946C0F14002504600F094F975
:10C7700006460D4650465946019A00F0ACF910EBBA
:10C7800008006141002487EA115284EAE7731A43E2
:10C7900040D0009A62B3019A012A4FEA075215DC91
:10C7A000001B61EB02014FF0004202EA0752CDE9A3
:10C7B0000042001C41F5801132462B4600F0BAF9C8
:10C7C00003B0BDE8F08F40462146F9E7001B61EB5E
:10C7D0000201001C41F5801300185B412018A2F5EE
:10C7E000001747EB030140EAD570B6196D4111E01F
:10C7F0006D084FEA360645EAC0754FEA0752001B3E
:10C8000061EB0201001C41F5801149084FEA30003C
:10C810000019514132462B4603B0BDE8F04F00F0FD
:10C820007AB90098012240000023D0EB020263EBAA
:10C83000E073009821464FEAE074B8EB000061EB2A
:10C840000401E9E783F000435BE781F0004158E72A
:10C850002DE9FE4F81EA030404F0004421F0004179
:10C8600000944FF0000B23F0004350EA01045ED027
:10C8700052EA03045BD0C3F30A54C1F30A552C44B3
:10C88000A4F2F3340194A0FB0254C1F3130141F468
:10C890008011C3F3130343F4801301FB024400FB34
:10C8A000034E840A970A44EA815447EA8357A4FB5B
:10C8B000076802958D0A05FB07854FEA932C04FB58
:10C8C0000C542705029D4FEA065847EA1637B5EB88
:10C8D00008056EEB070C870E920E47EA811742EAB5
:10C8E0008312A7FB0201B6EB0B0164EB00042B0DD6
:10C8F00043EA0C335E1844EB1C50DA465146E7FB22
:10C900000201C5F313044FEA0B3343EA14534FEA11
:10C910000432019C43EA0603A4F10C040294009C37
:10C92000CDE900B400F006F903B0BDE8F08F0020B7
:10C930000146F9E72DE9F04D81EA030404F0004BCC
:10C9400021F0004514464FF0000A23F0004150EA60
:10C95000050220D054EA01021DD0C5F30A57024651
:10C96000C5F31303C1F31300C1F30A5640F4801555
:10C9700043F48013A7EB0608101BD64608F2FD38D7
:10C9800073EB050002D308F1010801E092185B4146
:10C99000B8F1000F03DA00200146BDE8F08D002059
:10C9A0004FF48011064684460EE0171B73EB050713
:10C9B00005D3121B63EB050306434CEA010C49083F
:10C9C0004FEA300092185B4150EA0107EDD152EA7C
:10C9D000030012D082EA040083EA0501084305D06F
:10C9E000101BAB4106D20122002306E000224FF0CB
:10C9F000004302E06FF0010253101AEB06004CEB0B
:10CA0000085110EB0A0041EB0B01BDE8F04D00F0BE
:10CA100082B8C1F30A52C1F3130140F2FF3341F46B
:10CA200080119A4202DA00200146704740F23343F7
:10CA30009A42A2F2334202DC524200F03CB800F0CB
:10CA40002BB8000030B5041E71F1000404DB4FF078
:10CA50000044404264EB0101141E73F1000405DB45
:10CA60001C464FF00043524263EB0403994208BF57
:10CA7000904230BD064C074D06E0E06840F00103EF
:10CA800094E8070098471034AC42F6D3FFF7BCFC9B
:10CA90005030020070300200202A04DB203A00FAF5
:10CAA00002F1002070479140C2F1200320FA03F305
:10CAB000194390407047202A04DB203A21FA02F003
:10CAC0000021704721FA02F3D040C2F120029140C8
:10CAD000084319467047202A06DBCB17203A41FA53
:10CAE00002F043EAE07306E041FA02F3D040C2F1FB
:10CAF000200291400843194670473A2800D2303846
:10CB000020F02002412A01D3A2F13700884201D34C
:10CB10004FF0FF30704710B5141E73F1000408DAAF
:10CB2000401C41F1000192185B411A4301D120F0F1
:10CB3000010010BD2DE9F04D92469B4611B1B1FAAE
:10CB400081F202E0B0FA80F220329046FFF7A4FFB3
:10CB500004460F4640EA0A0041EA0B0153465A4692
:10CB6000084313D0114653EA010019D0C8F140021E
:10CB70005046FFF7A0FF05460E465046594642462E
:10CB8000FFF78AFF084305D0012004E0204639461C
:10CB9000BDE8F08D0020054346EAE0762C4337439C
:10CBA0000A986305E40AA0EB08000022FD0A44EAA3
:10CBB00047540A3002D500200146E9E70105101963
:10CBC0006941DDE9084500196941BDE8F04DA2E77A
:10CBD00030B58C1810F8012B12F00F0301D110F8AA
:10CBE000013B120906D110F8012B03E010F8015B9C
:10CBF00001F8015B5B1EF9D101E001F8013B521E17
:10CC0000FBD1A142E6D3002030BD00002DE9FC5F3E
:10CC10000025DFF83491A8464FF4807601242F4692
:10CC2000304604F007FA38B1D9F80403204203D0A3
:10CC3000304604F0F5F92543361D64007F1CB6B27A
:10CC4000082FEDD34FF4BE74204604F0F3F938B149
:10CC5000204604F0E5F93D4845F00045D0F8008055
:10CC60003B4E15F0FF0F14D0012700242F420CD0AB
:10CC700009EB8401D1F81005D1F81015C0F3042098
:10CC800056F82420C1F3014190477F00641C082C12
:10CC9000ECD3002D56DA00200190401E4CE07019B4
:10CCA00010F8501F90F9000021F0C004401C38D04B
:10CCB000012000FA04FA1AEA090F32D04FEA911B58
:10CCC000204602F069F856F82000009010B9BBF138
:10CCD000030F26D15146BBF1030F02D1019808433F
:10CCE0000190A00000F1A040D0F800071AEA080F58
:10CCF000C0F3014002D0022802D012E0032810D174
:10CD0000BBF1030F07D102281AD00221204604F0FC
:10CD100078F97F1CFFB2009818B1009A5946204656
:10CD200090476D1C042DBAD3002F0BD00748006824
:10CD3000404507D080460198002781463D46AEE732
:10CD40000321E3E7BDE8FC9F0060004010050050B0
:10CD50000027002000F01F020121914040098000BF
:10CD600000F1E020C0F88012704700F01F0201219E
:10CD700091404009800000F1E020C0F88012704727
:10CD800000F01F02012191404009800000F1E020E5
:10CD9000C0F88012704700F01F0201219140400945
:10CDA000800000F1E020C0F80011704700F01F0281
:10CDB000012191404009800000F1E020C0F80012FC
:10CDC00070474907090E002806DA00F00F0000F14D
:10CDD000E02080F8141D704700F1E02080F8001476
:10CDE00070470000BFF34F8F05480168054A01F402
:10CDF000E06111430160BFF34F8F00BFFDE700000A
:10CE00000CED00E00400FA054FF08040D0F8080176
:10CE1000012808D104490020086004490420086062
:10CE20000020FFF797BF70477805004008050050C5
:10CE300007480021C0F84011C0F84411C0F848115B
:10CE4000C0F84C11C0F80011C0F8041105F01EBC68
:10CE50000010014005F0B6BB074810B5406830B17E
:10CE60008047002807D0BDE8104000F053BFBDE860
:10CE7000104003F0EBBA10BDB421002070B58D480E
:10CE80000023021D0178101D0124062907D1157801
:10CE90002D0704D10578C5F30315032D02D006290B
:10CEA00004D00FE0854E844D75670EE015782D0790
:10CEB00008D10578C5F30315032D06D0042D04D041
:10CEC000052D02D0062909D010E04FF08055D5F885
:10CED00044527B4EC5F34235356002E015782D078C
:10CEE00004D10578C5F30315032D02D0062906D019
:10CEF00011E0744D2E6826F080762E600EE01578D5
:10CF00002D0708D10578C5F30315032D06D0042D90
:10CF100004D0052D02D006290AD011E04FF080453B
:10CF2000C5F80C31C5F81031654D2D1F2B6002E09E
:10CF300015782D0704D10578C5F30315032D02D00C
:10CF4000062905D00CE05E4A0321643211600AE034
:10CF500015782D0704D10578C5F30315032D02D0EC
:10CF600006290DD06AE0584A0521116056497831EA
:10CF70000C60554908310B603F21121D116002E021
:10CF8000117809075AD10078C0F30310052855D14C
:10CF90004E4800684E4908604C48001D0068091D55
:10CFA00008604A4808300068091D086047480C308E
:10CFB0000068091D0860454810300068091D0860B8
:10CFC000424814300068091D086040481830006865
:10CFD0003F49203108603D481C300068091D086049
:10CFE0003A4820300068091D08603848243000683D
:10CFF000091D0860354828300068091D086033485D
:10D000002C300068091D0860304830300068304915
:10D01000403108602D4834300068091D08602B48F5
:10D0200038300068091D086028483C300068091D38
:10D030000860264840300068091D0860214874389F
:10D04000016841F470010160BFF34F8FBFF36F8F30
:10D050004FF01021D1F80002002803DBD1F80402C0
:10D06000002822DA1B4A14601B480468002CFCD0FC
:10D070001524C1F800420568002DFCD0C1F8044217
:10D0800001680029FCD0136001680029FCD0BFF3BF
:10D090004F8F0C48F0380168104A01F4E0611143E9
:10D0A0000160BFF34F8F00BFFDE70E490C480860D9
:10D0B00070BD0000E00F00F00DF0ADBA00C00740F9
:10D0C0003C050040FCED00E0105600400404001058
:10D0D00020C5004004E5014000E401400400FA05D9
:10D0E0000090D003C82100200348007F08B105F05C
:10D0F0000BBC05F085BB0000582700200FB4084B7F
:10D1000010B504A902AA039800F0E2F8044602A9A7
:10D11000002000F074FC204610BC5DF814FB0000F9
:10D12000FFD9010000487047D421002002E008C860
:10D13000121F08C1002AFAD170477047002001E091
:10D1400001C1121F002AFBD1704700002DE9FF5FCB
:10D1500082B00021DDE90430020DDDF840B0034368
:10D1600018D044F61050A2F2FF3242431514119821
:10D1700001281FD0A5EB0B00401C5FEA000A4FF00E
:10D1800000064E4FDFF83891B046504615D5CAF12B
:10D19000000413E0119801244AA3012801D16FEA89
:10D1A0000B010298119AC0E90031C0E9024206B0B1
:10D1B000BDE8F09FCBF10000DFE704460021404AC4
:10D1C000491842EB0450CDE9001012E0E00707D007
:10D1D00032463B4640464946FFF73AFB8046894681
:10D1E00032463B4610461946FFF732FB06460F46CD
:10D1F0006410002CEAD1DDE90401DDE90023BAF175
:10D20000000F06DAFFF724FB42464B46FFF720FBF0
:10D2100005E0FFF78FFB42464B46FFF78BFB0446CA
:10D220000E460022284BFFF70DFC03D84FF0FF30CD
:10D23000014607E00022254B20463146FFF761FA00
:10D24000FFF7E7FB102409E0002C0ADB0A22002389
:10D25000FFF7D2F9039B30321A55641E50EA0102DF
:10D26000F2D1641C039AC4F111031444119A012AE7
:10D2700003D0012208430DD10AE0084304D0002066
:10D280004FF0110B119072E7A3EB0B056D1E0DE033
:10D290005B4504DD4FF0000205F1010504E003DA0F
:10D2A0004FF00002A5F10105002AECD00298119977
:10D2B000C0E90231C0E9004579E7000000001440F0
:10D2C0000000F03F300000000000F0430000E03FAD
:10D2D0002DE9FF4F95B09B468946064600250FE293
:10D2E000252877D100242746F84A0121059400E03B
:10D2F000044316F8013F203B01FA03F01042F7D136
:10D3000030782A2811D06FF02F033078A0F1300246
:10D31000092A16D8059A44F0020402EB820203EBB4
:10D3200042021044761C0590EFE759F8042B059251
:10D33000002A03DA504244F40054059044F00204F9
:10D34000761C30782E2816D116F8010F44F004040C
:10D350002A280DD06FF02F023078A0F13003092B6E
:10D3600009D807EB870302EB4303C718761CF3E7E2
:10D3700059F8047B761C30786C280FD006DC4C28DA
:10D3800017D068280DD06A2814D104E0742810D072
:10D390007A280FD10DE044F400140AE044F480141C
:10D3A00001E044F440147278824202D104F5801402
:10D3B000761C761C307866280BD013DC582877D082
:10D3C00009DC002875D04528F6D04628F4D0472837
:10D3D0001AD19DE118E0632835D0642879D06528FA
:10D3E00012D195E1702873D008DC6728F1D0692844
:10D3F0006FD06E280DD06F2806D1B5E073282CD0E1
:10D40000752875D0782874D05A46179990476D1CA6
:10D4100075E1C4F30250022809D003280DD0D9F8D1
:10D42000001004280DD00D6009F1040967E1D9F856
:10D430000010EA17C1E90052F6E7D9F800100D8094
:10D44000F2E70D70F0E719F8041B8DF800100020CA
:10D450008DF80100EA46012003E059F804AB4FF0D3
:10D46000FF3061074FF0000102D40DE008F1010127
:10D470008846B9420FDA8045F8DB1AF8081000290F
:10D48000F4D108E008F1010188468142FADB1AF87C
:10D4900008100029F6D105985B46A0EB0807214645
:10D4A0003846179A00F094FA284400EB080507E084
:10D4B0004DE029E10DE01AF8010B5A461799904703
:10D4C000B8F10108F7D25B4621463846179A13E1B6
:10D4D00042E00A220092C4F302524FF0000A022AEC
:10D4E00008D059F804CB032A4FEAEC710AD00DE0BA
:10D4F00029E02AE009F1070121F00702F2E802C160
:10D50000914609E00FFA8CFC4FEAEC71042A03D132
:10D510004FFA8CFC4FEAEC71002907DA0A46002129
:10D52000DCF1000C61EB02012D2202E0220504D5A2
:10D530002B228DF80420012203E0E20701D02022F3
:10D54000F7E7904659E00A2102E010220DE0102191
:10D550004FF0000A00910BE010224FF0000A44F057
:10D5600004040827009203E008224FF0000A00920A
:10D57000C4F30252022A05D059F804CB0021032A31
:10D5800008D009E009F1070121F00702F2E802C121
:10D59000914605E01FFA8CFC042A01D10CF0FF0C27
:10D5A0004FF00008220728D5702806D0009B83F092
:10D5B000100353EA0A0305D00EE040228DF8042040
:10D5C000012208E05CEA010206D030228DF8042036
:10D5D0008DF8050002229046009B83F0080353EA71
:10D5E0000A030AD15CEA010201D1620705D53022A3
:10D5F0008DF804204FF001087F1E582804D034A075
:10D6000003900EA802900DE036A0F9E7534660465D
:10D61000009AFEF7F1FF84460398825C0298401E50
:10D62000029002705CEA0100F0D1029806A9081A83
:10D6300000F1200A600702D524F4803400E00127BD
:10D64000574502DDA7EB0A0000E0002000EB0A01CD
:10D65000009005984144401A0590E00306D45B46CB
:10D660002146179A059800F0B3F90544002706E013
:10D6700001A85A46C05D179990476D1C7F1C47450D
:10D68000F6DBE0030CD55B462146179A059800F0BF
:10D690009FF9054404E030205A46179990476D1CC5
:10D6A0000099481E00900029F5DC08E002980299D4
:10D6B0005A460078491C0291179990476D1CBAF19F
:10D6C0000001AAF1010AF1DC65E10000092801006E
:10D6D00030313233343536373839616263646566E8
:10D6E00000000000303132333435363738394142AA
:10D6F000434445460000000000F058F90544761CFC
:10D70000307800287FF4ECAD19B02846BDE8F08FE2
:10D71000620700D4062709F1070222F0070CFCE893
:10D720000223E14603F000485FEA080C02D00FF242
:10D73000702C0DE05FEA045C02D50FF2682C07E064
:10D740005FEAC47C02D00FF2602C01E0AFF2700CF3
:10D750004FF0FF3823F00043CDF850C065280CD0BF
:10D7600006DC452809D046281DD047283DD13DE09C
:10D77000662818D067287ED138E00021112F01DB00
:10D78000112000E0781CCDE9000106A90EA8FFF7E2
:10D79000DDFCDDE90F010E9A03910021009207F1F3
:10D7A000010A04914DE04FF000400097CDE90110CF
:10D7B00006A90EA8FFF7CAFCDDE90F0203920E9B33
:10D7C00011990022DDF80CA00093049211B9791C84
:10D7D00000EB010AB7EB0A0004D4C0F1FF3007F1F7
:10D7E000010A0490AAEB0700019044E0012F00DA3F
:10D7F00001270021112F01DD112000E03846CDE97D
:10D80000000106A90EA8FFF7A1FCDDE90F010E9AA1
:10D810000391002104910092BA4621070CD4039988
:10D82000514500DA8A46BAF1010F05DD009AAAF1E6
:10D830000101515C302908D0B84202DA10F1040F1E
:10D8400006DA0121CDE9011015E0AAF10101E9E7AD
:10D85000002805DC049901440491AAEB000102E0D0
:10D86000411C514500DD8A460499401A401C019034
:10D870004FF000400290200704D40198504501DB8E
:10D88000CDF8048000208DF84F0002980DF14F076D
:10D89000B0F1004F25D02B200E9002984FF00208D7
:10D8A00000280CDA404202902D200E9007E00A2159
:10D8B0000298FEF78BFE3031029007F8011DB8F197
:10D8C0000001A8F10108F2DC02980028EFD1791ECE
:10D8D0000E980870307800F0200040F0450007F8FE
:10D8E000020D12A8C01B00F107081498007800B1BF
:10D8F000012000EB0A01019801EBE0710598414419
:10D90000401A401E0590E00306D45B462146179A54
:10D91000059800F05DF805441498007818B15A464F
:10D92000179990476D1CE00324D55B462146179A52
:10D93000059800F04DF805441CE00498002807DB2A
:10D94000DDE90301884203DD0098405C179901E09E
:10D95000179930205A469047049805F10105401C5C
:10D9600004900198401E019004D12E205A46179928
:10D9700090476D1CBAF10001AAF1010ADDDC05E057
:10D9800017F8010B5A46179990476D1CB8F1000122
:10D99000A8F10108F4DC5B462146179A0598ABE62E
:10D9A0002D0000002B000000200000002DE9F041B8
:10D9B000044600251E461746880404D405E039466F
:10D9C0002020B0476D1C641EF9D52846BDE8F081C3
:10D9D0002DE9F041044600251E469046C80301D5B6
:10D9E000302700E02027880404D505E0414638466A
:10D9F000B0476D1C641EF9D52846BDE8F0810A6861
:10DA0000531C0B60107070472DE9FC5F00251688D1
:10DA100007461580406B14468946A8464FF00C0A0D
:10DA200011234FF0020B98B101784846032E48D3DA
:10DA300080F800B02288521C92B22280835422883F
:10DA4000521C92B2228009F802102088401C2080CB
:10DA50003A6BDAB12088494600F11205B54230D858
:10DA60000B5420881023401C80B220800B54208847
:10DA7000401C20800F202388155C401ECD54238835
:10DA800040B25B1C23800028F5DA454697F82E004B
:10DA900030B133462246494602F046FD050011D119
:10DAA00097F82D0030B132462146484600F0C2FDBD
:10DAB000050007D1B87820B32088C846001DB042C1
:10DAC00002D95046BDE8FC9F684679DF0028F9D1AD
:10DAD0002188032008F8010020881921401C80B209
:10DAE000208008F800102088401C80B2208000EBC5
:10DAF0000801BDF8000004F073FF014620880844C7
:10DB00002080F878B8B1228897F90310D31C4846D2
:10DB1000B342D6D800F802B022880123521C92B238
:10DB2000228083542288521C92B2228009F802106B
:10DB30002088401C20807868B8B1218890F90020A6
:10DB4000CB1C4846B342BCD800F801B021880A2358
:10DB5000491C89B2218043542188491C89B2218003
:10DB600009F801202088401C2080388950B1CDE977
:10DB700000464B460622022107F1080004F0A3FFED
:10DB800005009FD1388A50B1CDE900464B460722A7
:10DB9000032107F1100004F096FF050092D1388BA5
:10DBA00050B1CDE900464B461522142107F118006B
:10DBB00004F089FF050085D1386A30B1334622462A
:10DBC000494601F071FA0500DBD1786A30B133467D
:10DBD0002246494602F068FE0500D2D197F82C0093
:10DBE00038B1334622464946384603F019FE05004F
:10DBF000C7D1387838B1334622464946384602F014
:10DC000085FE0500BDD128465CE710B50122022142
:10DC1000002000F0B1FE08B1072810D10722022130
:10DC2000012000F0A9FE08B1072808D100210A222E
:10DC3000084600F0A1FE08B1072800D1002010BD61
:10DC4000054800680421044A8143121D1160111D1A
:10DC500000F00400086070470405005070B500240F
:10DC6000064D06E06868012110F8340002F0E2FE7B
:10DC7000641C28788442F5D3002070BD80210020E8
:10DC8000F8B515460C460646052A01D20720F8BD10
:10DC900002F0B2FF18B902F085FF0028F7D1104951
:10DCA00000204E600C70C1E902500E4D08610DE07D
:10DCB00006EBC4006968009181788DF80110007846
:10DCC000094A694602F008FF0028E0D1641EE4B268
:10DCD000EED2BDE8F840054A0021024800F07CB8C9
:10DCE00080210020C02F02007D03020059F20100B4
:10DCF000BFF34F8F05480168054A01F4E061114305
:10DD00000160BFF34F8F00BFFDE700000CED00E0A6
:10DD10000400FA050EB500210091CDE901106A4614
:10DD200044F20100FFF7E4FF0EBD0000014B1B6849
:10DD300018470000DC26002010B58268C3689342B3
:10DD400003D002F017F9002010BD052010BD29B145
:10DD500012B1531E134203D0092070470E207047A2
:10DD60000160838000218160C1600846704710B562
:10DD70008268C3689A1A83889A4203D802F004F929
:10DD8000002010BD042010BD38B50C46074BA2681A
:10DD9000097802EB420253F82250054A126A0092B7
:10DDA000024604F108002369A84738BD4428002032
:10DDB00050210020074910B50A7802EB820201EBDE
:10DDC0008201091DFFF7E0FFBDE81040042003F0C9
:10DDD0007FBD000078270020074B9B6823B12AB144
:10DDE00020B10068037C1BB10820704707207047F2
:10DDF0004174426100207047942100202DE9F047D2
:10DE00008046994614460F4690074FF0000634D1DD
:10DE10001C4D8CB303F066FC0320C5F814902870E9
:10DE200004F11800002107EB4703AC6004EBC102CA
:10DE3000491C167056709770506000EBC3000329A0
:10DE4000F4DBEE606E70AE701420FEF799FF0621D1
:10DE50001420FEF7B6FF1420FEF79DFF0A49C1F813
:10DE6000008006211120FEF7ACFF0748001F006864
:10DE700028610020BDE8F08701E00720FAE7AE60E6
:10DE8000FBE7000094210020081501402DE9F8432C
:10DE9000DFF870900D461746D9F80810044651B3C4
:10DEA0004CB3052D02D20720BDE8F883606910B39A
:10DEB000607C012821D0002604F0D2FDD9F808109A
:10DEC000804601EBC800694604F0E9FDB8B10121C4
:10DED00000F8041B0C4910C0096880E8E200D9F87A
:10DEE000081001EBC8009DF8001041701420FEF7E7
:10DEF0005DFF0020D8E70820D6E72E46DCE70420A7
:10DF0000D2E700009421002004150140F8B5124E1C
:10DF10000446B168E1B1DCB16069C8B1002727747B
:10DF200004F09EFD0546B068694600EBC50004F0AC
:10DF3000B6FD78B1022101704460B0689DF8001010
:10DF400000EBC50041701420FEF730FF3846F8BDE5
:10DF50000820F8BD0420F8BD9421002010B5044627
:10DF600009488168C2688088511A814206D101211E
:10DF7000064802F095FE08B1052010BD2146BDE817
:10DF800010400148FFF7D8BE5C2800207521002012
:10DF900070B50446234888B01E460D00426035D057
:10DFA000A888296882B22048FFF7D1FE00282ED128
:10DFB000A889A96882B21C481030FFF7C8FE002863
:10DFC00025D1202219496846FEF778FAA068069004
:10DFD000207900B101208DF814008DF81C60607963
:10DFE00000B10E208DF81500E0780290A078039023
:10DFF00020780190607800900D49684602F006FE96
:10E00000002804D19DF81D0018B104E0072008B0D5
:10E0100070BD02F08BFE03480121401C02F040FE5F
:10E02000F5E70000742100205C280020A02F0200EA
:10E030005927020010B501460948FFF798FE040071
:10E040000CD102F0A1FF48B906490548FFF774FE5C
:10E0500020B90121034802F00FFF0446204610BDFD
:10E060006C280020742100202DE9F041044600783E
:10E07000184F012606FA00F03860206802F0B7FF5A
:10E080000021606802F0AAFF1348144D007FA069C8
:10E09000C5F82405607D217D0843C5F86C05D4E9E9
:10E0A0000001C5F80C05C5F81415207D01280FD115
:10E0B0000021A06802F092FF207B86403E60E0686D
:10E0C00002F095FFD4E90201C5F80815C5F810055E
:10E0D000BDE8F081080500505827002000200040CE
:10E0E000F0B50C4693B01F210726ADF80010ADF82F
:10E0F0000410002750B1C17849070DD56A4602A91E
:10E10000FFF782FC002808D102AD02E00025ADF83F
:10E1100000706CB1E07810B1304613B0F0BD01AAC8
:10E120000AA92046FFF770FC0028F6D10AAA02E0EF
:10E130000022ADF80470BDF80400C3B2BDF80000C1
:10E14000C1B2284672DFE8E770B50D46049916465D
:10E15000040040D0F6B3414800224271C0E90331C7
:10E16000242231463E48FEF7A9F900F0D5F83C4993
:10E170003431A1F1100001602031816038215C3818
:10E18000FEF7C3F93648217838380170A1788170DC
:10E19000E178C17061784170D4E90412C0E90412D9
:10E1A000D4E90212C0E90212D4E90612C0E906124B
:10E1B000616AD1B100F1AC0100F1B80241628A603C
:10E1C000636A1B880B80616A436A89889980002191
:10E1D000436A07E0FFE70E2070BD666AB668765CAA
:10E1E0005654491C9E888E42F7D8A16AD9B11C4A60
:10E1F000AC32A2F10C018A608162A36A9B888B8099
:10E20000A16A836A098819800021836A04E0A66AEA
:10E21000B668765C5654491C9E888E42F7D894F8AE
:10E220002C1080F82C10216A49B10C49143101627C
:10E23000226A52884A80216A026A098811806168CC
:10E2400021B10649891D4160616841602946BDE8E8
:10E25000704003483838FFF743BF0000C420002057
:10E260008024002010B502881D4C102A18D00021EF
:10E27000112A1BD01B2A18D1007A002815D16079E9
:10E28000012820D0022824D0032824D004280CD12F
:10E290002171E2680846002A07D0BDE81040104707
:10E2A000817D012901D18088208110BD6170808825
:10E2B00021898842F9D1012006E021690029F4D0A2
:10E2C000BDE810400847022000F056F80028F4D1BD
:10E2D00010BD0320F8E7032020710420F4E70000BC
:10E2E000C420002010B5022801D0032810D1094C09
:10E2F000207800280CD000202070607900F03CF8D5
:10E30000002805D02169002902D0BDE81040084747
:10E3100010BD0000C42000200248002181618183DB
:10E3200081777047C4200020114810B5007801287B
:10E330001BD1104C6078C0B9607910B174DF00282F
:10E3400014D10B490120607038390620C870084884
:10E3500000213838FFF7C4FE002807D1607900F0AB
:10E360000BF810B1216901B18847002010BD0000F1
:10E3700080240020C42000202DE9F04F744C87B089
:10E380000026607106A8069602F0CEFE0127082836
:10E3900001D030B903E006A801F0A4FE18B9069830
:10E3A00008B12770C0E0FFF7B7FF6A4DDFF8A08122
:10E3B0004FF0020A687808F118084FF0030B10B10B
:10E3C0006079012806D0A87858B16079012801D079
:10E3D00002281FD1E16819B1E7700820884700E0E2
:10E3E000E6706079012806D1687840B108F1010033
:10E3F00002F058FE18B16079022802D00AE084F8D1
:10E4000005A0A87820B108F1010002F04BFE08B980
:10E4100084F805B0287B4FF0040920B960790328FF
:10E4200001D184F80590287E20B96079042801D1B3
:10E4300066712671E16841B16079032801D0042832
:10E4400003D1287808B16078C0B1A6701821684659
:10E45000FEF75BF88DF8006001968DF80860039672
:10E46000607901280ED0022816D03A4E2436A6F143
:10E470005C0703281DD004284CD13AE0A770072080
:10E480008847E3E7ADF81260CDF804808DF800709E
:10E49000ADF8106027713FE0CDF804808DF8007072
:10E4A0002889ADF81200A888ADF8100084F804A0FF
:10E4B00032E0A88AADF81200288AADF8100025488D
:10E4C000243004F067FB18B1287808B1607810B1E7
:10E4D00084F804B01EE01F488DF808A0039687F862
:10E4E000039000213838FFF7FBFD00281DD10520DF
:10E4F0002BE0A88BADF81000288CADF81200154861
:10E50000243004F047FB18B1287808B1607878B15E
:10E5100084F80490607918B1684673DF002804D14C
:10E52000E16809B120798847002007B0BDE8F08F85
:10E5300008488DF808A0039687F803900021383822
:10E54000FFF7CEFD0028F0D106202071E2E70000A1
:10E55000C42000208024002070B5054601461C22FE
:10E560000F48FDF7ABFF0F4C00262670286830B12E
:10E57000016861604068A060201D7ADF02E0094800
:10E58000001D7BDF00280AD14FF6FF7060806670A7
:10E59000BDE87040044A00210448FFF71DBC70BD6F
:10E5A0006C250020E4200020012A0200F82E020041
:10E5B00070B51E4C068800251B49E289102E15D027
:10E5C0001B4B112E1CD0122E29D0502E17D130F8F3
:10E5D000061F914213D14189022910D1007B10F00E
:10E5E000010F11D0BDE8704000F0A4BD83884B80BE
:10E5F0008369CB60C06908614D70002AF2D070BD9C
:10E600004FF6FF7048804D701868FFF77FFC0028B8
:10E61000F5D0A1690029F2D0BDE8704008478268B2
:10E62000CA60C0680861DDE7E42000206C25002096
:10E63000F82E02007CB5054608880C460930904249
:10E6400001D90C207CBD684671DF0028FAD12188F1
:10E650000820685420881B21401C80B22080295447
:10E660002088401C80B220802844DDF80110016021
:10E67000BDF8051081802088801D80B220809DF823
:10E68000001001B1012129542088401C2080002065
:10E690007CBD000070B5044600F0E6FE2046FFF7A2
:10E6A00087FF204600F0B6F820880B4D102802D0D6
:10E6B00011280BD107E0072000F078F908B1FFF727
:10E6C00029FBA08801E04FF6FF7068802046BDE876
:10E6D0007040FFF7C7BD0000802000202DE9F04109
:10E6E00016460F460546002408E000BF57F82410E0
:10E6F000284601F0ABFC641CA4B22D1DB442F5D336
:10E700000020BDE8F081000000B5184887B0002364
:10E71000006805904822164905A803F021F908B1C0
:10E72000FFF7F8FA6A460121002003F003F908B167
:10E73000FFF7F0FA0F4803F027F808B1FFF7EAFAFD
:10E74000684603F0EDF808B1FFF7E4FA0A4803F071
:10E75000DDF808B1FFF7DEFA084803F01BF90028DE
:10E7600001D0FFF7D7FA07B000BD0000A42B0200CC
:10E77000A0230020E81F002095E601000D1C0200E8
:10E780001CB5044681786A460C4802F0DFFC00287C
:10E7900013D160780A49C0EBC00001EB80001C2354
:10E7A0001A46694602F08EFD054806494C30807ACB
:10E7B00051F820202146684690471CBD4821002082
:10E7C00090260020382F02007CB5114E0C004FF02F
:10E7D0000005306015D06946002000F09BF8002845
:10E7E00015D101A9012000F095F800280FD19DF85E
:10E7F000041009B1022003E09DF8001001B10B20C4
:10E800002070706810B9FFF700FA054628467CBDF5
:10E81000BC20002010B51A4C0188606810290ED069
:10E8200011292BD1401E606028D1FFF7EEF9002896
:10E8300024D02168002921D0BDE810400847D0B974
:10E8400000210122084600F097F808B107280FD1EF
:10E8500007220221012000F08FF808B1072807D114
:10E8600004220221002000F087F820B1072802D0FE
:10E87000216801B188476068401C606010BD0000DD
:10E88000BC20002010B5032000F0F8F908B10628DC
:10E8900000D1002010BD00002DE9F04107461B48C3
:10E8A0000068B84230D1194BDFF864800C3B08F1A6
:10E8B0000105EE1E01B32846012940780BD002293C
:10E8C00022D10446002C1FD0716900291CD020469B
:10E8D000BDE8F04108472C7850B1B0680C4A00EB15
:10E8E00080004100521E9868FFF7D0FA00B9777097
:10E8F000A97888F80010E5E79868FFF707FB98F813
:10E900000000AC78A042DDD0BDE8F081EC2E020022
:10E91000A620002008B1002009E006480068C24394
:10E920000548037801209840104000D0012008706D
:10E930000020704710050050EC2E020010B504288E
:10E9400007D0072810D00A2812D1BDE8104002F0E5
:10E95000ABBF08481321408876DF07E0002807D0C6
:10E96000BDE81040FFF7D6B9FFF7DEFC0828F5D167
:10E9700010BD00008020002003004FF000000AD1ED
:10E98000094B012A02D1012907D0002251B10129E6
:10E9900004D0022904D0072070470D221A70704756
:10E9A0005A7070479A707047A7200020044A0146A9
:10E9B0000020127BD20702D0084600F055B87047FD
:10E9C000A420002070B50E462149054600204A616A
:10E9D000C1E90265A9071AD5002405E00122114604
:10E9E0002046FFF7C9FF641C54EA0001F6D070B955
:10E9F000720801211748FFF743F940B9FFF72EF9D4
:10EA000028B91448144A00210838FFF7E5F9E90746
:10EA10000AD0124A44F204011160104B00221B1D5F
:10EA20001A600E4A1032116000280FD109480C4AB2
:10EA300000211038FFF7D0F9002807D1BDE8704059
:10EA400004480121074A0C38FFF7C6B970BD000021
:10EA5000A4200020F02E02002DED0100080500503A
:10EA60007D05020041DC01002DE9F84F814EDFF801
:10EA700000B24FF0040C316907462CEA010C0091FA
:10EA80000020B1680BF10404251D7B4B44F2040AFD
:10EA90004FF4804201EB810E8146182F15D2DFE83A
:10EAA00007F00C16163A4E607083868F868FE3A0AF
:10EAB000A0A0A0A0C9CFD5DCE3E3009A2AEA020116
:10EAC0002160C5F8009086F80090BDE8F88FC4F882
:10EAD00000C04846C5F80090DBF800C08CEA0A0C7C
:10EAE0005FEA4C4C09D522602860022F02D14FF416
:10EAF000E16009E04FF47A6006E02A602060022FAE
:10EB00003DD000BF4FF4C8706422B0FBF2F0414327
:10EB1000377000225EE0C4F800C04846C5F8009097
:10EB2000DBF800C08CEA0A0C5FEA4C4C04D522608A
:10EB300028604FF44870E7E72A6020601FE0C4F8BF
:10EB400000C04846C5F80090DBF800C08CEA0A0C0B
:10EB50005FEA4C4C02D522602860CBE72A60206037
:10EB6000D0E7C4F800C04846C5F80090DBF800C004
:10EB70008CEA0A0C5FEA4C4CDED522602860C82083
:10EB8000C2E7C4F800C04846C5F80090DBF800C0F2
:10EB90008CEA0A0C5FEA4C4C02D52260286001E046
:10EBA0002A602060377014E0C4F800C04AE0DBF847
:10EBB000000004228243226000F00400286008E084
:10EBC000DBF8000004218143216000F0040028608C
:10EBD000714600221868BDE8F84FFFF757B9216069
:10EBE0002CE098465868FFF791F9D7F1110100D051
:10EBF00040B1316901EA0A012160C5F80090C6F808
:10EC0000109062E70422326101290CD9C82011FB5F
:10EC100000F16420B1FBF0F1B06800224143D8F864
:10EC20000400FFF733F9316901EA0A012960C4F8E9
:10EC300000904AE7C4F800A0C5F80090377044E798
:10EC4000042121604946C5F8009004E0226049464D
:10EC5000C5F8009004222A60C1E74946C4F8009034
:10EC6000C5F800905246F6E7C5F800A04946B6E759
:10EC700004050050A4200020E02E02000949096884
:10EC8000890001F1A041D1F8002710F0010000D067
:10EC9000032022F4403242EA0040C1F8000700207D
:10ECA00070470000EC2E0200F0B506004FF00C009B
:10ECB0004FF0000500D118A60024325DA2F16103D7
:10ECC000192B00D8203AD2B2A2F13003092B03D974
:10ECD000A2F14107052F14D855B139B10D78392A61
:10ECE00001D9A2F137031D4301F8015B00250EE0B5
:10ECF00029B1392A01D9A2F137031A010A70012575
:10ED000005E03A2A01D00020F0BD401C80B2641C0E
:10ED1000A4B28442D1D3F0BD30303A30303A3030F2
:10ED20003A30303A30303A3030000000007802217A
:10ED3000FFF7B2BD05494FF0FF32082841F8202007
:10ED400002D3084480F848207047000000270020C4
:10ED5000F0B54FF0FF3512B10023082601E008237B
:10ED60000C260C4C05E000BF54F823707F1C04D027
:10ED70005B1CB342F8D32846F0BD26185DB286F876
:10ED8000305044F82310002AF5D1E11881F84800EA
:10ED9000F1E70000002700200249084490F9300004
:10EDA0007047000000270020114810B50178427814
:10EDB00001F00F0102290ED8252A0CD821B1012912
:10EDC0000BD05523002110E00A49801CFDF7AFFB52
:10EDD00008B9012010BD002010BD0F23F2E7441830
:10EDE000A4789C42F7D1491CC9B29142F7D3F0E70D
:10EDF00088250020FC2E02002DE9F0413B480178D7
:10EE000001EB810100EB8104D4E9030600EB400132
:10EE10003648241DCC3000EB8100B0F808804589CD
:10EE2000476802F01AFAB6FBF0F100FB116088B3F4
:10EE30005FF0000008FB05776188A288DFF8B080EA
:10EE400011448D190022C8F8102040B102F005FAD3
:10EE50006188884221D0BD4201D1A088E8B1A06874
:10EE600003281AD002F0F9F9A18844463144B1FBD5
:10EE7000F0F200FB12108008C8F80C0002F0EDF967
:10EE8000B5FBF0F100FB115078B10020BD4228D055
:10EE900068B126E0FFE70120CCE702F0DEF9B6FB1F
:10EEA000F0F10320C8F814101CE00120EEE7ADB229
:10EEB000BEB202F0D2F9B6FBF0F702F0CEF9B5FB24
:10EEC000F0F0874201D1701B09E002F0C6F9064656
:10EED00002F0C3F9B5FBF0F100FB1150301A8008C5
:10EEE00020610220BDE8F04102F0F2BC782700204A
:10EEF000502100200648017801EB810100EB8100E0
:10EF00000079042801D000F059B8012002F0E0BCDB
:10EF1000782700200A480B4A017801EB810100EBB9
:10EF20008100C18811620079012805D0032801D031
:10EF3000042804D1FFF760BF012002F0C9BC70476C
:10EF4000782700205021002000EB80020548002196
:10EF500000EB820002220171C180C0E903214161FE
:10EF600001817047782700202DE9F041114D069E60
:10EF70006C780A2C1BD02F783C440A2C00D30A3C16
:10EF800004EB840405EB840420716261D1E9000183
:10EF9000C4E90301E38026816878401C6870064854
:10EFA000007808B9FFF7B6FF0020BDE8F081042023
:10EFB000FBE70000782700205021002010B50E4C00
:10EFC000207800EB800004EB80010020091DFEF793
:10EFD000DBFE2078FFF7B8FF6078401E6070207875
:10EFE000401CC0B220700A2801D100202070BDE86A
:10EFF0001040002002F06CBC782700202DE9F05F63
:10F000002648C168F1B3DFF898B00E688146DBF896
:10F0100000400769C078E11B21F07F45ED1CB0B9C5
:10F02000DFF880804FF48030C8F84403C8F8040348
:10F030001120FDF7A5FE1120FDF7ADFE4FF0010AEE
:10F04000C8F800A02F20FDF7E5F989F803A0B54224
:10F0500000D23546124BE8193C3320F07F4018604F
:10F06000DBF800105A46091B21F07F41001B20F0FD
:10F070007F40C91C81420FD9106818602F20FDF70E
:10F08000C9F900E004E0BDE8F05F1120FDF78EBE95
:10F09000BDE8F05F02F026BBBDE8F09F94210020A0
:10F0A00004150140001001402DE9F0411788064683
:10F0B000B81D14460D46984202D90C20BDE8F081D7
:10F0C0003188072206290AD34FF4486C4FF6FF73A4
:10F0D000614501D9994202D17088062801D21046B3
:10F0E000ECE7604501D99842F9D1994203D09842A2
:10F0F00001D08142F3D80520E85520881221401C18
:10F1000080B2208029542088401C80B22080411980
:10F11000308803F065FC2188084480B220804119C2
:10F12000708803F05DFC2188084420800020C5E73A
:10F13000FEF7F0BDF8B5134801F0C0F9114D0026F7
:10F14000114C0C3D30B16169B9B101208DF800005E
:10F15000684611E0287820B1616971B18DF80060CE
:10F16000F6E7687858B1A168084800220068FEF701
:10F170008DFE10B1A16901B188472E70F8BD61689C
:10F18000F2E70000F02000206C250020F82E02009D
:10F1900070B5094B044608209E7A00250E4208D01F
:10F1A000A4F57F40FF3802D01889A04202D1002088
:10F1B000156070BD052070BDD026002000EB400218
:10F1C0000748012100EB820081724FF6FF71018137
:10F1D000FF21C172002101608180817170470000B0
:10F1E000D026002010B5134C207900071ED460698A
:10F1F000401C6061E06808B104200AE001F06CF98D
:10F2000008B1022005E0206960B16068C10704D040
:10F210000320BDE8104002F0EFBC40F00100606048
:10F220000020F6E7BDE81040FFF764BEBDE81040DF
:10F2300002F0D8BC5021002006494868020707D4D4
:10F24000820702D540F001004860022002F0D4BCE1
:10F2500002F0C8BC502100202DE9F0410026012514
:10F26000144C22E06068226900EBC607387805FA82
:10F2700000F1114217D08A43226101F089FC024655
:10F280003878E36805FA00F1194002FA00F3994270
:10F2900009D17978012901D0012100E000215140F4
:10F2A0007A6802B19047761CF6B220788642D9D3AC
:10F2B000BDE8F081802100202DE9FC410E46044686
:10F2C00081786A46254801F041FF002828D16078FE
:10F2D000234F00EB400007EB8000807A400621D4EA
:10F2E000022E1FD0012E1FD01E4DA0781E49C0EB4C
:10F2F000C00001EB800100231C226846A847A8B18A
:10F30000022E0DD02078164900EB40000C3101EBA5
:10F3100080001649807A51F820202146684690479F
:10F32000BDE8FC81124DE0E7124DDEE7022EF7D07A
:10F33000607800EB400007EB8000817A21F040010B
:10F340008172074960784039C0EBC00001EB800151
:10F350001C231A466846A847D4E70000482100202D
:10F36000D02600206D1B0200CC250020282F020093
:10F37000F1140200211402002DE9F04705250F4F7A
:10F380009046894606460024C4EBC40007EB800083
:10F3900036B1072231461030FDF7C9F818B106E042
:10F3A000018B414503D10025C9F8004002E0641CEF
:10F3B000072CE9D32846BDE8F0870000CC250020C3
:10F3C0007CB5054681B26A46074801F0BFFE0400DD
:10F3D00008D17421684601F0E3FE040002D12846FA
:10F3E00001F06AFE20467CBD4821002010B51000C7
:10F3F00001D0FEF78FFC002010BD00001FB58DF876
:10F400000C0001F02FFF08B1FEF784FC03A800F008
:10F4100061FA08B1FEF77EFC0020CDF805008DF8FA
:10F4200009009DF80500694620F07E0040F00100CB
:10F43000303020F080008DF8050007208DF80600A0
:10F4400010208DF807000648009001208DF8040078
:10F45000044800F067FB002801D0FEF75BFC1FBDED
:10F46000EDF30100802000202DE9F04F054693B018
:10F47000FA48FF24079400784FF0000A002853D080
:10F48000F74E306800284FD001A800F018FA08B1F4
:10F49000FEF740FC281D05902C20ADF81800002731
:10F4A000FF208DF806008DF804700097EC4C28883A
:10F4B0000C3CBB4610280FD0A8886A460221FFF7F3
:10F4C00067FE48B9009800EB400104EB8101C97A5E
:10F4D0008DF806108DF80500DFF884932888A9F1CF
:10F4E0004C091321A9F1C408192874D010DC102884
:10F4F0001DD011285DD013286ED0142814D1009887
:10F5000000EB400004EB8000C07AFF287CD099E03B
:10F51000D44A1A2876D01E2875D0522804D1B07A41
:10F5200052F8201001A8884713B0BDE8F08F4FF6BD
:10F53000FF766A4601213046FFF72AFE0028F3D104
:10F540000099022201EB410004EB8000827211223B
:10F550008DF810208DF80510A9880181A968016037
:10F56000A9898180A97B8171E87DC10708D0BB4949
:10F57000083101EB50000078FF2809D0079007E020
:10F58000324607A905F10800FFF7F6FE00280FD163
:10F590000099079801EB410104EB8101C8728A7A56
:10F5A00042F008028A728DF8060001A8FFF7E8F819
:10F5B0006FE1009800EB400004EB8001887A20F0B6
:10F5C00002008872010708D500060FD5002101A8A6
:10F5D000FFF772FE0AE0BDE043E09DF80600FF2859
:10F5E00004D001F069FDFF208DF80600009910207D
:10F5F00001EB410104EB8101887212208DF81000AB
:10F6000047E101E0FDE042E12A8A07A90020FFF777
:10F61000B3FE78B90098079900EB400004EB800036
:10F62000C172827A42F0080282728DF8061001A837
:10F63000FFF7A6F8009800EB400004EB8000C07ACA
:10F64000FF2804D00098C0EBC00109EB810A0098A4
:10F650000023C0EBC00108EB8102A888514686DF79
:10F6600062E700988DF8101000EB400004EB800179
:10F67000887A40F004008872CA7AFF2A0BD040F0E2
:10F6800040008872162000238DF81000A8881A46C2
:10F6900085217FDF33E00DF11C0C48F2430300208D
:10F6A0004FEA0802C0EBC00802EB880898F81A80FD
:10F6B000B8F1FF0F26D0401C0728F3D34FEA030709
:10F6C0000099CDF830B001EB410304EB8303DB7A02
:10F6D000C3EBC30302EB8302CDE90D2BC1EBC102E7
:10F6E00009EB8201CDE9081BCDF83CB0CDF828B07C
:10F6F000CDF82CB0321DA88808AB00217FDF002890
:10F70000AED1C6E00B78022B12D0C0EBC00302EBE7
:10F7100083034FF0FD0883F81A80D1F80080C3F806
:10F720001080B1F80480A3F814808979997505E0F8
:10F73000C0EBC00102EB8101FE238B768CF8000048
:10F740000099079801EB410104EB81018DF8060057
:10F75000C872B5E7707A20F001007072009E06EB67
:10F76000460304EB8300817A21F0040282721421A3
:10F770008DF81010297A31B1510603D4C07AFFF701
:10F780001FFE2F7A85E0697A490739D59DF8061062
:10F79000FF297ED042F0080282726A7B920707D569
:10F7A000C1EBC10508EB8502957E25F00105957634
:10F7B000C27AFF2A6DD014F82320022A0ED0C1EBA2
:10F7C000C10208EB820102680A6182888A8280791C
:10F7D0008875887E20F0020088760DE0C6EBC602B0
:10F7E00009EB8200C1EBC101428A08EB8100028370
:10F7F000817E21F001018176012101A8FFF75CFDE6
:10F8000047E0287A0121B1EB101F2DD100F00F0045
:10F81000012829D1009800EB400104EB8101897A8D
:10F82000090721D50E4900EBC000303901EB8000FB
:10F830001A210830FCF769FE16208DF81000009898
:10F8400000EB400004EB8000817A41F0600181729E
:10F85000707A40F00200707217E00000382100203A
:10F86000DC260020482F0200009800EB400004EB4B
:10F870008000817A41F08001817215208DF810009E
:10F88000B07A52F8201001A88847002701E08DF8CF
:10F8900010103A4604A901A8FEF748FA9DF8100096
:10F8A00012287FF4DDAE009800EB400104EB8101EB
:10F8B000897A01293FF4D4AEFFF780FC34E630B1F9
:10F8C000FF21017041708170C1700020704748F2C3
:10F8D0000E0070472DE9FF4105003AD02B48002467
:10F8E0000460447284722046FFF768FC2748242194
:10F8F0003038FCF70AFE0026DFF89480FF273046F8
:10F9000001F0DAFB08F80670761C072EF7D3742096
:10F91000ADF804000720ADF806001E481C49009011
:10F920000831684601F022FD00280FD1184E012051
:10F93000083E3070287878B1BDF80400BDF8061094
:10F94000484381B206F1100001F02AFC04B0BDE882
:10F95000F08148F20E00F9E70F4F00250C48A9B2DC
:10F9600002AA083001F0F2FB48B9C5EBC50007EB6D
:10F97000800000231C2202A901F0A4FC08B134700D
:10F98000E4E76D1C072DE9D3E0E70000DC2600204A
:10F99000402100209DF90100CC2500202DE9F04FE9
:10F9A00080465C4891B01E4600681A9F93468A467E
:10F9B000002870D0742F6ED86846FFF780FF08B11A
:10F9C000FEF7A8F900248DF800408DF80440CDE939
:10F9D00005762546A9B20FAA4F4801F0B7FB28B912
:10F9E00008220FA94046FCF7A2FDE0B16D1C072DCF
:10F9F000F0D300BF9DF80200FF287FD04FF0200910
:10FA00004FF0400C04ADBAF1030F0FD0434A1C274E
:10FA1000B11AB1FBF7F1012307291AD20295BBF104
:10FA2000000F0BD010E08DF80250E3E7742F02D0E6
:10FA30008DF804C065E08DF8049062E0364983409B
:10FA4000103949680B4259D002F0D0FF8DF804906C
:10FA500045E030494C39A6EB0108B8FBF7F7DFB1B8
:10FA600001F11C02B11A2427B1FBF7F702F12401BE
:10FA70003FB32B4A8DF804C0964242D0A1F5907254
:10FA800052F82020B24239D10295C97A884226D153
:10FA90008DF8014023E031E01E4B02958DF8049073
:10FAA0008DF801400C330791CDE90B439DF802100E
:10FAB000C1EBC10102EB8101089107A9CDE90591D4
:10FAC0000DE030208DF801408DF804008DF80330F2
:10FAD000887A800703D424211046FCF716FD9DF890
:10FAE0000400BAF1020F11D040F002008DF80400BA
:10FAF0005A4601A968460295FEF718F911B0BDE80B
:10FB0000F08F9DF8040040F00300EFE740F00100A3
:10FB1000ECE70000DC26002048210020CC25002056
:10FB2000242F0200174A10B512785AB148F20E027B
:10FB300058B151B10B6843B1134A14683CB148F253
:10FB4000040010BD48F2080010BD104610BD0E4C58
:10FB500013602C3CD1F8053023634B7A84F83430A1
:10FB60000979917223F0050141F002011172D179F6
:10FB700021F0040141F00301D17100210170084618
:10FB800010BD000038210020DC2600202DE9F041C6
:10FB9000444C9446D2B2A272C4E90E31012565727A
:10FBA0000026E681277847B148B103280AD0012F03
:10FBB0000FD0E5810220BDE8F0810520FBE700F0D1
:10FBC000D5F86DE0012FF4D0A08940F40040E08129
:10FBD000F5E7272902D9E5810120ECE7A681012874
:10FBE00002D0022809D05BE027212F48FCF78DFCCA
:10FBF000012001F019FD04202FE0252A02D9E5811A
:10FC00000320D8E7284803F00F07B3F1FF3F077040
:10FC1000264F427023D02BB1012B09D0022B09D0E3
:10FC2000E58137E062462249801CFCF747FC06E08C
:10FC30000F2200E055226146801CFCF75FFC00208B
:10FC400001F0F2FC1B49A06900F5A0700860081DD6
:10FC5000076018480C3805600220207020E0084634
:10FC6000BCF1000F09D0BCF1010F06D0BCF1020FAE
:10FC70000DD0BCF1030F13D10EE0002001F0D4FC35
:10FC80000D480660C7F800523D600320E5E700F02C
:10FC90005BF803E004208EE700F034F80028F9D088
:10FCA000002088E7F8200020882500200010004070
:10FCB000FC2E020010F501405016004003490023BD
:10FCC0004A7A4B72C989016010467047F8200020BB
:10FCD00010B502F047FC10B901F04EFC08B1042049
:10FCE00010BD0648002141720121017004480168DD
:10FCF00041F010010160002010BD0000F82000203C
:10FD000010ED00E00C490A78012A04D828B1012836
:10FD100007D0022809D000207047084888610820D1
:10FD200006E007488861092002E0064888610A2049
:10FD30004870012070470000F8200020008000403B
:10FD40000090004000A00040074942B20B78012B10
:10FD500004D828322D2A01D2820701D00020704712
:10FD60004861012070470000F8200020084910B5C4
:10FD700000200860074901240C600649083108602A
:10FD8000091D086001F080FC0348047010BD0000EC
:10FD90005016004008F50140F82000202DE9F04100
:10FDA0001E48016841F0100101601D4D0127DFF878
:10FDB00074801D4C002600BFD5F80C01B0B1C5F809
:10FDC0000C610120FCF7D1FF207804280ED16F6070
:10FDD000D8F80000012805D1FEF7E6FF10B1A08990
:10FDE000401CA08127211148FCF78FFBA069D0F8A7
:10FDF000401111B1C0F84061DEE7D0F8440100289D
:10FE0000DAD0A069C0F8446194F90100FCF7ADFFB5
:10FE10002069401C2061BDE8F081000010ED00E089
:10FE20000010004000140040F82000208825002029
:10FE30002DE9F84F00263B48012137463546C0F8EA
:10FE40000017384AB046103A4046C2F80067364BB1
:10FE500011221A60344B0D2208331A60324B334A98
:10FE600018331A60324CC4F80861C4F81C61C4F835
:10FE700024612D4B04220C3B1A60C4F80403A160DA
:10FE80002160FFF725FF4FF0FF3910B14846BDE86C
:10FE9000F88F02F0B1F9DFF890A00AF1100A00BF64
:10FEA000FFF77CFFD4F808110029F9D0C4F80881C5
:10FEB0001D490C310968C9B237B106F115029042EB
:10FEC00004D90D020646EBE70127FAE70D430027A8
:10FED000A80B05F00303C5F30521C5F38502032B29
:10FEE00000D14B46FFF752FE6846FFF7E7FE0028B9
:10FEF000D6D000995246C1F30720CAF8000000BFCF
:10FF0000D4F81C010128FBD14046C4F81C81C9B2B9
:10FF1000C2F80010D4F81C110129FBD1C4F81C014F
:10FF2000BEE70000440000500C25004000A04E0039
:10FF3000002000400E4910B54A788C780023A24278
:10FF400012D0521CD2B24A70022A00D14B70084A19
:10FF50004B78183252F8232002600869104420F0D0
:10FF60007F400861012010BD0360002010BD00002B
:10FF700094210020826883881A4003689A5C0A7082
:10FF80008168491C81607047C26883881A40036891
:10FF90009954C168491CC16070470000002808D00E
:10FFA000112801D0FDF706BF0248416841F0080161
:10FFB000416070475021002010B51F4C2046217829
:10FFC0004068012910D002292DD0032932D1000721
:10FFD00025D46069401C606100F07EFAD8B12078B9
:10FFE000BDE8104001F074BC000718D41348A28B80
:10FFF000017801EB810100EB8100C188891A0904B5
:020000040002F8
:10000000090CC18003D0BDE8104001F0B1BDBDE8CE
:100010001040FEF7D3BFBDE81040FEF76BBFBDE850
:10002000104000F001BC0648617850F82100BDE89E
:100030001040004710BD000050210020782700200C
:100040008C2F020028DFFFF7A9BF000070B50C4617
:1000500005460B4E00E048DF30780028FBD1094808
:1000600001210160084A11680029FCD02C60116848
:100070000029FCD00021016010680028FCD070BD70
:100080007C21002004E5014000E4014029DFFFF766
:1000900085BF000010B5002821D0114B0022001FA1
:1000A000196803E0814203D80A4649680029F9D15A
:1000B00052B11368841A9C4204D10068184410603D
:1000C000104602E0506000E0186039B102680B1A77
:1000D000934203D10B681A4402604968416010BD25
:1000E000CC21002020B10349496D016000207047F8
:1000F000032070479C28002070B5284800248CB04D
:10010000067845788378C27801794079FF2E09D145
:10011000FF2D07D1FF2B05D1FF2A03D1FF2901D1E4
:10012000FF2813D08DF800408DF801008DF80210E3
:100130008DF804308DF805508DF803208DF8066099
:100140006946002070DF08B1FDF7E4FD9DF8080066
:1001500013A120F00F00401C20F0F00010308DF8AB
:1001600008000F2202A87CDF08B1FDF7D3FD05943B
:100170005020ADF81400A0200694ADF81600ADF89C
:1001800018404FF4C870ADF81A0005A87ADF0028AF
:1001900001D0FDF7BFFD0CB070BD00008010001055
:1001A000424D2B5334325F54656D706C6174650041
:1001B0000020704700207047002070472DE9F0476D
:1001C0004178DFF8A890054601EBC10209EB8200F7
:1001D000002401EB410109F1240A43682746264621
:1001E0000AEB810163B191F80AC05FEA0C6807D598
:1001F0005FEA4C6C04D459F8226000F108049FB205
:100200000889D04633463A462146A9DF48F24109DB
:100210000B281ED000B14846012E18D168784FF641
:10022000FF7200EB400008EB80000C210089A7DF83
:1002300000280CD0A0F54051023915D0082813D061
:10024000A0F5405104390FD011280DD00020BDE891
:10025000F0876878012300EB400008EB80003A4605
:1002600000892146A9DFD9E74846F0E7AC260020FF
:1002700070B50C46014660780A4D00EBC00005EBF6
:1002800080003823242201F01DF8002808D161786D
:1002900001EBC10105EB81014A68521C00D14A60A3
:1002A00070BD0000AC2600202DE9F04188B08046EA
:1002B00003271A20ADF81C0048782A4E00EB4000B6
:1002C00006EB80000D4600893B4607AA6946AADF77
:1002D00028BB6878A6F1240400EBC00004EB800082
:1002E000BDF81C2069460830FCF721F90028687821
:1002F00007D000EBC00004EB8001496881B11A4EC1
:100300000FE000EB400106EB8101897A890724D4D4
:1003100000EBC00004EB80002421FCF7F6F81CE0A1
:10032000124E44F820706878BDF81C2000EBC00025
:1003300004EB800069464260687800EBC00004EB83
:1003400080000830FCF7BAF86878382300EBC0006A
:1003500004EB800124224046B04708B00020BDE8ED
:10036000F0810000D0260020F114020021140200C8
:10037000FFF724BFFFF77CBFFFF796BF2DE9F041E1
:10038000124E07460125BD403068FDF7BFFD00282D
:100390000DD10F4C2069284207D1384600F0F8FBF8
:1003A0000028E06805D0284304E0A8432061BDE8A8
:1003B000F081A843E060206928432061A16830688B
:1003C000BDE8F0410022FDF761BD0000C02F020032
:1003D0008021002070B51B4C207900072DD41A48CD
:1003E000017801EB810100EB81052E6900F035FFFA
:1003F000E9882A89761E11443144B1FBF0F0216965
:10040000002549B16169814206D1E560606840F02C
:1004100001006060002008E000F05EF810B10220EA
:10042000E56002E0206920B10320BDE8704001F0E2
:10043000E3BBBDE87040FEF75DBDBDE8704001F074
:10044000D1BB00005021002078270020F8B51A4CBD
:10045000207800282ED0206928B10026E06820B13D
:10046000002526B110E00126F8E70125F9E76846E6
:1004700052DF052803D020B1FDF74CFC04E0012633
:1004800002E021690098884785B96088ADF80000CE
:100490006946A06861DF052803D020B1FDF73AFC6A
:1004A00004E0012502E0D4E902018847002EDED0F5
:1004B000002DD6D0F8BD0000B421002005494088A9
:1004C0000A88904204D34988884201D801207047A5
:1004D00000207047E820002070B50E48017801EB3D
:1004E000810100EB8104256900F0B7FEE1882289D3
:1004F0006D1E11442944B1FBF0F1074842698A425C
:1005000005D301D1006910B14FF0000070BD4FF06C
:10051000010070BD7827002050210020800701D005
:10052000002070470120704730B51488E51C9D42BB
:1005300001D90C2030BD02250D5513881C245B1CED
:100540009BB21380CC5413885B1C9BB21380012890
:1005500007D0022807D0032807D0042807D0072097
:1005600030BD002004E0012002E0CD5401E0032072
:10057000C8541088401C1080002030BD0348017B07
:10058000C90702D00078FEF76FBA7047A420002098
:100590002DE9F047DFF8ACA0DAF80C009AF800403B
:1005A00080469AF80460DAF80890DAF810703AE0B9
:1005B00009EBC4052A7833E002EB42016B68521C58
:1005C00003EBC101AB78D2B2934200D100220B7889
:1005D000022B02D0032B23D11FE0D1F804C0034625
:1005E000014603E0614503D00B46C969C1B1F9E793
:1005F000B1B18B4205D1C06918B9134F0126BE6055
:100600000027D1F800C0C969D96149B10B686344BA
:100610000B6005E00174C06900E000210028F9D1F9
:1006200069789142C8D1641EE4B2C1D2CAE9030715
:100630008AF80460404502D00120BDE8F087002020
:10064000FBE7000094210020001001402DE9F04755
:1006500005462F48002680460778D0F80C904BE0DE
:10066000D8F8080000EBC70440E002D02846ED6946
:100670001EE02078616800EB4002401CC0B201EB34
:10068000C2012070A278904200D126700A78486892
:10069000012A2DD1027C5ABB8A684260CA688260F6
:1006A0000A69C2604969816198F8041001B1466025
:1006B0004268D8F81030DFF85CC0D11A21F07F41D1
:1006C000614502D28268114406E0991A826821F0DD
:1006D0007F418A4202D9511A016000E006604660FB
:1006E000012186600174C66101F0B2FF002DBCD10A
:1006F000207861788842BCD17F1EFFB2B0D2D8F892
:100700000C10494502D00120BDE8F0870020FBE72E
:1007100094210020FFFF7F00002398B03C4A052170
:100720001846FDF76BFB08B1FDF7F4FA394A40F6BD
:10073000CD410320FEF746F908B1FDF7EBFA694613
:100740000020FEF741F808B1FDF7E4FA9DF800003B
:10075000022855D05FF0000401F01AFE01F06AFD96
:1007600001F074FDFDF7D0FF2046FEF747FEFFF7CE
:10077000C3FC382101A8FBF7C8FE02208DF8040055
:1007800001248DF8064006208DF8070022480690C7
:10079000ADF8144024210FA8FBF7B7FE8DF84840B0
:1007A0004FF4967000241390B420009414901B4BC7
:1007B0000FAA214601A8FDF7C7FC08B1FDF7AAFA68
:1007C0001C216846FBF7A1FE4FF42030CDE9004024
:1007D0004FF47020029003208DF80C001048059013
:1007E00010480690ADF80E408DF810406846FDF7B1
:1007F000B3FE08B1FDF78EFA0320FDF7BDFD02E060
:100800000124A9E748DF0028FCD0FDF783FAF9E7C7
:10081000D82100203DE9010084200020651002005D
:100820008910020031F101000348416821F00801FC
:100830004160007801F04CB850210020F0B50B3039
:10084000154D20F007010024144A0FE003688B4285
:100850000BD38B4205D95E1A43184768C3E900677A
:1008600000E04368136002C004E0021D1068002825
:10087000ECD12046002802D1286808B10020F0BD44
:10088000064A07481060074A121A22F00702C0E918
:10089000002401202860D7E7D0210020CC210020AF
:1008A000042900200049002070B5144682880E46B5
:1008B00005462088111D0144921C994201D8FE2A48
:1008C00001D90C2070BD521C32542088FF21401CDD
:1008D00080B2208031542088401C80B22080811951
:1008E000288802F07DF82188084480B22080AA88F8
:1008F00042B1A96841B13044FBF7E0FD2088A988E6
:1009000008442080002070BD072070BDF8B50E4659
:10091000017814460546012901D1687830B1208854
:10092000821C9A422DD8012902D006E00720F8BD8A
:1009300069780144891C994223D8181A801E87B20D
:10094000ADF800702188B01C084469467DDF00289E
:10095000EDD12878022805D1BDF80010B94201D8A0
:1009600009210AE00821012805D16878B84202D897
:10097000ADF8000001E0ADF80070BDF80000FE2801
:1009800001D90C20F8BD2288401CB0542088401C9E
:1009900080B2208031542088401C2080BDF8001097
:1009A000084420800020F8BD0020704700207047D8
:1009B000002070474907090E002806DA00F00F02F0
:1009C00002F1E02282F8141D03E000F1E02282F837
:1009D000001400F01F02012191404009800000F145
:1009E000E020C0F88012C0F80011704710B504462E
:1009F00000F082FB28B12046BDE81040002100F045
:100A000000BB204600F084FB00280FD02046FEF7F4
:100A1000C3F9074A02EB8001D1F8103523F0010336
:100A2000C1F8103501218140C2F8081310BD000043
:100A3000006000402DE9F0478846814600F05CFBED
:100A40000124224E0028484618D0FEF7A5F930446C
:100A500090F848008009032802D0012806D007E05A
:100A60001B48006804FA09F4204201D1022100E089
:100A700003214846BDE8F04700F0C3BA00F048FB48
:100A8000002820D04846FEF787F90546114F4FF45D
:100A9000807007EB850100EB8500D1F8102580B24E
:100AA00042F00102C1F8102500F0BAFAB8F1000FC7
:100AB00009D04846FEF770F956F82000002802D009
:100AC000AC40C7F80443BDE8F087000000270020D1
:100AD00010050050006000402DE9FC41DFF8A480C3
:100AE000044608EB0400002790F930001346C017B5
:100AF0000E46401C01D0082740E0F27819462046F7
:100B0000FEF726F90546401C37D0B07848B1A00062
:100B100000F1A040D0F8001721F00201C0F8001742
:100B200007E000217378204600910A46019100F009
:100B300033FAF078C0B11448317800EB8500D0F872
:100B40001025124B1A40C0F810254FF4F8524FF4FC
:100B5000403302EA042203EA01410A43D0F81015A7
:100B60000A43C0F8102509E008EB0500327810F8B8
:100B7000481F41EA8211017000E004273846BDE8B1
:100B8000FC8100000027002000600040FFE0FCFF27
:100B900003490968C14011F0010000D001207047ED
:100BA0001005005070B5124D95F8540008B108209A
:100BB00070BD0020411E2A18401CC0B282F83010BF
:100BC0002028F8D300242046FEF7B4F8641CE4B2D1
:100BD0000C2CF8D306210846FFF7ECFE05494FF030
:100BE0000040C1F80403012085F85400002070BDC6
:100BF0000027002000600040034890F854000028BF
:100C000000D0012070470000002700202DE9F041AE
:100C10001E4C07460D46E07E10B10820BDE8F0816D
:100C200007B91B4F787F20773846FDF71DFA6560BE
:100C3000386920602800174E4FF0000516D0397F24
:100C4000207F48B1C6F81051C6F82051C6F824518B
:100C5000C6F84451104804E0C6F81C51C6F8445187
:100C60000E48C6F804030220FFF7A4FE207F08B157
:100C7000082000E00420C6F80005E5752576A57576
:100C80000120E076A5760020C8E700005827002064
:100C9000582F0200002000401003020080000200D4
:100CA0002DE9F0411F4B1C7F3CB14FF40052B2EBD9
:100CB000104F02D01020BDE8F081D3F804C000220C
:100CC000194D4FF404764FF40177BCF1000F05D0B5
:100CD00014B1C5F8086301E0C5F8087393F817E08C
:100CE000BEF1000F10D01A7E52B1BCF1000F05D03A
:100CF00014B1C5F8046301E0C5F804731120DAE704
:100D000018610122197604E0D9750025D8605D7656
:100D10001D761CB1BDE8F04100F066B8BDE8F041B9
:100D200000F014B8582700200020004010B5064CF1
:100D3000207F002806D1A07E002803D100F018FDF6
:100D40000120A07610BD0000582700202DE9F05F9B
:100D5000234DA87E104301D100F00AFD214C6868A4
:100D600030B14FF40170C4F804030020BDE8F09FD7
:100D70004FF000094FF4A27AC4F844914FF4927BEB
:100D8000A8465946204600F05DF905464FF48471A7
:100D9000204600F057F907465146204600F052F928
:100DA000064647EA06012943EBD055EA060007D17B
:100DB00000F0B6FC98F8171098F819008142E0D8B6
:100DC00088F817900DB10320D0E70EB10F20CDE7C2
:100DD00098F81A10012009B12060C6E76060C4E7E6
:100DE00058270020002000402DE9F05F204C00260D
:100DF0004FF48873C4F810614FF4A275C4F84461CD
:100E0000C4F83405C4F838158AB1D4F8000240F0AB
:100E10002000C4F80002DFF85C80D8F8040048B174
:100E20004FF40470C4F804030020BDE8F09F0120D3
:100E30002060F0E79A46A9464FF4927B514620463F
:100E400000F00BF905464946204600F006F9074632
:100E50005946204600F001F93D430543EED088F89D
:100E6000176008B10320E0E7002FDDD00F20DCE79A
:100E700000200040582700202DE9F047204D024671
:100E8000287F38B14FF40050B0EB124F02D0102041
:100E9000BDE8F08700F078F808B11120F8E7A975EF
:100EA0000023AA60AB82287F28B3164C00264FF49B
:100EB00090709846C4F820314FF4AC73C4F8588150
:100EC000C4F84425C4F848150121A160696881B9B6
:100ED000824699465146204600F0BFF807464946EB
:100EE000204600F0BAF80743F4D000B10F2685F889
:100EF00016803046CCE7BDE8F04700F005B80000AA
:100F000058270020002000402DE9F05F1C4F0025ED
:100F10004FF48E7A2E46C7F81C514FF00108C7F8DF
:100F2000088001F0F5FB174CB815616879B123E032
:100F30005F465146484600F085F810B9A08AB8428D
:100F4000F7D1A08AB84204D001F0E2FB01E0834669
:100F5000B946A08AA17D8842EAD3A08A584501D12A
:100F60000F2508E04F465146384600F06BF8002840
:100F7000F9D0C7F80C80A6752846BDE8F09F0000A0
:100F800000200040582700200248807D002800D023
:100F9000012070475827002030B541EA4201DDE9C1
:100FA000034541EA8301800041EA042100F1A040A9
:100FB00041EA0541C0F8001730BD30B541EA4201B1
:100FC000DDE9034541EA8301800041EA042100F1A3
:100FD000A04041EA0541C0F8001730BD1CB5002211
:100FE0000B46009211460192FFF7E7FF1CBD1CB5AE
:100FF000002100910B46012201911146FFF7DDFF10
:101000001CBD800000F5E06000F1A040026822F401
:1010100040320260026842EA01410160704700000C
:10102000034908B50844002101600068009008BD2C
:101030000060004002494058012800D0002070475D
:10104000006000404058002800D001207047D0F8D0
:101050000403084000D0012070474058002800D009
:101060000120704710B550B103280CD10220FDF7C4
:101070009DFC002807D0BDE81040FCF74BBEBDE842
:10108000104000F011BC10BD0078002807D10448C2
:101090003B21408876DF002801D0FCF73BBE70473B
:1010A000802000200021425C0AB101207047491CC9
:1010B0000629F8D30020704770B50546C0EBC5017E
:1010C0000C48002600EB81042046C4F81160A4F807
:1010D00015601021FBF719FAFF202074A0764FF657
:1010E000FF702083284601F081FC02481C3840F83C
:1010F000256070BDCC2500200449084490F93000DB
:10110000082801DB012070470020704700270020DD
:101110000449084490F93000082801D201207047A2
:10112000002070470027002006490979490701D4AB
:101130000820704720B104494978016000207047B9
:101140000E207047502100207827002070B5124BE8
:101150001B795B0701D4082070BDB8B1B2B1036838
:10116000022B11D20D4C03EB430554F825605EB100
:10117000466804EB850004894568408901FB0461E9
:1011800000FB0450884203D8072070BD0E2070BDBC
:10119000C2E90031002070BD502100204428002009
:1011A000F8B5044623480E460079400701D40820CC
:1011B000F8BD24B32068022831D21F4D00EB400057
:1011C00055F8201059B305EB800042894168008929
:1011D00002FB00116068814221D9FFF79FF980B1BD
:1011E000D4E9000200EB400005EB80004368018970
:1011F000D51AB5FBF1F701FB175585B903E00E20B1
:10120000F8BD1020F8BDB6FBF1F501FB156535B949
:101210002EB14089414390191944884201D90720D1
:10122000F8BD002002460090334621460320FDF71A
:101230009BFEF8BD502100204428002010B54FF03F
:1012400010204469601C04D000F007F8B4FBF0F0F3
:1012500010BD4FF08050406910BD4FF080500069C4
:1012600080B2704770B5154800242546047044705C
:101270002846FDF769FE6D1C0A2DF9D3104D6C80D0
:10128000FFF7DCFFC61EFFF7E8FF46430B490020CF
:10129000AE60CC31C5F8144000EB4002401C41F870
:1012A000224001EB8202022814815481F4D32C7075
:1012B000AC610420EC616860002070BD78270020DC
:1012C000502100202DE9F843804626481F46164647
:1012D00000790C46400702D40820BDE8F883ECB141
:1012E000B8F1000F1AD02068022815D21E4D00EB6D
:1012F000400055F8201079B105EB80004289416823
:10130000008902FB00116268914205D926B1B04202
:1013100002D3F119814203D90720DEE70E20DCE772
:101320004046FFF7FBF8D0B13846FFF7F7F8B0B109
:101330006068FFF7F3F890B160683246C119404623
:10134000FBF7BCF800962068002200EB4000434603
:1013500055F8205002212046A8470020BDE7102064
:10136000BBE7000050210020442800202DE9F04177
:10137000294D04460E462879400702D40820BDE8CE
:10138000F081ECB1E6B12068D0B1FFF766FF01460D
:10139000A088814212D3102810D3E08870B1FFF7E3
:1013A0004DFF471EFFF759FF4743E288A188A86811
:1013B00002FB0102974201D3890703D00720DEE731
:1013C0000E20DCE76988022924D0C6E90010134A00
:1013D00001EB410302EB83014860206842F82300DF
:1013E000A0880881E0884881FFF737FFA188E2885C
:1013F000401E01FB0204FFF730FF94FBF0F4FFF7FF
:101400002CFFA96804FB0010A8606888401C688055
:101410000020B4E70420B2E7502100204428002037
:10142000F8B504461E481E46154600790F4640078B
:1014300001D40820F8BDDFB1D4B12068022815D24C
:10144000184900EB400051F820207AB101EB8000F0
:1014500042894168008902FB00116268914205D906
:1014600025B1A84202D3A919814203D90720F8BDAA
:101470000E20F8BD3846FFF751F878B13046FFF737
:101480004DF858B16068FFF749F838B12B463A4635
:10149000214601200096FDF767FDF8BD1020F8BD3C
:1014A00050210020442800201049024608780028D6
:1014B0001AD0042818D0022A14D0032A14D10A7989
:1014C00012070FD48A69521C8A61B2F57A7F06D05E
:1014D000022801D000F0FCB9487800F08DBB0D2047
:1014E000FCF768BCFEF768BD704700005021002083
:1014F000F8B504461E481E46154600790F464007BB
:1015000001D40820F8BDDFB1D4B12068022815D27B
:10151000184900EB400051F820207AB101EB80001F
:1015200042894168008902FB00116268914205D935
:1015300025B1A84202D3A919814203D90720F8BDD9
:101540000E20F8BD3846FEF7E9FF78B13046FEF7C9
:10155000E5FF58B16068FEF7E1FF38B12B463A4627
:10156000214604200096FDF7FFFCF8BD1020F8BDD1
:10157000502100204428002010B5294C606930F02B
:10158000FC0108D140B2042805DC10F1280F02DB71
:10159000207A032801D9042010BD00F075F82149F4
:1015A00060690860091D207A08601E4818300168CB
:1015B00021F0FF0101600268A16A42EA1162026043
:1015C00008021849103108601649012024310860CA
:1015D0000020091F0860E079617940EA0120114983
:1015E000283108602079E178000440EA0120A178E0
:1015F00008430C490831086094F8240094F820103E
:10160000400640EA0160A18B40EA0140A17940EA2E
:101610000120044940F025000C310860002010BD75
:10162000F82000200C150040124910B500220A6075
:101630001149124CCB6A2360241D0B6B2360CB6BCA
:10164000022404EB43030D4C303C2360241F0C4B5D
:1016500023600C4BC3F800210324C3F8004220B1DF
:10166000C3F80C210120586010BD486903492C398A
:10167000086010BD50160040F820002038150040CA
:1016800088250020001000400B49032008600B490A
:101690000020C1F80002C1F810010122C1F8102099
:1016A000D1F81021002AFBD0C1F810014860086071
:1016B000034988817047000008F501400010004090
:1016C000F820002005480021C0F80011D0F80011D2
:1016D0000029FBD0024800687047000000D000409D
:1016E00008D5004070B5012670044FF0E0210025B8
:1016F000C1F88001084C4010C4F84803C4F808033E
:1017000066602F20FAF786FEA660044C2F20256124
:10171000FAF780FEE57070BD0010014094210020B2
:1017200009480A490022C37DC1F8082143B1D1F814
:101730001815437EC268D154417E491C41767047DA
:10174000D1F81805704700005827002000200040FD
:101750001FB501228DF8080004488DF80020019182
:10176000D0E90012684690471FBD000058270020AE
:1017700004480021C0F82411C0F8081101210160BB
:10178000704700000020004008B502490020009189
:1017900008BD00008020002010B50121202803DAB8
:1017A0001D4A8140114004E0402803DAA0F12002E4
:1017B000914041B1002809DA00F00F0101F1E02168
:1017C00091F8141D06E042F2010010BD00F1E02185
:1017D00091F800144909082914D299B1012911D0AE
:1017E00004290FD005290DD00C4A946800F01F037E
:1017F00001219940400944B152F820300B4342F88E
:10180000203007E042F2020010BD800000F1E0202D
:10181000C0F80011002010BDFC06FFBCF428002019
:101820002DE9F0410746806A14468846C8B3002572
:1018300031E000BFB96A05EB450001EB8006B088D6
:10184000801CFE2802D90C20BDE8F0812288401CB3
:1018500008F8020020881622401C80B2208008F878
:1018600000202088401C80B2208000EB08013088D6
:1018700001F0B6F82188084480B22080B28842B1D5
:10188000B16871B14044FAF719FE2088B188084464
:1018900020806D1CEDB297F82C00A842CAD8002019
:1018A000D2E7FFE70720CFE710B50020FDF77EF86D
:1018B00008B1FCF72FFAFCF7E5FF08B1FCF72AFAAC
:1018C0003CDF002803D0BDE81040FCF723BA10BD70
:1018D0000C49087040B101280FD002280FD003280E
:1018E0000FD14869FEF7AEBB00208861C861064889
:1018F0004078002805D0FDF70DBB00F039B900F0A5
:1019000095B87047502100207827002018B103496E
:10191000C860002070470E2070470000B4210020EE
:101920001CB5034901910091694660DF1CBD0000B0
:101930008020002070B50E4605461446142110463E
:10194000FAF7E3FD01202080002121612173267236
:10195000657205B1A072002070BDFCF7C9B9000026
:1019600030B409B18C0702D0072030BC7047074C57
:101970000125A16062800649636010DF0028F4D170
:10198000257030BC1620FFF707BF0000B4210020EF
:101990005B19020018B103490861002070470E204E
:1019A00070470000B42100201C4C88B0207808B19A
:1019B000FBF718FA012525702802FEF73FFFA0610A
:1019C0005020FEF73BFF60614020FEF737FFA0602C
:1019D0004020FEF733FF1249E0600D6000228904C9
:1019E000C1F80021C1F80050D1F80021002AFBD035
:1019F0000C490DF1100C01F11C022CCA8CE82C00D2
:101A0000CA6A496B01920391A16800910290022376
:101A1000054A694604A8FCF7BBFAFEE788200020C7
:101A200000D00040A82E0200C52402002DE9F0419C
:101A3000164C606820F0010060601548017801EBE9
:101A4000810100EB81063569FFF707FCB5FBF0F774
:101A50006761FFF702FCF1886D1E2944B1FBF0F0CD
:101A60008742606802D140F0020001E020F00200ED
:101A700060602079E16800F00200084304D0002093
:101A8000BDE8F04100F0B8B80220F9E7502100208D
:101A90007827002001484069FEF7D4BA5021002081
:101AA00010B5FFF7CBFB441EFFF7D7FB4443FFF70E
:101AB000D4FB05494A69521E5043CA682146BDE815
:101AC0001040FEF7E3BA0000502100202DE9F0415C
:101AD0001048017801EB810100EB81042569FFF7D3
:101AE000BCFBE188228911442944B1FBF0F200FBE0
:101AF0001216FFF7A3FB471EFFF7AFFB07FB0061C2
:101B0000E08822891044044A28441269BDE8F04163
:101B1000FEF7BCBA782700205021002010B5FFF74F
:101B20008DFB441EFFF799FB4443FFF796FBB4FB84
:101B3000F0F0BDE81040FEF785BA000070B5FFF781
:101B40008CFB8608FFF789FB0749496900FB01F414
:101B5000FFF774FB451EFFF780FB684332462146C2
:101B6000BDE87040FEF792BA502100200020704777
:101B700070B51448017801EB810100EB8104241D4C
:101B8000FFF76BFB6188104E884211D2FFF765FBAF
:101B900061880D1AFFF761FB8208A188E06808449C
:101BA000216928442944FEF771FAFFF756FB07E044
:101BB000A288E06810448A082169FEF767FA608805
:101BC000F06170BD78270020502100200448007982
:101BD000000702D4012000F00FB800F003B80000A5
:101BE000502100200348416821F0080141604078FD
:101BF00000F002B85021002002494870024951F813
:101C00002000004750210020782F020010B5044624
:101C1000FFF74AFC2046BDE81040FCF763BB00001C
:101C200003480079000701D4FDF764B9FFF7DABF74
:101C30005021002030B5A7B005468022674968468C
:101C4000FAF73CFC142266A120A8FAF737FC69A138
:101C5000D1E90001CDE925012846FAF761FC674C7E
:101C60000D2802D128783D2806D02846FAF758FCDE
:101C700068B1072162A066E025A9681CFDF714F889
:101C8000022225A92046FCF729FD27B030BD217886
:101C9000002320A8FF290ED16278FF2A0BD1A27859
:101CA000FF2A08D1E278FF2A05D12279FF2A02D142
:101CB0006279FF2A4AD000EB111201F00F0112786D
:101CC0008DF80220415C8DF80310617800EB111251
:101CD00001F00F0112788DF80420415C8DF8051099
:101CE000A17800EB111201F00F0112788DF8062097
:101CF000415C8DF80710E17800EB111201F00F0143
:101D000012788DF80820415C8DF80910217900EBDC
:101D1000111201F00F0112788DF80A20415C8DF844
:101D20000B10617900EB111201F00F0112788DF8A0
:101D30000C20405C8DF80D008DF80E306846FAF7E7
:101D4000EFFB0146684600F0FFFB9EE74FF0805135
:101D500051F8A82F0C24C2F3072244EA121402F00F
:101D60000F02045D8DF80240825C8DF8032051F86B
:101D70000429D2B200EB121402F00F0224788DF87D
:101D80000440825C8DF805200A68120E00EB1214E4
:101D900002F00F0224788DF80640825C8DF807204F
:101DA0000A68C2F3074200EB121402F00F02247813
