:020000040001F9
:10C00000D03300208DC4010095C4010097C4010005
:10C0100099C401009BC401009DC401000000000000
:10C020000000000000000000000000009FC40100AC
:10C03000A1C4010000000000A3C40100A5C40100C8
:10C04000A7C40100A7C40100A7C40100A7C4010040
:10C05000A7C40100A7C40100A7C40100A7C4010030
:10C06000A7C40100A7C40100A7C40100A7C4010020
:10C07000A7C40100A7C40100A7C40100A7C4010010
:10C08000A7C40100A7C40100A7C40100A7C4010000
:10C09000A7C40100A7C40100A7C40100A7C40100F0
:10C0A000A7C40100A7C40100A7C40100A7C40100E0
:10C0B000A7C40100A7C401000000000000000000A8
:10C0C000A7C40100A7C40100A7C40100A7C40100C0
:10C0D000A7C40100A7C40100A7C40100000000001C
:10C0E0000000000000000000000000000000000050
:10C0F0000000000000000000000000000000000040
:10C10000000000000000000000000000000000002F
:10C11000000000000000000000000000000000001F
:10C40000DFF80CD000F054F80048004761C7010085
:10C41000D0330020401E00BF00BF00BF00BF00BFE0
:10C4200000BF00BF00BF00BF00BF00BF00BF00BF14
:10C4300000BF00BF00BF00BF00BF00BF00BF00BF04
:10C4400000BF00BF00BF00BF00BF00BF00BF00BFF4
:10C4500000BF00BF00BF00BF00BF00BF00BF00BFE4
:10C4600000BF00BF00BF00BF00BF00BF00BF00BFD4
:10C4700000BF00BF00BF00BF00BF00BF00BF00BFC4
:10C4800000BF00BF00BFC5D170470000064880470D
:10C4900006480047FEE7FEE7FEE7FEE7FEE7FEE7A9
:10C4A000FEE7FEE7FEE7FEE7D5C4010001C4010098
:10C4B000064C074D06E0E06840F0010394E80700F1
:10C4C00098471034AC42F6D3FFF79EFFE0C7010057
:10C4D00000C8010070B58D480023021D0178101DB1
:10C4E0000124062907D115782D0704D10578C5F355
:10C4F0000315032D02D0062904D00FE0854E844D8C
:10C5000075670EE015782D0708D10578C5F303157A
:10C51000032D06D0042D04D0052D02D0062909D004
:10C5200010E04FF08055D5F844527B4EC5F34235AC
:10C53000356002E015782D0704D10578C5F30315A1
:10C54000032D02D0062906D011E0744D2E6826F086
:10C5500080762E600EE015782D0708D10578C5F39A
:10C560000315032D06D0042D04D0052D02D0062975
:10C570000AD011E04FF08045C5F80C31C5F81031F4
:10C58000654D2D1F2B6002E015782D0704D105782D
:10C59000C5F30315032D02D0062905D00CE05E4A31
:10C5A0000321643211600AE015782D0704D1057863
:10C5B000C5F30315032D02D006290DD06AE0584AB1
:10C5C00005211160564978310C60554908310B60DE
:10C5D0003F21121D116002E0117809075AD100783D
:10C5E000C0F30310052855D14E4800684E49086035
:10C5F0004C48001D0068091D08604A480830006862
:10C60000091D086047480C300068091D086045484E
:10C6100010300068091D0860424814300068091D88
:10C6200008604048183000683F49203108603D48A4
:10C630001C300068091D08603A4820300068091D58
:10C640000860384824300068091D086035482830E3
:10C650000068091D086033482C300068091D086017
:10C660003048303000683049403108602D4834305F
:10C670000068091D08602B4838300068091D0860F3
:10C6800028483C300068091D086026484030006892
:10C69000091D086021487438016841F47001016087
:10C6A000BFF34F8FBFF36F8F4FF01021D1F800020F
:10C6B000002803DBD1F80402002822DA1B4A1460A8
:10C6C0001B480468002CFCD01524C1F80042056802
:10C6D000002DFCD0C1F8044201680029FCD0136091
:10C6E00001680029FCD0BFF34F8F0C48F038016877
:10C6F000104A01F4E06111430160BFF34F8F00BFA6
:10C70000FDE70E490C48086070BD0000E00F00F026
:10C710000DF0ADBA00C007403C050040FCED00E064
:10C72000105600400404001020C5004004E50140FC
:10C7300000E401400400FA050090D003C813002073
:10C7400002E008C8121F08C1002AFAD170477047DA
:10C75000002001E001C1121F002AFBD17047000038
:10C76000002003215FF0010505FA00F212F4F01F2A
:10C7700004D0820002F1A042C2F80017401C202819
:10C78000F2D30D4F0D4E07F1040808F104094FF4E0
:10C79000FA7A00243A68315D05FA01F020EA0201D4
:10C7A000C8F800101040C9F80000504600F008F822
:10C7B000641C042CEEDBECE704050050DAC7010032
:10C7C00031B540F2E73404E0401E00902046FFF708
:10C7D00021FE00980028F7D138BD11121314000073
:10C7E00000C80100C81300200400000040C7010079
:10C7F00004C80100CC1300200420000050C7010031
:04C800000090D003D1
:040000050001C40131
:00000001FF
